{
  "_format": "hh-sol-artifact-1",
  "contractName": "PatronTokens",
  "sourceName": "contracts/PatronTokens.sol",
  "abi": [
    {
      "inputs": [
        {
          "internalType": "address",
          "name": "dtAddr",
          "type": "address"
        }
      ],
      "stateMutability": "nonpayable",
      "type": "constructor"
    },
    {
      "anonymous": false,
      "inputs": [
        {
          "indexed": true,
          "internalType": "address",
          "name": "owner",
          "type": "address"
        },
        {
          "indexed": true,
          "internalType": "address",
          "name": "approved",
          "type": "address"
        },
        {
          "indexed": true,
          "internalType": "uint256",
          "name": "tokenId",
          "type": "uint256"
        }
      ],
      "name": "Approval",
      "type": "event"
    },
    {
      "anonymous": false,
      "inputs": [
        {
          "indexed": true,
          "internalType": "address",
          "name": "owner",
          "type": "address"
        },
        {
          "indexed": true,
          "internalType": "address",
          "name": "operator",
          "type": "address"
        },
        {
          "indexed": false,
          "internalType": "bool",
          "name": "approved",
          "type": "bool"
        }
      ],
      "name": "ApprovalForAll",
      "type": "event"
    },
    {
      "anonymous": false,
      "inputs": [
        {
          "indexed": true,
          "internalType": "address",
          "name": "from",
          "type": "address"
        },
        {
          "indexed": true,
          "internalType": "address",
          "name": "to",
          "type": "address"
        },
        {
          "indexed": true,
          "internalType": "uint256",
          "name": "tokenId",
          "type": "uint256"
        }
      ],
      "name": "Transfer",
      "type": "event"
    },
    {
      "inputs": [],
      "name": "_dt",
      "outputs": [
        {
          "internalType": "address",
          "name": "",
          "type": "address"
        }
      ],
      "stateMutability": "view",
      "type": "function"
    },
    {
      "inputs": [
        {
          "internalType": "address",
          "name": "to",
          "type": "address"
        },
        {
          "internalType": "uint256",
          "name": "tokenId",
          "type": "uint256"
        }
      ],
      "name": "approve",
      "outputs": [],
      "stateMutability": "nonpayable",
      "type": "function"
    },
    {
      "inputs": [
        {
          "internalType": "address",
          "name": "owner",
          "type": "address"
        }
      ],
      "name": "balanceOf",
      "outputs": [
        {
          "internalType": "uint256",
          "name": "",
          "type": "uint256"
        }
      ],
      "stateMutability": "view",
      "type": "function"
    },
    {
      "inputs": [
        {
          "internalType": "uint256",
          "name": "tokenId",
          "type": "uint256"
        }
      ],
      "name": "getApproved",
      "outputs": [
        {
          "internalType": "address",
          "name": "",
          "type": "address"
        }
      ],
      "stateMutability": "view",
      "type": "function"
    },
    {
      "inputs": [
        {
          "internalType": "address",
          "name": "owner",
          "type": "address"
        },
        {
          "internalType": "address",
          "name": "operator",
          "type": "address"
        }
      ],
      "name": "isApprovedForAll",
      "outputs": [
        {
          "internalType": "bool",
          "name": "",
          "type": "bool"
        }
      ],
      "stateMutability": "view",
      "type": "function"
    },
    {
      "inputs": [],
      "name": "name",
      "outputs": [
        {
          "internalType": "string",
          "name": "",
          "type": "string"
        }
      ],
      "stateMutability": "view",
      "type": "function"
    },
    {
      "inputs": [
        {
          "internalType": "uint256",
          "name": "tokenId",
          "type": "uint256"
        }
      ],
      "name": "ownerOf",
      "outputs": [
        {
          "internalType": "address",
          "name": "",
          "type": "address"
        }
      ],
      "stateMutability": "view",
      "type": "function"
    },
    {
      "inputs": [
        {
          "internalType": "address",
          "name": "collection",
          "type": "address"
        }
      ],
      "name": "patronOf",
      "outputs": [
        {
          "internalType": "address",
          "name": "",
          "type": "address"
        }
      ],
      "stateMutability": "view",
      "type": "function"
    },
    {
      "inputs": [
        {
          "internalType": "address",
          "name": "collection",
          "type": "address"
        }
      ],
      "name": "patronTokenIdForCollection",
      "outputs": [
        {
          "internalType": "uint256",
          "name": "",
          "type": "uint256"
        }
      ],
      "stateMutability": "view",
      "type": "function"
    },
    {
      "inputs": [
        {
          "internalType": "address",
          "name": "collection",
          "type": "address"
        },
        {
          "internalType": "uint256",
          "name": "tokenId",
          "type": "uint256"
        },
        {
          "internalType": "address",
          "name": "receiverOfNft",
          "type": "address"
        }
      ],
      "name": "registerToken",
      "outputs": [],
      "stateMutability": "nonpayable",
      "type": "function"
    },
    {
      "inputs": [],
      "name": "registeredTokens",
      "outputs": [
        {
          "components": [
            {
              "internalType": "address",
              "name": "collection",
              "type": "address"
            },
            {
              "internalType": "uint256",
              "name": "id",
              "type": "uint256"
            }
          ],
          "internalType": "struct Token[]",
          "name": "",
          "type": "tuple[]"
        }
      ],
      "stateMutability": "view",
      "type": "function"
    },
    {
      "inputs": [
        {
          "internalType": "address",
          "name": "from",
          "type": "address"
        },
        {
          "internalType": "address",
          "name": "to",
          "type": "address"
        },
        {
          "internalType": "uint256",
          "name": "tokenId",
          "type": "uint256"
        }
      ],
      "name": "safeTransferFrom",
      "outputs": [],
      "stateMutability": "nonpayable",
      "type": "function"
    },
    {
      "inputs": [
        {
          "internalType": "address",
          "name": "from",
          "type": "address"
        },
        {
          "internalType": "address",
          "name": "to",
          "type": "address"
        },
        {
          "internalType": "uint256",
          "name": "tokenId",
          "type": "uint256"
        },
        {
          "internalType": "bytes",
          "name": "_data",
          "type": "bytes"
        }
      ],
      "name": "safeTransferFrom",
      "outputs": [],
      "stateMutability": "nonpayable",
      "type": "function"
    },
    {
      "inputs": [
        {
          "internalType": "address",
          "name": "operator",
          "type": "address"
        },
        {
          "internalType": "bool",
          "name": "approved",
          "type": "bool"
        }
      ],
      "name": "setApprovalForAll",
      "outputs": [],
      "stateMutability": "nonpayable",
      "type": "function"
    },
    {
      "inputs": [
        {
          "internalType": "bytes4",
          "name": "interfaceId",
          "type": "bytes4"
        }
      ],
      "name": "supportsInterface",
      "outputs": [
        {
          "internalType": "bool",
          "name": "",
          "type": "bool"
        }
      ],
      "stateMutability": "view",
      "type": "function"
    },
    {
      "inputs": [],
      "name": "symbol",
      "outputs": [
        {
          "internalType": "string",
          "name": "",
          "type": "string"
        }
      ],
      "stateMutability": "view",
      "type": "function"
    },
    {
      "inputs": [
        {
          "internalType": "uint256",
          "name": "tokenId",
          "type": "uint256"
        }
      ],
      "name": "tokenURI",
      "outputs": [
        {
          "internalType": "string",
          "name": "",
          "type": "string"
        }
      ],
      "stateMutability": "view",
      "type": "function"
    },
    {
      "inputs": [],
      "name": "totalSupply",
      "outputs": [
        {
          "internalType": "uint256",
          "name": "",
          "type": "uint256"
        }
      ],
      "stateMutability": "view",
      "type": "function"
    },
    {
      "inputs": [
        {
          "internalType": "address",
          "name": "from",
          "type": "address"
        },
        {
          "internalType": "address",
          "name": "to",
          "type": "address"
        },
        {
          "internalType": "uint256",
          "name": "tokenId",
          "type": "uint256"
        }
      ],
      "name": "transferFrom",
      "outputs": [],
      "stateMutability": "nonpayable",
      "type": "function"
    }
  ],
  "bytecode": "0x60806040523480156200001157600080fd5b50604051620045eb380380620045eb8339818101604052810190620000379190620001e6565b6040518060400160405280600d81526020017f506174726f6e20546f6b656e73000000000000000000000000000000000000008152506040518060400160405280600481526020017f5054524e000000000000000000000000000000000000000000000000000000008152508160009080519060200190620000bb9291906200011f565b508060019080519060200190620000d49291906200011f565b50505080600b60006101000a81548173ffffffffffffffffffffffffffffffffffffffff021916908373ffffffffffffffffffffffffffffffffffffffff16021790555050620002d0565b8280546200012d906200024c565b90600052602060002090601f0160209004810192826200015157600085556200019d565b82601f106200016c57805160ff19168380011785556200019d565b828001600101855582156200019d579182015b828111156200019c5782518255916020019190600101906200017f565b5b509050620001ac9190620001b0565b5090565b5b80821115620001cb576000816000905550600101620001b1565b5090565b600081519050620001e081620002b6565b92915050565b600060208284031215620001ff57620001fe620002b1565b5b60006200020f84828501620001cf565b91505092915050565b600062000225826200022c565b9050919050565b600073ffffffffffffffffffffffffffffffffffffffff82169050919050565b600060028204905060018216806200026557607f821691505b602082108114156200027c576200027b62000282565b5b50919050565b7f4e487b7100000000000000000000000000000000000000000000000000000000600052602260045260246000fd5b600080fd5b620002c18162000218565b8114620002cd57600080fd5b50565b61430b80620002e06000396000f3fe608060405234801561001057600080fd5b50600436106101215760003560e01c806345466616116100ad578063b88d4fde11610071578063b88d4fde1461031c578063c87b56dd14610338578063dec0758814610368578063e08e340014610384578063e985e9c5146103b457610121565b806345466616146102645780636352211e1461028257806370a08231146102b257806395d89b41146102e2578063a22cb4651461030057610121565b80630e2ccc78116100f45780630e2ccc78146101c057806318160ddd146101f057806323b872dd1461020e57806337c6f4b71461022a57806342842e0e1461024857610121565b806301ffc9a71461012657806306fdde0314610156578063081812fc14610174578063095ea7b3146101a4575b600080fd5b610140600480360381019061013b91906129c9565b6103e4565b60405161014d9190613106565b60405180910390f35b61015e610426565b60405161016b9190613121565b60405180910390f35b61018e60048036038101906101899190612a6c565b6104b8565b60405161019b919061307d565b60405180910390f35b6101be60048036038101906101b99190612936565b61053d565b005b6101da60048036038101906101d591906127b3565b610655565b6040516101e7919061307d565b60405180910390f35b6101f861066f565b6040516102059190613343565b60405180910390f35b61022860048036038101906102239190612820565b61067c565b005b6102326106dc565b60405161023f919061307d565b60405180910390f35b610262600480360381019061025d9190612820565b610702565b005b61026c610722565b60405161027991906130e4565b60405180910390f35b61029c60048036038101906102979190612a6c565b6107e1565b6040516102a9919061307d565b60405180910390f35b6102cc60048036038101906102c791906127b3565b610893565b6040516102d99190613343565b60405180910390f35b6102ea61094b565b6040516102f79190613121565b60405180910390f35b61031a600480360381019061031591906128f6565b6109dd565b005b61033660048036038101906103319190612873565b610b5e565b005b610352600480360381019061034d9190612a6c565b610bc0565b60405161035f9190613121565b60405180910390f35b610382600480360381019061037d9190612976565b611272565b005b61039e600480360381019061039991906127b3565b6115a4565b6040516103ab9190613343565b60405180910390f35b6103ce60048036038101906103c991906127e0565b611688565b6040516103db9190613106565b60405180910390f35b600063beefdead60e01b827bffffffffffffffffffffffffffffffffffffffffffffffffffffffff1916148061041f575061041e8261171c565b5b9050919050565b60606000805461043590613881565b80601f016020809104026020016040519081016040528092919081815260200182805461046190613881565b80156104ae5780601f10610483576101008083540402835291602001916104ae565b820191906000526020600020905b81548152906001019060200180831161049157829003601f168201915b5050505050905090565b60006104c3826117fe565b610502576040517f08c379a00000000000000000000000000000000000000000000000000000000081526004016104f9906132c3565b60405180910390fd5b6004600083815260200190815260200160002060009054906101000a900473ffffffffffffffffffffffffffffffffffffffff169050919050565b6000610548826107e1565b90508073ffffffffffffffffffffffffffffffffffffffff168373ffffffffffffffffffffffffffffffffffffffff1614156105b9576040517f08c379a00000000000000000000000000000000000000000000000000000000081526004016105b090613303565b60405180910390fd5b8073ffffffffffffffffffffffffffffffffffffffff166105d861186a565b73ffffffffffffffffffffffffffffffffffffffff16148061060757506106068161060161186a565b611688565b5b610646576040517f08c379a000000000000000000000000000000000000000000000000000000000815260040161063d90613243565b60405180910390fd5b6106508383611872565b505050565b6000610668610663836115a4565b6107e1565b9050919050565b6000600980549050905090565b61068d61068761186a565b8261192b565b6106cc576040517f08c379a00000000000000000000000000000000000000000000000000000000081526004016106c390613323565b60405180910390fd5b6106d7838383611a09565b505050565b600b60009054906101000a900473ffffffffffffffffffffffffffffffffffffffff1681565b61071d83838360405180602001604052806000815250610b5e565b505050565b60606007805480602002602001604051908101604052809291908181526020016000905b828210156107d857838290600052602060002090600202016040518060400160405290816000820160009054906101000a900473ffffffffffffffffffffffffffffffffffffffff1673ffffffffffffffffffffffffffffffffffffffff1673ffffffffffffffffffffffffffffffffffffffff16815260200160018201548152505081526020019060010190610746565b50505050905090565b6000806002600084815260200190815260200160002060009054906101000a900473ffffffffffffffffffffffffffffffffffffffff169050600073ffffffffffffffffffffffffffffffffffffffff168173ffffffffffffffffffffffffffffffffffffffff16141561088a576040517f08c379a000000000000000000000000000000000000000000000000000000000815260040161088190613283565b60405180910390fd5b80915050919050565b60008073ffffffffffffffffffffffffffffffffffffffff168273ffffffffffffffffffffffffffffffffffffffff161415610904576040517f08c379a00000000000000000000000000000000000000000000000000000000081526004016108fb90613263565b60405180910390fd5b600360008373ffffffffffffffffffffffffffffffffffffffff1673ffffffffffffffffffffffffffffffffffffffff168152602001908152602001600020549050919050565b60606001805461095a90613881565b80601f016020809104026020016040519081016040528092919081815260200182805461098690613881565b80156109d35780601f106109a8576101008083540402835291602001916109d3565b820191906000526020600020905b8154815290600101906020018083116109b657829003601f168201915b5050505050905090565b6109e561186a565b73ffffffffffffffffffffffffffffffffffffffff168273ffffffffffffffffffffffffffffffffffffffff161415610a53576040517f08c379a0000000000000000000000000000000000000000000000000000000008152600401610a4a90613203565b60405180910390fd5b8060056000610a6061186a565b73ffffffffffffffffffffffffffffffffffffffff1673ffffffffffffffffffffffffffffffffffffffff16815260200190815260200160002060008473ffffffffffffffffffffffffffffffffffffffff1673ffffffffffffffffffffffffffffffffffffffff16815260200190815260200160002060006101000a81548160ff0219169083151502179055508173ffffffffffffffffffffffffffffffffffffffff16610b0d61186a565b73ffffffffffffffffffffffffffffffffffffffff167f17307eab39ab6107e8899845ad3d59bd9653f200f220920489ca2b5937696c3183604051610b529190613106565b60405180910390a35050565b610b6f610b6961186a565b8361192b565b610bae576040517f08c379a0000000000000000000000000000000000000000000000000000000008152600401610ba590613323565b60405180910390fd5b610bba84848484611c65565b50505050565b60606009805490508210610c09576040517f08c379a0000000000000000000000000000000000000000000000000000000008152600401610c0090613183565b60405180910390fd5b6000610c5260098481548110610c2257610c216139eb565b5b9060005260206000200160009054906101000a900473ffffffffffffffffffffffffffffffffffffffff16611cc1565b90506000610c5f84611ea3565b9050610c69612642565b600060405180610120016040528060fd815260200161419760fd9139828280610c91906138e4565b935060148110610ca457610ca36139eb565b5b602002018190525082604051602001610cbd9190612fba565b604051602081830303815290604052828280610cd8906138e4565b935060148110610ceb57610cea6139eb565b5b60200201819052506040518060400160405280600781526020017f3c2f746578743e00000000000000000000000000000000000000000000000000815250828280610d35906138e4565b935060148110610d4857610d476139eb565b5b602002018190525060098681548110610d6457610d636139eb565b5b9060005260206000200160009054906101000a900473ffffffffffffffffffffffffffffffffffffffff1673ffffffffffffffffffffffffffffffffffffffff166306fdde036040518163ffffffff1660e01b815260040160006040518083038186803b158015610dd457600080fd5b505afa925050508015610e0a57506040513d6000823e3d601f19601f82011682018060405250810190610e079190612a23565b60015b610e46573d8060008114610e3a576040519150601f19603f3d011682016040523d82523d6000602084013e610e3f565b606091505b5050610f0d565b60405180606001604052806021815260200161429460219139838380610e6b906138e4565b945060148110610e7e57610e7d6139eb565b5b602002018190525080838380610e93906138e4565b945060148110610ea657610ea56139eb565b5b60200201819052506040518060400160405280600781526020017f3c2f746578743e00000000000000000000000000000000000000000000000000815250838380610ef0906138e4565b945060148110610f0357610f026139eb565b5b6020020181905250505b60098681548110610f2157610f206139eb565b5b9060005260206000200160009054906101000a900473ffffffffffffffffffffffffffffffffffffffff1673ffffffffffffffffffffffffffffffffffffffff166395d89b416040518163ffffffff1660e01b815260040160006040518083038186803b158015610f9157600080fd5b505afa925050508015610fc757506040513d6000823e3d601f19601f82011682018060405250810190610fc49190612a23565b60015b611003573d8060008114610ff7576040519150601f19603f3d011682016040523d82523d6000602084013e610ffc565b606091505b50506110ca565b6040518060600160405280602181526020016142b560219139838380611028906138e4565b94506014811061103b5761103a6139eb565b5b602002018190525080838380611050906138e4565b945060148110611063576110626139eb565b5b60200201819052506040518060400160405280600781526020017f3c2f746578743e000000000000000000000000000000000000000000000000008152508383806110ad906138e4565b9450601481106110c0576110bf6139eb565b5b6020020181905250505b604051806060016040528060218152602001614136602191398282806110ef906138e4565b935060148110611102576111016139eb565b5b60200201819052508360405160200161111b9190612fdc565b604051602081830303815290604052828280611136906138e4565b935060148110611149576111486139eb565b5b60200201819052506040518060400160405280600d81526020017f3c2f746578743e3c2f7376673e00000000000000000000000000000000000000815250828280611193906138e4565b9350601481106111a6576111a56139eb565b5b6020020181905250606060005b8281101561120957818482601481106111cf576111ce6139eb565b5b60200201516040516020016111e5929190612f74565b60405160208183030381529060405291508080611201906138e4565b9150506111b3565b506000611240858761121a85612004565b60405160200161122c93929190613020565b604051602081830303815290604052612004565b9050806040516020016112539190612ffe565b6040516020818303038152906040529150819650505050505050919050565b600b60009054906101000a900473ffffffffffffffffffffffffffffffffffffffff1673ffffffffffffffffffffffffffffffffffffffff163373ffffffffffffffffffffffffffffffffffffffff1614611302576040517f08c379a00000000000000000000000000000000000000000000000000000000081526004016112f9906131c3565b60405180910390fd5b600860008473ffffffffffffffffffffffffffffffffffffffff1673ffffffffffffffffffffffffffffffffffffffff168152602001908152602001600020600083815260200190815260200160002060009054906101000a900460ff1661159f576001600860008573ffffffffffffffffffffffffffffffffffffffff1673ffffffffffffffffffffffffffffffffffffffff168152602001908152602001600020600084815260200190815260200160002060006101000a81548160ff021916908315150217905550600760405180604001604052808573ffffffffffffffffffffffffffffffffffffffff16815260200184815250908060018154018082558091505060019003906000526020600020906002020160009091909190915060008201518160000160006101000a81548173ffffffffffffffffffffffffffffffffffffffff021916908373ffffffffffffffffffffffffffffffffffffffff160217905550602082015181600101555050600a60008473ffffffffffffffffffffffffffffffffffffffff1673ffffffffffffffffffffffffffffffffffffffff16815260200190815260200160002060009054906101000a900460ff1661159e576001600a60008573ffffffffffffffffffffffffffffffffffffffff1673ffffffffffffffffffffffffffffffffffffffff16815260200190815260200160002060006101000a81548160ff0219169083151502179055506009839080600181540180825580915050600190039060005260206000200160009091909190916101000a81548173ffffffffffffffffffffffffffffffffffffffff021916908373ffffffffffffffffffffffffffffffffffffffff16021790555061159d8160016009805490506115989190613756565b61219c565b5b5b505050565b600080600090505b60098054905081101561164757600981815481106115cd576115cc6139eb565b5b9060005260206000200160009054906101000a900473ffffffffffffffffffffffffffffffffffffffff1673ffffffffffffffffffffffffffffffffffffffff168373ffffffffffffffffffffffffffffffffffffffff1614156116345780915050611683565b808061163f906138e4565b9150506115ac565b506040517f08c379a000000000000000000000000000000000000000000000000000000000815260040161167a90613143565b60405180910390fd5b919050565b6000600560008473ffffffffffffffffffffffffffffffffffffffff1673ffffffffffffffffffffffffffffffffffffffff16815260200190815260200160002060008373ffffffffffffffffffffffffffffffffffffffff1673ffffffffffffffffffffffffffffffffffffffff16815260200190815260200160002060009054906101000a900460ff16905092915050565b60007f80ac58cd000000000000000000000000000000000000000000000000000000007bffffffffffffffffffffffffffffffffffffffffffffffffffffffff1916827bffffffffffffffffffffffffffffffffffffffffffffffffffffffff191614806117e757507f5b5e139f000000000000000000000000000000000000000000000000000000007bffffffffffffffffffffffffffffffffffffffffffffffffffffffff1916827bffffffffffffffffffffffffffffffffffffffffffffffffffffffff1916145b806117f757506117f6826121ba565b5b9050919050565b60008073ffffffffffffffffffffffffffffffffffffffff166002600084815260200190815260200160002060009054906101000a900473ffffffffffffffffffffffffffffffffffffffff1673ffffffffffffffffffffffffffffffffffffffff1614159050919050565b600033905090565b816004600083815260200190815260200160002060006101000a81548173ffffffffffffffffffffffffffffffffffffffff021916908373ffffffffffffffffffffffffffffffffffffffff160217905550808273ffffffffffffffffffffffffffffffffffffffff166118e5836107e1565b73ffffffffffffffffffffffffffffffffffffffff167f8c5be1e5ebec7d5bd14f71427d1e84f3dd0314c0f7b2291e5b200ac8c7c3b92560405160405180910390a45050565b6000611936826117fe565b611975576040517f08c379a000000000000000000000000000000000000000000000000000000000815260040161196c90613223565b60405180910390fd5b6000611980836107e1565b90508073ffffffffffffffffffffffffffffffffffffffff168473ffffffffffffffffffffffffffffffffffffffff1614806119ef57508373ffffffffffffffffffffffffffffffffffffffff166119d7846104b8565b73ffffffffffffffffffffffffffffffffffffffff16145b80611a0057506119ff8185611688565b5b91505092915050565b8273ffffffffffffffffffffffffffffffffffffffff16611a29826107e1565b73ffffffffffffffffffffffffffffffffffffffff1614611a7f576040517f08c379a0000000000000000000000000000000000000000000000000000000008152600401611a76906132e3565b60405180910390fd5b600073ffffffffffffffffffffffffffffffffffffffff168273ffffffffffffffffffffffffffffffffffffffff161415611aef576040517f08c379a0000000000000000000000000000000000000000000000000000000008152600401611ae6906131e3565b60405180910390fd5b611afa838383612224565b611b05600082611872565b6001600360008573ffffffffffffffffffffffffffffffffffffffff1673ffffffffffffffffffffffffffffffffffffffff1681526020019081526020016000206000828254611b559190613756565b925050819055506001600360008473ffffffffffffffffffffffffffffffffffffffff1673ffffffffffffffffffffffffffffffffffffffff1681526020019081526020016000206000828254611bac9190613461565b92505081905550816002600083815260200190815260200160002060006101000a81548173ffffffffffffffffffffffffffffffffffffffff021916908373ffffffffffffffffffffffffffffffffffffffff160217905550808273ffffffffffffffffffffffffffffffffffffffff168473ffffffffffffffffffffffffffffffffffffffff167fddf252ad1be2c89b69c2b068fc378daa952ba7f163c4a11628f55a4df523b3ef60405160405180910390a4505050565b611c70848484611a09565b611c7c84848484612229565b611cbb576040517f08c379a0000000000000000000000000000000000000000000000000000000008152600401611cb290613163565b60405180910390fd5b50505050565b60606000602867ffffffffffffffff811115611ce057611cdf613a1a565b5b6040519080825280601f01601f191660200182016040528015611d125781602001600182028036833780820191505090505b50905060005b6014811015611e7a576000816013611d309190613756565b6008611d3c91906136c1565b6002611d4891906135a3565b8573ffffffffffffffffffffffffffffffffffffffff16611d6991906134ee565b60f81b9050600060108260f81c611d80919061351f565b60f81b905060008160f81c6010611d97919061371b565b8360f81c611da5919061378a565b60f81b9050611db3826123c0565b85856002611dc191906136c1565b81518110611dd257611dd16139eb565b5b60200101907effffffffffffffffffffffffffffffffffffffffffffffffffffffffffffff1916908160001a905350611e0a816123c0565b856001866002611e1a91906136c1565b611e249190613461565b81518110611e3557611e346139eb565b5b60200101907effffffffffffffffffffffffffffffffffffffffffffffffffffffffffffff1916908160001a9053505050508080611e72906138e4565b915050611d18565b5080604051602001611e8c9190612f98565b604051602081830303815290604052915050919050565b60606000821415611eeb576040518060400160405280600181526020017f30000000000000000000000000000000000000000000000000000000000000008152509050611fff565b600082905060005b60008214611f1d578080611f06906138e4565b915050600a82611f1691906134ee565b9150611ef3565b60008167ffffffffffffffff811115611f3957611f38613a1a565b5b6040519080825280601f01601f191660200182016040528015611f6b5781602001600182028036833780820191505090505b5090505b60008514611ff857600182611f849190613756565b9150600a85611f93919061392d565b6030611f9f9190613461565b60f81b818381518110611fb557611fb46139eb565b5b60200101907effffffffffffffffffffffffffffffffffffffffffffffffffffffffffffff1916908160001a905350600a85611ff191906134ee565b9450611f6f565b8093505050505b919050565b6060600082519050600081141561202d5760405180602001604052806000815250915050612197565b6000600360028361203e9190613461565b61204891906134ee565b600461205491906136c1565b905060006020826120659190613461565b67ffffffffffffffff81111561207e5761207d613a1a565b5b6040519080825280601f01601f1916602001820160405280156120b05781602001600182028036833780820191505090505b5090506000604051806060016040528060408152602001614157604091399050600181016020830160005b868110156121545760038101905062ffffff818a015116603f8160121c168401518060081b905060ff603f83600c1c1686015116810190508060081b905060ff603f8360061c1686015116810190508060081b905060ff603f831686015116810190508060e01b905080845260048401935050506120db565b50600386066001811461216e576002811461217e57612189565b613d3d60f01b6002830352612189565b603d60f81b60018303525b508484525050819450505050505b919050565b6121b6828260405180602001604052806000815250612406565b5050565b60007f01ffc9a7000000000000000000000000000000000000000000000000000000007bffffffffffffffffffffffffffffffffffffffffffffffffffffffff1916827bffffffffffffffffffffffffffffffffffffffffffffffffffffffff1916149050919050565b505050565b600061224a8473ffffffffffffffffffffffffffffffffffffffff16612461565b156123b3578373ffffffffffffffffffffffffffffffffffffffff1663150b7a0261227361186a565b8786866040518563ffffffff1660e01b81526004016122959493929190613098565b602060405180830381600087803b1580156122af57600080fd5b505af19250505080156122e057506040513d601f19601f820116820180604052508101906122dd91906129f6565b60015b612363573d8060008114612310576040519150601f19603f3d011682016040523d82523d6000602084013e612315565b606091505b5060008151141561235b576040517f08c379a000000000000000000000000000000000000000000000000000000000815260040161235290613163565b60405180910390fd5b805181602001fd5b63150b7a0260e01b7bffffffffffffffffffffffffffffffffffffffffffffffffffffffff1916817bffffffffffffffffffffffffffffffffffffffffffffffffffffffff1916149150506123b8565b600190505b949350505050565b6000600a8260f81c60ff1610156123eb5760308260f81c6123e191906134b7565b60f81b9050612401565b60578260f81c6123fb91906134b7565b60f81b90505b919050565b6124108383612474565b61241d6000848484612229565b61245c576040517f08c379a000000000000000000000000000000000000000000000000000000000815260040161245390613163565b60405180910390fd5b505050565b600080823b905060008111915050919050565b600073ffffffffffffffffffffffffffffffffffffffff168273ffffffffffffffffffffffffffffffffffffffff1614156124e4576040517f08c379a00000000000000000000000000000000000000000000000000000000081526004016124db906132a3565b60405180910390fd5b6124ed816117fe565b1561252d576040517f08c379a0000000000000000000000000000000000000000000000000000000008152600401612524906131a3565b60405180910390fd5b61253960008383612224565b6001600360008473ffffffffffffffffffffffffffffffffffffffff1673ffffffffffffffffffffffffffffffffffffffff16815260200190815260200160002060008282546125899190613461565b92505081905550816002600083815260200190815260200160002060006101000a81548173ffffffffffffffffffffffffffffffffffffffff021916908373ffffffffffffffffffffffffffffffffffffffff160217905550808273ffffffffffffffffffffffffffffffffffffffff16600073ffffffffffffffffffffffffffffffffffffffff167fddf252ad1be2c89b69c2b068fc378daa952ba7f163c4a11628f55a4df523b3ef60405160405180910390a45050565b6040518061028001604052806014905b60608152602001906001900390816126525790505090565b600061267d61267884613383565b61335e565b90508281526020810184848401111561269957612698613a4e565b5b6126a484828561383f565b509392505050565b60006126bf6126ba846133b4565b61335e565b9050828152602081018484840111156126db576126da613a4e565b5b6126e684828561384e565b509392505050565b6000813590506126fd816140d9565b92915050565b600081359050612712816140f0565b92915050565b60008135905061272781614107565b92915050565b60008151905061273c81614107565b92915050565b600082601f83011261275757612756613a49565b5b813561276784826020860161266a565b91505092915050565b600082601f83011261278557612784613a49565b5b81516127958482602086016126ac565b91505092915050565b6000813590506127ad8161411e565b92915050565b6000602082840312156127c9576127c8613a58565b5b60006127d7848285016126ee565b91505092915050565b600080604083850312156127f7576127f6613a58565b5b6000612805858286016126ee565b9250506020612816858286016126ee565b9150509250929050565b60008060006060848603121561283957612838613a58565b5b6000612847868287016126ee565b9350506020612858868287016126ee565b92505060406128698682870161279e565b9150509250925092565b6000806000806080858703121561288d5761288c613a58565b5b600061289b878288016126ee565b94505060206128ac878288016126ee565b93505060406128bd8782880161279e565b925050606085013567ffffffffffffffff8111156128de576128dd613a53565b5b6128ea87828801612742565b91505092959194509250565b6000806040838503121561290d5761290c613a58565b5b600061291b858286016126ee565b925050602061292c85828601612703565b9150509250929050565b6000806040838503121561294d5761294c613a58565b5b600061295b858286016126ee565b925050602061296c8582860161279e565b9150509250929050565b60008060006060848603121561298f5761298e613a58565b5b600061299d868287016126ee565b93505060206129ae8682870161279e565b92505060406129bf868287016126ee565b9150509250925092565b6000602082840312156129df576129de613a58565b5b60006129ed84828501612718565b91505092915050565b600060208284031215612a0c57612a0b613a58565b5b6000612a1a8482850161272d565b91505092915050565b600060208284031215612a3957612a38613a58565b5b600082015167ffffffffffffffff811115612a5757612a56613a53565b5b612a6384828501612770565b91505092915050565b600060208284031215612a8257612a81613a58565b5b6000612a908482850161279e565b91505092915050565b6000612aa58383612f27565b60408301905092915050565b612aba816137be565b82525050565b612ac9816137be565b82525050565b6000612ada826133f5565b612ae48185613423565b9350612aef836133e5565b8060005b83811015612b20578151612b078882612a99565b9750612b1283613416565b925050600181019050612af3565b5085935050505092915050565b612b36816137d0565b82525050565b6000612b4782613400565b612b518185613434565b9350612b6181856020860161384e565b612b6a81613a5d565b840191505092915050565b6000612b808261340b565b612b8a8185613445565b9350612b9a81856020860161384e565b612ba381613a5d565b840191505092915050565b6000612bb98261340b565b612bc38185613456565b9350612bd381856020860161384e565b80840191505092915050565b6000612bec60d883613456565b9150612bf782613a7b565b60d882019050919050565b6000612c0f601483613445565b9150612c1a82613b88565b602082019050919050565b6000612c32603283613445565b9150612c3d82613bb1565b604082019050919050565b6000612c55601383613445565b9150612c6082613c00565b602082019050919050565b6000612c78601c83613445565b9150612c8382613c29565b602082019050919050565b6000612c9b600283613456565b9150612ca682613c52565b600282019050919050565b6000612cbe602d83613445565b9150612cc982613c7b565b604082019050919050565b6000612ce1602483613445565b9150612cec82613cca565b604082019050919050565b6000612d04601983613445565b9150612d0f82613d19565b602082019050919050565b6000612d27600683613456565b9150612d3282613d42565b600682019050919050565b6000612d4a602c83613445565b9150612d5582613d6b565b604082019050919050565b6000612d6d603883613445565b9150612d7882613dba565b604082019050919050565b6000612d90602a83613445565b9150612d9b82613e09565b604082019050919050565b6000612db3602983613445565b9150612dbe82613e58565b604082019050919050565b6000612dd6600c83613456565b9150612de182613ea7565b600c82019050919050565b6000612df9600283613456565b9150612e0482613ed0565b600282019050919050565b6000612e1c602083613445565b9150612e2782613ef9565b602082019050919050565b6000612e3f602c83613445565b9150612e4a82613f22565b604082019050919050565b6000612e62602983613445565b9150612e6d82613f71565b604082019050919050565b6000612e85602183613445565b9150612e9082613fc0565b604082019050919050565b6000612ea8601d83613456565b9150612eb38261400f565b601d82019050919050565b6000612ecb601283613456565b9150612ed682614038565b601282019050919050565b6000612eee603183613445565b9150612ef982614061565b604082019050919050565b6000612f11601083613456565b9150612f1c826140b0565b601082019050919050565b604082016000820151612f3d6000850182612ab1565b506020820151612f506020850182612f56565b50505050565b612f5f81613828565b82525050565b612f6e81613828565b82525050565b6000612f808285612bae565b9150612f8c8284612bae565b91508190509392505050565b6000612fa382612c8e565b9150612faf8284612bae565b915081905092915050565b6000612fc582612d1a565b9150612fd18284612bae565b915081905092915050565b6000612fe782612dc9565b9150612ff38284612bae565b915081905092915050565b600061300982612e9b565b91506130158284612bae565b915081905092915050565b600061302b82612f04565b91506130378286612bae565b915061304282612ebe565b915061304e8285612bae565b915061305982612bdf565b91506130658284612bae565b915061307082612dec565b9150819050949350505050565b60006020820190506130926000830184612ac0565b92915050565b60006080820190506130ad6000830187612ac0565b6130ba6020830186612ac0565b6130c76040830185612f65565b81810360608301526130d98184612b3c565b905095945050505050565b600060208201905081810360008301526130fe8184612acf565b905092915050565b600060208201905061311b6000830184612b2d565b92915050565b6000602082019050818103600083015261313b8184612b75565b905092915050565b6000602082019050818103600083015261315c81612c02565b9050919050565b6000602082019050818103600083015261317c81612c25565b9050919050565b6000602082019050818103600083015261319c81612c48565b9050919050565b600060208201905081810360008301526131bc81612c6b565b9050919050565b600060208201905081810360008301526131dc81612cb1565b9050919050565b600060208201905081810360008301526131fc81612cd4565b9050919050565b6000602082019050818103600083015261321c81612cf7565b9050919050565b6000602082019050818103600083015261323c81612d3d565b9050919050565b6000602082019050818103600083015261325c81612d60565b9050919050565b6000602082019050818103600083015261327c81612d83565b9050919050565b6000602082019050818103600083015261329c81612da6565b9050919050565b600060208201905081810360008301526132bc81612e0f565b9050919050565b600060208201905081810360008301526132dc81612e32565b9050919050565b600060208201905081810360008301526132fc81612e55565b9050919050565b6000602082019050818103600083015261331c81612e78565b9050919050565b6000602082019050818103600083015261333c81612ee1565b9050919050565b60006020820190506133586000830184612f65565b92915050565b6000613368613379565b905061337482826138b3565b919050565b6000604051905090565b600067ffffffffffffffff82111561339e5761339d613a1a565b5b6133a782613a5d565b9050602081019050919050565b600067ffffffffffffffff8211156133cf576133ce613a1a565b5b6133d882613a5d565b9050602081019050919050565b6000819050602082019050919050565b600081519050919050565b600081519050919050565b600081519050919050565b6000602082019050919050565b600082825260208201905092915050565b600082825260208201905092915050565b600082825260208201905092915050565b600081905092915050565b600061346c82613828565b915061347783613828565b9250827fffffffffffffffffffffffffffffffffffffffffffffffffffffffffffffffff038211156134ac576134ab61395e565b5b828201905092915050565b60006134c282613832565b91506134cd83613832565b92508260ff038211156134e3576134e261395e565b5b828201905092915050565b60006134f982613828565b915061350483613828565b9250826135145761351361398d565b5b828204905092915050565b600061352a82613832565b915061353583613832565b9250826135455761354461398d565b5b828204905092915050565b6000808291508390505b600185111561359a578086048111156135765761357561395e565b5b60018516156135855780820291505b808102905061359385613a6e565b945061355a565b94509492505050565b60006135ae82613828565b91506135b983613828565b92506135e67fffffffffffffffffffffffffffffffffffffffffffffffffffffffffffffffff84846135ee565b905092915050565b6000826135fe57600190506136ba565b8161360c57600090506136ba565b8160018114613622576002811461362c5761365b565b60019150506136ba565b60ff84111561363e5761363d61395e565b5b8360020a9150848211156136555761365461395e565b5b506136ba565b5060208310610133831016604e8410600b84101617156136905782820a90508381111561368b5761368a61395e565b5b6136ba565b61369d8484846001613550565b925090508184048111156136b4576136b361395e565b5b81810290505b9392505050565b60006136cc82613828565b91506136d783613828565b9250817fffffffffffffffffffffffffffffffffffffffffffffffffffffffffffffffff04831182151516156137105761370f61395e565b5b828202905092915050565b600061372682613832565b915061373183613832565b92508160ff048311821515161561374b5761374a61395e565b5b828202905092915050565b600061376182613828565b915061376c83613828565b92508282101561377f5761377e61395e565b5b828203905092915050565b600061379582613832565b91506137a083613832565b9250828210156137b3576137b261395e565b5b828203905092915050565b60006137c982613808565b9050919050565b60008115159050919050565b60007fffffffff0000000000000000000000000000000000000000000000000000000082169050919050565b600073ffffffffffffffffffffffffffffffffffffffff82169050919050565b6000819050919050565b600060ff82169050919050565b82818337600083830152505050565b60005b8381101561386c578082015181840152602081019050613851565b8381111561387b576000848401525b50505050565b6000600282049050600182168061389957607f821691505b602082108114156138ad576138ac6139bc565b5b50919050565b6138bc82613a5d565b810181811067ffffffffffffffff821117156138db576138da613a1a565b5b80604052505050565b60006138ef82613828565b91507fffffffffffffffffffffffffffffffffffffffffffffffffffffffffffffffff8214156139225761392161395e565b5b600182019050919050565b600061393882613828565b915061394383613828565b9250826139535761395261398d565b5b828206905092915050565b7f4e487b7100000000000000000000000000000000000000000000000000000000600052601160045260246000fd5b7f4e487b7100000000000000000000000000000000000000000000000000000000600052601260045260246000fd5b7f4e487b7100000000000000000000000000000000000000000000000000000000600052602260045260246000fd5b7f4e487b7100000000000000000000000000000000000000000000000000000000600052603260045260246000fd5b7f4e487b7100000000000000000000000000000000000000000000000000000000600052604160045260246000fd5b600080fd5b600080fd5b600080fd5b600080fd5b6000601f19601f8301169050919050565b60008160011c9050919050565b7f222c20226465736372697074696f6e223a202257686f65766572206f776e732060008201527f74686973205054524e20746f6b656e2069732074686520506174726f6e20666f60208201527f72207468697320636f6c6c656374696f6e2e20506174726f6e73206175746f6d60408201527f61746963616c6c7920676574206120252066656520666f7220616e79204e465460608201527f2066726f6d207468697320636f6c6c656374696f6e20736f6c6420776974686960808201527f6e20446f75626c652054726f75626c652e222c2022696d616765223a2022646160a08201527f74613a696d6167652f7376672b786d6c3b6261736536342c000000000000000060c082015250565b7f436f6c6c656374696f6e206e6f7420666f756e64000000000000000000000000600082015250565b7f4552433732313a207472616e7366657220746f206e6f6e20455243373231526560008201527f63656976657220696d706c656d656e7465720000000000000000000000000000602082015250565b7f746f6b656e4964206e6f742070726573656e7400000000000000000000000000600082015250565b7f4552433732313a20746f6b656e20616c7265616479206d696e74656400000000600082015250565b7f3078000000000000000000000000000000000000000000000000000000000000600082015250565b7f4f6e6c792074686520446f75626c6554726f75626c6520636f6e74726163742060008201527f63616e2063616c6c207468697300000000000000000000000000000000000000602082015250565b7f4552433732313a207472616e7366657220746f20746865207a65726f2061646460008201527f7265737300000000000000000000000000000000000000000000000000000000602082015250565b7f4552433732313a20617070726f766520746f2063616c6c657200000000000000600082015250565b7f5054524e20230000000000000000000000000000000000000000000000000000600082015250565b7f4552433732313a206f70657261746f7220717565727920666f72206e6f6e657860008201527f697374656e7420746f6b656e0000000000000000000000000000000000000000602082015250565b7f4552433732313a20617070726f76652063616c6c6572206973206e6f74206f7760008201527f6e6572206e6f7220617070726f76656420666f7220616c6c0000000000000000602082015250565b7f4552433732313a2062616c616e636520717565727920666f7220746865207a6560008201527f726f206164647265737300000000000000000000000000000000000000000000602082015250565b7f4552433732313a206f776e657220717565727920666f72206e6f6e657869737460008201527f656e7420746f6b656e0000000000000000000000000000000000000000000000602082015250565b7f436f6c6c656374696f6e3a200000000000000000000000000000000000000000600082015250565b7f227d000000000000000000000000000000000000000000000000000000000000600082015250565b7f4552433732313a206d696e7420746f20746865207a65726f2061646472657373600082015250565b7f4552433732313a20617070726f76656420717565727920666f72206e6f6e657860008201527f697374656e7420746f6b656e0000000000000000000000000000000000000000602082015250565b7f4552433732313a207472616e73666572206f6620746f6b656e2074686174206960008201527f73206e6f74206f776e0000000000000000000000000000000000000000000000602082015250565b7f4552433732313a20617070726f76616c20746f2063757272656e74206f776e6560008201527f7200000000000000000000000000000000000000000000000000000000000000602082015250565b7f646174613a6170706c69636174696f6e2f6a736f6e3b6261736536342c000000600082015250565b7f222c2022636f6c6c656374696f6e223a20220000000000000000000000000000600082015250565b7f4552433732313a207472616e736665722063616c6c6572206973206e6f74206f60008201527f776e6572206e6f7220617070726f766564000000000000000000000000000000602082015250565b7f7b226e616d65223a20225054524e202300000000000000000000000000000000600082015250565b6140e2816137be565b81146140ed57600080fd5b50565b6140f9816137d0565b811461410457600080fd5b50565b614110816137dc565b811461411b57600080fd5b50565b61412781613828565b811461413257600080fd5b5056fe3c7465787420783d2231302220793d2238302220636c6173733d2262617365223e4142434445464748494a4b4c4d4e4f505152535455565758595a6162636465666768696a6b6c6d6e6f707172737475767778797a303132333435363738392b2f3c73766720786d6c6e733d22687474703a2f2f7777772e77332e6f72672f323030302f73766722207072657365727665417370656374526174696f3d22784d696e594d696e206d656574222076696577426f783d223020302034303020343030223e3c7374796c653e2e62617365207b2066696c6c3a2077686974653b20666f6e742d66616d696c793a2073657269663b20666f6e742d73697a653a20313470783b207d3c2f7374796c653e3c726563742077696474683d223130302522206865696768743d2231303025222066696c6c3d22626c61636b22202f3e3c7465787420783d2231302220793d2232302220636c6173733d2262617365223e3c7465787420783d2231302220793d2234302220636c6173733d2262617365223e3c7465787420783d2231302220793d2236302220636c6173733d2262617365223ea26469706673582212205dd81dee4f4ff5af4fa50a51cca388926e0ddb8d9411a9f10ae522cc9b13b7db64736f6c63430008070033",
  "linkReferences": {},
  "deployedLinkReferences": {}
}