{
  "contractName": "DoubleTroubleOrchestrator",
  "abi": [
    {
      "inputs": [
        {
          "internalType": "contract DoubleTroubleFactory",
          "name": "dtFactory",
          "type": "address"
        },
        {
          "internalType": "address",
          "name": "feeWallet",
          "type": "address"
        }
      ],
      "stateMutability": "nonpayable",
      "type": "constructor"
    },
    {
      "anonymous": false,
      "inputs": [
        {
          "indexed": true,
          "internalType": "address",
          "name": "owner",
          "type": "address"
        },
        {
          "indexed": true,
          "internalType": "address",
          "name": "approved",
          "type": "address"
        },
        {
          "indexed": true,
          "internalType": "uint256",
          "name": "tokenId",
          "type": "uint256"
        }
      ],
      "name": "Approval",
      "type": "event"
    },
    {
      "anonymous": false,
      "inputs": [
        {
          "indexed": true,
          "internalType": "address",
          "name": "owner",
          "type": "address"
        },
        {
          "indexed": true,
          "internalType": "address",
          "name": "operator",
          "type": "address"
        },
        {
          "indexed": false,
          "internalType": "bool",
          "name": "approved",
          "type": "bool"
        }
      ],
      "name": "ApprovalForAll",
      "type": "event"
    },
    {
      "anonymous": false,
      "inputs": [
        {
          "indexed": false,
          "internalType": "address",
          "name": "msgSender",
          "type": "address"
        },
        {
          "indexed": false,
          "internalType": "address",
          "name": "originalCollection",
          "type": "address"
        },
        {
          "indexed": false,
          "internalType": "address",
          "name": "troublesomeCollection",
          "type": "address"
        },
        {
          "indexed": false,
          "internalType": "string",
          "name": "name",
          "type": "string"
        },
        {
          "indexed": false,
          "internalType": "string",
          "name": "symbol",
          "type": "string"
        }
      ],
      "name": "MakeTroublesomeCollection",
      "type": "event"
    },
    {
      "anonymous": false,
      "inputs": [
        {
          "indexed": true,
          "internalType": "address",
          "name": "from",
          "type": "address"
        },
        {
          "indexed": true,
          "internalType": "address",
          "name": "to",
          "type": "address"
        },
        {
          "indexed": true,
          "internalType": "uint256",
          "name": "tokenId",
          "type": "uint256"
        }
      ],
      "name": "Transfer",
      "type": "event"
    },
    {
      "inputs": [
        {
          "internalType": "address",
          "name": "",
          "type": "address"
        }
      ],
      "name": "_troublesomeCollections",
      "outputs": [
        {
          "internalType": "contract DoubleTrouble",
          "name": "",
          "type": "address"
        }
      ],
      "stateMutability": "view",
      "type": "function",
      "constant": true
    },
    {
      "inputs": [
        {
          "internalType": "address",
          "name": "to",
          "type": "address"
        },
        {
          "internalType": "uint256",
          "name": "tokenId",
          "type": "uint256"
        }
      ],
      "name": "approve",
      "outputs": [],
      "stateMutability": "nonpayable",
      "type": "function"
    },
    {
      "inputs": [
        {
          "internalType": "address",
          "name": "owner",
          "type": "address"
        }
      ],
      "name": "balanceOf",
      "outputs": [
        {
          "internalType": "uint256",
          "name": "",
          "type": "uint256"
        }
      ],
      "stateMutability": "view",
      "type": "function",
      "constant": true
    },
    {
      "inputs": [
        {
          "internalType": "uint256",
          "name": "tokenId",
          "type": "uint256"
        }
      ],
      "name": "getApproved",
      "outputs": [
        {
          "internalType": "address",
          "name": "",
          "type": "address"
        }
      ],
      "stateMutability": "view",
      "type": "function",
      "constant": true
    },
    {
      "inputs": [
        {
          "internalType": "address",
          "name": "owner",
          "type": "address"
        },
        {
          "internalType": "address",
          "name": "operator",
          "type": "address"
        }
      ],
      "name": "isApprovedForAll",
      "outputs": [
        {
          "internalType": "bool",
          "name": "",
          "type": "bool"
        }
      ],
      "stateMutability": "view",
      "type": "function",
      "constant": true
    },
    {
      "inputs": [],
      "name": "name",
      "outputs": [
        {
          "internalType": "string",
          "name": "",
          "type": "string"
        }
      ],
      "stateMutability": "view",
      "type": "function",
      "constant": true
    },
    {
      "inputs": [
        {
          "internalType": "uint256",
          "name": "tokenId",
          "type": "uint256"
        }
      ],
      "name": "ownerOf",
      "outputs": [
        {
          "internalType": "address",
          "name": "",
          "type": "address"
        }
      ],
      "stateMutability": "view",
      "type": "function",
      "constant": true
    },
    {
      "inputs": [
        {
          "internalType": "address",
          "name": "from",
          "type": "address"
        },
        {
          "internalType": "address",
          "name": "to",
          "type": "address"
        },
        {
          "internalType": "uint256",
          "name": "tokenId",
          "type": "uint256"
        }
      ],
      "name": "safeTransferFrom",
      "outputs": [],
      "stateMutability": "nonpayable",
      "type": "function"
    },
    {
      "inputs": [
        {
          "internalType": "address",
          "name": "from",
          "type": "address"
        },
        {
          "internalType": "address",
          "name": "to",
          "type": "address"
        },
        {
          "internalType": "uint256",
          "name": "tokenId",
          "type": "uint256"
        },
        {
          "internalType": "bytes",
          "name": "_data",
          "type": "bytes"
        }
      ],
      "name": "safeTransferFrom",
      "outputs": [],
      "stateMutability": "nonpayable",
      "type": "function"
    },
    {
      "inputs": [
        {
          "internalType": "address",
          "name": "operator",
          "type": "address"
        },
        {
          "internalType": "bool",
          "name": "approved",
          "type": "bool"
        }
      ],
      "name": "setApprovalForAll",
      "outputs": [],
      "stateMutability": "nonpayable",
      "type": "function"
    },
    {
      "inputs": [
        {
          "internalType": "bytes4",
          "name": "interfaceId",
          "type": "bytes4"
        }
      ],
      "name": "supportsInterface",
      "outputs": [
        {
          "internalType": "bool",
          "name": "",
          "type": "bool"
        }
      ],
      "stateMutability": "view",
      "type": "function",
      "constant": true
    },
    {
      "inputs": [],
      "name": "symbol",
      "outputs": [
        {
          "internalType": "string",
          "name": "",
          "type": "string"
        }
      ],
      "stateMutability": "view",
      "type": "function",
      "constant": true
    },
    {
      "inputs": [
        {
          "internalType": "address",
          "name": "from",
          "type": "address"
        },
        {
          "internalType": "address",
          "name": "to",
          "type": "address"
        },
        {
          "internalType": "uint256",
          "name": "tokenId",
          "type": "uint256"
        }
      ],
      "name": "transferFrom",
      "outputs": [],
      "stateMutability": "nonpayable",
      "type": "function"
    },
    {
      "inputs": [
        {
          "internalType": "address",
          "name": "nftCollection",
          "type": "address"
        },
        {
          "internalType": "string",
          "name": "name",
          "type": "string"
        },
        {
          "internalType": "string",
          "name": "symbol",
          "type": "string"
        }
      ],
      "name": "makeTroublesomeCollection",
      "outputs": [],
      "stateMutability": "nonpayable",
      "type": "function"
    },
    {
      "inputs": [
        {
          "internalType": "address",
          "name": "nftCollection",
          "type": "address"
        }
      ],
      "name": "troublesomeCollection",
      "outputs": [
        {
          "internalType": "contract DoubleTrouble",
          "name": "",
          "type": "address"
        }
      ],
      "stateMutability": "view",
      "type": "function",
      "constant": true
    },
    {
      "inputs": [],
      "name": "registeredCollections",
      "outputs": [
        {
          "internalType": "address[]",
          "name": "",
          "type": "address[]"
        },
        {
          "internalType": "address[]",
          "name": "",
          "type": "address[]"
        }
      ],
      "stateMutability": "view",
      "type": "function",
      "constant": true
    },
    {
      "inputs": [
        {
          "internalType": "uint256",
          "name": "tokenId",
          "type": "uint256"
        }
      ],
      "name": "registeredCollection",
      "outputs": [
        {
          "internalType": "address",
          "name": "",
          "type": "address"
        },
        {
          "internalType": "address",
          "name": "",
          "type": "address"
        }
      ],
      "stateMutability": "view",
      "type": "function",
      "constant": true
    },
    {
      "inputs": [
        {
          "internalType": "address",
          "name": "troublesomeCollectionAddr",
          "type": "address"
        }
      ],
      "name": "tokenIdForTroublesomeCollection",
      "outputs": [
        {
          "internalType": "uint256",
          "name": "",
          "type": "uint256"
        }
      ],
      "stateMutability": "view",
      "type": "function",
      "constant": true
    },
    {
      "inputs": [
        {
          "internalType": "uint256",
          "name": "tokenId",
          "type": "uint256"
        }
      ],
      "name": "patronOfTokenId",
      "outputs": [
        {
          "internalType": "address",
          "name": "",
          "type": "address"
        }
      ],
      "stateMutability": "view",
      "type": "function",
      "constant": true
    },
    {
      "inputs": [
        {
          "internalType": "address",
          "name": "troublesomeCollectionAddr",
          "type": "address"
        }
      ],
      "name": "patronOf",
      "outputs": [
        {
          "internalType": "address",
          "name": "",
          "type": "address"
        }
      ],
      "stateMutability": "view",
      "type": "function",
      "constant": true
    },
    {
      "inputs": [
        {
          "internalType": "uint256",
          "name": "tokenId",
          "type": "uint256"
        }
      ],
      "name": "getOriginalCollectionName",
      "outputs": [
        {
          "internalType": "string",
          "name": "",
          "type": "string"
        }
      ],
      "stateMutability": "view",
      "type": "function",
      "constant": true
    },
    {
      "inputs": [
        {
          "internalType": "uint256",
          "name": "tokenId",
          "type": "uint256"
        }
      ],
      "name": "getOriginalCollectionSymbol",
      "outputs": [
        {
          "internalType": "string",
          "name": "",
          "type": "string"
        }
      ],
      "stateMutability": "view",
      "type": "function",
      "constant": true
    },
    {
      "inputs": [
        {
          "internalType": "uint256",
          "name": "tokenId",
          "type": "uint256"
        }
      ],
      "name": "tokenURI",
      "outputs": [
        {
          "internalType": "string",
          "name": "",
          "type": "string"
        }
      ],
      "stateMutability": "view",
      "type": "function",
      "constant": true
    }
  ],
  "bytecode": "0x60806040523480156200001157600080fd5b50604051620053e1380380620053e183398181016040528101906200003791906200023f565b6040518060400160405280600d81526020017f506174726f6e20546f6b656e73000000000000000000000000000000000000008152506040518060400160405280600481526020017f5054524e000000000000000000000000000000000000000000000000000000008152508160009080519060200190620000bb92919062000161565b508060019080519060200190620000d492919062000161565b50505080600960006101000a81548173ffffffffffffffffffffffffffffffffffffffff021916908373ffffffffffffffffffffffffffffffffffffffff16021790555081600860006101000a81548173ffffffffffffffffffffffffffffffffffffffff021916908373ffffffffffffffffffffffffffffffffffffffff16021790555050506200036c565b8280546200016f90620002ce565b90600052602060002090601f016020900481019282620001935760008555620001df565b82601f10620001ae57805160ff1916838001178555620001df565b82800160010185558215620001df579182015b82811115620001de578251825591602001919060010190620001c1565b5b509050620001ee9190620001f2565b5090565b5b808211156200020d576000816000905550600101620001f3565b5090565b600081519050620002228162000338565b92915050565b600081519050620002398162000352565b92915050565b6000806040838503121562000259576200025862000333565b5b6000620002698582860162000228565b92505060206200027c8582860162000211565b9150509250929050565b60006200029382620002ae565b9050919050565b6000620002a78262000286565b9050919050565b600073ffffffffffffffffffffffffffffffffffffffff82169050919050565b60006002820490506001821680620002e757607f821691505b60208210811415620002fe57620002fd62000304565b5b50919050565b7f4e487b7100000000000000000000000000000000000000000000000000000000600052602260045260246000fd5b600080fd5b620003438162000286565b81146200034f57600080fd5b50565b6200035d816200029a565b81146200036957600080fd5b50565b615065806200037c6000396000f3fe608060405234801561001057600080fd5b506004361061014d5760003560e01c80638a25671e116100c3578063c87b56dd1161007c578063c87b56dd146103e6578063cd9a41f714610416578063e985e9c514610446578063f70d7e4b14610476578063f82ca21f146104a6578063f9871f93146104c55761014d565b80638a25671e1461031457806394d271581461034457806395d89b4114610360578063a22cb4651461037e578063ae21cd811461039a578063b88d4fde146103ca5761014d565b80630e2ccc78116101155780630e2ccc781461021c57806323b872dd1461024c578063404d09f81461026857806342842e0e146102985780636352211e146102b457806370a08231146102e45761014d565b806301ffc9a71461015257806306fdde0314610182578063081812fc146101a0578063095ea7b3146101d05780630b788d6b146101ec575b600080fd5b61016c600480360381019061016791906133c5565b6104f6565b6040516101799190613c88565b60405180910390f35b61018a6105d8565b6040516101979190613cbe565b60405180910390f35b6101ba60048036038101906101b59190613495565b61066a565b6040516101c79190613b60565b60405180910390f35b6101ea60048036038101906101e59190613385565b6106ef565b005b6102066004803603810190610201919061310a565b610807565b6040516102139190613f7b565b60405180910390f35b6102366004803603810190610231919061310a565b61094a565b6040516102439190613b60565b60405180910390f35b610266600480360381019061026191906131e4565b610a64565b005b610282600480360381019061027d919061310a565b610ac4565b60405161028f9190613ca3565b60405180910390f35b6102b260048036038101906102ad91906131e4565b610af7565b005b6102ce60048036038101906102c99190613495565b610b17565b6040516102db9190613b60565b60405180910390f35b6102fe60048036038101906102f9919061310a565b610bc9565b60405161030b9190613f7b565b60405180910390f35b61032e60048036038101906103299190613495565b610c81565b60405161033b9190613b60565b60405180910390f35b61035e600480360381019061035991906132fa565b610e1e565b005b610368611161565b6040516103759190613cbe565b60405180910390f35b610398600480360381019061039391906132ba565b6111f3565b005b6103b460048036038101906103af9190613495565b611374565b6040516103c19190613cbe565b60405180910390f35b6103e460048036038101906103df9190613237565b611485565b005b61040060048036038101906103fb9190613495565b6114e7565b60405161040d9190613cbe565b60405180910390f35b610430600480360381019061042b9190613495565b611c21565b60405161043d9190613cbe565b60405180910390f35b610460600480360381019061045b9190613164565b611d32565b60405161046d9190613c88565b60405180910390f35b610490600480360381019061048b919061310a565b611dc6565b60405161049d9190613ca3565b60405180910390f35b6104ae611e2f565b6040516104bc929190613c51565b60405180910390f35b6104df60048036038101906104da9190613495565b612027565b6040516104ed929190613b7b565b60405180910390f35b60007f80ac58cd000000000000000000000000000000000000000000000000000000007bffffffffffffffffffffffffffffffffffffffffffffffffffffffff1916827bffffffffffffffffffffffffffffffffffffffffffffffffffffffff191614806105c157507f5b5e139f000000000000000000000000000000000000000000000000000000007bffffffffffffffffffffffffffffffffffffffffffffffffffffffff1916827bffffffffffffffffffffffffffffffffffffffffffffffffffffffff1916145b806105d157506105d08261211f565b5b9050919050565b6060600080546105e790614549565b80601f016020809104026020016040519081016040528092919081815260200182805461061390614549565b80156106605780601f1061063557610100808354040283529160200191610660565b820191906000526020600020905b81548152906001019060200180831161064357829003601f168201915b5050505050905090565b600061067582612189565b6106b4576040517f08c379a00000000000000000000000000000000000000000000000000000000081526004016106ab90613edb565b60405180910390fd5b6004600083815260200190815260200160002060009054906101000a900473ffffffffffffffffffffffffffffffffffffffff169050919050565b60006106fa82610b17565b90508073ffffffffffffffffffffffffffffffffffffffff168373ffffffffffffffffffffffffffffffffffffffff16141561076b576040517f08c379a000000000000000000000000000000000000000000000000000000000815260040161076290613f1b565b60405180910390fd5b8073ffffffffffffffffffffffffffffffffffffffff1661078a6121f5565b73ffffffffffffffffffffffffffffffffffffffff1614806107b957506107b8816107b36121f5565b611d32565b5b6107f8576040517f08c379a00000000000000000000000000000000000000000000000000000000081526004016107ef90613e5b565b60405180910390fd5b61080283836121fd565b505050565b600080600090505b600a805490508110156109095760076000600a8381548110610834576108336146b3565b5b9060005260206000200160009054906101000a900473ffffffffffffffffffffffffffffffffffffffff1673ffffffffffffffffffffffffffffffffffffffff1673ffffffffffffffffffffffffffffffffffffffff16815260200190815260200160002060009054906101000a900473ffffffffffffffffffffffffffffffffffffffff1673ffffffffffffffffffffffffffffffffffffffff168373ffffffffffffffffffffffffffffffffffffffff1614156108f65780915050610945565b8080610901906145ac565b91505061080f565b506040517f08c379a000000000000000000000000000000000000000000000000000000000815260040161093c90613d7b565b60405180910390fd5b919050565b60003073ffffffffffffffffffffffffffffffffffffffff16638a25671e3073ffffffffffffffffffffffffffffffffffffffff16630b788d6b856040518263ffffffff1660e01b81526004016109a19190613b60565b60206040518083038186803b1580156109b957600080fd5b505afa1580156109cd573d6000803e3d6000fd5b505050506040513d601f19601f820116820180604052508101906109f191906134c2565b6040518263ffffffff1660e01b8152600401610a0d9190613f7b565b60206040518083038186803b158015610a2557600080fd5b505afa158015610a39573d6000803e3d6000fd5b505050506040513d601f19601f82011682018060405250810190610a5d9190613137565b9050919050565b610a75610a6f6121f5565b826122b6565b610ab4576040517f08c379a0000000000000000000000000000000000000000000000000000000008152600401610aab90613f5b565b60405180910390fd5b610abf838383612394565b505050565b60076020528060005260406000206000915054906101000a900473ffffffffffffffffffffffffffffffffffffffff1681565b610b1283838360405180602001604052806000815250611485565b505050565b6000806002600084815260200190815260200160002060009054906101000a900473ffffffffffffffffffffffffffffffffffffffff169050600073ffffffffffffffffffffffffffffffffffffffff168173ffffffffffffffffffffffffffffffffffffffff161415610bc0576040517f08c379a0000000000000000000000000000000000000000000000000000000008152600401610bb790613e9b565b60405180910390fd5b80915050919050565b60008073ffffffffffffffffffffffffffffffffffffffff168273ffffffffffffffffffffffffffffffffffffffff161415610c3a576040517f08c379a0000000000000000000000000000000000000000000000000000000008152600401610c3190613e7b565b60405180910390fd5b600360008373ffffffffffffffffffffffffffffffffffffffff1673ffffffffffffffffffffffffffffffffffffffff168152602001908152602001600020549050919050565b6000803073ffffffffffffffffffffffffffffffffffffffff1663f70d7e4b306040518263ffffffff1660e01b8152600401610cbd9190613b60565b60206040518083038186803b158015610cd557600080fd5b505afa158015610ce9573d6000803e3d6000fd5b505050506040513d601f19601f82011682018060405250810190610d0d919061341f565b9050600073ffffffffffffffffffffffffffffffffffffffff168173ffffffffffffffffffffffffffffffffffffffff1614610e0c578073ffffffffffffffffffffffffffffffffffffffff16636352211e846040518263ffffffff1660e01b8152600401610d7c9190613f7b565b60206040518083038186803b158015610d9457600080fd5b505afa925050508015610dc557506040513d601f19601f82011682018060405250810190610dc29190613137565b60015b610e01573d8060008114610df5576040519150601f19603f3d011682016040523d82523d6000602084013e610dfa565b606091505b5050610e0b565b8092505050610e19565b5b610e1583610b17565b9150505b919050565b600073ffffffffffffffffffffffffffffffffffffffff16600760008573ffffffffffffffffffffffffffffffffffffffff1673ffffffffffffffffffffffffffffffffffffffff16815260200190815260200160002060009054906101000a900473ffffffffffffffffffffffffffffffffffffffff1673ffffffffffffffffffffffffffffffffffffffff1614610eec576040517f08c379a0000000000000000000000000000000000000000000000000000000008152600401610ee390613f3b565b60405180910390fd5b600860009054906101000a900473ffffffffffffffffffffffffffffffffffffffff1673ffffffffffffffffffffffffffffffffffffffff16637b3ec8ef838386600960009054906101000a900473ffffffffffffffffffffffffffffffffffffffff1630601e6002600160826040518a63ffffffff1660e01b8152600401610f7d99989796959493929190613ce0565b602060405180830381600087803b158015610f9757600080fd5b505af1158015610fab573d6000803e3d6000fd5b505050506040513d601f19601f82011682018060405250810190610fcf919061341f565b600760008573ffffffffffffffffffffffffffffffffffffffff1673ffffffffffffffffffffffffffffffffffffffff16815260200190815260200160002060006101000a81548173ffffffffffffffffffffffffffffffffffffffff021916908373ffffffffffffffffffffffffffffffffffffffff16021790555061105b33600a805490506125f0565b600a839080600181540180825580915050600190039060005260206000200160009091909190916101000a81548173ffffffffffffffffffffffffffffffffffffffff021916908373ffffffffffffffffffffffffffffffffffffffff1602179055507f78644b6a01908d64d89b0cc8b5b95e7ec3326770d9f0e80df03bfd74a48e3dce3384600760008773ffffffffffffffffffffffffffffffffffffffff1673ffffffffffffffffffffffffffffffffffffffff16815260200190815260200160002060009054906101000a900473ffffffffffffffffffffffffffffffffffffffff168585604051611154959493929190613ba4565b60405180910390a1505050565b60606001805461117090614549565b80601f016020809104026020016040519081016040528092919081815260200182805461119c90614549565b80156111e95780601f106111be576101008083540402835291602001916111e9565b820191906000526020600020905b8154815290600101906020018083116111cc57829003601f168201915b5050505050905090565b6111fb6121f5565b73ffffffffffffffffffffffffffffffffffffffff168273ffffffffffffffffffffffffffffffffffffffff161415611269576040517f08c379a000000000000000000000000000000000000000000000000000000000815260040161126090613e1b565b60405180910390fd5b80600560006112766121f5565b73ffffffffffffffffffffffffffffffffffffffff1673ffffffffffffffffffffffffffffffffffffffff16815260200190815260200160002060008473ffffffffffffffffffffffffffffffffffffffff1673ffffffffffffffffffffffffffffffffffffffff16815260200190815260200160002060006101000a81548160ff0219169083151502179055508173ffffffffffffffffffffffffffffffffffffffff166113236121f5565b73ffffffffffffffffffffffffffffffffffffffff167f17307eab39ab6107e8899845ad3d59bd9653f200f220920489ca2b5937696c31836040516113689190613c88565b60405180910390a35050565b6060600a8054905082106113bd576040517f08c379a00000000000000000000000000000000000000000000000000000000081526004016113b490613dbb565b60405180910390fd5b600a82815481106113d1576113d06146b3565b5b9060005260206000200160009054906101000a900473ffffffffffffffffffffffffffffffffffffffff1673ffffffffffffffffffffffffffffffffffffffff166395d89b416040518163ffffffff1660e01b815260040160006040518083038186803b15801561144157600080fd5b505afa158015611455573d6000803e3d6000fd5b505050506040513d6000823e3d601f19601f8201168201806040525081019061147e919061344c565b9050919050565b6114966114906121f5565b836122b6565b6114d5576040517f08c379a00000000000000000000000000000000000000000000000000000000081526004016114cc90613f5b565b60405180910390fd5b6114e1848484846127be565b50505050565b6060600a805490508210611530576040517f08c379a000000000000000000000000000000000000000000000000000000000815260040161152790613dbb565b60405180910390fd5b6000803073ffffffffffffffffffffffffffffffffffffffff1663f9871f93856040518263ffffffff1660e01b815260040161156c9190613f7b565b604080518083038186803b15801561158357600080fd5b505afa158015611597573d6000803e3d6000fd5b505050506040513d601f19601f820116820180604052508101906115bb91906131a4565b809250819350505060006115ce8361281a565b905060006115db8361281a565b905060006115e8876129fc565b90506115f2612eea565b600060405180610120016040528060fd8152602001614ef160fd913982828061161a906145ac565b93506014811061162d5761162c6146b3565b5b6020020181905250826040516020016116469190613a63565b604051602081830303815290604052828280611661906145ac565b935060148110611674576116736146b3565b5b60200201819052506040518060400160405280600781526020017f3c2f746578743e000000000000000000000000000000000000000000000000008152508282806116be906145ac565b9350601481106116d1576116d06146b3565b5b60200201819052503073ffffffffffffffffffffffffffffffffffffffff1663cd9a41f78a6040518263ffffffff1660e01b81526004016117129190613f7b565b60006040518083038186803b15801561172a57600080fd5b505afa92505050801561176057506040513d6000823e3d601f19601f8201168201806040525081019061175d919061344c565b60015b61179c573d8060008114611790576040519150601f19603f3d011682016040523d82523d6000602084013e611795565b606091505b5050611863565b604051806060016040528060218152602001614fee602191398383806117c1906145ac565b9450601481106117d4576117d36146b3565b5b6020020181905250808383806117e9906145ac565b9450601481106117fc576117fb6146b3565b5b60200201819052506040518060400160405280600781526020017f3c2f746578743e00000000000000000000000000000000000000000000000000815250838380611846906145ac565b945060148110611859576118586146b3565b5b6020020181905250505b3073ffffffffffffffffffffffffffffffffffffffff1663ae21cd818a6040518263ffffffff1660e01b815260040161189c9190613f7b565b60006040518083038186803b1580156118b457600080fd5b505afa9250505080156118ea57506040513d6000823e3d601f19601f820116820180604052508101906118e7919061344c565b60015b611926573d806000811461191a576040519150601f19603f3d011682016040523d82523d6000602084013e61191f565b606091505b50506119ed565b60405180606001604052806021815260200161500f6021913983838061194b906145ac565b94506014811061195e5761195d6146b3565b5b602002018190525080838380611973906145ac565b945060148110611986576119856146b3565b5b60200201819052506040518060400160405280600781526020017f3c2f746578743e000000000000000000000000000000000000000000000000008152508383806119d0906145ac565b9450601481106119e3576119e26146b3565b5b6020020181905250505b604051806060016040528060218152602001614e6760219139828280611a12906145ac565b935060148110611a2557611a246146b3565b5b602002018190525084604051602001611a3e9190613aa7565b604051602081830303815290604052828280611a59906145ac565b935060148110611a6c57611a6b6146b3565b5b6020020181905250604051806060016040528060298152602001614e8860299139828280611a99906145ac565b935060148110611aac57611aab6146b3565b5b602002018190525083604051602001611ac59190613a85565b604051602081830303815290604052828280611ae0906145ac565b935060148110611af357611af26146b3565b5b60200201819052506040518060400160405280600d81526020017f3c2f746578743e3c2f7376673e00000000000000000000000000000000000000815250828280611b3d906145ac565b935060148110611b5057611b4f6146b3565b5b6020020181905250606060005b82811015611bb35781848260148110611b7957611b786146b3565b5b6020020151604051602001611b8f929190613a1d565b60405160208183030381529060405291508080611bab906145ac565b915050611b5d565b506000611bec858888611bc586612b5d565b604051602001611bd89493929190613aeb565b604051602081830303815290604052612b5d565b905080604051602001611bff9190613ac9565b6040516020818303038152906040529150819950505050505050505050919050565b6060600a805490508210611c6a576040517f08c379a0000000000000000000000000000000000000000000000000000000008152600401611c6190613dbb565b60405180910390fd5b600a8281548110611c7e57611c7d6146b3565b5b9060005260206000200160009054906101000a900473ffffffffffffffffffffffffffffffffffffffff1673ffffffffffffffffffffffffffffffffffffffff166306fdde036040518163ffffffff1660e01b815260040160006040518083038186803b158015611cee57600080fd5b505afa158015611d02573d6000803e3d6000fd5b505050506040513d6000823e3d601f19601f82011682018060405250810190611d2b919061344c565b9050919050565b6000600560008473ffffffffffffffffffffffffffffffffffffffff1673ffffffffffffffffffffffffffffffffffffffff16815260200190815260200160002060008373ffffffffffffffffffffffffffffffffffffffff1673ffffffffffffffffffffffffffffffffffffffff16815260200190815260200160002060009054906101000a900460ff16905092915050565b6000600760008373ffffffffffffffffffffffffffffffffffffffff1673ffffffffffffffffffffffffffffffffffffffff16815260200190815260200160002060009054906101000a900473ffffffffffffffffffffffffffffffffffffffff169050919050565b6060806000600a8054905067ffffffffffffffff811115611e5357611e526146e2565b5b604051908082528060200260200182016040528015611e815781602001602082028036833780820191505090505b50905060005b600a80549050811015611f925760076000600a8381548110611eac57611eab6146b3565b5b9060005260206000200160009054906101000a900473ffffffffffffffffffffffffffffffffffffffff1673ffffffffffffffffffffffffffffffffffffffff1673ffffffffffffffffffffffffffffffffffffffff16815260200190815260200160002060009054906101000a900473ffffffffffffffffffffffffffffffffffffffff16828281518110611f4557611f446146b3565b5b602002602001019073ffffffffffffffffffffffffffffffffffffffff16908173ffffffffffffffffffffffffffffffffffffffff16815250508080611f8a906145ac565b915050611e87565b50600a818180548060200260200160405190810160405280929190818152602001828054801561201757602002820191906000526020600020905b8160009054906101000a900473ffffffffffffffffffffffffffffffffffffffff1673ffffffffffffffffffffffffffffffffffffffff1681526020019060010190808311611fcd575b5050505050915092509250509091565b600080600a805490508310612071576040517f08c379a000000000000000000000000000000000000000000000000000000000815260040161206890613dbb565b60405180910390fd5b6000600a8481548110612087576120866146b3565b5b9060005260206000200160009054906101000a900473ffffffffffffffffffffffffffffffffffffffff16905080600760008373ffffffffffffffffffffffffffffffffffffffff1673ffffffffffffffffffffffffffffffffffffffff16815260200190815260200160002060009054906101000a900473ffffffffffffffffffffffffffffffffffffffff169250925050915091565b60007f01ffc9a7000000000000000000000000000000000000000000000000000000007bffffffffffffffffffffffffffffffffffffffffffffffffffffffff1916827bffffffffffffffffffffffffffffffffffffffffffffffffffffffff1916149050919050565b60008073ffffffffffffffffffffffffffffffffffffffff166002600084815260200190815260200160002060009054906101000a900473ffffffffffffffffffffffffffffffffffffffff1673ffffffffffffffffffffffffffffffffffffffff1614159050919050565b600033905090565b816004600083815260200190815260200160002060006101000a81548173ffffffffffffffffffffffffffffffffffffffff021916908373ffffffffffffffffffffffffffffffffffffffff160217905550808273ffffffffffffffffffffffffffffffffffffffff1661227083610b17565b73ffffffffffffffffffffffffffffffffffffffff167f8c5be1e5ebec7d5bd14f71427d1e84f3dd0314c0f7b2291e5b200ac8c7c3b92560405160405180910390a45050565b60006122c182612189565b612300576040517f08c379a00000000000000000000000000000000000000000000000000000000081526004016122f790613e3b565b60405180910390fd5b600061230b83610b17565b90508073ffffffffffffffffffffffffffffffffffffffff168473ffffffffffffffffffffffffffffffffffffffff16148061237a57508373ffffffffffffffffffffffffffffffffffffffff166123628461066a565b73ffffffffffffffffffffffffffffffffffffffff16145b8061238b575061238a8185611d32565b5b91505092915050565b8273ffffffffffffffffffffffffffffffffffffffff166123b482610b17565b73ffffffffffffffffffffffffffffffffffffffff161461240a576040517f08c379a000000000000000000000000000000000000000000000000000000000815260040161240190613efb565b60405180910390fd5b600073ffffffffffffffffffffffffffffffffffffffff168273ffffffffffffffffffffffffffffffffffffffff16141561247a576040517f08c379a000000000000000000000000000000000000000000000000000000000815260040161247190613dfb565b60405180910390fd5b612485838383612cf5565b6124906000826121fd565b6001600360008573ffffffffffffffffffffffffffffffffffffffff1673ffffffffffffffffffffffffffffffffffffffff16815260200190815260200160002060008282546124e0919061438e565b925050819055506001600360008473ffffffffffffffffffffffffffffffffffffffff1673ffffffffffffffffffffffffffffffffffffffff16815260200190815260200160002060008282546125379190614099565b92505081905550816002600083815260200190815260200160002060006101000a81548173ffffffffffffffffffffffffffffffffffffffff021916908373ffffffffffffffffffffffffffffffffffffffff160217905550808273ffffffffffffffffffffffffffffffffffffffff168473ffffffffffffffffffffffffffffffffffffffff167fddf252ad1be2c89b69c2b068fc378daa952ba7f163c4a11628f55a4df523b3ef60405160405180910390a4505050565b600073ffffffffffffffffffffffffffffffffffffffff168273ffffffffffffffffffffffffffffffffffffffff161415612660576040517f08c379a000000000000000000000000000000000000000000000000000000000815260040161265790613ebb565b60405180910390fd5b61266981612189565b156126a9576040517f08c379a00000000000000000000000000000000000000000000000000000000081526004016126a090613ddb565b60405180910390fd5b6126b560008383612cf5565b6001600360008473ffffffffffffffffffffffffffffffffffffffff1673ffffffffffffffffffffffffffffffffffffffff16815260200190815260200160002060008282546127059190614099565b92505081905550816002600083815260200190815260200160002060006101000a81548173ffffffffffffffffffffffffffffffffffffffff021916908373ffffffffffffffffffffffffffffffffffffffff160217905550808273ffffffffffffffffffffffffffffffffffffffff16600073ffffffffffffffffffffffffffffffffffffffff167fddf252ad1be2c89b69c2b068fc378daa952ba7f163c4a11628f55a4df523b3ef60405160405180910390a45050565b6127c9848484612394565b6127d584848484612cfa565b612814576040517f08c379a000000000000000000000000000000000000000000000000000000000815260040161280b90613d9b565b60405180910390fd5b50505050565b60606000602867ffffffffffffffff811115612839576128386146e2565b5b6040519080825280601f01601f19166020018201604052801561286b5781602001600182028036833780820191505090505b50905060005b60148110156129d3576000816013612889919061438e565b600861289591906142f9565b60026128a191906141db565b8573ffffffffffffffffffffffffffffffffffffffff166128c29190614126565b60f81b9050600060108260f81c6128d99190614157565b60f81b905060008160f81c60106128f09190614353565b8360f81c6128fe91906143c2565b60f81b905061290c82612e91565b8585600261291a91906142f9565b8151811061292b5761292a6146b3565b5b60200101907effffffffffffffffffffffffffffffffffffffffffffffffffffffffffffff1916908160001a90535061296381612e91565b85600186600261297391906142f9565b61297d9190614099565b8151811061298e5761298d6146b3565b5b60200101907effffffffffffffffffffffffffffffffffffffffffffffffffffffffffffff1916908160001a90535050505080806129cb906145ac565b915050612871565b50806040516020016129e59190613a41565b604051602081830303815290604052915050919050565b60606000821415612a44576040518060400160405280600181526020017f30000000000000000000000000000000000000000000000000000000000000008152509050612b58565b600082905060005b60008214612a76578080612a5f906145ac565b915050600a82612a6f9190614126565b9150612a4c565b60008167ffffffffffffffff811115612a9257612a916146e2565b5b6040519080825280601f01601f191660200182016040528015612ac45781602001600182028036833780820191505090505b5090505b60008514612b5157600182612add919061438e565b9150600a85612aec91906145f5565b6030612af89190614099565b60f81b818381518110612b0e57612b0d6146b3565b5b60200101907effffffffffffffffffffffffffffffffffffffffffffffffffffffffffffff1916908160001a905350600a85612b4a9190614126565b9450612ac8565b8093505050505b919050565b60606000825190506000811415612b865760405180602001604052806000815250915050612cf0565b60006003600283612b979190614099565b612ba19190614126565b6004612bad91906142f9565b90506000602082612bbe9190614099565b67ffffffffffffffff811115612bd757612bd66146e2565b5b6040519080825280601f01601f191660200182016040528015612c095781602001600182028036833780820191505090505b5090506000604051806060016040528060408152602001614eb1604091399050600181016020830160005b86811015612cad5760038101905062ffffff818a015116603f8160121c168401518060081b905060ff603f83600c1c1686015116810190508060081b905060ff603f8360061c1686015116810190508060081b905060ff603f831686015116810190508060e01b90508084526004840193505050612c34565b506003860660018114612cc75760028114612cd757612ce2565b613d3d60f01b6002830352612ce2565b603d60f81b60018303525b508484525050819450505050505b919050565b505050565b6000612d1b8473ffffffffffffffffffffffffffffffffffffffff16612ed7565b15612e84578373ffffffffffffffffffffffffffffffffffffffff1663150b7a02612d446121f5565b8786866040518563ffffffff1660e01b8152600401612d669493929190613c05565b602060405180830381600087803b158015612d8057600080fd5b505af1925050508015612db157506040513d601f19601f82011682018060405250810190612dae91906133f2565b60015b612e34573d8060008114612de1576040519150601f19603f3d011682016040523d82523d6000602084013e612de6565b606091505b50600081511415612e2c576040517f08c379a0000000000000000000000000000000000000000000000000000000008152600401612e2390613d9b565b60405180910390fd5b805181602001fd5b63150b7a0260e01b7bffffffffffffffffffffffffffffffffffffffffffffffffffffffff1916817bffffffffffffffffffffffffffffffffffffffffffffffffffffffff191614915050612e89565b600190505b949350505050565b6000600a8260f81c60ff161015612ebc5760308260f81c612eb291906140ef565b60f81b9050612ed2565b60578260f81c612ecc91906140ef565b60f81b90505b919050565b600080823b905060008111915050919050565b6040518061028001604052806014905b6060815260200190600190039081612efa5790505090565b6000612f25612f2084613fbb565b613f96565b905082815260208101848484011115612f4157612f40614716565b5b612f4c848285614507565b509392505050565b6000612f67612f6284613fec565b613f96565b905082815260208101848484011115612f8357612f82614716565b5b612f8e848285614507565b509392505050565b6000612fa9612fa484613fec565b613f96565b905082815260208101848484011115612fc557612fc4614716565b5b612fd0848285614516565b509392505050565b600081359050612fe781614df3565b92915050565b600081519050612ffc81614df3565b92915050565b60008135905061301181614e0a565b92915050565b60008135905061302681614e21565b92915050565b60008151905061303b81614e21565b92915050565b600082601f83011261305657613055614711565b5b8135613066848260208601612f12565b91505092915050565b60008151905061307e81614e38565b92915050565b600082601f83011261309957613098614711565b5b81356130a9848260208601612f54565b91505092915050565b600082601f8301126130c7576130c6614711565b5b81516130d7848260208601612f96565b91505092915050565b6000813590506130ef81614e4f565b92915050565b60008151905061310481614e4f565b92915050565b6000602082840312156131205761311f614720565b5b600061312e84828501612fd8565b91505092915050565b60006020828403121561314d5761314c614720565b5b600061315b84828501612fed565b91505092915050565b6000806040838503121561317b5761317a614720565b5b600061318985828601612fd8565b925050602061319a85828601612fd8565b9150509250929050565b600080604083850312156131bb576131ba614720565b5b60006131c985828601612fed565b92505060206131da85828601612fed565b9150509250929050565b6000806000606084860312156131fd576131fc614720565b5b600061320b86828701612fd8565b935050602061321c86828701612fd8565b925050604061322d868287016130e0565b9150509250925092565b6000806000806080858703121561325157613250614720565b5b600061325f87828801612fd8565b945050602061327087828801612fd8565b9350506040613281878288016130e0565b925050606085013567ffffffffffffffff8111156132a2576132a161471b565b5b6132ae87828801613041565b91505092959194509250565b600080604083850312156132d1576132d0614720565b5b60006132df85828601612fd8565b92505060206132f085828601613002565b9150509250929050565b60008060006060848603121561331357613312614720565b5b600061332186828701612fd8565b935050602084013567ffffffffffffffff8111156133425761334161471b565b5b61334e86828701613084565b925050604084013567ffffffffffffffff81111561336f5761336e61471b565b5b61337b86828701613084565b9150509250925092565b6000806040838503121561339c5761339b614720565b5b60006133aa85828601612fd8565b92505060206133bb858286016130e0565b9150509250929050565b6000602082840312156133db576133da614720565b5b60006133e984828501613017565b91505092915050565b60006020828403121561340857613407614720565b5b60006134168482850161302c565b91505092915050565b60006020828403121561343557613434614720565b5b60006134438482850161306f565b91505092915050565b60006020828403121561346257613461614720565b5b600082015167ffffffffffffffff8111156134805761347f61471b565b5b61348c848285016130b2565b91505092915050565b6000602082840312156134ab576134aa614720565b5b60006134b9848285016130e0565b91505092915050565b6000602082840312156134d8576134d7614720565b5b60006134e6848285016130f5565b91505092915050565b60006134fb8383613507565b60208301905092915050565b613510816143f6565b82525050565b61351f816143f6565b82525050565b60006135308261402d565b61353a818561405b565b93506135458361401d565b8060005b8381101561357657815161355d88826134ef565b97506135688361404e565b925050600181019050613549565b5085935050505092915050565b61358c81614408565b82525050565b600061359d82614038565b6135a7818561406c565b93506135b7818560208601614516565b6135c081614725565b840191505092915050565b6135d481614489565b82525050565b6135e38161449b565b82525050565b6135f2816144ad565b82525050565b613601816144bf565b82525050565b613610816144d1565b82525050565b600061362182614043565b61362b818561407d565b935061363b818560208601614516565b61364481614725565b840191505092915050565b600061365a82614043565b613664818561408e565b9350613674818560208601614516565b80840191505092915050565b600061368d60d88361408e565b915061369882614743565b60d882019050919050565b60006136b060148361407d565b91506136bb82614850565b602082019050919050565b60006136d360328361407d565b91506136de82614879565b604082019050919050565b60006136f660138361407d565b9150613701826148c8565b602082019050919050565b6000613719601c8361407d565b9150613724826148f1565b602082019050919050565b600061373c60028361408e565b91506137478261491a565b600282019050919050565b600061375f60248361407d565b915061376a82614943565b604082019050919050565b600061378260198361407d565b915061378d82614992565b602082019050919050565b60006137a560068361408e565b91506137b0826149bb565b600682019050919050565b60006137c8602c8361407d565b91506137d3826149e4565b604082019050919050565b60006137eb600d8361408e565b91506137f682614a33565b600d82019050919050565b600061380e60388361407d565b915061381982614a5c565b604082019050919050565b6000613831602a8361407d565b915061383c82614aab565b604082019050919050565b600061385460298361407d565b915061385f82614afa565b604082019050919050565b6000613877600a8361408e565b915061388282614b49565b600a82019050919050565b600061389a601d8361408e565b91506138a582614b72565b601d82019050919050565b60006138bd60028361408e565b91506138c882614b9b565b600282019050919050565b60006138e060208361407d565b91506138eb82614bc4565b602082019050919050565b6000613903602c8361407d565b915061390e82614bed565b604082019050919050565b600061392660298361407d565b915061393182614c3c565b604082019050919050565b600061394960218361407d565b915061395482614c8b565b604082019050919050565b600061396c601a8361408e565b915061397782614cda565b601a82019050919050565b600061398f601d8361408e565b915061399a82614d03565b601d82019050919050565b60006139b260218361407d565b91506139bd82614d2c565b604082019050919050565b60006139d560318361407d565b91506139e082614d7b565b604082019050919050565b60006139f860108361408e565b9150613a0382614dca565b601082019050919050565b613a1781614472565b82525050565b6000613a29828561364f565b9150613a35828461364f565b91508190509392505050565b6000613a4c8261372f565b9150613a58828461364f565b915081905092915050565b6000613a6e82613798565b9150613a7a828461364f565b915081905092915050565b6000613a90826137de565b9150613a9c828461364f565b915081905092915050565b6000613ab28261386a565b9150613abe828461364f565b915081905092915050565b6000613ad482613982565b9150613ae0828461364f565b915081905092915050565b6000613af6826139eb565b9150613b02828761364f565b9150613b0d8261395f565b9150613b19828661364f565b9150613b248261388d565b9150613b30828561364f565b9150613b3b82613680565b9150613b47828461364f565b9150613b52826138b0565b915081905095945050505050565b6000602082019050613b756000830184613516565b92915050565b6000604082019050613b906000830185613516565b613b9d6020830184613516565b9392505050565b600060a082019050613bb96000830188613516565b613bc66020830187613516565b613bd36040830186613516565b8181036060830152613be58185613616565b90508181036080830152613bf98184613616565b90509695505050505050565b6000608082019050613c1a6000830187613516565b613c276020830186613516565b613c346040830185613a0e565b8181036060830152613c468184613592565b905095945050505050565b60006040820190508181036000830152613c6b8185613525565b90508181036020830152613c7f8184613525565b90509392505050565b6000602082019050613c9d6000830184613583565b92915050565b6000602082019050613cb860008301846135cb565b92915050565b60006020820190508181036000830152613cd88184613616565b905092915050565b6000610120820190508181036000830152613cfb818c613616565b90508181036020830152613d0f818b613616565b9050613d1e604083018a613516565b613d2b6060830189613516565b613d386080830188613516565b613d4560a0830187613607565b613d5260c08301866135f8565b613d5f60e08301856135e9565b613d6d6101008301846135da565b9a9950505050505050505050565b60006020820190508181036000830152613d94816136a3565b9050919050565b60006020820190508181036000830152613db4816136c6565b9050919050565b60006020820190508181036000830152613dd4816136e9565b9050919050565b60006020820190508181036000830152613df48161370c565b9050919050565b60006020820190508181036000830152613e1481613752565b9050919050565b60006020820190508181036000830152613e3481613775565b9050919050565b60006020820190508181036000830152613e54816137bb565b9050919050565b60006020820190508181036000830152613e7481613801565b9050919050565b60006020820190508181036000830152613e9481613824565b9050919050565b60006020820190508181036000830152613eb481613847565b9050919050565b60006020820190508181036000830152613ed4816138d3565b9050919050565b60006020820190508181036000830152613ef4816138f6565b9050919050565b60006020820190508181036000830152613f1481613919565b9050919050565b60006020820190508181036000830152613f348161393c565b9050919050565b60006020820190508181036000830152613f54816139a5565b9050919050565b60006020820190508181036000830152613f74816139c8565b9050919050565b6000602082019050613f906000830184613a0e565b92915050565b6000613fa0613fb1565b9050613fac828261457b565b919050565b6000604051905090565b600067ffffffffffffffff821115613fd657613fd56146e2565b5b613fdf82614725565b9050602081019050919050565b600067ffffffffffffffff821115614007576140066146e2565b5b61401082614725565b9050602081019050919050565b6000819050602082019050919050565b600081519050919050565b600081519050919050565b600081519050919050565b6000602082019050919050565b600082825260208201905092915050565b600082825260208201905092915050565b600082825260208201905092915050565b600081905092915050565b60006140a482614472565b91506140af83614472565b9250827fffffffffffffffffffffffffffffffffffffffffffffffffffffffffffffffff038211156140e4576140e3614626565b5b828201905092915050565b60006140fa8261447c565b91506141058361447c565b92508260ff0382111561411b5761411a614626565b5b828201905092915050565b600061413182614472565b915061413c83614472565b92508261414c5761414b614655565b5b828204905092915050565b60006141628261447c565b915061416d8361447c565b92508261417d5761417c614655565b5b828204905092915050565b6000808291508390505b60018511156141d2578086048111156141ae576141ad614626565b5b60018516156141bd5780820291505b80810290506141cb85614736565b9450614192565b94509492505050565b60006141e682614472565b91506141f183614472565b925061421e7fffffffffffffffffffffffffffffffffffffffffffffffffffffffffffffffff8484614226565b905092915050565b60008261423657600190506142f2565b8161424457600090506142f2565b816001811461425a576002811461426457614293565b60019150506142f2565b60ff84111561427657614275614626565b5b8360020a91508482111561428d5761428c614626565b5b506142f2565b5060208310610133831016604e8410600b84101617156142c85782820a9050838111156142c3576142c2614626565b5b6142f2565b6142d58484846001614188565b925090508184048111156142ec576142eb614626565b5b81810290505b9392505050565b600061430482614472565b915061430f83614472565b9250817fffffffffffffffffffffffffffffffffffffffffffffffffffffffffffffffff048311821515161561434857614347614626565b5b828202905092915050565b600061435e8261447c565b91506143698361447c565b92508160ff048311821515161561438357614382614626565b5b828202905092915050565b600061439982614472565b91506143a483614472565b9250828210156143b7576143b6614626565b5b828203905092915050565b60006143cd8261447c565b91506143d88361447c565b9250828210156143eb576143ea614626565b5b828203905092915050565b600061440182614452565b9050919050565b60008115159050919050565b60007fffffffff0000000000000000000000000000000000000000000000000000000082169050919050565b600061444b826143f6565b9050919050565b600073ffffffffffffffffffffffffffffffffffffffff82169050919050565b6000819050919050565b600060ff82169050919050565b6000614494826144e3565b9050919050565b60006144a682614472565b9050919050565b60006144b882614472565b9050919050565b60006144ca82614472565b9050919050565b60006144dc82614472565b9050919050565b60006144ee826144f5565b9050919050565b600061450082614452565b9050919050565b82818337600083830152505050565b60005b83811015614534578082015181840152602081019050614519565b83811115614543576000848401525b50505050565b6000600282049050600182168061456157607f821691505b6020821081141561457557614574614684565b5b50919050565b61458482614725565b810181811067ffffffffffffffff821117156145a3576145a26146e2565b5b80604052505050565b60006145b782614472565b91507fffffffffffffffffffffffffffffffffffffffffffffffffffffffffffffffff8214156145ea576145e9614626565b5b600182019050919050565b600061460082614472565b915061460b83614472565b92508261461b5761461a614655565b5b828206905092915050565b7f4e487b7100000000000000000000000000000000000000000000000000000000600052601160045260246000fd5b7f4e487b7100000000000000000000000000000000000000000000000000000000600052601260045260246000fd5b7f4e487b7100000000000000000000000000000000000000000000000000000000600052602260045260246000fd5b7f4e487b7100000000000000000000000000000000000000000000000000000000600052603260045260246000fd5b7f4e487b7100000000000000000000000000000000000000000000000000000000600052604160045260246000fd5b600080fd5b600080fd5b600080fd5b600080fd5b6000601f19601f8301169050919050565b60008160011c9050919050565b7f222c20226465736372697074696f6e223a202257686f65766572206f776e732060008201527f74686973205054524e20746f6b656e2069732074686520506174726f6e20666f60208201527f72207468697320636f6c6c656374696f6e2e20506174726f6e73206175746f6d60408201527f61746963616c6c7920676574206120252066656520666f7220616e79204e465460608201527f2066726f6d207468697320636f6c6c656374696f6e20736f6c6420776974686960808201527f6e20446f75626c652054726f75626c652e222c2022696d616765223a2022646160a08201527f74613a696d6167652f7376672b786d6c3b6261736536342c000000000000000060c082015250565b7f436f6c6c656374696f6e206e6f7420666f756e64000000000000000000000000600082015250565b7f4552433732313a207472616e7366657220746f206e6f6e20455243373231526560008201527f63656976657220696d706c656d656e7465720000000000000000000000000000602082015250565b7f746f6b656e4964206e6f742070726573656e7400000000000000000000000000600082015250565b7f4552433732313a20746f6b656e20616c7265616479206d696e74656400000000600082015250565b7f3078000000000000000000000000000000000000000000000000000000000000600082015250565b7f4552433732313a207472616e7366657220746f20746865207a65726f2061646460008201527f7265737300000000000000000000000000000000000000000000000000000000602082015250565b7f4552433732313a20617070726f766520746f2063616c6c657200000000000000600082015250565b7f5054524e20230000000000000000000000000000000000000000000000000000600082015250565b7f4552433732313a206f70657261746f7220717565727920666f72206e6f6e657860008201527f697374656e7420746f6b656e0000000000000000000000000000000000000000602082015250565b7f54726f75626c65736f6d653a2000000000000000000000000000000000000000600082015250565b7f4552433732313a20617070726f76652063616c6c6572206973206e6f74206f7760008201527f6e6572206e6f7220617070726f76656420666f7220616c6c0000000000000000602082015250565b7f4552433732313a2062616c616e636520717565727920666f7220746865207a6560008201527f726f206164647265737300000000000000000000000000000000000000000000602082015250565b7f4552433732313a206f776e657220717565727920666f72206e6f6e657869737460008201527f656e7420746f6b656e0000000000000000000000000000000000000000000000602082015250565b7f4f726967696e616c3a2000000000000000000000000000000000000000000000600082015250565b7f222c202274726f75626c65736f6d65436f6c6c656374696f6e223a2022000000600082015250565b7f227d000000000000000000000000000000000000000000000000000000000000600082015250565b7f4552433732313a206d696e7420746f20746865207a65726f2061646472657373600082015250565b7f4552433732313a20617070726f76656420717565727920666f72206e6f6e657860008201527f697374656e7420746f6b656e0000000000000000000000000000000000000000602082015250565b7f4552433732313a207472616e73666572206f6620746f6b656e2074686174206960008201527f73206e6f74206f776e0000000000000000000000000000000000000000000000602082015250565b7f4552433732313a20617070726f76616c20746f2063757272656e74206f776e6560008201527f7200000000000000000000000000000000000000000000000000000000000000602082015250565b7f222c20226f726967696e616c436f6c6c656374696f6e223a2022000000000000600082015250565b7f646174613a6170706c69636174696f6e2f6a736f6e3b6261736536342c000000600082015250565b7f436f6c6c656374696f6e20697320616c72656164792054726f75626c65736f6d60008201527f6500000000000000000000000000000000000000000000000000000000000000602082015250565b7f4552433732313a207472616e736665722063616c6c6572206973206e6f74206f60008201527f776e6572206e6f7220617070726f766564000000000000000000000000000000602082015250565b7f7b226e616d65223a20225054524e202300000000000000000000000000000000600082015250565b614dfc816143f6565b8114614e0757600080fd5b50565b614e1381614408565b8114614e1e57600080fd5b50565b614e2a81614414565b8114614e3557600080fd5b50565b614e4181614440565b8114614e4c57600080fd5b50565b614e5881614472565b8114614e6357600080fd5b5056fe3c7465787420783d2231302220793d2238302220636c6173733d2262617365223e3c2f746578743e3c7465787420783d2231302220793d223130302220636c6173733d2262617365223e4142434445464748494a4b4c4d4e4f505152535455565758595a6162636465666768696a6b6c6d6e6f707172737475767778797a303132333435363738392b2f3c73766720786d6c6e733d22687474703a2f2f7777772e77332e6f72672f323030302f73766722207072657365727665417370656374526174696f3d22784d696e594d696e206d656574222076696577426f783d223020302034303020343030223e3c7374796c653e2e62617365207b2066696c6c3a2077686974653b20666f6e742d66616d696c793a2073657269663b20666f6e742d73697a653a20313470783b207d3c2f7374796c653e3c726563742077696474683d223130302522206865696768743d2231303025222066696c6c3d22626c61636b22202f3e3c7465787420783d2231302220793d2232302220636c6173733d2262617365223e3c7465787420783d2231302220793d2234302220636c6173733d2262617365223e3c7465787420783d2231302220793d2236302220636c6173733d2262617365223ea2646970667358221220f170a0a23a22034e7bf77979f093bfc5e251d9fd79336a47e7d69d921f95d30164736f6c63430008070033",
  "immutableReferences": {},
  "source": "pragma solidity ^0.8.0;\n\nimport \"@openzeppelin/contracts/token/ERC721/extensions/IERC721Metadata.sol\";\nimport \"@openzeppelin/contracts/token/ERC721/extensions/ERC721URIStorage.sol\";\nimport \"./DoubleTrouble.sol\";\nimport \"./Libraries.sol\";\n\n// SPDX-License-Identifier: MIT\ncontract DoubleTroubleOrchestrator is ERC721URIStorage {\n  mapping (address => DoubleTrouble) public _troublesomeCollections;\n  DoubleTroubleFactory _dtFactory;\n  address _feeWallet;\n  address[] _registeredCollections;\n\n  event MakeTroublesomeCollection(address msgSender, address originalCollection, address troublesomeCollection,\n                                  string name, string symbol);\n\n  constructor(DoubleTroubleFactory dtFactory, address feeWallet) ERC721(\"Patron Tokens\", \"PTRN\") {\n    _feeWallet = feeWallet;\n    _dtFactory = dtFactory;\n  }\n\n  function makeTroublesomeCollection(address nftCollection, string memory name, string memory symbol) external {\n    require(address(_troublesomeCollections[nftCollection]) == address(0), \"Collection is already Troublesome\");\n\n    // Deploy troublesome contract for nftCollection\n    _troublesomeCollections[nftCollection] = _dtFactory.makeNew(name, symbol, nftCollection, _feeWallet, address(this), 30, 2, 1, 130);\n    _mint(msg.sender, _registeredCollections.length);\n    _registeredCollections.push(nftCollection);\n\n    emit MakeTroublesomeCollection(msg.sender, nftCollection, address(_troublesomeCollections[nftCollection]), name, symbol);\n  }\n\n  function troublesomeCollection(address nftCollection) external view returns (DoubleTrouble) {\n    return _troublesomeCollections[nftCollection];\n  }\n\n  function registeredCollections() external view returns (address[] memory, address[] memory) {\n    address[] memory mappedCollections = new address[](_registeredCollections.length);\n    for (uint i = 0; i < _registeredCollections.length; i++) {\n      mappedCollections[i] = address(_troublesomeCollections[_registeredCollections[i]]);\n    }\n\n    return (_registeredCollections, mappedCollections);\n  }\n\n  function registeredCollection(uint256 tokenId) external view returns (address, address) {\n    require(tokenId < _registeredCollections.length, \"tokenId not present\");\n    address original = _registeredCollections[tokenId];\n    return (original, address(_troublesomeCollections[original]));\n  }\n\n  function tokenIdForTroublesomeCollection(address troublesomeCollectionAddr) external view returns (uint256) {\n    for (uint i = 0; i < _registeredCollections.length; i++) {\n      if (troublesomeCollectionAddr == address(_troublesomeCollections[_registeredCollections[i]])) {\n        return i;\n      }\n    }\n    revert(\"Collection not found\");\n  }\n\n  // This is the most meta code in this contract\n  // If PTRN # tokenId is owned by an externally owned account, patronOfTokenId returns that account\n  // if PTRN # tokenId is owned by the troublesome contract of this DTO, return the owner per\n  // the troublesome contract\n  function patronOfTokenId(uint256 tokenId) external view returns (address) {\n    // Try to reach for a troublesomeCollection for this DTO\n    DoubleTrouble dtForDto = this.troublesomeCollection(address(this));\n    if (address(dtForDto) != address(0)) {\n      try dtForDto.ownerOf(tokenId) returns (address owner) {\n        return owner;\n      } catch (bytes memory /*lowLevelData*/) {\n        // NOOP\n      }\n    }\n\n    // If the above failed, it means DTO itself knows the patron\n    return ownerOf(tokenId);\n  }\n\n  function patronOf(address troublesomeCollectionAddr) external view returns (address) {\n    return this.patronOfTokenId(this.tokenIdForTroublesomeCollection(troublesomeCollectionAddr));\n  }\n\n  function getOriginalCollectionName(uint256 tokenId) external view returns (string memory) {\n    require(tokenId < _registeredCollections.length, \"tokenId not present\");\n    return IERC721Metadata(_registeredCollections[tokenId]).name();\n  }\n\n  function getOriginalCollectionSymbol(uint256 tokenId) external view returns (string memory) {\n    require(tokenId < _registeredCollections.length, \"tokenId not present\");\n    return IERC721Metadata(_registeredCollections[tokenId]).symbol();\n  }\n\n  function tokenURI(uint256 tokenId) public view virtual override returns (string memory) {\n    require(tokenId < _registeredCollections.length, \"tokenId not present\");\n    address o;\n    address t;\n    (o, t) = this.registeredCollection(tokenId);\n    string memory originalAddr = Stringify.toString(o);\n    string memory troublesomeAddr= Stringify.toString(t);\n    string memory strTokenId = Stringify.toString(tokenId);\n\n    string[20] memory parts;\n    uint256 lastPart = 0;\n    parts[lastPart++] = '<svg xmlns=\"http://www.w3.org/2000/svg\" preserveAspectRatio=\"xMinYMin meet\" viewBox=\"0 0 400 400\"><style>.base { fill: white; font-family: serif; font-size: 14px; }</style><rect width=\"100%\" height=\"100%\" fill=\"black\" /><text x=\"10\" y=\"20\" class=\"base\">';\n\n    parts[lastPart++] = string(abi.encodePacked('PTRN #', strTokenId));\n    parts[lastPart++] = '</text>';\n\n    try this.getOriginalCollectionName(tokenId) returns (string memory name) {\n      parts[lastPart++] = '<text x=\"10\" y=\"40\" class=\"base\">';\n      parts[lastPart++] = name;\n      parts[lastPart++] = '</text>';\n    } catch (bytes memory /*lowLevelData*/) {\n      // NOOP\n    }\n\n    try this.getOriginalCollectionSymbol(tokenId) returns (string memory symbol) {\n      parts[lastPart++] = '<text x=\"10\" y=\"60\" class=\"base\">';\n      parts[lastPart++] = symbol;\n      parts[lastPart++] = '</text>';\n    } catch (bytes memory /*lowLevelData*/) {\n      // NOOP\n    }\n\n    parts[lastPart++] = '<text x=\"10\" y=\"80\" class=\"base\">';\n    parts[lastPart++] = string(abi.encodePacked('Original: ', originalAddr));\n    parts[lastPart++] = '</text><text x=\"10\" y=\"100\" class=\"base\">';\n\n    parts[lastPart++] = string(abi.encodePacked('Troublesome: ', troublesomeAddr));\n    parts[lastPart++] = '</text></svg>';\n\n    string memory output;\n    for (uint256 i = 0; i < lastPart; i++) {\n      output = string(abi.encodePacked(output, parts[i]));\n    }\n\n    string memory json = Base64.encode(bytes(string(abi.encodePacked('{\"name\": \"PTRN #', strTokenId, '\", \"originalCollection\": \"',\n                                                                      originalAddr, '\", \"troublesomeCollection\": \"',\n                                                                      troublesomeAddr, '\", \"description\": \"Whoever owns this PTRN token is the Patron for this collection. Patrons automatically get a % fee for any NFT from this collection sold within Double Trouble.\", \"image\": \"data:image/svg+xml;base64,',\n                                                                      Base64.encode(bytes(output)), '\"}'))));\n    output = string(abi.encodePacked('data:application/json;base64,', json));\n\n    return output;\n  }\n}\n\n/*\n* We need a Factory contract here because otherwise\n* DoubleTroubleOrchestrator's code would have to include all of\n* DoubleTrouble's code, and this would make DTO go above the 24KB Ethereum contract size limit.\n*\n* See more on this here: https://ethereum.stackexchange.com/questions/41501/contract-code-size-and-how-to-work-around-it\n*/\ncontract DoubleTroubleFactory {\n  function makeNew(string memory name, string memory symbol, address nftCollection, address feeWallet, address dto,\n                  uint256 daysForWithdraw, uint256 dtNumerator, uint256 dtDenominator, uint256 feeRate)\n        external returns (DoubleTrouble) {\n    return new DoubleTrouble(name, symbol, nftCollection, feeWallet, dto,\n                             daysForWithdraw, dtNumerator, dtDenominator, feeRate);\n  }\n}\n",
  "sourcePath": "/Users/laurafiuza/Desktop/double-trouble/blockchain-backend/contracts/DoubleTroubleOrchestrator.sol",
  "compiler": {
    "name": "solc",
    "version": "0.8.7+commit.e28d00a7.Emscripten.clang"
  },
  "schemaVersion": "3.4.3",
  "updatedAt": "2021-09-11T15:44:00.314Z",
  "networkType": "ethereum",
  "devdoc": {
    "kind": "dev",
    "methods": {
      "approve(address,uint256)": {
        "details": "See {IERC721-approve}."
      },
      "balanceOf(address)": {
        "details": "See {IERC721-balanceOf}."
      },
      "getApproved(uint256)": {
        "details": "See {IERC721-getApproved}."
      },
      "isApprovedForAll(address,address)": {
        "details": "See {IERC721-isApprovedForAll}."
      },
      "name()": {
        "details": "See {IERC721Metadata-name}."
      },
      "ownerOf(uint256)": {
        "details": "See {IERC721-ownerOf}."
      },
      "safeTransferFrom(address,address,uint256)": {
        "details": "See {IERC721-safeTransferFrom}."
      },
      "safeTransferFrom(address,address,uint256,bytes)": {
        "details": "See {IERC721-safeTransferFrom}."
      },
      "setApprovalForAll(address,bool)": {
        "details": "See {IERC721-setApprovalForAll}."
      },
      "supportsInterface(bytes4)": {
        "details": "See {IERC165-supportsInterface}."
      },
      "symbol()": {
        "details": "See {IERC721Metadata-symbol}."
      },
      "tokenURI(uint256)": {
        "details": "See {IERC721Metadata-tokenURI}."
      },
      "transferFrom(address,address,uint256)": {
        "details": "See {IERC721-transferFrom}."
      }
    },
    "version": 1
  },
  "userdoc": {
    "kind": "user",
    "methods": {},
    "version": 1
  }
}