{
  "_format": "hh-sol-artifact-1",
  "contractName": "DoubleTrouble",
  "sourceName": "contracts/DoubleTrouble.sol",
  "abi": [
    {
      "inputs": [
        {
          "internalType": "address",
          "name": "ptdAddr",
          "type": "address"
        },
        {
          "internalType": "uint256",
          "name": "daysForWithdraw",
          "type": "uint256"
        },
        {
          "internalType": "uint256",
          "name": "dtNumerator",
          "type": "uint256"
        },
        {
          "internalType": "uint256",
          "name": "dtDenominator",
          "type": "uint256"
        },
        {
          "internalType": "uint256",
          "name": "feeRate",
          "type": "uint256"
        },
        {
          "internalType": "address",
          "name": "feeWallet",
          "type": "address"
        }
      ],
      "stateMutability": "nonpayable",
      "type": "constructor"
    },
    {
      "anonymous": false,
      "inputs": [
        {
          "indexed": false,
          "internalType": "address",
          "name": "oldOwner",
          "type": "address"
        },
        {
          "indexed": false,
          "internalType": "address",
          "name": "newOwner",
          "type": "address"
        },
        {
          "indexed": false,
          "internalType": "address",
          "name": "collection",
          "type": "address"
        },
        {
          "indexed": false,
          "internalType": "uint256",
          "name": "tokenId",
          "type": "uint256"
        },
        {
          "indexed": false,
          "internalType": "uint256",
          "name": "valueSent",
          "type": "uint256"
        },
        {
          "indexed": false,
          "internalType": "uint256",
          "name": "amountPaid",
          "type": "uint256"
        }
      ],
      "name": "Buy",
      "type": "event"
    },
    {
      "anonymous": false,
      "inputs": [
        {
          "indexed": false,
          "internalType": "address",
          "name": "oldOwner",
          "type": "address"
        },
        {
          "indexed": false,
          "internalType": "address",
          "name": "newOwner",
          "type": "address"
        },
        {
          "indexed": false,
          "internalType": "address",
          "name": "collection",
          "type": "address"
        },
        {
          "indexed": false,
          "internalType": "uint256",
          "name": "tokenId",
          "type": "uint256"
        },
        {
          "indexed": false,
          "internalType": "uint256",
          "name": "valueSent",
          "type": "uint256"
        },
        {
          "indexed": false,
          "internalType": "uint256",
          "name": "lastPurchasePrice",
          "type": "uint256"
        },
        {
          "indexed": false,
          "internalType": "uint256",
          "name": "amountPaid",
          "type": "uint256"
        }
      ],
      "name": "ForceBuy",
      "type": "event"
    },
    {
      "anonymous": false,
      "inputs": [
        {
          "indexed": false,
          "internalType": "address",
          "name": "msgSender",
          "type": "address"
        },
        {
          "indexed": false,
          "internalType": "address",
          "name": "collection",
          "type": "address"
        },
        {
          "indexed": false,
          "internalType": "uint256",
          "name": "tokenId",
          "type": "uint256"
        },
        {
          "indexed": false,
          "internalType": "uint256",
          "name": "price",
          "type": "uint256"
        }
      ],
      "name": "SetPrice",
      "type": "event"
    },
    {
      "anonymous": false,
      "inputs": [
        {
          "indexed": false,
          "internalType": "address",
          "name": "owner",
          "type": "address"
        },
        {
          "indexed": false,
          "internalType": "address",
          "name": "collection",
          "type": "address"
        },
        {
          "indexed": false,
          "internalType": "uint256",
          "name": "tokenId",
          "type": "uint256"
        },
        {
          "indexed": false,
          "internalType": "uint256",
          "name": "lastPurchasePrice",
          "type": "uint256"
        }
      ],
      "name": "Withdraw",
      "type": "event"
    },
    {
      "inputs": [],
      "name": "_daysForWithdraw",
      "outputs": [
        {
          "internalType": "uint256",
          "name": "",
          "type": "uint256"
        }
      ],
      "stateMutability": "view",
      "type": "function"
    },
    {
      "inputs": [],
      "name": "_dtDenominator",
      "outputs": [
        {
          "internalType": "uint256",
          "name": "",
          "type": "uint256"
        }
      ],
      "stateMutability": "view",
      "type": "function"
    },
    {
      "inputs": [],
      "name": "_dtNumerator",
      "outputs": [
        {
          "internalType": "uint256",
          "name": "",
          "type": "uint256"
        }
      ],
      "stateMutability": "view",
      "type": "function"
    },
    {
      "inputs": [],
      "name": "_feeRate",
      "outputs": [
        {
          "internalType": "uint256",
          "name": "",
          "type": "uint256"
        }
      ],
      "stateMutability": "view",
      "type": "function"
    },
    {
      "inputs": [],
      "name": "_pt",
      "outputs": [
        {
          "internalType": "contract PatronTokens",
          "name": "",
          "type": "address"
        }
      ],
      "stateMutability": "view",
      "type": "function"
    },
    {
      "inputs": [],
      "name": "allKnownTokens",
      "outputs": [
        {
          "components": [
            {
              "internalType": "address",
              "name": "collection",
              "type": "address"
            },
            {
              "internalType": "uint256",
              "name": "tokenId",
              "type": "uint256"
            },
            {
              "internalType": "uint256",
              "name": "lastPurchasePrice",
              "type": "uint256"
            },
            {
              "internalType": "uint256",
              "name": "forSalePrice",
              "type": "uint256"
            },
            {
              "internalType": "uint256",
              "name": "availableToWithdraw",
              "type": "uint256"
            }
          ],
          "internalType": "struct TokenInfo[]",
          "name": "",
          "type": "tuple[]"
        }
      ],
      "stateMutability": "view",
      "type": "function"
    },
    {
      "inputs": [
        {
          "internalType": "address",
          "name": "collection",
          "type": "address"
        },
        {
          "internalType": "uint256",
          "name": "tokenId",
          "type": "uint256"
        }
      ],
      "name": "availableToWithdraw",
      "outputs": [
        {
          "internalType": "uint256",
          "name": "",
          "type": "uint256"
        }
      ],
      "stateMutability": "view",
      "type": "function"
    },
    {
      "inputs": [
        {
          "internalType": "address",
          "name": "collection",
          "type": "address"
        },
        {
          "internalType": "uint256",
          "name": "tokenId",
          "type": "uint256"
        }
      ],
      "name": "buy",
      "outputs": [],
      "stateMutability": "payable",
      "type": "function"
    },
    {
      "inputs": [
        {
          "internalType": "address",
          "name": "collection",
          "type": "address"
        },
        {
          "internalType": "uint256",
          "name": "tokenId",
          "type": "uint256"
        }
      ],
      "name": "forSalePrice",
      "outputs": [
        {
          "internalType": "uint256",
          "name": "",
          "type": "uint256"
        }
      ],
      "stateMutability": "view",
      "type": "function"
    },
    {
      "inputs": [
        {
          "internalType": "address",
          "name": "collection",
          "type": "address"
        },
        {
          "internalType": "uint256",
          "name": "tokenId",
          "type": "uint256"
        }
      ],
      "name": "forceBuy",
      "outputs": [],
      "stateMutability": "payable",
      "type": "function"
    },
    {
      "inputs": [
        {
          "internalType": "address",
          "name": "collection",
          "type": "address"
        },
        {
          "internalType": "uint256",
          "name": "tokenId",
          "type": "uint256"
        }
      ],
      "name": "lastPurchasePrice",
      "outputs": [
        {
          "internalType": "uint256",
          "name": "",
          "type": "uint256"
        }
      ],
      "stateMutability": "view",
      "type": "function"
    },
    {
      "inputs": [
        {
          "internalType": "address",
          "name": "collection",
          "type": "address"
        },
        {
          "internalType": "uint256",
          "name": "tokenId",
          "type": "uint256"
        }
      ],
      "name": "lastPurchaseTime",
      "outputs": [
        {
          "internalType": "uint256",
          "name": "",
          "type": "uint256"
        }
      ],
      "stateMutability": "view",
      "type": "function"
    },
    {
      "inputs": [
        {
          "internalType": "address",
          "name": "collection",
          "type": "address"
        },
        {
          "internalType": "uint256",
          "name": "tokenId",
          "type": "uint256"
        }
      ],
      "name": "originalTokenURI",
      "outputs": [
        {
          "internalType": "string",
          "name": "",
          "type": "string"
        }
      ],
      "stateMutability": "view",
      "type": "function"
    },
    {
      "inputs": [
        {
          "internalType": "address",
          "name": "collection",
          "type": "address"
        },
        {
          "internalType": "uint256",
          "name": "tokenId",
          "type": "uint256"
        }
      ],
      "name": "ownerOf",
      "outputs": [
        {
          "internalType": "address",
          "name": "",
          "type": "address"
        }
      ],
      "stateMutability": "view",
      "type": "function"
    },
    {
      "inputs": [],
      "name": "patronTokensCollection",
      "outputs": [
        {
          "internalType": "address",
          "name": "",
          "type": "address"
        }
      ],
      "stateMutability": "view",
      "type": "function"
    },
    {
      "inputs": [
        {
          "internalType": "address",
          "name": "collection",
          "type": "address"
        },
        {
          "internalType": "uint256",
          "name": "tokenId",
          "type": "uint256"
        }
      ],
      "name": "secondsToWithdraw",
      "outputs": [
        {
          "internalType": "int256",
          "name": "",
          "type": "int256"
        }
      ],
      "stateMutability": "view",
      "type": "function"
    },
    {
      "inputs": [
        {
          "internalType": "address",
          "name": "collection",
          "type": "address"
        },
        {
          "internalType": "uint256",
          "name": "tokenId",
          "type": "uint256"
        },
        {
          "internalType": "uint256",
          "name": "price",
          "type": "uint256"
        }
      ],
      "name": "setPrice",
      "outputs": [],
      "stateMutability": "nonpayable",
      "type": "function"
    },
    {
      "inputs": [
        {
          "internalType": "address",
          "name": "collection",
          "type": "address"
        },
        {
          "internalType": "uint256",
          "name": "tokenId",
          "type": "uint256"
        }
      ],
      "name": "withdraw",
      "outputs": [],
      "stateMutability": "payable",
      "type": "function"
    }
  ],
  "bytecode": "0x60806040523480156200001157600080fd5b506040516200394c3803806200394c8339818101604052810190620000379190620001b6565b80600460006101000a81548173ffffffffffffffffffffffffffffffffffffffff021916908373ffffffffffffffffffffffffffffffffffffffff160217905550846006819055508360078190555082600881905550816005819055508573ffffffffffffffffffffffffffffffffffffffff1663cc86b28d306040518263ffffffff1660e01b8152600401620000cf919062000295565b602060405180830381600087803b158015620000ea57600080fd5b505af1158015620000ff573d6000803e3d6000fd5b505050506040513d601f19601f8201168201806040525081019062000125919062000252565b600960006101000a81548173ffffffffffffffffffffffffffffffffffffffff021916908373ffffffffffffffffffffffffffffffffffffffff16021790555050505050505062000357565b600081519050620001828162000309565b92915050565b600081519050620001998162000323565b92915050565b600081519050620001b0816200033d565b92915050565b60008060008060008060c08789031215620001d657620001d562000304565b5b6000620001e689828a0162000171565b9650506020620001f989828a016200019f565b95505060406200020c89828a016200019f565b94505060606200021f89828a016200019f565b93505060806200023289828a016200019f565b92505060a06200024589828a0162000171565b9150509295509295509295565b6000602082840312156200026b576200026a62000304565b5b60006200027b8482850162000188565b91505092915050565b6200028f81620002b2565b82525050565b6000602082019050620002ac600083018462000284565b92915050565b6000620002bf82620002da565b9050919050565b6000620002d382620002b2565b9050919050565b600073ffffffffffffffffffffffffffffffffffffffff82169050919050565b6000819050919050565b600080fd5b6200031481620002b2565b81146200032057600080fd5b50565b6200032e81620002c6565b81146200033a57600080fd5b50565b6200034881620002fa565b81146200035457600080fd5b50565b6135e580620003676000396000f3fe6080604052600436106101095760003560e01c806390d4b4bf11610095578063ad2e6fe811610064578063ad2e6fe8146103aa578063b2131f7d146103d5578063b3dc90eb14610400578063cce7ec131461042b578063f3fef3a31461044757610109565b806390d4b4bf146102c85780639a7818b9146102f3578063a08109d114610330578063a12495f51461036d57610109565b80633011e16a116100dc5780633011e16a146101de5780633945c9f9146102075780634525141a146102235780634fbcaf831461026057806366f294cf1461028b57610109565b806307341d8b1461010e5780631423f15a146101395780631f29d2dc1461016457806324de9761146101a1575b600080fd5b34801561011a57600080fd5b50610123610463565b6040516101309190612c68565b60405180910390f35b34801561014557600080fd5b5061014e610734565b60405161015b9190612aa1565b60405180910390f35b34801561017057600080fd5b5061018b60048036038101906101869190612602565b61075e565b6040516101989190612aa1565b60405180910390f35b3480156101ad57600080fd5b506101c860048036038101906101c39190612602565b6107d9565b6040516101d59190612e62565b60405180910390f35b3480156101ea57600080fd5b5061020560048036038101906102009190612642565b610834565b005b610221600480360381019061021c9190612602565b610be5565b005b34801561022f57600080fd5b5061024a60048036038101906102459190612602565b610f40565b6040516102579190612e62565b60405180910390f35b34801561026c57600080fd5b50610275610f9a565b6040516102829190612e62565b60405180910390f35b34801561029757600080fd5b506102b260048036038101906102ad9190612602565b610fa0565b6040516102bf9190612e62565b60405180910390f35b3480156102d457600080fd5b506102dd611016565b6040516102ea9190612c8a565b60405180910390f35b3480156102ff57600080fd5b5061031a60048036038101906103159190612602565b61103c565b6040516103279190612ca5565b60405180910390f35b34801561033c57600080fd5b5061035760048036038101906103529190612602565b6110d3565b6040516103649190612e62565b60405180910390f35b34801561037957600080fd5b50610394600480360381019061038f9190612602565b61112e565b6040516103a19190612cc0565b60405180910390f35b3480156103b657600080fd5b506103bf6111c6565b6040516103cc9190612e62565b60405180910390f35b3480156103e157600080fd5b506103ea6111cc565b6040516103f79190612e62565b60405180910390f35b34801561040c57600080fd5b506104156111d2565b6040516104229190612e62565b60405180910390f35b61044560048036038101906104409190612602565b6111d8565b005b610461600480360381019061045c9190612602565b611885565b005b60606000600960009054906101000a900473ffffffffffffffffffffffffffffffffffffffff1673ffffffffffffffffffffffffffffffffffffffff1663454666166040518163ffffffff1660e01b815260040160006040518083038186803b1580156104cf57600080fd5b505afa1580156104e3573d6000803e3d6000fd5b505050506040513d6000823e3d601f19601f8201168201806040525081019061050c9190612695565b90506000815167ffffffffffffffff81111561052b5761052a61322a565b5b60405190808252806020026020018201604052801561056457816020015b6105516123de565b8152602001906001900390816105495790505b50905060005b825181101561072b576000838281518110610588576105876131fb565b5b602002602001015190506040518060a00160405280826000015173ffffffffffffffffffffffffffffffffffffffff1681526020018260200151815260200160016000846000015173ffffffffffffffffffffffffffffffffffffffff1673ffffffffffffffffffffffffffffffffffffffff168152602001908152602001600020600084602001518152602001908152602001600020548152602001600080846000015173ffffffffffffffffffffffffffffffffffffffff1673ffffffffffffffffffffffffffffffffffffffff168152602001908152602001600020600084602001518152602001908152602001600020548152602001620151806006546106939190612fe6565b60026000856000015173ffffffffffffffffffffffffffffffffffffffff1673ffffffffffffffffffffffffffffffffffffffff168152602001908152602001600020600085602001518152602001908152602001600020546106f69190612f5f565b81525083838151811061070c5761070b6131fb565b5b602002602001018190525050808061072390613154565b91505061056a565b50809250505090565b6000600960009054906101000a900473ffffffffffffffffffffffffffffffffffffffff16905090565b6000600360008473ffffffffffffffffffffffffffffffffffffffff1673ffffffffffffffffffffffffffffffffffffffff168152602001908152602001600020600083815260200190815260200160002060009054906101000a900473ffffffffffffffffffffffffffffffffffffffff16905092915050565b6000600160008473ffffffffffffffffffffffffffffffffffffffff1673ffffffffffffffffffffffffffffffffffffffff168152602001908152602001600020600083815260200190815260200160002054905092915050565b600960009054906101000a900473ffffffffffffffffffffffffffffffffffffffff1673ffffffffffffffffffffffffffffffffffffffff1663dec075888484336040518463ffffffff1660e01b815260040161089393929190612c31565b600060405180830381600087803b1580156108ad57600080fd5b505af11580156108c1573d6000803e3d6000fd5b505050506000600160008573ffffffffffffffffffffffffffffffffffffffff1673ffffffffffffffffffffffffffffffffffffffff1681526020019081526020016000206000848152602001908152602001600020541415610ad7573373ffffffffffffffffffffffffffffffffffffffff168373ffffffffffffffffffffffffffffffffffffffff1663081812fc846040518263ffffffff1660e01b815260040161096e9190612e62565b60206040518083038186803b15801561098657600080fd5b505afa15801561099a573d6000803e3d6000fd5b505050506040513d601f19601f820116820180604052508101906109be91906125d5565b73ffffffffffffffffffffffffffffffffffffffff161480610a9357503373ffffffffffffffffffffffffffffffffffffffff168373ffffffffffffffffffffffffffffffffffffffff16636352211e846040518263ffffffff1660e01b8152600401610a2b9190612e62565b60206040518083038186803b158015610a4357600080fd5b505afa158015610a57573d6000803e3d6000fd5b505050506040513d601f19601f82011682018060405250810190610a7b91906125d5565b73ffffffffffffffffffffffffffffffffffffffff16145b610ad2576040517f08c379a0000000000000000000000000000000000000000000000000000000008152600401610ac990612d62565b60405180910390fd5b610b4f565b3373ffffffffffffffffffffffffffffffffffffffff16610af8848461075e565b73ffffffffffffffffffffffffffffffffffffffff1614610b4e576040517f08c379a0000000000000000000000000000000000000000000000000000000008152600401610b4590612dc2565b60405180910390fd5b5b806000808573ffffffffffffffffffffffffffffffffffffffff1673ffffffffffffffffffffffffffffffffffffffff1681526020019081526020016000206000848152602001908152602001600020819055507f842cd33d5c4fbd27ed76fdff678fdf5fe0bdf26805132b8cd2ac5b5e7f20454933848484604051610bd89493929190612bc3565b60405180910390a1505050565b6000600160008473ffffffffffffffffffffffffffffffffffffffff1673ffffffffffffffffffffffffffffffffffffffff16815260200190815260200160002060008381526020019081526020016000205411610c78576040517f08c379a0000000000000000000000000000000000000000000000000000000008152600401610c6f90612d22565b60405180910390fd5b6000600854600160008573ffffffffffffffffffffffffffffffffffffffff1673ffffffffffffffffffffffffffffffffffffffff168152602001908152602001600020600084815260200190815260200160002054600754610cdb9190612fe6565b610ce59190612fb5565b905080341015610d2a576040517f08c379a0000000000000000000000000000000000000000000000000000000008152600401610d2190612e42565b60405180910390fd5b600960009054906101000a900473ffffffffffffffffffffffffffffffffffffffff1673ffffffffffffffffffffffffffffffffffffffff1663dec075888484336040518463ffffffff1660e01b8152600401610d8993929190612c31565b600060405180830381600087803b158015610da357600080fd5b505af1158015610db7573d6000803e3d6000fd5b505050507ff78a5e9b14ff5788d405220187f43b60b1e5f95287893279849d54146e898dd4600360008573ffffffffffffffffffffffffffffffffffffffff1673ffffffffffffffffffffffffffffffffffffffff168152602001908152602001600020600084815260200190815260200160002060009054906101000a900473ffffffffffffffffffffffffffffffffffffffff1633858534600160008a73ffffffffffffffffffffffffffffffffffffffff1673ffffffffffffffffffffffffffffffffffffffff16815260200190815260200160002060008981526020019081526020016000205487604051610eb69796959493929190612b1d565b60405180910390a1610f3b600360008573ffffffffffffffffffffffffffffffffffffffff1673ffffffffffffffffffffffffffffffffffffffff168152602001908152602001600020600084815260200190815260200160002060009054906101000a900473ffffffffffffffffffffffffffffffffffffffff1633858585611e6a565b505050565b60008060008473ffffffffffffffffffffffffffffffffffffffff1673ffffffffffffffffffffffffffffffffffffffff168152602001908152602001600020600083815260200190815260200160002054905092915050565b60085481565b600062015180600654610fb39190612fe6565b600260008573ffffffffffffffffffffffffffffffffffffffff1673ffffffffffffffffffffffffffffffffffffffff16815260200190815260200160002060008481526020019081526020016000205461100e9190612f5f565b905092915050565b600960009054906101000a900473ffffffffffffffffffffffffffffffffffffffff1681565b6000423073ffffffffffffffffffffffffffffffffffffffff166366f294cf85856040518363ffffffff1660e01b815260040161107a929190612c08565b60206040518083038186803b15801561109257600080fd5b505afa1580156110a6573d6000803e3d6000fd5b505050506040513d601f19601f820116820180604052508101906110ca9190612727565b03905092915050565b6000600260008473ffffffffffffffffffffffffffffffffffffffff1673ffffffffffffffffffffffffffffffffffffffff168152602001908152602001600020600083815260200190815260200160002054905092915050565b60608273ffffffffffffffffffffffffffffffffffffffff1663c87b56dd836040518263ffffffff1660e01b81526004016111699190612e62565b60006040518083038186803b15801561118157600080fd5b505afa158015611195573d6000803e3d6000fd5b505050506040513d6000823e3d601f19601f820116820180604052508101906111be91906126de565b905092915050565b60075481565b60055481565b60065481565b60008060008473ffffffffffffffffffffffffffffffffffffffff1673ffffffffffffffffffffffffffffffffffffffff1681526020019081526020016000206000838152602001908152602001600020541161126a576040517f08c379a000000000000000000000000000000000000000000000000000000000815260040161126190612da2565b60405180910390fd5b6000808373ffffffffffffffffffffffffffffffffffffffff1673ffffffffffffffffffffffffffffffffffffffff1681526020019081526020016000206000828152602001908152602001600020543410156112fc576040517f08c379a00000000000000000000000000000000000000000000000000000000081526004016112f390612d82565b60405180910390fd5b600960009054906101000a900473ffffffffffffffffffffffffffffffffffffffff1673ffffffffffffffffffffffffffffffffffffffff1663dec075888383336040518463ffffffff1660e01b815260040161135b93929190612c31565b600060405180830381600087803b15801561137557600080fd5b505af1158015611389573d6000803e3d6000fd5b50505050600073ffffffffffffffffffffffffffffffffffffffff16600360008473ffffffffffffffffffffffffffffffffffffffff1673ffffffffffffffffffffffffffffffffffffffff168152602001908152602001600020600083815260200190815260200160002060009054906101000a900473ffffffffffffffffffffffffffffffffffffffff1673ffffffffffffffffffffffffffffffffffffffff1614156116b5573073ffffffffffffffffffffffffffffffffffffffff168273ffffffffffffffffffffffffffffffffffffffff1663081812fc836040518263ffffffff1660e01b81526004016114829190612e62565b60206040518083038186803b15801561149a57600080fd5b505afa1580156114ae573d6000803e3d6000fd5b505050506040513d601f19601f820116820180604052508101906114d291906125d5565b73ffffffffffffffffffffffffffffffffffffffff1614611528576040517f08c379a000000000000000000000000000000000000000000000000000000000815260040161151f90612e02565b60405180910390fd5b60008273ffffffffffffffffffffffffffffffffffffffff16636352211e836040518263ffffffff1660e01b81526004016115639190612e62565b60206040518083038186803b15801561157b57600080fd5b505afa15801561158f573d6000803e3d6000fd5b505050506040513d601f19601f820116820180604052508101906115b391906125d5565b90508273ffffffffffffffffffffffffffffffffffffffff166323b872dd8230856040518463ffffffff1660e01b81526004016115f293929190612b8c565b600060405180830381600087803b15801561160c57600080fd5b505af1158015611620573d6000803e3d6000fd5b5050505080600360008573ffffffffffffffffffffffffffffffffffffffff1673ffffffffffffffffffffffffffffffffffffffff168152602001908152602001600020600084815260200190815260200160002060006101000a81548173ffffffffffffffffffffffffffffffffffffffff021916908373ffffffffffffffffffffffffffffffffffffffff160217905550505b7f2b136dc8a1e75af47608f32ab641e99cb1c02b2abe3f05d187f42a8b90421c4b600360008473ffffffffffffffffffffffffffffffffffffffff1673ffffffffffffffffffffffffffffffffffffffff168152602001908152602001600020600083815260200190815260200160002060009054906101000a900473ffffffffffffffffffffffffffffffffffffffff16338484346000808973ffffffffffffffffffffffffffffffffffffffff1673ffffffffffffffffffffffffffffffffffffffff1681526020019081526020016000206000888152602001908152602001600020546040516117ad96959493929190612abc565b60405180910390a1611881600360008473ffffffffffffffffffffffffffffffffffffffff1673ffffffffffffffffffffffffffffffffffffffff168152602001908152602001600020600083815260200190815260200160002060009054906101000a900473ffffffffffffffffffffffffffffffffffffffff163384846000808873ffffffffffffffffffffffffffffffffffffffff1673ffffffffffffffffffffffffffffffffffffffff168152602001908152602001600020600087815260200190815260200160002054611e6a565b5050565b3373ffffffffffffffffffffffffffffffffffffffff16600360008473ffffffffffffffffffffffffffffffffffffffff1673ffffffffffffffffffffffffffffffffffffffff168152602001908152602001600020600083815260200190815260200160002060009054906101000a900473ffffffffffffffffffffffffffffffffffffffff1673ffffffffffffffffffffffffffffffffffffffff1614611963576040517f08c379a000000000000000000000000000000000000000000000000000000000815260040161195a90612dc2565b60405180910390fd5b3073ffffffffffffffffffffffffffffffffffffffff166366f294cf83836040518363ffffffff1660e01b815260040161199e929190612c08565b60206040518083038186803b1580156119b657600080fd5b505afa1580156119ca573d6000803e3d6000fd5b505050506040513d601f19601f820116820180604052508101906119ee9190612727565b4211611a2f576040517f08c379a0000000000000000000000000000000000000000000000000000000008152600401611a2690612de2565b60405180910390fd5b6002600554600160008573ffffffffffffffffffffffffffffffffffffffff1673ffffffffffffffffffffffffffffffffffffffff168152602001908152602001600020600084815260200190815260200160002054611a8f9190612fb5565b611a999190612fe6565b341015611adb576040517f08c379a0000000000000000000000000000000000000000000000000000000008152600401611ad290612d02565b60405180910390fd5b6000600160008473ffffffffffffffffffffffffffffffffffffffff1673ffffffffffffffffffffffffffffffffffffffff16815260200190815260200160002060008381526020019081526020016000205490507ff341246adaac6f497bc2a656f546ab9e182111d630394f0c57c710a59a2cb567600360008573ffffffffffffffffffffffffffffffffffffffff1673ffffffffffffffffffffffffffffffffffffffff168152602001908152602001600020600084815260200190815260200160002060009054906101000a900473ffffffffffffffffffffffffffffffffffffffff16848484604051611bd59493929190612bc3565b60405180910390a18273ffffffffffffffffffffffffffffffffffffffff166323b872dd30600360008773ffffffffffffffffffffffffffffffffffffffff1673ffffffffffffffffffffffffffffffffffffffff168152602001908152602001600020600086815260200190815260200160002060009054906101000a900473ffffffffffffffffffffffffffffffffffffffff16856040518463ffffffff1660e01b8152600401611c8a93929190612b8c565b600060405180830381600087803b158015611ca457600080fd5b505af1158015611cb8573d6000803e3d6000fd5b505050506000600360008573ffffffffffffffffffffffffffffffffffffffff1673ffffffffffffffffffffffffffffffffffffffff168152602001908152602001600020600084815260200190815260200160002060006101000a81548173ffffffffffffffffffffffffffffffffffffffff021916908373ffffffffffffffffffffffffffffffffffffffff1602179055506000600160008573ffffffffffffffffffffffffffffffffffffffff1673ffffffffffffffffffffffffffffffffffffffff16815260200190815260200160002060008481526020019081526020016000208190555060008060008573ffffffffffffffffffffffffffffffffffffffff1673ffffffffffffffffffffffffffffffffffffffff1681526020019081526020016000206000848152602001908152602001600020819055506000600260008573ffffffffffffffffffffffffffffffffffffffff1673ffffffffffffffffffffffffffffffffffffffff168152602001908152602001600020600084815260200190815260200160002081905550611e658360055483611e5f9190612fb5565b346121d0565b505050565b8473ffffffffffffffffffffffffffffffffffffffff16600360008573ffffffffffffffffffffffffffffffffffffffff1673ffffffffffffffffffffffffffffffffffffffff168152602001908152602001600020600084815260200190815260200160002060009054906101000a900473ffffffffffffffffffffffffffffffffffffffff1673ffffffffffffffffffffffffffffffffffffffff1614611f48576040517f08c379a0000000000000000000000000000000000000000000000000000000008152600401611f3f90612d42565b60405180910390fd5b83600360008573ffffffffffffffffffffffffffffffffffffffff1673ffffffffffffffffffffffffffffffffffffffff168152602001908152602001600020600084815260200190815260200160002060006101000a81548173ffffffffffffffffffffffffffffffffffffffff021916908373ffffffffffffffffffffffffffffffffffffffff16021790555080600160008573ffffffffffffffffffffffffffffffffffffffff1673ffffffffffffffffffffffffffffffffffffffff16815260200190815260200160002060008481526020019081526020016000208190555042600260008573ffffffffffffffffffffffffffffffffffffffff1673ffffffffffffffffffffffffffffffffffffffff16815260200190815260200160002060008481526020019081526020016000208190555060008060008573ffffffffffffffffffffffffffffffffffffffff1673ffffffffffffffffffffffffffffffffffffffff1681526020019081526020016000206000848152602001908152602001600020819055506000600554826120e69190612fb5565b905060008160026120f79190612fe6565b836121029190613040565b905060008773ffffffffffffffffffffffffffffffffffffffff168260405161212a90612a8c565b60006040518083038185875af1925050503d8060008114612167576040519150601f19603f3d011682016040523d82523d6000602084013e61216c565b606091505b50509050806121b0576040517f08c379a00000000000000000000000000000000000000000000000000000000081526004016121a790612ce2565b60405180910390fd5b6121c6868484346121c19190613040565b6121d0565b5050505050505050565b6000600960009054906101000a900473ffffffffffffffffffffffffffffffffffffffff1673ffffffffffffffffffffffffffffffffffffffff16630e2ccc78856040518263ffffffff1660e01b815260040161222d9190612aa1565b60206040518083038186803b15801561224557600080fd5b505afa158015612259573d6000803e3d6000fd5b505050506040513d601f19601f8201168201806040525081019061227d91906125d5565b905060008173ffffffffffffffffffffffffffffffffffffffff16846040516122a590612a8c565b60006040518083038185875af1925050503d80600081146122e2576040519150601f19603f3d011682016040523d82523d6000602084013e6122e7565b606091505b505090506000816122f85783612305565b84846123049190613040565b5b90506000600460009054906101000a900473ffffffffffffffffffffffffffffffffffffffff1673ffffffffffffffffffffffffffffffffffffffff168260405161234f90612a8c565b60006040518083038185875af1925050503d806000811461238c576040519150601f19603f3d011682016040523d82523d6000602084013e612391565b606091505b50509050806123d5576040517f08c379a00000000000000000000000000000000000000000000000000000000081526004016123cc90612e22565b60405180910390fd5b50505050505050565b6040518060a00160405280600073ffffffffffffffffffffffffffffffffffffffff168152602001600081526020016000815260200160008152602001600081525090565b600061243661243184612ea2565b612e7d565b9050808382526020820190508285604086028201111561245957612458613263565b5b60005b85811015612489578161246f888261255b565b84526020840193506040830192505060018101905061245c565b5050509392505050565b60006124a66124a184612ece565b612e7d565b9050828152602081018484840111156124c2576124c1613268565b5b6124cd8482856130f0565b509392505050565b6000813590506124e481613581565b92915050565b6000815190506124f981613581565b92915050565b600082601f83011261251457612513613259565b5b8151612524848260208601612423565b91505092915050565b600082601f83011261254257612541613259565b5b8151612552848260208601612493565b91505092915050565b6000604082840312156125715761257061325e565b5b61257b6040612e7d565b9050600061258b848285016124ea565b600083015250602061259f848285016125c0565b60208301525092915050565b6000813590506125ba81613598565b92915050565b6000815190506125cf81613598565b92915050565b6000602082840312156125eb576125ea613272565b5b60006125f9848285016124ea565b91505092915050565b6000806040838503121561261957612618613272565b5b6000612627858286016124d5565b9250506020612638858286016125ab565b9150509250929050565b60008060006060848603121561265b5761265a613272565b5b6000612669868287016124d5565b935050602061267a868287016125ab565b925050604061268b868287016125ab565b9150509250925092565b6000602082840312156126ab576126aa613272565b5b600082015167ffffffffffffffff8111156126c9576126c861326d565b5b6126d5848285016124ff565b91505092915050565b6000602082840312156126f4576126f3613272565b5b600082015167ffffffffffffffff8111156127125761271161326d565b5b61271e8482850161252d565b91505092915050565b60006020828403121561273d5761273c613272565b5b600061274b848285016125c0565b91505092915050565b60006127608383612a06565b60a08301905092915050565b61277581613074565b82525050565b61278481613074565b82525050565b600061279582612f0f565b61279f8185612f32565b93506127aa83612eff565b8060005b838110156127db5781516127c28882612754565b97506127cd83612f25565b9250506001810190506127ae565b5085935050505092915050565b6127f1816130ba565b82525050565b61280081613086565b82525050565b600061281182612f1a565b61281b8185612f4e565b935061282b8185602086016130f0565b61283481613277565b840191505092915050565b600061284c601983612f4e565b915061285782613288565b602082019050919050565b600061286f601883612f4e565b915061287a826132b1565b602082019050919050565b6000612892602e83612f4e565b915061289d826132da565b604082019050919050565b60006128b5601483612f4e565b91506128c082613329565b602082019050919050565b60006128d8603683612f4e565b91506128e382613352565b604082019050919050565b60006128fb602e83612f4e565b9150612906826133a1565b604082019050919050565b600061291e601383612f4e565b9150612929826133f0565b602082019050919050565b6000612941602183612f4e565b915061294c82613419565b604082019050919050565b6000612964600083612f43565b915061296f82613468565b600082019050919050565b6000612987603583612f4e565b91506129928261346b565b604082019050919050565b60006129aa603d83612f4e565b91506129b5826134ba565b604082019050919050565b60006129cd601d83612f4e565b91506129d882613509565b602082019050919050565b60006129f0603983612f4e565b91506129fb82613532565b604082019050919050565b60a082016000820151612a1c600085018261276c565b506020820151612a2f6020850182612a6e565b506040820151612a426040850182612a6e565b506060820151612a556060850182612a6e565b506080820151612a686080850182612a6e565b50505050565b612a77816130b0565b82525050565b612a86816130b0565b82525050565b6000612a9782612957565b9150819050919050565b6000602082019050612ab6600083018461277b565b92915050565b600060c082019050612ad1600083018961277b565b612ade602083018861277b565b612aeb604083018761277b565b612af86060830186612a7d565b612b056080830185612a7d565b612b1260a0830184612a7d565b979650505050505050565b600060e082019050612b32600083018a61277b565b612b3f602083018961277b565b612b4c604083018861277b565b612b596060830187612a7d565b612b666080830186612a7d565b612b7360a0830185612a7d565b612b8060c0830184612a7d565b98975050505050505050565b6000606082019050612ba1600083018661277b565b612bae602083018561277b565b612bbb6040830184612a7d565b949350505050565b6000608082019050612bd8600083018761277b565b612be5602083018661277b565b612bf26040830185612a7d565b612bff6060830184612a7d565b95945050505050565b6000604082019050612c1d600083018561277b565b612c2a6020830184612a7d565b9392505050565b6000606082019050612c46600083018661277b565b612c536020830185612a7d565b612c60604083018461277b565b949350505050565b60006020820190508181036000830152612c82818461278a565b905092915050565b6000602082019050612c9f60008301846127e8565b92915050565b6000602082019050612cba60008301846127f7565b92915050565b60006020820190508181036000830152612cda8184612806565b905092915050565b60006020820190508181036000830152612cfb8161283f565b9050919050565b60006020820190508181036000830152612d1b81612862565b9050919050565b60006020820190508181036000830152612d3b81612885565b9050919050565b60006020820190508181036000830152612d5b816128a8565b9050919050565b60006020820190508181036000830152612d7b816128cb565b9050919050565b60006020820190508181036000830152612d9b816128ee565b9050919050565b60006020820190508181036000830152612dbb81612911565b9050919050565b60006020820190508181036000830152612ddb81612934565b9050919050565b60006020820190508181036000830152612dfb8161297a565b9050919050565b60006020820190508181036000830152612e1b8161299d565b9050919050565b60006020820190508181036000830152612e3b816129c0565b9050919050565b60006020820190508181036000830152612e5b816129e3565b9050919050565b6000602082019050612e776000830184612a7d565b92915050565b6000612e87612e98565b9050612e938282613123565b919050565b6000604051905090565b600067ffffffffffffffff821115612ebd57612ebc61322a565b5b602082029050602081019050919050565b600067ffffffffffffffff821115612ee957612ee861322a565b5b612ef282613277565b9050602081019050919050565b6000819050602082019050919050565b600081519050919050565b600081519050919050565b6000602082019050919050565b600082825260208201905092915050565b600081905092915050565b600082825260208201905092915050565b6000612f6a826130b0565b9150612f75836130b0565b9250827fffffffffffffffffffffffffffffffffffffffffffffffffffffffffffffffff03821115612faa57612fa961319d565b5b828201905092915050565b6000612fc0826130b0565b9150612fcb836130b0565b925082612fdb57612fda6131cc565b5b828204905092915050565b6000612ff1826130b0565b9150612ffc836130b0565b9250817fffffffffffffffffffffffffffffffffffffffffffffffffffffffffffffffff04831182151516156130355761303461319d565b5b828202905092915050565b600061304b826130b0565b9150613056836130b0565b9250828210156130695761306861319d565b5b828203905092915050565b600061307f82613090565b9050919050565b6000819050919050565b600073ffffffffffffffffffffffffffffffffffffffff82169050919050565b6000819050919050565b60006130c5826130cc565b9050919050565b60006130d7826130de565b9050919050565b60006130e982613090565b9050919050565b60005b8381101561310e5780820151818401526020810190506130f3565b8381111561311d576000848401525b50505050565b61312c82613277565b810181811067ffffffffffffffff8211171561314b5761314a61322a565b5b80604052505050565b600061315f826130b0565b91507fffffffffffffffffffffffffffffffffffffffffffffffffffffffffffffffff8214156131925761319161319d565b5b600182019050919050565b7f4e487b7100000000000000000000000000000000000000000000000000000000600052601160045260246000fd5b7f4e487b7100000000000000000000000000000000000000000000000000000000600052601260045260246000fd5b7f4e487b7100000000000000000000000000000000000000000000000000000000600052603260045260246000fd5b7f4e487b7100000000000000000000000000000000000000000000000000000000600052604160045260246000fd5b600080fd5b600080fd5b600080fd5b600080fd5b600080fd5b600080fd5b6000601f19601f8301169050919050565b7f5472616e7366657220746f206f776e6572206661696c65642e00000000000000600082015250565b7f4d757374207061792066656520746f2077697468647261770000000000000000600082015250565b7f4e465420776173206e6f7420796574207075726368617365642077697468696e60008201527f20446f75626c6554726f75626c65000000000000000000000000000000000000602082015250565b7f6f6c64206f776e6572206d757374206d61746368000000000000000000000000600082015250565b7f6d73672e73656e6465722073686f756c6420626520617070726f766564206f7260008201527f206f776e6572206f66206f726967696e616c204e465400000000000000000000602082015250565b7f56616c75652073656e74206d757374206265206174206c65617374207468652060008201527f666f722073616c65207072696365000000000000000000000000000000000000602082015250565b7f4e4654206973206e6f7420666f722073616c6500000000000000000000000000600082015250565b7f6d73672e73656e6465722073686f756c64206265206f776e6572206f66204e4660008201527f5400000000000000000000000000000000000000000000000000000000000000602082015250565b50565b7f4e4654206e6f742079657420617661696c61626c6520746f207769746864726160008201527f772066726f6d20446f75626c652054726f75626c650000000000000000000000602082015250565b7f446f75626c6554726f75626c6520636f6e7472616374206d757374206265206160008201527f7070726f76656420746f206f706572617465207468697320746f6b656e000000602082015250565b7f5472616e7366657220746f2044542077616c6c6574206661696c65642e000000600082015250565b7f56616c75652073656e74206d757374206265206174206c65617374207477696360008201527f6520746865206c61737420707572636861736520707269636500000000000000602082015250565b61358a81613074565b811461359557600080fd5b50565b6135a1816130b0565b81146135ac57600080fd5b5056fea26469706673582212203e17f047617e45da8b4445de1fcf3e089bb8cbce566e55ce46613208cbf0639864736f6c63430008070033",
  "linkReferences": {},
  "deployedLinkReferences": {}
}