{
  "contractName": "DoubleTrouble",
  "abi": [
    {
      "inputs": [
        {
          "internalType": "string",
          "name": "name",
          "type": "string"
        },
        {
          "internalType": "string",
          "name": "symbol",
          "type": "string"
        },
        {
          "internalType": "address",
          "name": "nftCollection",
          "type": "address"
        },
        {
          "internalType": "address",
          "name": "feeWallet",
          "type": "address"
        },
        {
          "internalType": "address",
          "name": "dto",
          "type": "address"
        },
        {
          "internalType": "uint256",
          "name": "daysForWithdraw",
          "type": "uint256"
        },
        {
          "internalType": "uint256",
          "name": "dtNumerator",
          "type": "uint256"
        },
        {
          "internalType": "uint256",
          "name": "dtDenominator",
          "type": "uint256"
        },
        {
          "internalType": "uint256",
          "name": "feeRate",
          "type": "uint256"
        }
      ],
      "stateMutability": "nonpayable",
      "type": "constructor"
    },
    {
      "anonymous": false,
      "inputs": [
        {
          "indexed": true,
          "internalType": "address",
          "name": "owner",
          "type": "address"
        },
        {
          "indexed": true,
          "internalType": "address",
          "name": "approved",
          "type": "address"
        },
        {
          "indexed": true,
          "internalType": "uint256",
          "name": "tokenId",
          "type": "uint256"
        }
      ],
      "name": "Approval",
      "type": "event"
    },
    {
      "anonymous": false,
      "inputs": [
        {
          "indexed": true,
          "internalType": "address",
          "name": "owner",
          "type": "address"
        },
        {
          "indexed": true,
          "internalType": "address",
          "name": "operator",
          "type": "address"
        },
        {
          "indexed": false,
          "internalType": "bool",
          "name": "approved",
          "type": "bool"
        }
      ],
      "name": "ApprovalForAll",
      "type": "event"
    },
    {
      "anonymous": false,
      "inputs": [
        {
          "indexed": false,
          "internalType": "address",
          "name": "oldOwner",
          "type": "address"
        },
        {
          "indexed": false,
          "internalType": "address",
          "name": "newOwner",
          "type": "address"
        },
        {
          "indexed": false,
          "internalType": "uint256",
          "name": "tokenId",
          "type": "uint256"
        },
        {
          "indexed": false,
          "internalType": "uint256",
          "name": "valueSent",
          "type": "uint256"
        },
        {
          "indexed": false,
          "internalType": "uint256",
          "name": "amountPaid",
          "type": "uint256"
        }
      ],
      "name": "Buy",
      "type": "event"
    },
    {
      "anonymous": false,
      "inputs": [
        {
          "indexed": false,
          "internalType": "address",
          "name": "oldOwner",
          "type": "address"
        },
        {
          "indexed": false,
          "internalType": "address",
          "name": "newOwner",
          "type": "address"
        },
        {
          "indexed": false,
          "internalType": "uint256",
          "name": "tokenId",
          "type": "uint256"
        },
        {
          "indexed": false,
          "internalType": "uint256",
          "name": "valueSent",
          "type": "uint256"
        },
        {
          "indexed": false,
          "internalType": "uint256",
          "name": "lastPurchasePrice",
          "type": "uint256"
        },
        {
          "indexed": false,
          "internalType": "uint256",
          "name": "amountPaid",
          "type": "uint256"
        }
      ],
      "name": "ForceBuy",
      "type": "event"
    },
    {
      "anonymous": false,
      "inputs": [
        {
          "indexed": false,
          "internalType": "address",
          "name": "msgSender",
          "type": "address"
        },
        {
          "indexed": false,
          "internalType": "uint256",
          "name": "tokenId",
          "type": "uint256"
        },
        {
          "indexed": false,
          "internalType": "uint256",
          "name": "price",
          "type": "uint256"
        }
      ],
      "name": "SetPrice",
      "type": "event"
    },
    {
      "anonymous": false,
      "inputs": [
        {
          "indexed": true,
          "internalType": "address",
          "name": "from",
          "type": "address"
        },
        {
          "indexed": true,
          "internalType": "address",
          "name": "to",
          "type": "address"
        },
        {
          "indexed": true,
          "internalType": "uint256",
          "name": "tokenId",
          "type": "uint256"
        }
      ],
      "name": "Transfer",
      "type": "event"
    },
    {
      "anonymous": false,
      "inputs": [
        {
          "indexed": false,
          "internalType": "address",
          "name": "owner",
          "type": "address"
        },
        {
          "indexed": false,
          "internalType": "uint256",
          "name": "tokenId",
          "type": "uint256"
        },
        {
          "indexed": false,
          "internalType": "uint256",
          "name": "lastPurchasePrice",
          "type": "uint256"
        }
      ],
      "name": "Withdraw",
      "type": "event"
    },
    {
      "inputs": [],
      "name": "_daysForWithdraw",
      "outputs": [
        {
          "internalType": "uint256",
          "name": "",
          "type": "uint256"
        }
      ],
      "stateMutability": "view",
      "type": "function"
    },
    {
      "inputs": [],
      "name": "_dtDenominator",
      "outputs": [
        {
          "internalType": "uint256",
          "name": "",
          "type": "uint256"
        }
      ],
      "stateMutability": "view",
      "type": "function"
    },
    {
      "inputs": [],
      "name": "_dtNumerator",
      "outputs": [
        {
          "internalType": "uint256",
          "name": "",
          "type": "uint256"
        }
      ],
      "stateMutability": "view",
      "type": "function"
    },
    {
      "inputs": [],
      "name": "_feeRate",
      "outputs": [
        {
          "internalType": "uint256",
          "name": "",
          "type": "uint256"
        }
      ],
      "stateMutability": "view",
      "type": "function"
    },
    {
      "inputs": [],
      "name": "_originalCollection",
      "outputs": [
        {
          "internalType": "contract IERC721Metadata",
          "name": "",
          "type": "address"
        }
      ],
      "stateMutability": "view",
      "type": "function"
    },
    {
      "inputs": [
        {
          "internalType": "address",
          "name": "to",
          "type": "address"
        },
        {
          "internalType": "uint256",
          "name": "tokenId",
          "type": "uint256"
        }
      ],
      "name": "approve",
      "outputs": [],
      "stateMutability": "nonpayable",
      "type": "function"
    },
    {
      "inputs": [
        {
          "internalType": "address",
          "name": "owner",
          "type": "address"
        }
      ],
      "name": "balanceOf",
      "outputs": [
        {
          "internalType": "uint256",
          "name": "",
          "type": "uint256"
        }
      ],
      "stateMutability": "view",
      "type": "function"
    },
    {
      "inputs": [
        {
          "internalType": "uint256",
          "name": "tokenId",
          "type": "uint256"
        }
      ],
      "name": "getApproved",
      "outputs": [
        {
          "internalType": "address",
          "name": "",
          "type": "address"
        }
      ],
      "stateMutability": "view",
      "type": "function"
    },
    {
      "inputs": [
        {
          "internalType": "address",
          "name": "owner",
          "type": "address"
        },
        {
          "internalType": "address",
          "name": "operator",
          "type": "address"
        }
      ],
      "name": "isApprovedForAll",
      "outputs": [
        {
          "internalType": "bool",
          "name": "",
          "type": "bool"
        }
      ],
      "stateMutability": "view",
      "type": "function"
    },
    {
      "inputs": [],
      "name": "name",
      "outputs": [
        {
          "internalType": "string",
          "name": "",
          "type": "string"
        }
      ],
      "stateMutability": "view",
      "type": "function"
    },
    {
      "inputs": [
        {
          "internalType": "uint256",
          "name": "tokenId",
          "type": "uint256"
        }
      ],
      "name": "ownerOf",
      "outputs": [
        {
          "internalType": "address",
          "name": "",
          "type": "address"
        }
      ],
      "stateMutability": "view",
      "type": "function"
    },
    {
      "inputs": [
        {
          "internalType": "address",
          "name": "operator",
          "type": "address"
        },
        {
          "internalType": "bool",
          "name": "approved",
          "type": "bool"
        }
      ],
      "name": "setApprovalForAll",
      "outputs": [],
      "stateMutability": "nonpayable",
      "type": "function"
    },
    {
      "inputs": [],
      "name": "symbol",
      "outputs": [
        {
          "internalType": "string",
          "name": "",
          "type": "string"
        }
      ],
      "stateMutability": "view",
      "type": "function"
    },
    {
      "inputs": [],
      "name": "originalCollection",
      "outputs": [
        {
          "internalType": "address",
          "name": "",
          "type": "address"
        }
      ],
      "stateMutability": "view",
      "type": "function"
    },
    {
      "inputs": [
        {
          "internalType": "address",
          "name": "",
          "type": "address"
        },
        {
          "internalType": "address",
          "name": "",
          "type": "address"
        },
        {
          "internalType": "uint256",
          "name": "",
          "type": "uint256"
        }
      ],
      "name": "safeTransferFrom",
      "outputs": [],
      "stateMutability": "pure",
      "type": "function"
    },
    {
      "inputs": [
        {
          "internalType": "address",
          "name": "",
          "type": "address"
        },
        {
          "internalType": "address",
          "name": "",
          "type": "address"
        },
        {
          "internalType": "uint256",
          "name": "",
          "type": "uint256"
        },
        {
          "internalType": "bytes",
          "name": "",
          "type": "bytes"
        }
      ],
      "name": "safeTransferFrom",
      "outputs": [],
      "stateMutability": "pure",
      "type": "function"
    },
    {
      "inputs": [
        {
          "internalType": "address",
          "name": "",
          "type": "address"
        },
        {
          "internalType": "address",
          "name": "",
          "type": "address"
        },
        {
          "internalType": "uint256",
          "name": "",
          "type": "uint256"
        }
      ],
      "name": "transferFrom",
      "outputs": [],
      "stateMutability": "pure",
      "type": "function"
    },
    {
      "inputs": [
        {
          "internalType": "uint256",
          "name": "tokenId",
          "type": "uint256"
        }
      ],
      "name": "forSalePrice",
      "outputs": [
        {
          "internalType": "uint256",
          "name": "",
          "type": "uint256"
        }
      ],
      "stateMutability": "view",
      "type": "function"
    },
    {
      "inputs": [
        {
          "internalType": "uint256",
          "name": "tokenId",
          "type": "uint256"
        }
      ],
      "name": "lastPurchasePrice",
      "outputs": [
        {
          "internalType": "uint256",
          "name": "",
          "type": "uint256"
        }
      ],
      "stateMutability": "view",
      "type": "function"
    },
    {
      "inputs": [
        {
          "internalType": "uint256",
          "name": "tokenId",
          "type": "uint256"
        }
      ],
      "name": "lastPurchaseTime",
      "outputs": [
        {
          "internalType": "uint256",
          "name": "",
          "type": "uint256"
        }
      ],
      "stateMutability": "view",
      "type": "function"
    },
    {
      "inputs": [
        {
          "internalType": "uint256",
          "name": "tokenId",
          "type": "uint256"
        }
      ],
      "name": "availableToWithdraw",
      "outputs": [
        {
          "internalType": "uint256",
          "name": "",
          "type": "uint256"
        }
      ],
      "stateMutability": "view",
      "type": "function"
    },
    {
      "inputs": [
        {
          "internalType": "uint256",
          "name": "tokenId",
          "type": "uint256"
        }
      ],
      "name": "secondsToWithdraw",
      "outputs": [
        {
          "internalType": "int256",
          "name": "",
          "type": "int256"
        }
      ],
      "stateMutability": "view",
      "type": "function"
    },
    {
      "inputs": [
        {
          "internalType": "uint256",
          "name": "tokenId",
          "type": "uint256"
        }
      ],
      "name": "troublesomeTokenURI",
      "outputs": [
        {
          "internalType": "string",
          "name": "",
          "type": "string"
        }
      ],
      "stateMutability": "view",
      "type": "function"
    },
    {
      "inputs": [
        {
          "internalType": "uint256",
          "name": "tokenId",
          "type": "uint256"
        }
      ],
      "name": "tokenURI",
      "outputs": [
        {
          "internalType": "string",
          "name": "",
          "type": "string"
        }
      ],
      "stateMutability": "view",
      "type": "function"
    },
    {
      "inputs": [
        {
          "internalType": "uint256",
          "name": "tokenId",
          "type": "uint256"
        },
        {
          "internalType": "uint256",
          "name": "price",
          "type": "uint256"
        }
      ],
      "name": "setPrice",
      "outputs": [],
      "stateMutability": "nonpayable",
      "type": "function"
    },
    {
      "inputs": [
        {
          "internalType": "uint256",
          "name": "tokenId",
          "type": "uint256"
        }
      ],
      "name": "buy",
      "outputs": [],
      "stateMutability": "payable",
      "type": "function"
    },
    {
      "inputs": [
        {
          "internalType": "uint256",
          "name": "tokenId",
          "type": "uint256"
        }
      ],
      "name": "withdraw",
      "outputs": [],
      "stateMutability": "payable",
      "type": "function"
    },
    {
      "inputs": [
        {
          "internalType": "uint256",
          "name": "tokenId",
          "type": "uint256"
        }
      ],
      "name": "forceBuy",
      "outputs": [],
      "stateMutability": "payable",
      "type": "function"
    },
    {
      "inputs": [
        {
          "internalType": "bytes4",
          "name": "interfaceId",
          "type": "bytes4"
        }
      ],
      "name": "supportsInterface",
      "outputs": [
        {
          "internalType": "bool",
          "name": "",
          "type": "bool"
        }
      ],
      "stateMutability": "view",
      "type": "function"
    },
    {
      "inputs": [],
      "name": "allKnownTokens",
      "outputs": [
        {
          "components": [
            {
              "internalType": "uint256",
              "name": "tokenId",
              "type": "uint256"
            },
            {
              "internalType": "uint256",
              "name": "lastPurchasePrice",
              "type": "uint256"
            },
            {
              "internalType": "uint256",
              "name": "forSalePrice",
              "type": "uint256"
            },
            {
              "internalType": "uint256",
              "name": "availableToWithdraw",
              "type": "uint256"
            }
          ],
          "internalType": "struct TokenInfo[]",
          "name": "",
          "type": "tuple[]"
        }
      ],
      "stateMutability": "view",
      "type": "function"
    }
  ],
  "bytecode": "0x60806040523480156200001157600080fd5b50604051620059d0380380620059d083398181016040528101906200003791906200039d565b888881600090805190602001906200005192919062000241565b5080600190805190602001906200006a92919062000241565b505050600073ffffffffffffffffffffffffffffffffffffffff168773ffffffffffffffffffffffffffffffffffffffff161415620000e0576040517f08c379a0000000000000000000000000000000000000000000000000000000008152600401620000d7906200052a565b60405180910390fd5b600073ffffffffffffffffffffffffffffffffffffffff168573ffffffffffffffffffffffffffffffffffffffff16141562000153576040517f08c379a00000000000000000000000000000000000000000000000000000000081526004016200014a9062000508565b60405180910390fd5b86600b60006101000a81548173ffffffffffffffffffffffffffffffffffffffff021916908373ffffffffffffffffffffffffffffffffffffffff16021790555085600c60006101000a81548173ffffffffffffffffffffffffffffffffffffffff021916908373ffffffffffffffffffffffffffffffffffffffff16021790555084600a60006101000a81548173ffffffffffffffffffffffffffffffffffffffff021916908373ffffffffffffffffffffffffffffffffffffffff16021790555083600e8190555082600f819055508160108190555080600d81905550505050505050505050620007cb565b8280546200024f9062000630565b90600052602060002090601f016020900481019282620002735760008555620002bf565b82601f106200028e57805160ff1916838001178555620002bf565b82800160010185558215620002bf579182015b82811115620002be578251825591602001919060010190620002a1565b5b509050620002ce9190620002d2565b5090565b5b80821115620002ed576000816000905550600101620002d3565b5090565b600062000308620003028462000575565b6200054c565b905082815260208101848484011115620003275762000326620006ff565b5b62000334848285620005fa565b509392505050565b6000815190506200034d8162000797565b92915050565b600082601f8301126200036b576200036a620006fa565b5b81516200037d848260208601620002f1565b91505092915050565b6000815190506200039781620007b1565b92915050565b60008060008060008060008060006101208a8c031215620003c357620003c262000709565b5b60008a015167ffffffffffffffff811115620003e457620003e362000704565b5b620003f28c828d0162000353565b99505060208a015167ffffffffffffffff81111562000416576200041562000704565b5b620004248c828d0162000353565b9850506040620004378c828d016200033c565b97505060606200044a8c828d016200033c565b96505060806200045d8c828d016200033c565b95505060a0620004708c828d0162000386565b94505060c0620004838c828d0162000386565b93505060e0620004968c828d0162000386565b925050610100620004aa8c828d0162000386565b9150509295985092959850929598565b6000620004c9601a83620005ab565b9150620004d6826200071f565b602082019050919050565b6000620004f0602183620005ab565b9150620004fd8262000748565b604082019050919050565b600060208201905081810360008301526200052381620004ba565b9050919050565b600060208201905081810360008301526200054581620004e1565b9050919050565b6000620005586200056b565b905062000566828262000666565b919050565b6000604051905090565b600067ffffffffffffffff821115620005935762000592620006cb565b5b6200059e826200070e565b9050602081019050919050565b600082825260208201905092915050565b6000620005c982620005d0565b9050919050565b600073ffffffffffffffffffffffffffffffffffffffff82169050919050565b6000819050919050565b60005b838110156200061a578082015181840152602081019050620005fd565b838111156200062a576000848401525b50505050565b600060028204905060018216806200064957607f821691505b6020821081141562000660576200065f6200069c565b5b50919050565b62000671826200070e565b810181811067ffffffffffffffff82111715620006935762000692620006cb565b5b80604052505050565b7f4e487b7100000000000000000000000000000000000000000000000000000000600052602260045260246000fd5b7f4e487b7100000000000000000000000000000000000000000000000000000000600052604160045260246000fd5b600080fd5b600080fd5b600080fd5b600080fd5b6000601f19601f8301169050919050565b7f64746f20616464726573732063616e6e6f74206265207a65726f000000000000600082015250565b7f636f6c6c656374696f6e20616464726573732063616e6e6f74206265207a657260008201527f6f00000000000000000000000000000000000000000000000000000000000000602082015250565b620007a281620005bc565b8114620007ae57600080fd5b50565b620007bc81620005f0565b8114620007c857600080fd5b50565b6151f580620007db6000396000f3fe6080604052600436106101cd5760003560e01c806380b48a7c116100f7578063b88d4fde11610095578063e6c1735011610064578063e6c17350146106ad578063e7c2775a146106ea578063e985e9c514610715578063f7d9757714610752576101cd565b8063b88d4fde146105ee578063c87b56dd14610617578063d96a094a14610654578063dc5130b614610670576101cd565b8063a80a14e1116100d1578063a80a14e114610530578063ad2e6fe81461056d578063b2131f7d14610598578063b3dc90eb146105c3576101cd565b806380b48a7c1461049f57806395d89b41146104dc578063a22cb46514610507576101cd565b806342842e0e1161016f5780636352211e1161013e5780636352211e146103cc57806370a082311461040957806373b1dc80146104465780637bf6b0a714610462576101cd565b806342842e0e146103105780634d02fe6f146103395780634fbcaf831461037657806361dd277e146103a1576101cd565b8063081812fc116101ab578063081812fc14610265578063095ea7b3146102a257806323b872dd146102cb5780632e1a7d4d146102f4576101cd565b806301ffc9a7146101d257806306fdde031461020f57806307341d8b1461023a575b600080fd5b3480156101de57600080fd5b506101f960048036038101906101f49190613383565b61077b565b6040516102069190613d0c565b60405180910390f35b34801561021b57600080fd5b506102246107bd565b6040516102319190613d5d565b60405180910390f35b34801561024657600080fd5b5061024f61084f565b60405161025c9190613cea565b60405180910390f35b34801561027157600080fd5b5061028c600480360381019061028791906133f9565b610990565b6040516102999190613bad565b60405180910390f35b3480156102ae57600080fd5b506102c960048036038101906102c49190613343565b610a15565b005b3480156102d757600080fd5b506102f260048036038101906102ed919061322d565b610b2d565b005b61030e600480360381019061030991906133f9565b610b68565b005b34801561031c57600080fd5b506103376004803603810190610332919061322d565b610e4d565b005b34801561034557600080fd5b50610360600480360381019061035b91906133f9565b610e88565b60405161036d919061405f565b60405180910390f35b34801561038257600080fd5b5061038b610ec0565b604051610398919061405f565b60405180910390f35b3480156103ad57600080fd5b506103b6610ec6565b6040516103c39190613bad565b60405180910390f35b3480156103d857600080fd5b506103f360048036038101906103ee91906133f9565b610ef0565b6040516104009190613bad565b60405180910390f35b34801561041557600080fd5b50610430600480360381019061042b9190613193565b610fa2565b60405161043d919061405f565b60405180910390f35b610460600480360381019061045b91906133f9565b61105a565b005b34801561046e57600080fd5b50610489600480360381019061048491906133f9565b611199565b6040516104969190613d5d565b60405180910390f35b3480156104ab57600080fd5b506104c660048036038101906104c191906133f9565b611252565b6040516104d3919061405f565b60405180910390f35b3480156104e857600080fd5b506104f161126f565b6040516104fe9190613d5d565b60405180910390f35b34801561051357600080fd5b5061052e60048036038101906105299190613303565b611301565b005b34801561053c57600080fd5b50610557600480360381019061055291906133f9565b611482565b604051610564919061405f565b60405180910390f35b34801561057957600080fd5b5061058261149f565b60405161058f919061405f565b60405180910390f35b3480156105a457600080fd5b506105ad6114a5565b6040516105ba919061405f565b60405180910390f35b3480156105cf57600080fd5b506105d86114ab565b6040516105e5919061405f565b60405180910390f35b3480156105fa57600080fd5b5061061560048036038101906106109190613280565b6114b1565b005b34801561062357600080fd5b5061063e600480360381019061063991906133f9565b6114ec565b60405161064b9190613d5d565b60405180910390f35b61066e600480360381019061066991906133f9565b6115e4565b005b34801561067c57600080fd5b50610697600480360381019061069291906133f9565b611993565b6040516106a49190613d42565b60405180910390f35b3480156106b957600080fd5b506106d460048036038101906106cf91906133f9565b611a27565b6040516106e1919061405f565b60405180910390f35b3480156106f657600080fd5b506106ff611a44565b60405161070c9190613d27565b60405180910390f35b34801561072157600080fd5b5061073c600480360381019061073791906131ed565b611a6a565b6040516107499190613d0c565b60405180910390f35b34801561075e57600080fd5b5061077960048036038101906107749190613453565b611afe565b005b600063deadbeef60e01b827bffffffffffffffffffffffffffffffffffffffffffffffffffffffff191614806107b657506107b582611dc1565b5b9050919050565b6060600080546107cc906145cc565b80601f01602080910402602001604051908101604052809291908181526020018280546107f8906145cc565b80156108455780601f1061081a57610100808354040283529160200191610845565b820191906000526020600020905b81548152906001019060200180831161082857829003601f168201915b5050505050905090565b6060600060118054905067ffffffffffffffff81111561087257610871614765565b5b6040519080825280602002602001820160405280156108ab57816020015b610898612fb0565b8152602001906001900390816108905790505b50905060005b601180549050811015610988576000601182815481106108d4576108d3614736565b5b906000526020600020015490506040518060800160405280828152602001600860008481526020019081526020016000205481526020016007600084815260200190815260200160002054815260200162015180600e5461093591906143cc565b6009600085815260200190815260200160002054610953919061416c565b81525083838151811061096957610968614736565b5b60200260200101819052505080806109809061462f565b9150506108b1565b508091505090565b600061099b82611ea3565b6109da576040517f08c379a00000000000000000000000000000000000000000000000000000000081526004016109d190613f3f565b60405180910390fd5b6004600083815260200190815260200160002060009054906101000a900473ffffffffffffffffffffffffffffffffffffffff169050919050565b6000610a2082610ef0565b90508073ffffffffffffffffffffffffffffffffffffffff168373ffffffffffffffffffffffffffffffffffffffff161415610a91576040517f08c379a0000000000000000000000000000000000000000000000000000000008152600401610a8890613f9f565b60405180910390fd5b8073ffffffffffffffffffffffffffffffffffffffff16610ab0611f0f565b73ffffffffffffffffffffffffffffffffffffffff161480610adf5750610ade81610ad9611f0f565b611a6a565b5b610b1e576040517f08c379a0000000000000000000000000000000000000000000000000000000008152600401610b1590613e9f565b60405180910390fd5b610b288383611f17565b505050565b6040517f08c379a0000000000000000000000000000000000000000000000000000000008152600401610b5f90613dff565b60405180910390fd5b610b723382611fd0565b610bb1576040517f08c379a0000000000000000000000000000000000000000000000000000000008152600401610ba890613fbf565b60405180910390fd5b3073ffffffffffffffffffffffffffffffffffffffff16634d02fe6f826040518263ffffffff1660e01b8152600401610bea919061405f565b60206040518083038186803b158015610c0257600080fd5b505afa158015610c16573d6000803e3d6000fd5b505050506040513d601f19601f82011682018060405250810190610c3a9190613426565b4211610c7b576040517f08c379a0000000000000000000000000000000000000000000000000000000008152600401610c7290613fdf565b60405180910390fd5b6002600d546008600084815260200190815260200160002054610c9e91906141f9565b610ca891906143cc565b341015610cea576040517f08c379a0000000000000000000000000000000000000000000000000000000008152600401610ce190613dbf565b60405180910390fd5b6000600860008381526020019081526020016000205490507ff279e6a1f5e320cca91135676d9cb6e44ca8a08c0b88342bcdb1144f6511b568610d2c83610ef0565b8383604051610d3d93929190613cb3565b60405180910390a1600b60009054906101000a900473ffffffffffffffffffffffffffffffffffffffff1673ffffffffffffffffffffffffffffffffffffffff166323b872dd30610d8d85610ef0565b856040518463ffffffff1660e01b8152600401610dac93929190613bc8565b600060405180830381600087803b158015610dc657600080fd5b505af1158015610dda573d6000803e3d6000fd5b50505050610de7826120ae565b600060086000848152602001908152602001600020819055506000600760008481526020019081526020016000208190555060006009600084815260200190815260200160002081905550610e49600d5482610e4391906141f9565b34612101565b5050565b6040517f08c379a0000000000000000000000000000000000000000000000000000000008152600401610e7f90613dff565b60405180910390fd5b600062015180600e54610e9b91906143cc565b6009600084815260200190815260200160002054610eb9919061416c565b9050919050565b60105481565b6000600b60009054906101000a900473ffffffffffffffffffffffffffffffffffffffff16905090565b6000806002600084815260200190815260200160002060009054906101000a900473ffffffffffffffffffffffffffffffffffffffff169050600073ffffffffffffffffffffffffffffffffffffffff168173ffffffffffffffffffffffffffffffffffffffff161415610f99576040517f08c379a0000000000000000000000000000000000000000000000000000000008152600401610f9090613edf565b60405180910390fd5b80915050919050565b60008073ffffffffffffffffffffffffffffffffffffffff168273ffffffffffffffffffffffffffffffffffffffff161415611013576040517f08c379a000000000000000000000000000000000000000000000000000000000815260040161100a90613ebf565b60405180910390fd5b600360008373ffffffffffffffffffffffffffffffffffffffff1673ffffffffffffffffffffffffffffffffffffffff168152602001908152602001600020549050919050565b60006008600083815260200190815260200160002054116110b0576040517f08c379a00000000000000000000000000000000000000000000000000000000081526004016110a790613ddf565b60405180910390fd5b60006010546008600084815260200190815260200160002054600f546110d691906143cc565b6110e091906141f9565b905080341015611125576040517f08c379a000000000000000000000000000000000000000000000000000000000815260040161111c9061403f565b60405180910390fd5b61112e8261230e565b7faf414daaef55b2bddca54e50c0748e88608ef3457b0a23a678e867e6c5acd02261115883610ef0565b33843460086000888152602001908152602001600020548660405161118296959493929190613c52565b60405180910390a161119533838361238c565b5050565b6060600b60009054906101000a900473ffffffffffffffffffffffffffffffffffffffff1673ffffffffffffffffffffffffffffffffffffffff1663c87b56dd836040518263ffffffff1660e01b81526004016111f6919061405f565b60006040518083038186803b15801561120e57600080fd5b505afa158015611222573d6000803e3d6000fd5b505050506040513d6000823e3d601f19601f8201168201806040525081019061124b91906133b0565b9050919050565b600060086000838152602001908152602001600020549050919050565b60606001805461127e906145cc565b80601f01602080910402602001604051908101604052809291908181526020018280546112aa906145cc565b80156112f75780601f106112cc576101008083540402835291602001916112f7565b820191906000526020600020905b8154815290600101906020018083116112da57829003601f168201915b5050505050905090565b611309611f0f565b73ffffffffffffffffffffffffffffffffffffffff168273ffffffffffffffffffffffffffffffffffffffff161415611377576040517f08c379a000000000000000000000000000000000000000000000000000000000815260040161136e90613e3f565b60405180910390fd5b8060056000611384611f0f565b73ffffffffffffffffffffffffffffffffffffffff1673ffffffffffffffffffffffffffffffffffffffff16815260200190815260200160002060008473ffffffffffffffffffffffffffffffffffffffff1673ffffffffffffffffffffffffffffffffffffffff16815260200190815260200160002060006101000a81548160ff0219169083151502179055508173ffffffffffffffffffffffffffffffffffffffff16611431611f0f565b73ffffffffffffffffffffffffffffffffffffffff167f17307eab39ab6107e8899845ad3d59bd9653f200f220920489ca2b5937696c31836040516114769190613d0c565b60405180910390a35050565b600060096000838152602001908152602001600020549050919050565b600f5481565b600d5481565b600e5481565b6040517f08c379a00000000000000000000000000000000000000000000000000000000081526004016114e390613dff565b60405180910390fd5b6060600060405180610140016040528061011c815260200161506461011c91399050600061153b600b60009054906101000a900473ffffffffffffffffffffffffffffffffffffffff166124e5565b90506000611548306124e5565b90506000611555866126c7565b90506000828260405160200161156c929190613b3c565b604051602081830303815290604052905060006115b582868661158e8a612828565b6040516020016115a19493929190613aa5565b604051602081830303815290604052612828565b9050806040516020016115c89190613b76565b6040516020818303038152906040529650505050505050919050565b600060076000838152602001908152602001600020541161163a576040517f08c379a000000000000000000000000000000000000000000000000000000000815260040161163190613f5f565b60405180910390fd5b6007600082815260200190815260200160002054341015611690576040517f08c379a000000000000000000000000000000000000000000000000000000000815260040161168790613eff565b60405180910390fd5b6116998161230e565b600060086000838152602001908152602001600020541415611919573073ffffffffffffffffffffffffffffffffffffffff16600b60009054906101000a900473ffffffffffffffffffffffffffffffffffffffff1673ffffffffffffffffffffffffffffffffffffffff1663081812fc836040518263ffffffff1660e01b8152600401611727919061405f565b60206040518083038186803b15801561173f57600080fd5b505afa158015611753573d6000803e3d6000fd5b505050506040513d601f19601f8201168201806040525081019061177791906131c0565b73ffffffffffffffffffffffffffffffffffffffff16146117cd576040517f08c379a00000000000000000000000000000000000000000000000000000000081526004016117c490613fff565b60405180910390fd5b6000600b60009054906101000a900473ffffffffffffffffffffffffffffffffffffffff1673ffffffffffffffffffffffffffffffffffffffff16636352211e836040518263ffffffff1660e01b815260040161182a919061405f565b60206040518083038186803b15801561184257600080fd5b505afa158015611856573d6000803e3d6000fd5b505050506040513d601f19601f8201168201806040525081019061187a91906131c0565b9050600b60009054906101000a900473ffffffffffffffffffffffffffffffffffffffff1673ffffffffffffffffffffffffffffffffffffffff166323b872dd8230856040518463ffffffff1660e01b81526004016118db93929190613bc8565b600060405180830381600087803b1580156118f557600080fd5b505af1158015611909573d6000803e3d6000fd5b5050505061191781836129c0565b505b7ef93dbdb72854b6b6fb35433086556f2635fc83c37080c667496fecfa650fb461194282610ef0565b338334600760008781526020019081526020016000205460405161196a959493929190613bff565b60405180910390a16119903382600760008581526020019081526020016000205461238c565b50565b6000423073ffffffffffffffffffffffffffffffffffffffff16634d02fe6f846040518263ffffffff1660e01b81526004016119cf919061405f565b60206040518083038186803b1580156119e757600080fd5b505afa1580156119fb573d6000803e3d6000fd5b505050506040513d601f19601f82011682018060405250810190611a1f9190613426565b039050919050565b600060076000838152602001908152602001600020549050919050565b600b60009054906101000a900473ffffffffffffffffffffffffffffffffffffffff1681565b6000600560008473ffffffffffffffffffffffffffffffffffffffff1673ffffffffffffffffffffffffffffffffffffffff16815260200190815260200160002060008373ffffffffffffffffffffffffffffffffffffffff1673ffffffffffffffffffffffffffffffffffffffff16815260200190815260200160002060009054906101000a900460ff16905092915050565b611b078261230e565b600060086000848152602001908152602001600020541415611d20573373ffffffffffffffffffffffffffffffffffffffff16600b60009054906101000a900473ffffffffffffffffffffffffffffffffffffffff1673ffffffffffffffffffffffffffffffffffffffff1663081812fc846040518263ffffffff1660e01b8152600401611b95919061405f565b60206040518083038186803b158015611bad57600080fd5b505afa158015611bc1573d6000803e3d6000fd5b505050506040513d601f19601f82011682018060405250810190611be591906131c0565b73ffffffffffffffffffffffffffffffffffffffff161480611cdc57503373ffffffffffffffffffffffffffffffffffffffff16600b60009054906101000a900473ffffffffffffffffffffffffffffffffffffffff1673ffffffffffffffffffffffffffffffffffffffff16636352211e846040518263ffffffff1660e01b8152600401611c74919061405f565b60206040518083038186803b158015611c8c57600080fd5b505afa158015611ca0573d6000803e3d6000fd5b505050506040513d601f19601f82011682018060405250810190611cc491906131c0565b73ffffffffffffffffffffffffffffffffffffffff16145b611d1b576040517f08c379a0000000000000000000000000000000000000000000000000000000008152600401611d1290613e7f565b60405180910390fd5b611d6a565b611d2a3383611fd0565b611d69576040517f08c379a0000000000000000000000000000000000000000000000000000000008152600401611d6090613fbf565b60405180910390fd5b5b8060076000848152602001908152602001600020819055507f5c43325359179f4471448fd5c0247053caeec2178ee6378a1a3eb4b2030d3146338383604051611db593929190613cb3565b60405180910390a15050565b60007f80ac58cd000000000000000000000000000000000000000000000000000000007bffffffffffffffffffffffffffffffffffffffffffffffffffffffff1916827bffffffffffffffffffffffffffffffffffffffffffffffffffffffff19161480611e8c57507f5b5e139f000000000000000000000000000000000000000000000000000000007bffffffffffffffffffffffffffffffffffffffffffffffffffffffff1916827bffffffffffffffffffffffffffffffffffffffffffffffffffffffff1916145b80611e9c5750611e9b82612b8e565b5b9050919050565b60008073ffffffffffffffffffffffffffffffffffffffff166002600084815260200190815260200160002060009054906101000a900473ffffffffffffffffffffffffffffffffffffffff1673ffffffffffffffffffffffffffffffffffffffff1614159050919050565b600033905090565b816004600083815260200190815260200160002060006101000a81548173ffffffffffffffffffffffffffffffffffffffff021916908373ffffffffffffffffffffffffffffffffffffffff160217905550808273ffffffffffffffffffffffffffffffffffffffff16611f8a83610ef0565b73ffffffffffffffffffffffffffffffffffffffff167f8c5be1e5ebec7d5bd14f71427d1e84f3dd0314c0f7b2291e5b200ac8c7c3b92560405160405180910390a45050565b6000611fdb82611ea3565b61201a576040517f08c379a000000000000000000000000000000000000000000000000000000000815260040161201190613e5f565b60405180910390fd5b600061202583610ef0565b90508073ffffffffffffffffffffffffffffffffffffffff168473ffffffffffffffffffffffffffffffffffffffff16148061209457508373ffffffffffffffffffffffffffffffffffffffff1661207c84610990565b73ffffffffffffffffffffffffffffffffffffffff16145b806120a557506120a48185611a6a565b5b91505092915050565b6120b781612bf8565b60006006600083815260200190815260200160002080546120d7906145cc565b9050146120fe576006600082815260200190815260200160002060006120fd9190612fd8565b5b50565b6000600a60009054906101000a900473ffffffffffffffffffffffffffffffffffffffff1673ffffffffffffffffffffffffffffffffffffffff16630e2ccc78306040518263ffffffff1660e01b815260040161215e9190613bad565b60206040518083038186803b15801561217657600080fd5b505afa15801561218a573d6000803e3d6000fd5b505050506040513d601f19601f820116820180604052508101906121ae91906131c0565b905060008173ffffffffffffffffffffffffffffffffffffffff16846040516121d690613b98565b60006040518083038185875af1925050503d8060008114612213576040519150601f19603f3d011682016040523d82523d6000602084013e612218565b606091505b505090506000816122295783612236565b84846122359190614461565b5b90506000600c60009054906101000a900473ffffffffffffffffffffffffffffffffffffffff1673ffffffffffffffffffffffffffffffffffffffff168260405161228090613b98565b60006040518083038185875af1925050503d80600081146122bd576040519150601f19603f3d011682016040523d82523d6000602084013e6122c2565b606091505b5050905080612306576040517f08c379a00000000000000000000000000000000000000000000000000000000081526004016122fd9061401f565b60405180910390fd5b505050505050565b6012600082815260200190815260200160002060009054906101000a900460ff166123895760016012600083815260200190815260200160002060006101000a81548160ff02191690831515021790555060118190806001815401808255809150506001900390600052602060002001600090919091909150555b50565b600061239783610ef0565b90506123a4818585612d09565b816008600085815260200190815260200160002081905550426009600085815260200190815260200160002081905550600060076000858152602001908152602001600020819055506000600d54836123fd91906141f9565b9050600081600261240e91906143cc565b846124199190614461565b905060008373ffffffffffffffffffffffffffffffffffffffff168260405161244190613b98565b60006040518083038185875af1925050503d806000811461247e576040519150601f19603f3d011682016040523d82523d6000602084013e612483565b606091505b50509050806124c7576040517f08c379a00000000000000000000000000000000000000000000000000000000081526004016124be90613d7f565b60405180910390fd5b6124dc8383346124d79190614461565b612101565b50505050505050565b60606000602867ffffffffffffffff81111561250457612503614765565b5b6040519080825280601f01601f1916602001820160405280156125365781602001600182028036833780820191505090505b50905060005b601481101561269e5760008160136125549190614461565b600861256091906143cc565b600261256c91906142ae565b8573ffffffffffffffffffffffffffffffffffffffff1661258d91906141f9565b60f81b9050600060108260f81c6125a4919061422a565b60f81b905060008160f81c60106125bb9190614426565b8360f81c6125c99190614495565b60f81b90506125d782612f65565b858560026125e591906143cc565b815181106125f6576125f5614736565b5b60200101907effffffffffffffffffffffffffffffffffffffffffffffffffffffffffffff1916908160001a90535061262e81612f65565b85600186600261263e91906143cc565b612648919061416c565b8151811061265957612658614736565b5b60200101907effffffffffffffffffffffffffffffffffffffffffffffffffffffffffffff1916908160001a90535050505080806126969061462f565b91505061253c565b50806040516020016126b09190613b1a565b604051602081830303815290604052915050919050565b6060600082141561270f576040518060400160405280600181526020017f30000000000000000000000000000000000000000000000000000000000000008152509050612823565b600082905060005b6000821461274157808061272a9061462f565b915050600a8261273a91906141f9565b9150612717565b60008167ffffffffffffffff81111561275d5761275c614765565b5b6040519080825280601f01601f19166020018201604052801561278f5781602001600182028036833780820191505090505b5090505b6000851461281c576001826127a89190614461565b9150600a856127b79190614678565b60306127c3919061416c565b60f81b8183815181106127d9576127d8614736565b5b60200101907effffffffffffffffffffffffffffffffffffffffffffffffffffffffffffff1916908160001a905350600a8561281591906141f9565b9450612793565b8093505050505b919050565b6060600082519050600081141561285157604051806020016040528060008152509150506129bb565b60006003600283612862919061416c565b61286c91906141f9565b600461287891906143cc565b90506000602082612889919061416c565b67ffffffffffffffff8111156128a2576128a1614765565b5b6040519080825280601f01601f1916602001820160405280156128d45781602001600182028036833780820191505090505b5090506000604051806060016040528060408152602001615180604091399050600181016020830160005b868110156129785760038101905062ffffff818a015116603f8160121c168401518060081b905060ff603f83600c1c1686015116810190508060081b905060ff603f8360061c1686015116810190508060081b905060ff603f831686015116810190508060e01b905080845260048401935050506128ff565b50600386066001811461299257600281146129a2576129ad565b613d3d60f01b60028303526129ad565b603d60f81b60018303525b508484525050819450505050505b919050565b600073ffffffffffffffffffffffffffffffffffffffff168273ffffffffffffffffffffffffffffffffffffffff161415612a30576040517f08c379a0000000000000000000000000000000000000000000000000000000008152600401612a2790613f1f565b60405180910390fd5b612a3981611ea3565b15612a79576040517f08c379a0000000000000000000000000000000000000000000000000000000008152600401612a7090613d9f565b60405180910390fd5b612a8560008383612fab565b6001600360008473ffffffffffffffffffffffffffffffffffffffff1673ffffffffffffffffffffffffffffffffffffffff1681526020019081526020016000206000828254612ad5919061416c565b92505081905550816002600083815260200190815260200160002060006101000a81548173ffffffffffffffffffffffffffffffffffffffff021916908373ffffffffffffffffffffffffffffffffffffffff160217905550808273ffffffffffffffffffffffffffffffffffffffff16600073ffffffffffffffffffffffffffffffffffffffff167fddf252ad1be2c89b69c2b068fc378daa952ba7f163c4a11628f55a4df523b3ef60405160405180910390a45050565b60007f01ffc9a7000000000000000000000000000000000000000000000000000000007bffffffffffffffffffffffffffffffffffffffffffffffffffffffff1916827bffffffffffffffffffffffffffffffffffffffffffffffffffffffff1916149050919050565b6000612c0382610ef0565b9050612c1181600084612fab565b612c1c600083611f17565b6001600360008373ffffffffffffffffffffffffffffffffffffffff1673ffffffffffffffffffffffffffffffffffffffff1681526020019081526020016000206000828254612c6c9190614461565b925050819055506002600083815260200190815260200160002060006101000a81549073ffffffffffffffffffffffffffffffffffffffff021916905581600073ffffffffffffffffffffffffffffffffffffffff168273ffffffffffffffffffffffffffffffffffffffff167fddf252ad1be2c89b69c2b068fc378daa952ba7f163c4a11628f55a4df523b3ef60405160405180910390a45050565b8273ffffffffffffffffffffffffffffffffffffffff16612d2982610ef0565b73ffffffffffffffffffffffffffffffffffffffff1614612d7f576040517f08c379a0000000000000000000000000000000000000000000000000000000008152600401612d7690613f7f565b60405180910390fd5b600073ffffffffffffffffffffffffffffffffffffffff168273ffffffffffffffffffffffffffffffffffffffff161415612def576040517f08c379a0000000000000000000000000000000000000000000000000000000008152600401612de690613e1f565b60405180910390fd5b612dfa838383612fab565b612e05600082611f17565b6001600360008573ffffffffffffffffffffffffffffffffffffffff1673ffffffffffffffffffffffffffffffffffffffff1681526020019081526020016000206000828254612e559190614461565b925050819055506001600360008473ffffffffffffffffffffffffffffffffffffffff1673ffffffffffffffffffffffffffffffffffffffff1681526020019081526020016000206000828254612eac919061416c565b92505081905550816002600083815260200190815260200160002060006101000a81548173ffffffffffffffffffffffffffffffffffffffff021916908373ffffffffffffffffffffffffffffffffffffffff160217905550808273ffffffffffffffffffffffffffffffffffffffff168473ffffffffffffffffffffffffffffffffffffffff167fddf252ad1be2c89b69c2b068fc378daa952ba7f163c4a11628f55a4df523b3ef60405160405180910390a4505050565b6000600a8260f81c60ff161015612f905760308260f81c612f8691906141c2565b60f81b9050612fa6565b60578260f81c612fa091906141c2565b60f81b90505b919050565b505050565b6040518060800160405280600081526020016000815260200160008152602001600081525090565b508054612fe4906145cc565b6000825580601f10612ff65750613015565b601f0160209004906000526020600020908101906130149190613018565b5b50565b5b80821115613031576000816000905550600101613019565b5090565b60006130486130438461409f565b61407a565b90508281526020810184848401111561306457613063614799565b5b61306f84828561458a565b509392505050565b600061308a613085846140d0565b61407a565b9050828152602081018484840111156130a6576130a5614799565b5b6130b1848285614599565b509392505050565b6000813590506130c881615007565b92915050565b6000815190506130dd81615007565b92915050565b6000813590506130f28161501e565b92915050565b60008135905061310781615035565b92915050565b600082601f83011261312257613121614794565b5b8135613132848260208601613035565b91505092915050565b600082601f8301126131505761314f614794565b5b8151613160848260208601613077565b91505092915050565b6000813590506131788161504c565b92915050565b60008151905061318d8161504c565b92915050565b6000602082840312156131a9576131a86147a3565b5b60006131b7848285016130b9565b91505092915050565b6000602082840312156131d6576131d56147a3565b5b60006131e4848285016130ce565b91505092915050565b60008060408385031215613204576132036147a3565b5b6000613212858286016130b9565b9250506020613223858286016130b9565b9150509250929050565b600080600060608486031215613246576132456147a3565b5b6000613254868287016130b9565b9350506020613265868287016130b9565b925050604061327686828701613169565b9150509250925092565b6000806000806080858703121561329a576132996147a3565b5b60006132a8878288016130b9565b94505060206132b9878288016130b9565b93505060406132ca87828801613169565b925050606085013567ffffffffffffffff8111156132eb576132ea61479e565b5b6132f78782880161310d565b91505092959194509250565b6000806040838503121561331a576133196147a3565b5b6000613328858286016130b9565b9250506020613339858286016130e3565b9150509250929050565b6000806040838503121561335a576133596147a3565b5b6000613368858286016130b9565b925050602061337985828601613169565b9150509250929050565b600060208284031215613399576133986147a3565b5b60006133a7848285016130f8565b91505092915050565b6000602082840312156133c6576133c56147a3565b5b600082015167ffffffffffffffff8111156133e4576133e361479e565b5b6133f08482850161313b565b91505092915050565b60006020828403121561340f5761340e6147a3565b5b600061341d84828501613169565b91505092915050565b60006020828403121561343c5761343b6147a3565b5b600061344a8482850161317e565b91505092915050565b6000806040838503121561346a576134696147a3565b5b600061347885828601613169565b925050602061348985828601613169565b9150509250929050565b600061349f8383613a32565b60808301905092915050565b6134b4816144c9565b82525050565b60006134c582614111565b6134cf8185614134565b93506134da83614101565b8060005b8381101561350b5781516134f28882613493565b97506134fd83614127565b9250506001810190506134de565b5085935050505092915050565b613521816144db565b82525050565b61353081614554565b82525050565b61353f81614513565b82525050565b60006135508261411c565b61355a8185614150565b935061356a818560208601614599565b613573816147a8565b840191505092915050565b60006135898261411c565b6135938185614161565b93506135a3818560208601614599565b80840191505092915050565b60006135bc602783614161565b91506135c7826147c6565b602782019050919050565b60006135df601983614150565b91506135ea82614815565b602082019050919050565b6000613602601c83614150565b915061360d8261483e565b602082019050919050565b6000613625601883614150565b915061363082614867565b602082019050919050565b6000613648600283614161565b915061365382614890565b600282019050919050565b600061366b602e83614150565b9150613676826148b9565b604082019050919050565b600061368e601a83614150565b915061369982614908565b602082019050919050565b60006136b1602483614150565b91506136bc82614931565b604082019050919050565b60006136d4601983614150565b91506136df82614980565b602082019050919050565b60006136f7602c83614150565b9150613702826149a9565b604082019050919050565b600061371a608d83614161565b9150613725826149f8565b608d82019050919050565b600061373d603683614150565b915061374882614ab9565b604082019050919050565b6000613760603883614150565b915061376b82614b08565b604082019050919050565b6000613783602a83614150565b915061378e82614b57565b604082019050919050565b60006137a6602983614150565b91506137b182614ba6565b604082019050919050565b60006137c9601d83614161565b91506137d482614bf5565b601d82019050919050565b60006137ec600283614161565b91506137f782614c1e565b600282019050919050565b600061380f602e83614150565b915061381a82614c47565b604082019050919050565b6000613832602083614150565b915061383d82614c96565b602082019050919050565b6000613855602c83614150565b915061386082614cbf565b604082019050919050565b6000613878601383614150565b915061388382614d0e565b602082019050919050565b600061389b602683614161565b91506138a682614d37565b602682019050919050565b60006138be602983614150565b91506138c982614d86565b604082019050919050565b60006138e1602183614150565b91506138ec82614dd5565b604082019050919050565b6000613904602d83614150565b915061390f82614e24565b604082019050919050565b6000613927601a83614161565b915061393282614e73565b601a82019050919050565b600061394a601d83614161565b915061395582614e9c565b601d82019050919050565b600061396d600083614145565b915061397882614ec5565b600082019050919050565b6000613990603583614150565b915061399b82614ec8565b604082019050919050565b60006139b3603d83614150565b91506139be82614f17565b604082019050919050565b60006139d6601d83614150565b91506139e182614f66565b602082019050919050565b60006139f9603983614150565b9150613a0482614f8f565b604082019050919050565b6000613a1c600183614161565b9150613a2782614fde565b600182019050919050565b608082016000820151613a486000850182613a87565b506020820151613a5b6020850182613a87565b506040820151613a6e6040850182613a87565b506060820151613a816060850182613a87565b50505050565b613a908161453d565b82525050565b613a9f8161453d565b82525050565b6000613ab0826135af565b9150613abc828761357e565b9150613ac78261391a565b9150613ad3828661357e565b9150613ade826137bc565b9150613aea828561357e565b9150613af58261370d565b9150613b01828461357e565b9150613b0c826137df565b915081905095945050505050565b6000613b258261363b565b9150613b31828461357e565b915081905092915050565b6000613b478261388e565b9150613b53828561357e565b9150613b5e82613a0f565b9150613b6a828461357e565b91508190509392505050565b6000613b818261393d565b9150613b8d828461357e565b915081905092915050565b6000613ba382613960565b9150819050919050565b6000602082019050613bc260008301846134ab565b92915050565b6000606082019050613bdd60008301866134ab565b613bea60208301856134ab565b613bf76040830184613a96565b949350505050565b600060a082019050613c1460008301886134ab565b613c2160208301876134ab565b613c2e6040830186613a96565b613c3b6060830185613a96565b613c486080830184613a96565b9695505050505050565b600060c082019050613c6760008301896134ab565b613c7460208301886134ab565b613c816040830187613a96565b613c8e6060830186613a96565b613c9b6080830185613a96565b613ca860a0830184613a96565b979650505050505050565b6000606082019050613cc860008301866134ab565b613cd56020830185613a96565b613ce26040830184613a96565b949350505050565b60006020820190508181036000830152613d0481846134ba565b905092915050565b6000602082019050613d216000830184613518565b92915050565b6000602082019050613d3c6000830184613527565b92915050565b6000602082019050613d576000830184613536565b92915050565b60006020820190508181036000830152613d778184613545565b905092915050565b60006020820190508181036000830152613d98816135d2565b9050919050565b60006020820190508181036000830152613db8816135f5565b9050919050565b60006020820190508181036000830152613dd881613618565b9050919050565b60006020820190508181036000830152613df88161365e565b9050919050565b60006020820190508181036000830152613e1881613681565b9050919050565b60006020820190508181036000830152613e38816136a4565b9050919050565b60006020820190508181036000830152613e58816136c7565b9050919050565b60006020820190508181036000830152613e78816136ea565b9050919050565b60006020820190508181036000830152613e9881613730565b9050919050565b60006020820190508181036000830152613eb881613753565b9050919050565b60006020820190508181036000830152613ed881613776565b9050919050565b60006020820190508181036000830152613ef881613799565b9050919050565b60006020820190508181036000830152613f1881613802565b9050919050565b60006020820190508181036000830152613f3881613825565b9050919050565b60006020820190508181036000830152613f5881613848565b9050919050565b60006020820190508181036000830152613f788161386b565b9050919050565b60006020820190508181036000830152613f98816138b1565b9050919050565b60006020820190508181036000830152613fb8816138d4565b9050919050565b60006020820190508181036000830152613fd8816138f7565b9050919050565b60006020820190508181036000830152613ff881613983565b9050919050565b60006020820190508181036000830152614018816139a6565b9050919050565b60006020820190508181036000830152614038816139c9565b9050919050565b60006020820190508181036000830152614058816139ec565b9050919050565b60006020820190506140746000830184613a96565b92915050565b6000614084614095565b905061409082826145fe565b919050565b6000604051905090565b600067ffffffffffffffff8211156140ba576140b9614765565b5b6140c3826147a8565b9050602081019050919050565b600067ffffffffffffffff8211156140eb576140ea614765565b5b6140f4826147a8565b9050602081019050919050565b6000819050602082019050919050565b600081519050919050565b600081519050919050565b6000602082019050919050565b600082825260208201905092915050565b600081905092915050565b600082825260208201905092915050565b600081905092915050565b60006141778261453d565b91506141828361453d565b9250827fffffffffffffffffffffffffffffffffffffffffffffffffffffffffffffffff038211156141b7576141b66146a9565b5b828201905092915050565b60006141cd82614547565b91506141d883614547565b92508260ff038211156141ee576141ed6146a9565b5b828201905092915050565b60006142048261453d565b915061420f8361453d565b92508261421f5761421e6146d8565b5b828204905092915050565b600061423582614547565b915061424083614547565b9250826142505761424f6146d8565b5b828204905092915050565b6000808291508390505b60018511156142a557808604811115614281576142806146a9565b5b60018516156142905780820291505b808102905061429e856147b9565b9450614265565b94509492505050565b60006142b98261453d565b91506142c48361453d565b92506142f17fffffffffffffffffffffffffffffffffffffffffffffffffffffffffffffffff84846142f9565b905092915050565b60008261430957600190506143c5565b8161431757600090506143c5565b816001811461432d576002811461433757614366565b60019150506143c5565b60ff841115614349576143486146a9565b5b8360020a9150848211156143605761435f6146a9565b5b506143c5565b5060208310610133831016604e8410600b841016171561439b5782820a905083811115614396576143956146a9565b5b6143c5565b6143a8848484600161425b565b925090508184048111156143bf576143be6146a9565b5b81810290505b9392505050565b60006143d78261453d565b91506143e28361453d565b9250817fffffffffffffffffffffffffffffffffffffffffffffffffffffffffffffffff048311821515161561441b5761441a6146a9565b5b828202905092915050565b600061443182614547565b915061443c83614547565b92508160ff0483118215151615614456576144556146a9565b5b828202905092915050565b600061446c8261453d565b91506144778361453d565b92508282101561448a576144896146a9565b5b828203905092915050565b60006144a082614547565b91506144ab83614547565b9250828210156144be576144bd6146a9565b5b828203905092915050565b60006144d48261451d565b9050919050565b60008115159050919050565b60007fffffffff0000000000000000000000000000000000000000000000000000000082169050919050565b6000819050919050565b600073ffffffffffffffffffffffffffffffffffffffff82169050919050565b6000819050919050565b600060ff82169050919050565b600061455f82614566565b9050919050565b600061457182614578565b9050919050565b60006145838261451d565b9050919050565b82818337600083830152505050565b60005b838110156145b757808201518184015260208101905061459c565b838111156145c6576000848401525b50505050565b600060028204905060018216806145e457607f821691505b602082108114156145f8576145f7614707565b5b50919050565b614607826147a8565b810181811067ffffffffffffffff8211171561462657614625614765565b5b80604052505050565b600061463a8261453d565b91507fffffffffffffffffffffffffffffffffffffffffffffffffffffffffffffffff82141561466d5761466c6146a9565b5b600182019050919050565b60006146838261453d565b915061468e8361453d565b92508261469e5761469d6146d8565b5b828206905092915050565b7f4e487b7100000000000000000000000000000000000000000000000000000000600052601160045260246000fd5b7f4e487b7100000000000000000000000000000000000000000000000000000000600052601260045260246000fd5b7f4e487b7100000000000000000000000000000000000000000000000000000000600052602260045260246000fd5b7f4e487b7100000000000000000000000000000000000000000000000000000000600052603260045260246000fd5b7f4e487b7100000000000000000000000000000000000000000000000000000000600052604160045260246000fd5b600080fd5b600080fd5b600080fd5b600080fd5b6000601f19601f8301169050919050565b60008160011c9050919050565b7f7b226e616d65223a20224445414442454546222c202265787465726e616c5f6c60008201527f696e6b223a202200000000000000000000000000000000000000000000000000602082015250565b7f5472616e7366657220746f206f776e6572206661696c65642e00000000000000600082015250565b7f4552433732313a20746f6b656e20616c7265616479206d696e74656400000000600082015250565b7f4d757374207061792066656520746f2077697468647261770000000000000000600082015250565b7f3078000000000000000000000000000000000000000000000000000000000000600082015250565b7f4e465420776173206e6f7420796574207075726368617365642077697468696e60008201527f20446f75626c6554726f75626c65000000000000000000000000000000000000602082015250565b7f506c656173652075736520627579206f7220666f726365427579000000000000600082015250565b7f4552433732313a207472616e7366657220746f20746865207a65726f2061646460008201527f7265737300000000000000000000000000000000000000000000000000000000602082015250565b7f4552433732313a20617070726f766520746f2063616c6c657200000000000000600082015250565b7f4552433732313a206f70657261746f7220717565727920666f72206e6f6e657860008201527f697374656e7420746f6b656e0000000000000000000000000000000000000000602082015250565b7f222c20226465736372697074696f6e223a202254686973204e4654206973206f60008201527f6e6c7920666f722073616c6520696e20446f75626c652054726f75626c652e2060208201527f566973697420646f75626c652d74726f75626c652e696f20746f206c6561726e60408201527f206d6f72652e222c2022696d616765223a2022646174613a696d6167652f737660608201527f672b786d6c3b6261736536342c00000000000000000000000000000000000000608082015250565b7f6d73672e73656e6465722073686f756c6420626520617070726f766564206f7260008201527f206f776e6572206f66206f726967696e616c204e465400000000000000000000602082015250565b7f4552433732313a20617070726f76652063616c6c6572206973206e6f74206f7760008201527f6e6572206e6f7220617070726f76656420666f7220616c6c0000000000000000602082015250565b7f4552433732313a2062616c616e636520717565727920666f7220746865207a6560008201527f726f206164647265737300000000000000000000000000000000000000000000602082015250565b7f4552433732313a206f776e657220717565727920666f72206e6f6e657869737460008201527f656e7420746f6b656e0000000000000000000000000000000000000000000000602082015250565b7f222c202274726f75626c65736f6d65436f6c6c656374696f6e223a2022000000600082015250565b7f227d000000000000000000000000000000000000000000000000000000000000600082015250565b7f56616c75652073656e74206d757374206265206174206c65617374207468652060008201527f666f722073616c65207072696365000000000000000000000000000000000000602082015250565b7f4552433732313a206d696e7420746f20746865207a65726f2061646472657373600082015250565b7f4552433732313a20617070726f76656420717565727920666f72206e6f6e657860008201527f697374656e7420746f6b656e0000000000000000000000000000000000000000602082015250565b7f4e4654206973206e6f7420666f722073616c6500000000000000000000000000600082015250565b7f68747470733a2f2f646f75626c652d74726f75626c652e696f2f636f6c6c656360008201527f74696f6e732f0000000000000000000000000000000000000000000000000000602082015250565b7f4552433732313a207472616e73666572206f6620746f6b656e2074686174206960008201527f73206e6f74206f776e0000000000000000000000000000000000000000000000602082015250565b7f4552433732313a20617070726f76616c20746f2063757272656e74206f776e6560008201527f7200000000000000000000000000000000000000000000000000000000000000602082015250565b7f6d73672e73656e6465722073686f756c6420626520617070726f766564206f7260008201527f206f776e6572206f66204e465400000000000000000000000000000000000000602082015250565b7f222c20226f726967696e616c436f6c6c656374696f6e223a2022000000000000600082015250565b7f646174613a6170706c69636174696f6e2f6a736f6e3b6261736536342c000000600082015250565b50565b7f4e4654206e6f742079657420617661696c61626c6520746f207769746864726160008201527f772066726f6d20446f75626c652054726f75626c650000000000000000000000602082015250565b7f446f75626c6554726f75626c6520636f6e7472616374206d757374206265206160008201527f7070726f76656420746f206f706572617465207468697320746f6b656e000000602082015250565b7f5472616e7366657220746f2044542077616c6c6574206661696c65642e000000600082015250565b7f56616c75652073656e74206d757374206265206174206c65617374207477696360008201527f6520746865206c61737420707572636861736520707269636500000000000000602082015250565b7f2f00000000000000000000000000000000000000000000000000000000000000600082015250565b615010816144c9565b811461501b57600080fd5b50565b615027816144db565b811461503257600080fd5b50565b61503e816144e7565b811461504957600080fd5b50565b6150558161453d565b811461506057600080fd5b5056fe3c73766720786d6c6e733d22687474703a2f2f7777772e77332e6f72672f323030302f73766722207072657365727665417370656374526174696f3d22784d696e594d696e206d656574222076696577426f783d223020302033353020333530223e3c7374796c653e2e62617365207b2066696c6c3a2077686974653b20666f6e742d66616d696c793a2073657269663b20666f6e742d73697a653a20313670783b207d3c2f7374796c653e3c726563742077696474683d223130302522206865696768743d2231303025222066696c6c3d22626c61636b22202f3e3c7465787420783d2231302220793d2232302220636c6173733d2262617365223e596f752061726520696e2074726f75626c653c2f746578743e3c2f7376673e4142434445464748494a4b4c4d4e4f505152535455565758595a6162636465666768696a6b6c6d6e6f707172737475767778797a303132333435363738392b2fa2646970667358221220c6fbd863601c04454d0bc897d6a45f6b14b72792421d1b6bc6a900da9cece91d64736f6c63430008070033",
  "immutableReferences": {},
  "source": "pragma solidity ^0.8.0;\n\nimport \"@openzeppelin/contracts/token/ERC721/extensions/ERC721URIStorage.sol\";\nimport \"@openzeppelin/contracts/token/ERC721/extensions/IERC721Metadata.sol\";\nimport \"./Libraries.sol\";\n\ninterface PatronCollection {\n   function patronOf(address troublesomeCollectionAddr) external view returns (address);\n}\n\n// Cannot include more than these two fields because otherwise the contract size gets above the 24k limit\nstruct TokenInfo {\n   uint256 tokenId;\n   uint256 lastPurchasePrice;\n   uint256 forSalePrice;\n   uint256 availableToWithdraw;\n}\n\n// SPDX-License-Identifier: MIT\ncontract DoubleTrouble is ERC721URIStorage {\n  // nested mapping that keeps track of who owns the NFTs\n  mapping (uint256 => uint256) _forSalePrices;\n  mapping (uint256 => uint256) _lastPurchasePrices;\n  mapping (uint256 => uint256) _lastPurchaseTimes;\n  PatronCollection _dto;\n  IERC721Metadata public _originalCollection;\n  address _feeWallet;\n  uint256 public _feeRate;\n  uint256 public _daysForWithdraw;\n  uint256 public _dtNumerator;\n  uint256 public _dtDenominator;\n\n  // Implement EnumerableSet so we dont go above the 24k contract size\n  uint256[] _allKnownTokens;\n  mapping (uint256 => bool) _allKnownTokensSet;\n\n  event Buy(address oldOwner, address newOwner, uint256 tokenId, uint256 valueSent, uint256 amountPaid);\n  event ForceBuy(address oldOwner, address newOwner, uint256 tokenId, uint256 valueSent, uint256 lastPurchasePrice, uint256 amountPaid);\n  event SetPrice(address msgSender, uint256 tokenId, uint256 price);\n  event Withdraw(address owner, uint256 tokenId, uint256 lastPurchasePrice);\n\n  constructor(string memory name, string memory symbol, address nftCollection, address feeWallet, address dto,\n              uint256 daysForWithdraw, uint256 dtNumerator, uint256 dtDenominator, uint256 feeRate) ERC721(name, symbol) {\n    require(nftCollection != address(0), \"collection address cannot be zero\");\n    require(dto != address(0), \"dto address cannot be zero\");\n    _originalCollection = IERC721Metadata(nftCollection);\n    _feeWallet = feeWallet;\n    _dto = PatronCollection(dto);\n    _daysForWithdraw = daysForWithdraw;\n    _dtNumerator = dtNumerator;\n    _dtDenominator = dtDenominator;\n    _feeRate = feeRate;\n  }\n\n  function originalCollection() external view returns (address) {\n    return address(_originalCollection);\n  }\n\n  function safeTransferFrom(address, address, uint256, bytes memory) public override pure {\n    revert(\"Please use buy or forceBuy\");\n  }\n\n  function safeTransferFrom(address, address, uint256) public override pure {\n    revert(\"Please use buy or forceBuy\");\n  }\n\n  function transferFrom(address, address, uint256) public override pure {\n    revert(\"Please use buy or forceBuy\");\n  }\n\n  function forSalePrice(uint256 tokenId) external view returns (uint256) {\n    return _forSalePrices[tokenId];\n  }\n\n  function lastPurchasePrice(uint256 tokenId) external view returns (uint256) {\n    return _lastPurchasePrices[tokenId];\n  }\n\n  function lastPurchaseTime(uint256 tokenId) external view returns (uint256) {\n    return _lastPurchaseTimes[tokenId];\n  }\n\n  function availableToWithdraw(uint256 tokenId) external view returns (uint256) {\n    return _lastPurchaseTimes[tokenId] + (_daysForWithdraw * 1 days);\n  }\n\n  function secondsToWithdraw(uint256 tokenId) external view returns (int256) {\n    // Allow uints to underflow per https://ethereum-blockchain-developer.com/010-solidity-basics/03-integer-overflow-underflow/\n    unchecked {\n      return int256(this.availableToWithdraw(tokenId) - block.timestamp);\n    }\n  }\n\n  function troublesomeTokenURI(uint256 tokenId) external view returns (string memory) {\n    return _originalCollection.tokenURI(tokenId);\n  }\n\n  function tokenURI(uint256 tokenId) public view virtual override returns (string memory) {\n    string memory output = '<svg xmlns=\"http://www.w3.org/2000/svg\" preserveAspectRatio=\"xMinYMin meet\" viewBox=\"0 0 350 350\"><style>.base { fill: white; font-family: serif; font-size: 16px; }</style><rect width=\"100%\" height=\"100%\" fill=\"black\" /><text x=\"10\" y=\"20\" class=\"base\">You are in trouble</text></svg>';\n\n    string memory originalAddr = Stringify.toString(address(_originalCollection));\n    string memory troublesomeAddr = Stringify.toString(address(this));\n    string memory strTokenId = Stringify.toString(tokenId);\n    string memory externalLink = string(abi.encodePacked('https://double-trouble.io/collections/', troublesomeAddr, '/', strTokenId));\n    string memory json = Base64.encode(bytes(string(abi.encodePacked('{\"name\": \"DEADBEEF\", \"external_link\": \"',\n                                                                      externalLink, '\", \"originalCollection\": \"',\n                                                                      originalAddr, '\", \"troublesomeCollection\": \"',\n                                                                      troublesomeAddr, '\", \"description\": \"This NFT is only for sale in Double Trouble. Visit double-trouble.io to learn more.\", \"image\": \"data:image/svg+xml;base64,',\n                                                                      Base64.encode(bytes(output)), '\"}'))));\n    return string(abi.encodePacked('data:application/json;base64,', json));\n  }\n\n  function setPrice(uint256 tokenId, uint256 price) external {\n    _addKnownToken(tokenId);\n\n    // Putting up for sale for the first time\n    if (_lastPurchasePrices[tokenId] == 0) {\n      require(_originalCollection.getApproved(tokenId) == msg.sender ||\n              _originalCollection.ownerOf(tokenId) == msg.sender, \"msg.sender should be approved or owner of original NFT\");\n    // All times after\n    } else {\n      require(_isApprovedOrOwner(msg.sender, tokenId), \"msg.sender should be approved or owner of NFT\");\n    }\n    _forSalePrices[tokenId] = price;\n\n    emit SetPrice(msg.sender, tokenId, price);\n  }\n\n  function buy(uint256 tokenId) payable external {\n    require(_forSalePrices[tokenId] > 0, \"NFT is not for sale\");\n    require(msg.value >= _forSalePrices[tokenId], \"Value sent must be at least the for sale price\");\n    _addKnownToken(tokenId);\n\n    // Make NFT troublesome if this is the first time it's being purchased\n    if (_lastPurchasePrices[tokenId] == 0) {\n      require(_originalCollection.getApproved(tokenId) == address(this), \"DoubleTrouble contract must be approved to operate this token\");\n\n      // In the original collection, the owner forever becomes the DoubleTrouble contract\n      address owner = _originalCollection.ownerOf(tokenId);\n      _originalCollection.transferFrom(owner, address(this), tokenId);\n\n      // Mint an NFT in the DT contract so we start recording the true owner here\n      _mint(owner, tokenId);\n    }\n\n    emit Buy(ownerOf(tokenId), msg.sender, tokenId, msg.value, _forSalePrices[tokenId]);\n    _completeBuy(msg.sender, tokenId, _forSalePrices[tokenId]);\n  }\n\n  function withdraw(uint256 tokenId) payable external {\n    require(_isApprovedOrOwner(msg.sender, tokenId), \"msg.sender should be approved or owner of NFT\");\n    require(block.timestamp > this.availableToWithdraw(tokenId), \"NFT not yet available to withdraw from Double Trouble\");\n    require(msg.value >= _lastPurchasePrices[tokenId] / _feeRate * 2, \"Must pay fee to withdraw\");\n\n    uint256 pricePaid = _lastPurchasePrices[tokenId];\n    emit Withdraw(ownerOf(tokenId), tokenId, pricePaid);\n\n    // Transfer original NFT back to owner, and burn troublesome NFT\n    _originalCollection.transferFrom(address(this), ownerOf(tokenId), tokenId);\n    _burn(tokenId);\n\n    // Reset DT state for tokenId\n    _lastPurchasePrices[tokenId] = 0;\n    _forSalePrices[tokenId] = 0;\n    _lastPurchaseTimes[tokenId] = 0;\n\n    _sendFees(pricePaid / _feeRate, msg.value);\n  }\n\n  function forceBuy(uint256 tokenId) payable external {\n    require(_lastPurchasePrices[tokenId] > 0, \"NFT was not yet purchased within DoubleTrouble\");\n    uint256 amountToPay = _dtNumerator * _lastPurchasePrices[tokenId] / _dtDenominator;\n    require(msg.value >= amountToPay, \"Value sent must be at least twice the last purchase price\");\n    _addKnownToken(tokenId);\n\n    emit ForceBuy(ownerOf(tokenId), msg.sender, tokenId, msg.value, _lastPurchasePrices[tokenId], amountToPay);\n    _completeBuy(msg.sender, tokenId, amountToPay);\n  }\n\n  function _completeBuy(address newOwner, uint256 tokenId, uint256 amountToPay) internal virtual {\n    // Change owner, set last purchase price, and remove from sale\n    address oldOwner = ownerOf(tokenId);\n    _transfer(oldOwner, newOwner, tokenId);\n    _lastPurchasePrices[tokenId] = amountToPay;\n    _lastPurchaseTimes[tokenId] = block.timestamp;\n    _forSalePrices[tokenId] = 0;\n    uint256 patronFee = amountToPay / _feeRate;\n\n    // Send ether to the old owner. Must be at the very end of the buy function to prevent reentrancy attacks\n    // https://consensys.net/diligence/blog/2019/09/stop-using-soliditys-transfer-now/\n    uint256 amountSent = amountToPay - 2 * patronFee;\n    (bool oldOwnersuccess, ) = oldOwner.call{value: amountSent}(\"\");\n    require(oldOwnersuccess, \"Transfer to owner failed.\");\n\n    _sendFees(patronFee, msg.value - amountSent);\n  }\n\n  function _sendFees(uint256 patronFee, uint256 valueLeft) internal virtual {\n    // Send fee to patron of this troublesome Collection\n    address patron = _dto.patronOf(address(this));\n    (bool patronSuccess, ) = patron.call{value: patronFee}(\"\");\n\n    // Send rest of the fee to the DT wallet\n    uint256 rest = patronSuccess ? valueLeft - patronFee : valueLeft;\n    (bool feeWalletSuccess, ) = _feeWallet.call{value: rest}(\"\");\n    require(feeWalletSuccess, \"Transfer to DT wallet failed.\");\n  }\n\n  function supportsInterface(bytes4 interfaceId) public view virtual override returns (bool) {\n    return interfaceId == 0xdeadbeef || super.supportsInterface(interfaceId);\n  }\n\n  function allKnownTokens() external view returns (TokenInfo[] memory) {\n    TokenInfo[] memory ret = new TokenInfo[](_allKnownTokens.length);\n    for (uint256 i = 0; i < _allKnownTokens.length; i++) {\n      uint256 id = _allKnownTokens[i];\n      ret[i] = TokenInfo(id, _lastPurchasePrices[id], _forSalePrices[id],\n                         _lastPurchaseTimes[id] + (_daysForWithdraw * 1 days));\n    }\n    return ret;\n  }\n\n  function _addKnownToken(uint256 tokenId) internal {\n    if (!_allKnownTokensSet[tokenId]) {\n      _allKnownTokensSet[tokenId] = true;\n      _allKnownTokens.push(tokenId);\n    }\n  }\n}\n",
  "sourcePath": "/Users/gabrielguimaraes/crypto/double_trouble/blockchain-backend/contracts/DoubleTrouble.sol",
  "compiler": {
    "name": "solc",
    "version": "0.8.7+commit.e28d00a7.Emscripten.clang"
  },
  "schemaVersion": "3.4.2",
  "updatedAt": "2021-09-11T17:39:34.308Z",
  "devdoc": {
    "kind": "dev",
    "methods": {
      "approve(address,uint256)": {
        "details": "See {IERC721-approve}."
      },
      "balanceOf(address)": {
        "details": "See {IERC721-balanceOf}."
      },
      "getApproved(uint256)": {
        "details": "See {IERC721-getApproved}."
      },
      "isApprovedForAll(address,address)": {
        "details": "See {IERC721-isApprovedForAll}."
      },
      "name()": {
        "details": "See {IERC721Metadata-name}."
      },
      "ownerOf(uint256)": {
        "details": "See {IERC721-ownerOf}."
      },
      "setApprovalForAll(address,bool)": {
        "details": "See {IERC721-setApprovalForAll}."
      },
      "supportsInterface(bytes4)": {
        "details": "See {IERC165-supportsInterface}."
      },
      "symbol()": {
        "details": "See {IERC721Metadata-symbol}."
      },
      "tokenURI(uint256)": {
        "details": "See {IERC721Metadata-tokenURI}."
      }
    },
    "version": 1
  },
  "userdoc": {
    "kind": "user",
    "methods": {},
    "version": 1
  }
}