{
  "contractName": "DoubleTrouble",
  "abi": [
    {
      "inputs": [
        {
          "internalType": "string",
          "name": "name",
          "type": "string"
        },
        {
          "internalType": "string",
          "name": "symbol",
          "type": "string"
        },
        {
          "internalType": "address",
          "name": "nftCollection",
          "type": "address"
        }
      ],
      "stateMutability": "nonpayable",
      "type": "constructor"
    },
    {
      "anonymous": false,
      "inputs": [
        {
          "indexed": true,
          "internalType": "address",
          "name": "owner",
          "type": "address"
        },
        {
          "indexed": true,
          "internalType": "address",
          "name": "approved",
          "type": "address"
        },
        {
          "indexed": true,
          "internalType": "uint256",
          "name": "tokenId",
          "type": "uint256"
        }
      ],
      "name": "Approval",
      "type": "event"
    },
    {
      "anonymous": false,
      "inputs": [
        {
          "indexed": true,
          "internalType": "address",
          "name": "owner",
          "type": "address"
        },
        {
          "indexed": true,
          "internalType": "address",
          "name": "operator",
          "type": "address"
        },
        {
          "indexed": false,
          "internalType": "bool",
          "name": "approved",
          "type": "bool"
        }
      ],
      "name": "ApprovalForAll",
      "type": "event"
    },
    {
      "anonymous": false,
      "inputs": [
        {
          "indexed": true,
          "internalType": "address",
          "name": "from",
          "type": "address"
        },
        {
          "indexed": true,
          "internalType": "address",
          "name": "to",
          "type": "address"
        },
        {
          "indexed": true,
          "internalType": "uint256",
          "name": "tokenId",
          "type": "uint256"
        }
      ],
      "name": "Transfer",
      "type": "event"
    },
    {
      "inputs": [
        {
          "internalType": "uint256",
          "name": "",
          "type": "uint256"
        }
      ],
      "name": "_forSalePrices",
      "outputs": [
        {
          "internalType": "uint256",
          "name": "",
          "type": "uint256"
        }
      ],
      "stateMutability": "view",
      "type": "function"
    },
    {
      "inputs": [
        {
          "internalType": "uint256",
          "name": "",
          "type": "uint256"
        }
      ],
      "name": "_lastPurchasePrices",
      "outputs": [
        {
          "internalType": "uint256",
          "name": "",
          "type": "uint256"
        }
      ],
      "stateMutability": "view",
      "type": "function"
    },
    {
      "inputs": [
        {
          "internalType": "address",
          "name": "to",
          "type": "address"
        },
        {
          "internalType": "uint256",
          "name": "tokenId",
          "type": "uint256"
        }
      ],
      "name": "approve",
      "outputs": [],
      "stateMutability": "nonpayable",
      "type": "function"
    },
    {
      "inputs": [
        {
          "internalType": "address",
          "name": "owner",
          "type": "address"
        }
      ],
      "name": "balanceOf",
      "outputs": [
        {
          "internalType": "uint256",
          "name": "",
          "type": "uint256"
        }
      ],
      "stateMutability": "view",
      "type": "function"
    },
    {
      "inputs": [
        {
          "internalType": "uint256",
          "name": "tokenId",
          "type": "uint256"
        }
      ],
      "name": "getApproved",
      "outputs": [
        {
          "internalType": "address",
          "name": "",
          "type": "address"
        }
      ],
      "stateMutability": "view",
      "type": "function"
    },
    {
      "inputs": [
        {
          "internalType": "address",
          "name": "owner",
          "type": "address"
        },
        {
          "internalType": "address",
          "name": "operator",
          "type": "address"
        }
      ],
      "name": "isApprovedForAll",
      "outputs": [
        {
          "internalType": "bool",
          "name": "",
          "type": "bool"
        }
      ],
      "stateMutability": "view",
      "type": "function"
    },
    {
      "inputs": [],
      "name": "name",
      "outputs": [
        {
          "internalType": "string",
          "name": "",
          "type": "string"
        }
      ],
      "stateMutability": "view",
      "type": "function"
    },
    {
      "inputs": [
        {
          "internalType": "uint256",
          "name": "tokenId",
          "type": "uint256"
        }
      ],
      "name": "ownerOf",
      "outputs": [
        {
          "internalType": "address",
          "name": "",
          "type": "address"
        }
      ],
      "stateMutability": "view",
      "type": "function"
    },
    {
      "inputs": [
        {
          "internalType": "address",
          "name": "operator",
          "type": "address"
        },
        {
          "internalType": "bool",
          "name": "approved",
          "type": "bool"
        }
      ],
      "name": "setApprovalForAll",
      "outputs": [],
      "stateMutability": "nonpayable",
      "type": "function"
    },
    {
      "inputs": [],
      "name": "symbol",
      "outputs": [
        {
          "internalType": "string",
          "name": "",
          "type": "string"
        }
      ],
      "stateMutability": "view",
      "type": "function"
    },
    {
      "inputs": [
        {
          "internalType": "uint256",
          "name": "tokenId",
          "type": "uint256"
        }
      ],
      "name": "makeTroublesome",
      "outputs": [],
      "stateMutability": "nonpayable",
      "type": "function"
    },
    {
      "inputs": [
        {
          "internalType": "uint256",
          "name": "tokenId",
          "type": "uint256"
        }
      ],
      "name": "unmakeTroublesome",
      "outputs": [],
      "stateMutability": "nonpayable",
      "type": "function"
    },
    {
      "inputs": [],
      "name": "originalCollection",
      "outputs": [
        {
          "internalType": "address",
          "name": "",
          "type": "address"
        }
      ],
      "stateMutability": "view",
      "type": "function"
    },
    {
      "inputs": [
        {
          "internalType": "address",
          "name": "",
          "type": "address"
        },
        {
          "internalType": "address",
          "name": "",
          "type": "address"
        },
        {
          "internalType": "uint256",
          "name": "",
          "type": "uint256"
        }
      ],
      "name": "safeTransferFrom",
      "outputs": [],
      "stateMutability": "pure",
      "type": "function"
    },
    {
      "inputs": [
        {
          "internalType": "address",
          "name": "",
          "type": "address"
        },
        {
          "internalType": "address",
          "name": "",
          "type": "address"
        },
        {
          "internalType": "uint256",
          "name": "",
          "type": "uint256"
        },
        {
          "internalType": "bytes",
          "name": "",
          "type": "bytes"
        }
      ],
      "name": "safeTransferFrom",
      "outputs": [],
      "stateMutability": "pure",
      "type": "function"
    },
    {
      "inputs": [
        {
          "internalType": "address",
          "name": "",
          "type": "address"
        },
        {
          "internalType": "address",
          "name": "",
          "type": "address"
        },
        {
          "internalType": "uint256",
          "name": "",
          "type": "uint256"
        }
      ],
      "name": "transferFrom",
      "outputs": [],
      "stateMutability": "pure",
      "type": "function"
    },
    {
      "inputs": [
        {
          "internalType": "uint256",
          "name": "tokenId",
          "type": "uint256"
        }
      ],
      "name": "forSalePrice",
      "outputs": [
        {
          "internalType": "uint256",
          "name": "",
          "type": "uint256"
        }
      ],
      "stateMutability": "view",
      "type": "function"
    },
    {
      "inputs": [
        {
          "internalType": "uint256",
          "name": "tokenId",
          "type": "uint256"
        }
      ],
      "name": "lastPurchasePrice",
      "outputs": [
        {
          "internalType": "uint256",
          "name": "",
          "type": "uint256"
        }
      ],
      "stateMutability": "view",
      "type": "function"
    },
    {
      "inputs": [
        {
          "internalType": "uint256",
          "name": "tokenId",
          "type": "uint256"
        }
      ],
      "name": "tokenURI",
      "outputs": [
        {
          "internalType": "string",
          "name": "",
          "type": "string"
        }
      ],
      "stateMutability": "view",
      "type": "function"
    },
    {
      "inputs": [
        {
          "internalType": "uint256",
          "name": "tokenId",
          "type": "uint256"
        },
        {
          "internalType": "uint256",
          "name": "price",
          "type": "uint256"
        }
      ],
      "name": "putUpForSale",
      "outputs": [],
      "stateMutability": "nonpayable",
      "type": "function"
    },
    {
      "inputs": [
        {
          "internalType": "uint256",
          "name": "tokenId",
          "type": "uint256"
        }
      ],
      "name": "buy",
      "outputs": [],
      "stateMutability": "payable",
      "type": "function"
    },
    {
      "inputs": [
        {
          "internalType": "uint256",
          "name": "tokenId",
          "type": "uint256"
        }
      ],
      "name": "forceBuy",
      "outputs": [],
      "stateMutability": "payable",
      "type": "function"
    },
    {
      "inputs": [
        {
          "internalType": "bytes4",
          "name": "interfaceId",
          "type": "bytes4"
        }
      ],
      "name": "supportsInterface",
      "outputs": [
        {
          "internalType": "bool",
          "name": "",
          "type": "bool"
        }
      ],
      "stateMutability": "view",
      "type": "function"
    }
  ],
  "bytecode": "0x6080604052738dbbf70afb0681eafde71be77781b207539746b9600a60006101000a81548173ffffffffffffffffffffffffffffffffffffffff021916908373ffffffffffffffffffffffffffffffffffffffff1602179055506064600b553480156200006b57600080fd5b5060405162003c4238038062003c428339818101604052810190620000919190620003e7565b82828160009080519060200190620000ab92919062000259565b508060019080519060200190620000c492919062000259565b505050600073ffffffffffffffffffffffffffffffffffffffff168173ffffffffffffffffffffffffffffffffffffffff1614156200013a576040517f08c379a000000000000000000000000000000000000000000000000000000000815260040162000131906200051f565b60405180910390fd5b8073ffffffffffffffffffffffffffffffffffffffff166301ffc9a76380ac58cd6040518263ffffffff1660e01b8152600401620001799190620004e0565b60206040518083038186803b1580156200019257600080fd5b505afa158015620001a7573d6000803e3d6000fd5b505050506040513d601f19601f82011682018060405250810190620001cd9190620003b5565b6200020f576040517f08c379a00000000000000000000000000000000000000000000000000000000081526004016200020690620004fd565b60405180910390fd5b80600960006101000a81548173ffffffffffffffffffffffffffffffffffffffff021916908373ffffffffffffffffffffffffffffffffffffffff1602179055505050506200081d565b82805462000267906200064f565b90600052602060002090601f0160209004810192826200028b5760008555620002d7565b82601f10620002a657805160ff1916838001178555620002d7565b82800160010185558215620002d7579182015b82811115620002d6578251825591602001919060010190620002b9565b5b509050620002e69190620002ea565b5090565b5b8082111562000305576000816000905550600101620002eb565b5090565b6000620003206200031a846200056a565b62000541565b9050828152602081018484840111156200033f576200033e6200071e565b5b6200034c84828562000619565b509392505050565b6000815190506200036581620007e9565b92915050565b6000815190506200037c8162000803565b92915050565b600082601f8301126200039a576200039962000719565b5b8151620003ac84826020860162000309565b91505092915050565b600060208284031215620003ce57620003cd62000728565b5b6000620003de848285016200036b565b91505092915050565b60008060006060848603121562000403576200040262000728565b5b600084015167ffffffffffffffff81111562000424576200042362000723565b5b620004328682870162000382565b935050602084015167ffffffffffffffff81111562000456576200045562000723565b5b620004648682870162000382565b9250506040620004778682870162000354565b9150509250925092565b6200048c81620005fb565b82525050565b6000620004a1602a83620005a0565b9150620004ae826200074b565b604082019050919050565b6000620004c8602183620005a0565b9150620004d5826200079a565b604082019050919050565b6000602082019050620004f7600083018462000481565b92915050565b60006020820190508181036000830152620005188162000492565b9050919050565b600060208201905081810360008301526200053a81620004b9565b9050919050565b60006200054d62000560565b90506200055b828262000685565b919050565b6000604051905090565b600067ffffffffffffffff821115620005885762000587620006ea565b5b62000593826200072d565b9050602081019050919050565b600082825260208201905092915050565b6000620005be82620005db565b9050919050565b60008115159050919050565b6000819050919050565b600073ffffffffffffffffffffffffffffffffffffffff82169050919050565b6000620006126200060c83620005d1565b6200073e565b9050919050565b60005b83811015620006395780820151818401526020810190506200061c565b8381111562000649576000848401525b50505050565b600060028204905060018216806200066857607f821691505b602082108114156200067f576200067e620006bb565b5b50919050565b62000690826200072d565b810181811067ffffffffffffffff82111715620006b257620006b1620006ea565b5b80604052505050565b7f4e487b7100000000000000000000000000000000000000000000000000000000600052602260045260246000fd5b7f4e487b7100000000000000000000000000000000000000000000000000000000600052604160045260246000fd5b600080fd5b600080fd5b600080fd5b600080fd5b6000601f19601f8301169050919050565b60008160e01b9050919050565b7f636f6c6c656374696f6e206d75737420726566657220746f20616e204552433760008201527f3231206164647265737300000000000000000000000000000000000000000000602082015250565b7f636f6c6c656374696f6e20616464726573732063616e6e6f74206265207a657260008201527f6f00000000000000000000000000000000000000000000000000000000000000602082015250565b620007f481620005b1565b81146200080057600080fd5b50565b6200080e81620005c5565b81146200081a57600080fd5b50565b613415806200082d6000396000f3fe6080604052600436106101405760003560e01c80636352211e116100b6578063b88d4fde1161006f578063b88d4fde1461046f578063c87b56dd14610498578063d96a094a146104d5578063dbe05fff146104f1578063e6c173501461052e578063e985e9c51461056b57610140565b80636352211e1461034857806370a082311461038557806373b1dc80146103c257806380b48a7c146103de57806395d89b411461041b578063a22cb4651461044657610140565b80632ac342b8116101085780632ac342b81461023c57806342842e0e14610265578063522da6331461028e57806353fb4665146102cb5780635e96c694146102f457806361dd277e1461031d57610140565b806301ffc9a71461014557806306fdde0314610182578063081812fc146101ad578063095ea7b3146101ea57806323b872dd14610213575b600080fd5b34801561015157600080fd5b5061016c60048036038101906101679190612282565b6105a8565b6040516101799190612734565b60405180910390f35b34801561018e57600080fd5b506101976105ea565b6040516101a4919061274f565b60405180910390f35b3480156101b957600080fd5b506101d460048036038101906101cf91906122f8565b61067c565b6040516101e191906126e2565b60405180910390f35b3480156101f657600080fd5b50610211600480360381019061020c9190612242565b610701565b005b34801561021f57600080fd5b5061023a6004803603810190610235919061212c565b610819565b005b34801561024857600080fd5b50610263600480360381019061025e91906122f8565b610854565b005b34801561027157600080fd5b5061028c6004803603810190610287919061212c565b610aba565b005b34801561029a57600080fd5b506102b560048036038101906102b091906122f8565b610af5565b6040516102c29190612a11565b60405180910390f35b3480156102d757600080fd5b506102f260048036038101906102ed91906122f8565b610b0d565b005b34801561030057600080fd5b5061031b60048036038101906103169190612325565b610c76565b005b34801561032957600080fd5b50610332610d08565b60405161033f91906126e2565b60405180910390f35b34801561035457600080fd5b5061036f600480360381019061036a91906122f8565b610d32565b60405161037c91906126e2565b60405180910390f35b34801561039157600080fd5b506103ac60048036038101906103a79190612092565b610de4565b6040516103b99190612a11565b60405180910390f35b6103dc60048036038101906103d791906122f8565b610e9c565b005b3480156103ea57600080fd5b50610405600480360381019061040091906122f8565b610f62565b6040516104129190612a11565b60405180910390f35b34801561042757600080fd5b50610430610ff6565b60405161043d919061274f565b60405180910390f35b34801561045257600080fd5b5061046d60048036038101906104689190612202565b611088565b005b34801561047b57600080fd5b506104966004803603810190610491919061217f565b611209565b005b3480156104a457600080fd5b506104bf60048036038101906104ba91906122f8565b611244565b6040516104cc919061274f565b60405180910390f35b6104ef60048036038101906104ea91906122f8565b6112fd565b005b3480156104fd57600080fd5b50610518600480360381019061051391906122f8565b6113b7565b6040516105259190612a11565b60405180910390f35b34801561053a57600080fd5b50610555600480360381019061055091906122f8565b6113cf565b6040516105629190612a11565b60405180910390f35b34801561057757600080fd5b50610592600480360381019061058d91906120ec565b611463565b60405161059f9190612734565b60405180910390f35b600063deadbeef60e01b827bffffffffffffffffffffffffffffffffffffffffffffffffffffffff191614806105e357506105e2826114f7565b5b9050919050565b6060600080546105f990612ca5565b80601f016020809104026020016040519081016040528092919081815260200182805461062590612ca5565b80156106725780601f1061064757610100808354040283529160200191610672565b820191906000526020600020905b81548152906001019060200180831161065557829003601f168201915b5050505050905090565b6000610687826115d9565b6106c6576040517f08c379a00000000000000000000000000000000000000000000000000000000081526004016106bd906128d1565b60405180910390fd5b6004600083815260200190815260200160002060009054906101000a900473ffffffffffffffffffffffffffffffffffffffff169050919050565b600061070c82610d32565b90508073ffffffffffffffffffffffffffffffffffffffff168373ffffffffffffffffffffffffffffffffffffffff16141561077d576040517f08c379a000000000000000000000000000000000000000000000000000000000815260040161077490612931565b60405180910390fd5b8073ffffffffffffffffffffffffffffffffffffffff1661079c611645565b73ffffffffffffffffffffffffffffffffffffffff1614806107cb57506107ca816107c5611645565b611463565b5b61080a576040517f08c379a000000000000000000000000000000000000000000000000000000000815260040161080190612831565b60405180910390fd5b610814838361164d565b505050565b6040517f08c379a000000000000000000000000000000000000000000000000000000000815260040161084b906127d1565b60405180910390fd5b3073ffffffffffffffffffffffffffffffffffffffff16600960009054906101000a900473ffffffffffffffffffffffffffffffffffffffff1673ffffffffffffffffffffffffffffffffffffffff1663081812fc836040518263ffffffff1660e01b81526004016108c69190612a11565b60206040518083038186803b1580156108de57600080fd5b505afa1580156108f2573d6000803e3d6000fd5b505050506040513d601f19601f8201168201806040525081019061091691906120bf565b73ffffffffffffffffffffffffffffffffffffffff161461096c576040517f08c379a000000000000000000000000000000000000000000000000000000000815260040161096390612971565b60405180910390fd5b6000600960009054906101000a900473ffffffffffffffffffffffffffffffffffffffff1673ffffffffffffffffffffffffffffffffffffffff16636352211e836040518263ffffffff1660e01b81526004016109c99190612a11565b60206040518083038186803b1580156109e157600080fd5b505afa1580156109f5573d6000803e3d6000fd5b505050506040513d601f19601f82011682018060405250810190610a1991906120bf565b9050600960009054906101000a900473ffffffffffffffffffffffffffffffffffffffff1673ffffffffffffffffffffffffffffffffffffffff166323b872dd8230856040518463ffffffff1660e01b8152600401610a7a939291906126fd565b600060405180830381600087803b158015610a9457600080fd5b505af1158015610aa8573d6000803e3d6000fd5b50505050610ab68183611706565b5050565b6040517f08c379a0000000000000000000000000000000000000000000000000000000008152600401610aec906127d1565b60405180910390fd5b60076020528060005260406000206000915090505481565b610b1681610d32565b73ffffffffffffffffffffffffffffffffffffffff163373ffffffffffffffffffffffffffffffffffffffff1614610b83576040517f08c379a0000000000000000000000000000000000000000000000000000000008152600401610b7a90612951565b60405180910390fd5b6000600860008381526020019081526020016000205414610bd9576040517f08c379a0000000000000000000000000000000000000000000000000000000008152600401610bd090612991565b60405180910390fd5b600960009054906101000a900473ffffffffffffffffffffffffffffffffffffffff1673ffffffffffffffffffffffffffffffffffffffff166323b872dd3033846040518463ffffffff1660e01b8152600401610c38939291906126fd565b600060405180830381600087803b158015610c5257600080fd5b505af1158015610c66573d6000803e3d6000fd5b50505050610c73816118d4565b50565b610c7f82610d32565b73ffffffffffffffffffffffffffffffffffffffff163373ffffffffffffffffffffffffffffffffffffffff1614610cec576040517f08c379a0000000000000000000000000000000000000000000000000000000008152600401610ce390612951565b60405180910390fd5b8060076000848152602001908152602001600020819055505050565b6000600960009054906101000a900473ffffffffffffffffffffffffffffffffffffffff16905090565b6000806002600084815260200190815260200160002060009054906101000a900473ffffffffffffffffffffffffffffffffffffffff169050600073ffffffffffffffffffffffffffffffffffffffff168173ffffffffffffffffffffffffffffffffffffffff161415610ddb576040517f08c379a0000000000000000000000000000000000000000000000000000000008152600401610dd290612871565b60405180910390fd5b80915050919050565b60008073ffffffffffffffffffffffffffffffffffffffff168273ffffffffffffffffffffffffffffffffffffffff161415610e55576040517f08c379a0000000000000000000000000000000000000000000000000000000008152600401610e4c90612851565b60405180910390fd5b600360008373ffffffffffffffffffffffffffffffffffffffff1673ffffffffffffffffffffffffffffffffffffffff168152602001908152602001600020549050919050565b6000600860008381526020019081526020016000205411610ef2576040517f08c379a0000000000000000000000000000000000000000000000000000000008152600401610ee9906127b1565b60405180910390fd5b60086000828152602001908152602001600020546002610f129190612b61565b341015610f54576040517f08c379a0000000000000000000000000000000000000000000000000000000008152600401610f4b906129f1565b60405180910390fd5b610f5f338234611927565b50565b60008073ffffffffffffffffffffffffffffffffffffffff16610f8483610d32565b73ffffffffffffffffffffffffffffffffffffffff161415610fdb576040517f08c379a0000000000000000000000000000000000000000000000000000000008152600401610fd2906129b1565b60405180910390fd5b60086000838152602001908152602001600020549050919050565b60606001805461100590612ca5565b80601f016020809104026020016040519081016040528092919081815260200182805461103190612ca5565b801561107e5780601f106110535761010080835404028352916020019161107e565b820191906000526020600020905b81548152906001019060200180831161106157829003601f168201915b5050505050905090565b611090611645565b73ffffffffffffffffffffffffffffffffffffffff168273ffffffffffffffffffffffffffffffffffffffff1614156110fe576040517f08c379a00000000000000000000000000000000000000000000000000000000081526004016110f590612811565b60405180910390fd5b806005600061110b611645565b73ffffffffffffffffffffffffffffffffffffffff1673ffffffffffffffffffffffffffffffffffffffff16815260200190815260200160002060008473ffffffffffffffffffffffffffffffffffffffff1673ffffffffffffffffffffffffffffffffffffffff16815260200190815260200160002060006101000a81548160ff0219169083151502179055508173ffffffffffffffffffffffffffffffffffffffff166111b8611645565b73ffffffffffffffffffffffffffffffffffffffff167f17307eab39ab6107e8899845ad3d59bd9653f200f220920489ca2b5937696c31836040516111fd9190612734565b60405180910390a35050565b6040517f08c379a000000000000000000000000000000000000000000000000000000000815260040161123b906127d1565b60405180910390fd5b6060600960009054906101000a900473ffffffffffffffffffffffffffffffffffffffff1673ffffffffffffffffffffffffffffffffffffffff1663c87b56dd836040518263ffffffff1660e01b81526004016112a19190612a11565b60006040518083038186803b1580156112b957600080fd5b505afa1580156112cd573d6000803e3d6000fd5b505050506040513d6000823e3d601f19601f820116820180604052508101906112f691906122af565b9050919050565b6000600760008381526020019081526020016000205411611353576040517f08c379a000000000000000000000000000000000000000000000000000000000815260040161134a906128f1565b60405180910390fd5b60076000828152602001908152602001600020543410156113a9576040517f08c379a00000000000000000000000000000000000000000000000000000000081526004016113a090612891565b60405180910390fd5b6113b4338234611927565b50565b60086020528060005260406000206000915090505481565b60008073ffffffffffffffffffffffffffffffffffffffff166113f183610d32565b73ffffffffffffffffffffffffffffffffffffffff161415611448576040517f08c379a000000000000000000000000000000000000000000000000000000000815260040161143f906129b1565b60405180910390fd5b60076000838152602001908152602001600020549050919050565b6000600560008473ffffffffffffffffffffffffffffffffffffffff1673ffffffffffffffffffffffffffffffffffffffff16815260200190815260200160002060008373ffffffffffffffffffffffffffffffffffffffff1673ffffffffffffffffffffffffffffffffffffffff16815260200190815260200160002060009054906101000a900460ff16905092915050565b60007f80ac58cd000000000000000000000000000000000000000000000000000000007bffffffffffffffffffffffffffffffffffffffffffffffffffffffff1916827bffffffffffffffffffffffffffffffffffffffffffffffffffffffff191614806115c257507f5b5e139f000000000000000000000000000000000000000000000000000000007bffffffffffffffffffffffffffffffffffffffffffffffffffffffff1916827bffffffffffffffffffffffffffffffffffffffffffffffffffffffff1916145b806115d257506115d182611b10565b5b9050919050565b60008073ffffffffffffffffffffffffffffffffffffffff166002600084815260200190815260200160002060009054906101000a900473ffffffffffffffffffffffffffffffffffffffff1673ffffffffffffffffffffffffffffffffffffffff1614159050919050565b600033905090565b816004600083815260200190815260200160002060006101000a81548173ffffffffffffffffffffffffffffffffffffffff021916908373ffffffffffffffffffffffffffffffffffffffff160217905550808273ffffffffffffffffffffffffffffffffffffffff166116c083610d32565b73ffffffffffffffffffffffffffffffffffffffff167f8c5be1e5ebec7d5bd14f71427d1e84f3dd0314c0f7b2291e5b200ac8c7c3b92560405160405180910390a45050565b600073ffffffffffffffffffffffffffffffffffffffff168273ffffffffffffffffffffffffffffffffffffffff161415611776576040517f08c379a000000000000000000000000000000000000000000000000000000000815260040161176d906128b1565b60405180910390fd5b61177f816115d9565b156117bf576040517f08c379a00000000000000000000000000000000000000000000000000000000081526004016117b690612791565b60405180910390fd5b6117cb60008383611b7a565b6001600360008473ffffffffffffffffffffffffffffffffffffffff1673ffffffffffffffffffffffffffffffffffffffff168152602001908152602001600020600082825461181b9190612ada565b92505081905550816002600083815260200190815260200160002060006101000a81548173ffffffffffffffffffffffffffffffffffffffff021916908373ffffffffffffffffffffffffffffffffffffffff160217905550808273ffffffffffffffffffffffffffffffffffffffff16600073ffffffffffffffffffffffffffffffffffffffff167fddf252ad1be2c89b69c2b068fc378daa952ba7f163c4a11628f55a4df523b3ef60405160405180910390a45050565b6118dd81611b7f565b60006006600083815260200190815260200160002080546118fd90612ca5565b905014611924576006600082815260200190815260200160002060006119239190611eec565b5b50565b600061193283610d32565b905061193f818585611c90565b816008600085815260200190815260200160002081905550600060076000858152602001908152602001600020819055506000600b54836119809190612b30565b905060008273ffffffffffffffffffffffffffffffffffffffff1682856119a79190612bbb565b6040516119b3906126cd565b60006040518083038185875af1925050503d80600081146119f0576040519150601f19603f3d011682016040523d82523d6000602084013e6119f5565b606091505b5050905080611a39576040517f08c379a0000000000000000000000000000000000000000000000000000000008152600401611a3090612771565b60405180910390fd5b6000600a60009054906101000a900473ffffffffffffffffffffffffffffffffffffffff1673ffffffffffffffffffffffffffffffffffffffff1683604051611a81906126cd565b60006040518083038185875af1925050503d8060008114611abe576040519150601f19603f3d011682016040523d82523d6000602084013e611ac3565b606091505b5050905080611b07576040517f08c379a0000000000000000000000000000000000000000000000000000000008152600401611afe906129d1565b60405180910390fd5b50505050505050565b60007f01ffc9a7000000000000000000000000000000000000000000000000000000007bffffffffffffffffffffffffffffffffffffffffffffffffffffffff1916827bffffffffffffffffffffffffffffffffffffffffffffffffffffffff1916149050919050565b505050565b6000611b8a82610d32565b9050611b9881600084611b7a565b611ba360008361164d565b6001600360008373ffffffffffffffffffffffffffffffffffffffff1673ffffffffffffffffffffffffffffffffffffffff1681526020019081526020016000206000828254611bf39190612bbb565b925050819055506002600083815260200190815260200160002060006101000a81549073ffffffffffffffffffffffffffffffffffffffff021916905581600073ffffffffffffffffffffffffffffffffffffffff168273ffffffffffffffffffffffffffffffffffffffff167fddf252ad1be2c89b69c2b068fc378daa952ba7f163c4a11628f55a4df523b3ef60405160405180910390a45050565b8273ffffffffffffffffffffffffffffffffffffffff16611cb082610d32565b73ffffffffffffffffffffffffffffffffffffffff1614611d06576040517f08c379a0000000000000000000000000000000000000000000000000000000008152600401611cfd90612911565b60405180910390fd5b600073ffffffffffffffffffffffffffffffffffffffff168273ffffffffffffffffffffffffffffffffffffffff161415611d76576040517f08c379a0000000000000000000000000000000000000000000000000000000008152600401611d6d906127f1565b60405180910390fd5b611d81838383611b7a565b611d8c60008261164d565b6001600360008573ffffffffffffffffffffffffffffffffffffffff1673ffffffffffffffffffffffffffffffffffffffff1681526020019081526020016000206000828254611ddc9190612bbb565b925050819055506001600360008473ffffffffffffffffffffffffffffffffffffffff1673ffffffffffffffffffffffffffffffffffffffff1681526020019081526020016000206000828254611e339190612ada565b92505081905550816002600083815260200190815260200160002060006101000a81548173ffffffffffffffffffffffffffffffffffffffff021916908373ffffffffffffffffffffffffffffffffffffffff160217905550808273ffffffffffffffffffffffffffffffffffffffff168473ffffffffffffffffffffffffffffffffffffffff167fddf252ad1be2c89b69c2b068fc378daa952ba7f163c4a11628f55a4df523b3ef60405160405180910390a4505050565b508054611ef890612ca5565b6000825580601f10611f0a5750611f29565b601f016020900490600052602060002090810190611f289190611f2c565b5b50565b5b80821115611f45576000816000905550600101611f2d565b5090565b6000611f5c611f5784612a51565b612a2c565b905082815260208101848484011115611f7857611f77612dc9565b5b611f83848285612c63565b509392505050565b6000611f9e611f9984612a82565b612a2c565b905082815260208101848484011115611fba57611fb9612dc9565b5b611fc5848285612c72565b509392505050565b600081359050611fdc81613383565b92915050565b600081519050611ff181613383565b92915050565b6000813590506120068161339a565b92915050565b60008135905061201b816133b1565b92915050565b600082601f83011261203657612035612dc4565b5b8135612046848260208601611f49565b91505092915050565b600082601f83011261206457612063612dc4565b5b8151612074848260208601611f8b565b91505092915050565b60008135905061208c816133c8565b92915050565b6000602082840312156120a8576120a7612dd3565b5b60006120b684828501611fcd565b91505092915050565b6000602082840312156120d5576120d4612dd3565b5b60006120e384828501611fe2565b91505092915050565b6000806040838503121561210357612102612dd3565b5b600061211185828601611fcd565b925050602061212285828601611fcd565b9150509250929050565b60008060006060848603121561214557612144612dd3565b5b600061215386828701611fcd565b935050602061216486828701611fcd565b92505060406121758682870161207d565b9150509250925092565b6000806000806080858703121561219957612198612dd3565b5b60006121a787828801611fcd565b94505060206121b887828801611fcd565b93505060406121c98782880161207d565b925050606085013567ffffffffffffffff8111156121ea576121e9612dce565b5b6121f687828801612021565b91505092959194509250565b6000806040838503121561221957612218612dd3565b5b600061222785828601611fcd565b925050602061223885828601611ff7565b9150509250929050565b6000806040838503121561225957612258612dd3565b5b600061226785828601611fcd565b92505060206122788582860161207d565b9150509250929050565b60006020828403121561229857612297612dd3565b5b60006122a68482850161200c565b91505092915050565b6000602082840312156122c5576122c4612dd3565b5b600082015167ffffffffffffffff8111156122e3576122e2612dce565b5b6122ef8482850161204f565b91505092915050565b60006020828403121561230e5761230d612dd3565b5b600061231c8482850161207d565b91505092915050565b6000806040838503121561233c5761233b612dd3565b5b600061234a8582860161207d565b925050602061235b8582860161207d565b9150509250929050565b61236e81612bef565b82525050565b61237d81612c01565b82525050565b600061238e82612ab3565b6123988185612ac9565b93506123a8818560208601612c72565b6123b181612dd8565b840191505092915050565b60006123c9601983612ac9565b91506123d482612de9565b602082019050919050565b60006123ec601c83612ac9565b91506123f782612e12565b602082019050919050565b600061240f602e83612ac9565b915061241a82612e3b565b604082019050919050565b6000612432601a83612ac9565b915061243d82612e8a565b602082019050919050565b6000612455602483612ac9565b915061246082612eb3565b604082019050919050565b6000612478601983612ac9565b915061248382612f02565b602082019050919050565b600061249b603883612ac9565b91506124a682612f2b565b604082019050919050565b60006124be602a83612ac9565b91506124c982612f7a565b604082019050919050565b60006124e1602983612ac9565b91506124ec82612fc9565b604082019050919050565b6000612504602e83612ac9565b915061250f82613018565b604082019050919050565b6000612527602083612ac9565b915061253282613067565b602082019050919050565b600061254a602c83612ac9565b915061255582613090565b604082019050919050565b600061256d601383612ac9565b9150612578826130df565b602082019050919050565b6000612590602983612ac9565b915061259b82613108565b604082019050919050565b60006125b3602183612ac9565b91506125be82613157565b604082019050919050565b60006125d6600083612abe565b91506125e1826131a6565b600082019050919050565b60006125f9602983612ac9565b9150612604826131a9565b604082019050919050565b600061261c603d83612ac9565b9150612627826131f8565b604082019050919050565b600061263f604883612ac9565b915061264a82613247565b606082019050919050565b6000612662603783612ac9565b915061266d826132bc565b604082019050919050565b6000612685601d83612ac9565b91506126908261330b565b602082019050919050565b60006126a8603983612ac9565b91506126b382613334565b604082019050919050565b6126c781612c59565b82525050565b60006126d8826125c9565b9150819050919050565b60006020820190506126f76000830184612365565b92915050565b60006060820190506127126000830186612365565b61271f6020830185612365565b61272c60408301846126be565b949350505050565b60006020820190506127496000830184612374565b92915050565b600060208201905081810360008301526127698184612383565b905092915050565b6000602082019050818103600083015261278a816123bc565b9050919050565b600060208201905081810360008301526127aa816123df565b9050919050565b600060208201905081810360008301526127ca81612402565b9050919050565b600060208201905081810360008301526127ea81612425565b9050919050565b6000602082019050818103600083015261280a81612448565b9050919050565b6000602082019050818103600083015261282a8161246b565b9050919050565b6000602082019050818103600083015261284a8161248e565b9050919050565b6000602082019050818103600083015261286a816124b1565b9050919050565b6000602082019050818103600083015261288a816124d4565b9050919050565b600060208201905081810360008301526128aa816124f7565b9050919050565b600060208201905081810360008301526128ca8161251a565b9050919050565b600060208201905081810360008301526128ea8161253d565b9050919050565b6000602082019050818103600083015261290a81612560565b9050919050565b6000602082019050818103600083015261292a81612583565b9050919050565b6000602082019050818103600083015261294a816125a6565b9050919050565b6000602082019050818103600083015261296a816125ec565b9050919050565b6000602082019050818103600083015261298a8161260f565b9050919050565b600060208201905081810360008301526129aa81612632565b9050919050565b600060208201905081810360008301526129ca81612655565b9050919050565b600060208201905081810360008301526129ea81612678565b9050919050565b60006020820190508181036000830152612a0a8161269b565b9050919050565b6000602082019050612a2660008301846126be565b92915050565b6000612a36612a47565b9050612a428282612cd7565b919050565b6000604051905090565b600067ffffffffffffffff821115612a6c57612a6b612d95565b5b612a7582612dd8565b9050602081019050919050565b600067ffffffffffffffff821115612a9d57612a9c612d95565b5b612aa682612dd8565b9050602081019050919050565b600081519050919050565b600081905092915050565b600082825260208201905092915050565b6000612ae582612c59565b9150612af083612c59565b9250827fffffffffffffffffffffffffffffffffffffffffffffffffffffffffffffffff03821115612b2557612b24612d08565b5b828201905092915050565b6000612b3b82612c59565b9150612b4683612c59565b925082612b5657612b55612d37565b5b828204905092915050565b6000612b6c82612c59565b9150612b7783612c59565b9250817fffffffffffffffffffffffffffffffffffffffffffffffffffffffffffffffff0483118215151615612bb057612baf612d08565b5b828202905092915050565b6000612bc682612c59565b9150612bd183612c59565b925082821015612be457612be3612d08565b5b828203905092915050565b6000612bfa82612c39565b9050919050565b60008115159050919050565b60007fffffffff0000000000000000000000000000000000000000000000000000000082169050919050565b600073ffffffffffffffffffffffffffffffffffffffff82169050919050565b6000819050919050565b82818337600083830152505050565b60005b83811015612c90578082015181840152602081019050612c75565b83811115612c9f576000848401525b50505050565b60006002820490506001821680612cbd57607f821691505b60208210811415612cd157612cd0612d66565b5b50919050565b612ce082612dd8565b810181811067ffffffffffffffff82111715612cff57612cfe612d95565b5b80604052505050565b7f4e487b7100000000000000000000000000000000000000000000000000000000600052601160045260246000fd5b7f4e487b7100000000000000000000000000000000000000000000000000000000600052601260045260246000fd5b7f4e487b7100000000000000000000000000000000000000000000000000000000600052602260045260246000fd5b7f4e487b7100000000000000000000000000000000000000000000000000000000600052604160045260246000fd5b600080fd5b600080fd5b600080fd5b600080fd5b6000601f19601f8301169050919050565b7f5472616e7366657220746f206f776e6572206661696c65642e00000000000000600082015250565b7f4552433732313a20746f6b656e20616c7265616479206d696e74656400000000600082015250565b7f4e465420776173206e6f7420796574207075726368617365642077697468696e60008201527f20446f75626c6554726f75626c65000000000000000000000000000000000000602082015250565b7f506c656173652075736520627579206f7220666f726365427579000000000000600082015250565b7f4552433732313a207472616e7366657220746f20746865207a65726f2061646460008201527f7265737300000000000000000000000000000000000000000000000000000000602082015250565b7f4552433732313a20617070726f766520746f2063616c6c657200000000000000600082015250565b7f4552433732313a20617070726f76652063616c6c6572206973206e6f74206f7760008201527f6e6572206e6f7220617070726f76656420666f7220616c6c0000000000000000602082015250565b7f4552433732313a2062616c616e636520717565727920666f7220746865207a6560008201527f726f206164647265737300000000000000000000000000000000000000000000602082015250565b7f4552433732313a206f776e657220717565727920666f72206e6f6e657869737460008201527f656e7420746f6b656e0000000000000000000000000000000000000000000000602082015250565b7f56616c75652073656e74206d757374206265206174206c65617374207468652060008201527f666f722073616c65207072696365000000000000000000000000000000000000602082015250565b7f4552433732313a206d696e7420746f20746865207a65726f2061646472657373600082015250565b7f4552433732313a20617070726f76656420717565727920666f72206e6f6e657860008201527f697374656e7420746f6b656e0000000000000000000000000000000000000000602082015250565b7f4e4654206973206e6f7420666f722073616c6500000000000000000000000000600082015250565b7f4552433732313a207472616e73666572206f6620746f6b656e2074686174206960008201527f73206e6f74206f776e0000000000000000000000000000000000000000000000602082015250565b7f4552433732313a20617070726f76616c20746f2063757272656e74206f776e6560008201527f7200000000000000000000000000000000000000000000000000000000000000602082015250565b50565b7f6d73672e73656e6465722073686f756c642062652063757272656e74206f776e60008201527f6572206f66204e46540000000000000000000000000000000000000000000000602082015250565b7f446f75626c6554726f75626c6520636f6e7472616374206d757374206265206160008201527f7070726f76656420746f206f706572617465207468697320746f6b656e000000602082015250565b7f43616e6e6f742072656d6f7665204e46542066726f6d20446f75626c6554726f60008201527f75626c652069662069742077617320616c726561647920626f7567687420627960208201527f20736f6d656f6e65000000000000000000000000000000000000000000000000604082015250565b7f636f6c6c656374696f6e20616e6420746f6b656e496420636f6d62696e61746960008201527f6f6e206973206e6f742070726573656e7420696e204454000000000000000000602082015250565b7f5472616e7366657220746f2044542077616c6c6574206661696c65642e000000600082015250565b7f56616c75652073656e74206d757374206265206174206c65617374207477696360008201527f6520746865206c61737420707572636861736520707269636500000000000000602082015250565b61338c81612bef565b811461339757600080fd5b50565b6133a381612c01565b81146133ae57600080fd5b50565b6133ba81612c0d565b81146133c557600080fd5b50565b6133d181612c59565b81146133dc57600080fd5b5056fea2646970667358221220d83f8c0b08996df61310265a24ccbd89f4d356474b20f74a2086aa2a511e04c064736f6c63430008070033",
  "immutableReferences": {},
  "source": "pragma solidity ^0.8.0;\n\nimport \"@openzeppelin/contracts/token/ERC721/extensions/ERC721URIStorage.sol\";\nimport \"@openzeppelin/contracts/token/ERC721/extensions/IERC721Metadata.sol\";\n\n// SPDX-License-Identifier: MIT\ncontract DoubleTrouble is ERC721URIStorage {\n  // nested mapping that keeps track of who owns the NFTs\n  mapping (uint256 => uint256) public _forSalePrices;\n  mapping (uint256 => uint256) public _lastPurchasePrices;\n  address _originalCollection;\n  address _walletDT = address(0x8DbBF70Afb0681eaFde71be77781b207539746b9);\n  uint256 _feeRate = 100;\n\n  constructor(string memory name, string memory symbol, address nftCollection) ERC721(name, symbol) {\n    require(nftCollection != address(0), \"collection address cannot be zero\");\n    require(IERC721Metadata(nftCollection).supportsInterface(0x80ac58cd),  \"collection must refer to an ERC721 address\");\n    _originalCollection = nftCollection;\n  }\n\n  function makeTroublesome(uint256 tokenId) external {\n    require(IERC721Metadata(_originalCollection).getApproved(tokenId) == address(this), \"DoubleTrouble contract must be approved to operate this token\");\n\n    // In the original collection, the owner forever becomes the DoubleTrouble contract\n    address owner = IERC721Metadata(_originalCollection).ownerOf(tokenId);\n    IERC721Metadata(_originalCollection).transferFrom(owner, address(this), tokenId);\n\n    // Mint an NFT in the DT contract so we start recording the true owner here\n    _mint(owner, tokenId);\n  }\n\n  function unmakeTroublesome(uint256 tokenId) external {\n    require(msg.sender == ownerOf(tokenId), \"msg.sender should be current owner of NFT\");\n    require(_lastPurchasePrices[tokenId] == 0, \"Cannot remove NFT from DoubleTrouble if it was already bought by someone\");\n\n    // Transfer ownership of the NFT\n    IERC721Metadata(_originalCollection).transferFrom(address(this), msg.sender, tokenId);\n    _burn(tokenId);\n  }\n\n  function originalCollection() external view returns (address) {\n    return _originalCollection;\n  }\n\n  function safeTransferFrom(address, address, uint256, bytes memory) public override pure {\n    revert(\"Please use buy or forceBuy\");\n  }\n\n  function safeTransferFrom(address, address, uint256) public override pure {\n    revert(\"Please use buy or forceBuy\");\n  }\n\n  function transferFrom(address, address, uint256) public override pure {\n    revert(\"Please use buy or forceBuy\");\n  }\n\n  function forSalePrice(uint256 tokenId) external view returns (uint256) {\n    require(ownerOf(tokenId) != address(0), \"collection and tokenId combination is not present in DT\");\n    return _forSalePrices[tokenId];\n  }\n\n  function lastPurchasePrice(uint256 tokenId) external view returns (uint256) {\n    require(ownerOf(tokenId) != address(0), \"collection and tokenId combination is not present in DT\");\n    return _lastPurchasePrices[tokenId];\n  }\n\n  function tokenURI(uint256 tokenId) public view virtual override returns (string memory) {\n    return IERC721Metadata(_originalCollection).tokenURI(tokenId);\n  }\n\n  // sets currentForSalePrice to price\n  function putUpForSale(uint256 tokenId, uint256 price) external {\n    require(msg.sender == ownerOf(tokenId), \"msg.sender should be current owner of NFT\");\n    _forSalePrices[tokenId] = price;\n  }\n\n  function buy(uint256 tokenId) payable external {\n    require(_forSalePrices[tokenId] > 0, \"NFT is not for sale\");\n    require(msg.value >= _forSalePrices[tokenId], \"Value sent must be at least the for sale price\");\n    _completeBuy(msg.sender, tokenId, msg.value);\n  }\n\n  function forceBuy(uint256 tokenId) payable external {\n    require(_lastPurchasePrices[tokenId] > 0, \"NFT was not yet purchased within DoubleTrouble\");\n    require(msg.value >= (2 * _lastPurchasePrices[tokenId]), \"Value sent must be at least twice the last purchase price\");\n    _completeBuy(msg.sender, tokenId, msg.value);\n  }\n\n  function _completeBuy(address newOwner, uint256 tokenId, uint256 amountPaid) internal virtual {\n    // Change owner, set last purchase price, and remove from sale\n    address oldOwner = ownerOf(tokenId);\n    _transfer(oldOwner, newOwner, tokenId);\n    _lastPurchasePrices[tokenId] = amountPaid;\n    _forSalePrices[tokenId] = 0;\n    uint256 feeToCharge = amountPaid / _feeRate;\n\n    // Send ether to the old owner. Must be at the very end of the buy function to prevent reentrancy attacks\n    // https://consensys.net/diligence/blog/2019/09/stop-using-soliditys-transfer-now/\n    (bool oldOwnersuccess, ) = oldOwner.call{value: amountPaid - feeToCharge}(\"\");\n    // Send ether to the DT wallet\n    require(oldOwnersuccess, \"Transfer to owner failed.\");\n    (bool dtWalletSuccess, ) = _walletDT.call{value: feeToCharge}(\"\");\n    require(dtWalletSuccess, \"Transfer to DT wallet failed.\");\n  }\n\n  function supportsInterface(bytes4 interfaceId) public view virtual override returns (bool) {\n      return interfaceId == 0xdeadbeef || super.supportsInterface(interfaceId);\n  }\n}\n",
  "sourcePath": "/Users/gabrielguimaraes/crypto/double_trouble/contracts/DoubleTrouble.sol",
  "compiler": {
    "name": "solc",
    "version": "0.8.7+commit.e28d00a7.Emscripten.clang"
  },
  "schemaVersion": "3.4.2",
  "updatedAt": "2021-09-02T15:52:20.356Z",
  "devdoc": {
    "kind": "dev",
    "methods": {
      "approve(address,uint256)": {
        "details": "See {IERC721-approve}."
      },
      "balanceOf(address)": {
        "details": "See {IERC721-balanceOf}."
      },
      "getApproved(uint256)": {
        "details": "See {IERC721-getApproved}."
      },
      "isApprovedForAll(address,address)": {
        "details": "See {IERC721-isApprovedForAll}."
      },
      "name()": {
        "details": "See {IERC721Metadata-name}."
      },
      "ownerOf(uint256)": {
        "details": "See {IERC721-ownerOf}."
      },
      "setApprovalForAll(address,bool)": {
        "details": "See {IERC721-setApprovalForAll}."
      },
      "supportsInterface(bytes4)": {
        "details": "See {IERC165-supportsInterface}."
      },
      "symbol()": {
        "details": "See {IERC721Metadata-symbol}."
      },
      "tokenURI(uint256)": {
        "details": "See {IERC721Metadata-tokenURI}."
      }
    },
    "version": 1
  },
  "userdoc": {
    "kind": "user",
    "methods": {},
    "version": 1
  }
}