{
  "contractName": "DoubleTroubleOrchestrator",
  "abi": [
    {
      "inputs": [
        {
          "internalType": "address",
          "name": "feeWallet",
          "type": "address"
        }
      ],
      "stateMutability": "nonpayable",
      "type": "constructor"
    },
    {
      "inputs": [
        {
          "internalType": "address",
          "name": "",
          "type": "address"
        }
      ],
      "name": "_troublesomeCollections",
      "outputs": [
        {
          "internalType": "contract DoubleTrouble",
          "name": "",
          "type": "address"
        }
      ],
      "stateMutability": "view",
      "type": "function",
      "constant": true
    },
    {
      "inputs": [
        {
          "internalType": "address",
          "name": "nftCollection",
          "type": "address"
        },
        {
          "internalType": "string",
          "name": "name",
          "type": "string"
        },
        {
          "internalType": "string",
          "name": "symbol",
          "type": "string"
        }
      ],
      "name": "makeTroublesomeCollection",
      "outputs": [],
      "stateMutability": "nonpayable",
      "type": "function"
    },
    {
      "inputs": [
        {
          "internalType": "address",
          "name": "nftCollection",
          "type": "address"
        }
      ],
      "name": "troublesomeCollection",
      "outputs": [
        {
          "internalType": "contract DoubleTrouble",
          "name": "",
          "type": "address"
        }
      ],
      "stateMutability": "view",
      "type": "function",
      "constant": true
    },
    {
      "inputs": [],
      "name": "registeredCollections",
      "outputs": [
        {
          "internalType": "address[]",
          "name": "",
          "type": "address[]"
        }
      ],
      "stateMutability": "view",
      "type": "function",
      "constant": true
    }
  ],
  "bytecode": "0x608060405234801561001057600080fd5b50604051620049f4380380620049f483398181016040528101906100349190610090565b80600160006101000a81548173ffffffffffffffffffffffffffffffffffffffff021916908373ffffffffffffffffffffffffffffffffffffffff1602179055505061010b565b60008151905061008a816100f4565b92915050565b6000602082840312156100a6576100a56100ef565b5b60006100b48482850161007b565b91505092915050565b60006100c8826100cf565b9050919050565b600073ffffffffffffffffffffffffffffffffffffffff82169050919050565b600080fd5b6100fd816100bd565b811461010857600080fd5b50565b6148d9806200011b6000396000f3fe60806040523480156200001157600080fd5b5060043610620000525760003560e01c8063404d09f8146200005757806394d27158146200008d578063f70d7e4b14620000ad578063f82ca21f14620000e3575b600080fd5b6200007560048036038101906200006f9190620005ed565b62000105565b60405162000084919062000866565b60405180910390f35b620000ab6004803603810190620000a591906200061f565b62000138565b005b620000cb6004803603810190620000c59190620005ed565b62000358565b604051620000da919062000866565b60405180910390f35b620000ed620003cb565b604051620000fc919062000842565b60405180910390f35b60006020528060005260406000206000915054906101000a900473ffffffffffffffffffffffffffffffffffffffff1681565b62000143836200045b565b600073ffffffffffffffffffffffffffffffffffffffff166000808573ffffffffffffffffffffffffffffffffffffffff1673ffffffffffffffffffffffffffffffffffffffff16815260200190815260200160002060009054906101000a900473ffffffffffffffffffffffffffffffffffffffff1673ffffffffffffffffffffffffffffffffffffffff161462000213576040517f08c379a00000000000000000000000000000000000000000000000000000000081526004016200020a906200091d565b60405180910390fd5b818184600160009054906101000a900473ffffffffffffffffffffffffffffffffffffffff16604051620002479062000533565b620002569493929190620008a0565b604051809103906000f08015801562000273573d6000803e3d6000fd5b506000808573ffffffffffffffffffffffffffffffffffffffff1673ffffffffffffffffffffffffffffffffffffffff16815260200190815260200160002060006101000a81548173ffffffffffffffffffffffffffffffffffffffff021916908373ffffffffffffffffffffffffffffffffffffffff1602179055506002839080600181540180825580915050600190039060005260206000200160009091909190916101000a81548173ffffffffffffffffffffffffffffffffffffffff021916908373ffffffffffffffffffffffffffffffffffffffff160217905550505050565b600062000365826200045b565b6000808373ffffffffffffffffffffffffffffffffffffffff1673ffffffffffffffffffffffffffffffffffffffff16815260200190815260200160002060009054906101000a900473ffffffffffffffffffffffffffffffffffffffff169050919050565b606060028054806020026020016040519081016040528092919081815260200182805480156200045157602002820191906000526020600020905b8160009054906101000a900473ffffffffffffffffffffffffffffffffffffffff1673ffffffffffffffffffffffffffffffffffffffff168152602001906001019080831162000406575b5050505050905090565b8073ffffffffffffffffffffffffffffffffffffffff166301ffc9a76380ac58cd6040518263ffffffff1660e01b81526004016200049a919062000883565b60206040518083038186803b158015620004b357600080fd5b505afa158015620004c8573d6000803e3d6000fd5b505050506040513d601f19601f82011682018060405250810190620004ee9190620006b9565b62000530576040517f08c379a00000000000000000000000000000000000000000000000000000000081526004016200052790620008fb565b60405180910390fd5b50565b613c5e8062000c4683390190565b600062000558620005528462000968565b6200093f565b90508281526020810184848401111562000577576200057662000b46565b5b6200058484828562000a97565b509392505050565b6000813590506200059d8162000c11565b92915050565b600081519050620005b48162000c2b565b92915050565b600082601f830112620005d257620005d162000b41565b5b8135620005e484826020860162000541565b91505092915050565b60006020828403121562000606576200060562000b50565b5b600062000616848285016200058c565b91505092915050565b6000806000606084860312156200063b576200063a62000b50565b5b60006200064b868287016200058c565b935050602084013567ffffffffffffffff8111156200066f576200066e62000b4b565b5b6200067d86828701620005ba565b925050604084013567ffffffffffffffff811115620006a157620006a062000b4b565b5b620006af86828701620005ba565b9150509250925092565b600060208284031215620006d257620006d162000b50565b5b6000620006e284828501620005a3565b91505092915050565b6000620006f9838362000705565b60208301905092915050565b6200071081620009f3565b82525050565b6200072181620009f3565b82525050565b60006200073482620009ae565b620007408185620009d1565b93506200074d836200099e565b8060005b8381101562000784578151620007688882620006eb565b97506200077583620009c4565b92505060018101905062000751565b5085935050505092915050565b6200079c8162000a3d565b82525050565b620007ad8162000a51565b82525050565b6000620007c082620009b9565b620007cc8185620009e2565b9350620007de81856020860162000aa6565b620007e98162000b55565b840191505092915050565b600062000803602a83620009e2565b9150620008108262000b73565b604082019050919050565b60006200082a602183620009e2565b9150620008378262000bc2565b604082019050919050565b600060208201905081810360008301526200085e818462000727565b905092915050565b60006020820190506200087d600083018462000791565b92915050565b60006020820190506200089a6000830184620007a2565b92915050565b60006080820190508181036000830152620008bc8187620007b3565b90508181036020830152620008d28186620007b3565b9050620008e3604083018562000716565b620008f2606083018462000716565b95945050505050565b600060208201905081810360008301526200091681620007f4565b9050919050565b6000602082019050818103600083015262000938816200081b565b9050919050565b60006200094b6200095e565b905062000959828262000adc565b919050565b6000604051905090565b600067ffffffffffffffff82111562000986576200098562000b12565b5b620009918262000b55565b9050602081019050919050565b6000819050602082019050919050565b600081519050919050565b600081519050919050565b6000602082019050919050565b600082825260208201905092915050565b600082825260208201905092915050565b600062000a008262000a1d565b9050919050565b60008115159050919050565b6000819050919050565b600073ffffffffffffffffffffffffffffffffffffffff82169050919050565b600062000a4a8262000a6f565b9050919050565b600062000a6862000a628362000a13565b62000b66565b9050919050565b600062000a7c8262000a83565b9050919050565b600062000a908262000a1d565b9050919050565b82818337600083830152505050565b60005b8381101562000ac657808201518184015260208101905062000aa9565b8381111562000ad6576000848401525b50505050565b62000ae78262000b55565b810181811067ffffffffffffffff8211171562000b095762000b0862000b12565b5b80604052505050565b7f4e487b7100000000000000000000000000000000000000000000000000000000600052604160045260246000fd5b600080fd5b600080fd5b600080fd5b600080fd5b6000601f19601f8301169050919050565b60008160e01b9050919050565b7f636f6c6c656374696f6e206d75737420726566657220746f20616e204552433760008201527f3231206164647265737300000000000000000000000000000000000000000000602082015250565b7f436f6c6c656374696f6e20697320616c72656164792054726f75626c65736f6d60008201527f6500000000000000000000000000000000000000000000000000000000000000602082015250565b62000c1c81620009f3565b811462000c2857600080fd5b50565b62000c368162000a07565b811462000c4257600080fd5b5056fe60806040526064600b553480156200001657600080fd5b5060405162003c5e38038062003c5e83398181016040528101906200003c9190620003d4565b838381600090805190602001906200005692919062000246565b5080600190805190602001906200006f92919062000246565b505050600073ffffffffffffffffffffffffffffffffffffffff168273ffffffffffffffffffffffffffffffffffffffff161415620000e5576040517f08c379a0000000000000000000000000000000000000000000000000000000008152600401620000dc9062000522565b60405180910390fd5b8173ffffffffffffffffffffffffffffffffffffffff166301ffc9a76380ac58cd6040518263ffffffff1660e01b8152600401620001249190620004e3565b60206040518083038186803b1580156200013d57600080fd5b505afa15801562000152573d6000803e3d6000fd5b505050506040513d601f19601f82011682018060405250810190620001789190620003a2565b620001ba576040517f08c379a0000000000000000000000000000000000000000000000000000000008152600401620001b19062000500565b60405180910390fd5b81600960006101000a81548173ffffffffffffffffffffffffffffffffffffffff021916908373ffffffffffffffffffffffffffffffffffffffff16021790555080600a60006101000a81548173ffffffffffffffffffffffffffffffffffffffff021916908373ffffffffffffffffffffffffffffffffffffffff1602179055505050505062000820565b828054620002549062000652565b90600052602060002090601f016020900481019282620002785760008555620002c4565b82601f106200029357805160ff1916838001178555620002c4565b82800160010185558215620002c4579182015b82811115620002c3578251825591602001919060010190620002a6565b5b509050620002d39190620002d7565b5090565b5b80821115620002f2576000816000905550600101620002d8565b5090565b60006200030d62000307846200056d565b62000544565b9050828152602081018484840111156200032c576200032b62000721565b5b620003398482856200061c565b509392505050565b6000815190506200035281620007ec565b92915050565b600081519050620003698162000806565b92915050565b600082601f8301126200038757620003866200071c565b5b815162000399848260208601620002f6565b91505092915050565b600060208284031215620003bb57620003ba6200072b565b5b6000620003cb8482850162000358565b91505092915050565b60008060008060808587031215620003f157620003f06200072b565b5b600085015167ffffffffffffffff81111562000412576200041162000726565b5b62000420878288016200036f565b945050602085015167ffffffffffffffff81111562000444576200044362000726565b5b62000452878288016200036f565b9350506040620004658782880162000341565b9250506060620004788782880162000341565b91505092959194509250565b6200048f81620005fe565b82525050565b6000620004a4602a83620005a3565b9150620004b1826200074e565b604082019050919050565b6000620004cb602183620005a3565b9150620004d8826200079d565b604082019050919050565b6000602082019050620004fa600083018462000484565b92915050565b600060208201905081810360008301526200051b8162000495565b9050919050565b600060208201905081810360008301526200053d81620004bc565b9050919050565b60006200055062000563565b90506200055e828262000688565b919050565b6000604051905090565b600067ffffffffffffffff8211156200058b576200058a620006ed565b5b620005968262000730565b9050602081019050919050565b600082825260208201905092915050565b6000620005c182620005de565b9050919050565b60008115159050919050565b6000819050919050565b600073ffffffffffffffffffffffffffffffffffffffff82169050919050565b6000620006156200060f83620005d4565b62000741565b9050919050565b60005b838110156200063c5780820151818401526020810190506200061f565b838111156200064c576000848401525b50505050565b600060028204905060018216806200066b57607f821691505b60208210811415620006825762000681620006be565b5b50919050565b620006938262000730565b810181811067ffffffffffffffff82111715620006b557620006b4620006ed565b5b80604052505050565b7f4e487b7100000000000000000000000000000000000000000000000000000000600052602260045260246000fd5b7f4e487b7100000000000000000000000000000000000000000000000000000000600052604160045260246000fd5b600080fd5b600080fd5b600080fd5b600080fd5b6000601f19601f8301169050919050565b60008160e01b9050919050565b7f636f6c6c656374696f6e206d75737420726566657220746f20616e204552433760008201527f3231206164647265737300000000000000000000000000000000000000000000602082015250565b7f636f6c6c656374696f6e20616464726573732063616e6e6f74206265207a657260008201527f6f00000000000000000000000000000000000000000000000000000000000000602082015250565b620007f781620005b4565b81146200080357600080fd5b50565b6200081181620005c8565b81146200081d57600080fd5b50565b61342e80620008306000396000f3fe6080604052600436106101405760003560e01c806371835a3e116100b6578063c87b56dd1161006f578063c87b56dd1461046f578063d96a094a146104ac578063dbe05fff146104c8578063e6c1735014610505578063e985e9c514610542578063f7d975771461057f57610140565b806371835a3e1461037057806373b1dc801461039957806380b48a7c146103b557806395d89b41146103f2578063a22cb4651461041d578063b88d4fde1461044657610140565b806342842e0e1161010857806342842e0e1461023c578063522da6331461026557806353fb4665146102a257806361dd277e146102cb5780636352211e146102f657806370a082311461033357610140565b806301ffc9a71461014557806306fdde0314610182578063081812fc146101ad578063095ea7b3146101ea57806323b872dd14610213575b600080fd5b34801561015157600080fd5b5061016c6004803603810190610167919061229b565b6105a8565b604051610179919061274d565b60405180910390f35b34801561018e57600080fd5b506101976105ea565b6040516101a49190612768565b60405180910390f35b3480156101b957600080fd5b506101d460048036038101906101cf9190612311565b61067c565b6040516101e191906126fb565b60405180910390f35b3480156101f657600080fd5b50610211600480360381019061020c919061225b565b610701565b005b34801561021f57600080fd5b5061023a60048036038101906102359190612145565b610819565b005b34801561024857600080fd5b50610263600480360381019061025e9190612145565b610854565b005b34801561027157600080fd5b5061028c60048036038101906102879190612311565b61088f565b6040516102999190612a2a565b60405180910390f35b3480156102ae57600080fd5b506102c960048036038101906102c49190612311565b6108a7565b005b3480156102d757600080fd5b506102e0610a10565b6040516102ed91906126fb565b60405180910390f35b34801561030257600080fd5b5061031d60048036038101906103189190612311565b610a3a565b60405161032a91906126fb565b60405180910390f35b34801561033f57600080fd5b5061035a600480360381019061035591906120ab565b610aec565b6040516103679190612a2a565b60405180910390f35b34801561037c57600080fd5b506103976004803603810190610392919061233e565b610ba4565b005b6103b360048036038101906103ae9190612311565b610e23565b005b3480156103c157600080fd5b506103dc60048036038101906103d79190612311565b610ee9565b6040516103e99190612a2a565b60405180910390f35b3480156103fe57600080fd5b50610407610f7d565b6040516104149190612768565b60405180910390f35b34801561042957600080fd5b50610444600480360381019061043f919061221b565b61100f565b005b34801561045257600080fd5b5061046d60048036038101906104689190612198565b611190565b005b34801561047b57600080fd5b5061049660048036038101906104919190612311565b6111cb565b6040516104a39190612768565b60405180910390f35b6104c660048036038101906104c19190612311565b611284565b005b3480156104d457600080fd5b506104ef60048036038101906104ea9190612311565b61133e565b6040516104fc9190612a2a565b60405180910390f35b34801561051157600080fd5b5061052c60048036038101906105279190612311565b611356565b6040516105399190612a2a565b60405180910390f35b34801561054e57600080fd5b5061056960048036038101906105649190612105565b6113ea565b604051610576919061274d565b60405180910390f35b34801561058b57600080fd5b506105a660048036038101906105a1919061233e565b61147e565b005b600063deadbeef60e01b827bffffffffffffffffffffffffffffffffffffffffffffffffffffffff191614806105e357506105e282611510565b5b9050919050565b6060600080546105f990612cbe565b80601f016020809104026020016040519081016040528092919081815260200182805461062590612cbe565b80156106725780601f1061064757610100808354040283529160200191610672565b820191906000526020600020905b81548152906001019060200180831161065557829003601f168201915b5050505050905090565b6000610687826115f2565b6106c6576040517f08c379a00000000000000000000000000000000000000000000000000000000081526004016106bd906128ea565b60405180910390fd5b6004600083815260200190815260200160002060009054906101000a900473ffffffffffffffffffffffffffffffffffffffff169050919050565b600061070c82610a3a565b90508073ffffffffffffffffffffffffffffffffffffffff168373ffffffffffffffffffffffffffffffffffffffff16141561077d576040517f08c379a00000000000000000000000000000000000000000000000000000000081526004016107749061294a565b60405180910390fd5b8073ffffffffffffffffffffffffffffffffffffffff1661079c61165e565b73ffffffffffffffffffffffffffffffffffffffff1614806107cb57506107ca816107c561165e565b6113ea565b5b61080a576040517f08c379a00000000000000000000000000000000000000000000000000000000081526004016108019061284a565b60405180910390fd5b6108148383611666565b505050565b6040517f08c379a000000000000000000000000000000000000000000000000000000000815260040161084b906127ea565b60405180910390fd5b6040517f08c379a0000000000000000000000000000000000000000000000000000000008152600401610886906127ea565b60405180910390fd5b60076020528060005260406000206000915090505481565b6108b081610a3a565b73ffffffffffffffffffffffffffffffffffffffff163373ffffffffffffffffffffffffffffffffffffffff161461091d576040517f08c379a00000000000000000000000000000000000000000000000000000000081526004016109149061296a565b60405180910390fd5b6000600860008381526020019081526020016000205414610973576040517f08c379a000000000000000000000000000000000000000000000000000000000815260040161096a906129aa565b60405180910390fd5b600960009054906101000a900473ffffffffffffffffffffffffffffffffffffffff1673ffffffffffffffffffffffffffffffffffffffff166323b872dd3033846040518463ffffffff1660e01b81526004016109d293929190612716565b600060405180830381600087803b1580156109ec57600080fd5b505af1158015610a00573d6000803e3d6000fd5b50505050610a0d8161171f565b50565b6000600960009054906101000a900473ffffffffffffffffffffffffffffffffffffffff16905090565b6000806002600084815260200190815260200160002060009054906101000a900473ffffffffffffffffffffffffffffffffffffffff169050600073ffffffffffffffffffffffffffffffffffffffff168173ffffffffffffffffffffffffffffffffffffffff161415610ae3576040517f08c379a0000000000000000000000000000000000000000000000000000000008152600401610ada9061288a565b60405180910390fd5b80915050919050565b60008073ffffffffffffffffffffffffffffffffffffffff168273ffffffffffffffffffffffffffffffffffffffff161415610b5d576040517f08c379a0000000000000000000000000000000000000000000000000000000008152600401610b549061286a565b60405180910390fd5b600360008373ffffffffffffffffffffffffffffffffffffffff1673ffffffffffffffffffffffffffffffffffffffff168152602001908152602001600020549050919050565b3073ffffffffffffffffffffffffffffffffffffffff16600960009054906101000a900473ffffffffffffffffffffffffffffffffffffffff1673ffffffffffffffffffffffffffffffffffffffff1663081812fc846040518263ffffffff1660e01b8152600401610c169190612a2a565b60206040518083038186803b158015610c2e57600080fd5b505afa158015610c42573d6000803e3d6000fd5b505050506040513d601f19601f82011682018060405250810190610c6691906120d8565b73ffffffffffffffffffffffffffffffffffffffff1614610cbc576040517f08c379a0000000000000000000000000000000000000000000000000000000008152600401610cb39061298a565b60405180910390fd5b6000600960009054906101000a900473ffffffffffffffffffffffffffffffffffffffff1673ffffffffffffffffffffffffffffffffffffffff16636352211e846040518263ffffffff1660e01b8152600401610d199190612a2a565b60206040518083038186803b158015610d3157600080fd5b505afa158015610d45573d6000803e3d6000fd5b505050506040513d601f19601f82011682018060405250810190610d6991906120d8565b9050600960009054906101000a900473ffffffffffffffffffffffffffffffffffffffff1673ffffffffffffffffffffffffffffffffffffffff166323b872dd8230866040518463ffffffff1660e01b8152600401610dca93929190612716565b600060405180830381600087803b158015610de457600080fd5b505af1158015610df8573d6000803e3d6000fd5b50505050610e068184611772565b816007600085815260200190815260200160002081905550505050565b6000600860008381526020019081526020016000205411610e79576040517f08c379a0000000000000000000000000000000000000000000000000000000008152600401610e70906127ca565b60405180910390fd5b60086000828152602001908152602001600020546002610e999190612b7a565b341015610edb576040517f08c379a0000000000000000000000000000000000000000000000000000000008152600401610ed290612a0a565b60405180910390fd5b610ee6338234611940565b50565b60008073ffffffffffffffffffffffffffffffffffffffff16610f0b83610a3a565b73ffffffffffffffffffffffffffffffffffffffff161415610f62576040517f08c379a0000000000000000000000000000000000000000000000000000000008152600401610f59906129ca565b60405180910390fd5b60086000838152602001908152602001600020549050919050565b606060018054610f8c90612cbe565b80601f0160208091040260200160405190810160405280929190818152602001828054610fb890612cbe565b80156110055780601f10610fda57610100808354040283529160200191611005565b820191906000526020600020905b815481529060010190602001808311610fe857829003601f168201915b5050505050905090565b61101761165e565b73ffffffffffffffffffffffffffffffffffffffff168273ffffffffffffffffffffffffffffffffffffffff161415611085576040517f08c379a000000000000000000000000000000000000000000000000000000000815260040161107c9061282a565b60405180910390fd5b806005600061109261165e565b73ffffffffffffffffffffffffffffffffffffffff1673ffffffffffffffffffffffffffffffffffffffff16815260200190815260200160002060008473ffffffffffffffffffffffffffffffffffffffff1673ffffffffffffffffffffffffffffffffffffffff16815260200190815260200160002060006101000a81548160ff0219169083151502179055508173ffffffffffffffffffffffffffffffffffffffff1661113f61165e565b73ffffffffffffffffffffffffffffffffffffffff167f17307eab39ab6107e8899845ad3d59bd9653f200f220920489ca2b5937696c3183604051611184919061274d565b60405180910390a35050565b6040517f08c379a00000000000000000000000000000000000000000000000000000000081526004016111c2906127ea565b60405180910390fd5b6060600960009054906101000a900473ffffffffffffffffffffffffffffffffffffffff1673ffffffffffffffffffffffffffffffffffffffff1663c87b56dd836040518263ffffffff1660e01b81526004016112289190612a2a565b60006040518083038186803b15801561124057600080fd5b505afa158015611254573d6000803e3d6000fd5b505050506040513d6000823e3d601f19601f8201168201806040525081019061127d91906122c8565b9050919050565b60006007600083815260200190815260200160002054116112da576040517f08c379a00000000000000000000000000000000000000000000000000000000081526004016112d19061290a565b60405180910390fd5b6007600082815260200190815260200160002054341015611330576040517f08c379a0000000000000000000000000000000000000000000000000000000008152600401611327906128aa565b60405180910390fd5b61133b338234611940565b50565b60086020528060005260406000206000915090505481565b60008073ffffffffffffffffffffffffffffffffffffffff1661137883610a3a565b73ffffffffffffffffffffffffffffffffffffffff1614156113cf576040517f08c379a00000000000000000000000000000000000000000000000000000000081526004016113c6906129ca565b60405180910390fd5b60076000838152602001908152602001600020549050919050565b6000600560008473ffffffffffffffffffffffffffffffffffffffff1673ffffffffffffffffffffffffffffffffffffffff16815260200190815260200160002060008373ffffffffffffffffffffffffffffffffffffffff1673ffffffffffffffffffffffffffffffffffffffff16815260200190815260200160002060009054906101000a900460ff16905092915050565b61148782610a3a565b73ffffffffffffffffffffffffffffffffffffffff163373ffffffffffffffffffffffffffffffffffffffff16146114f4576040517f08c379a00000000000000000000000000000000000000000000000000000000081526004016114eb9061296a565b60405180910390fd5b8060076000848152602001908152602001600020819055505050565b60007f80ac58cd000000000000000000000000000000000000000000000000000000007bffffffffffffffffffffffffffffffffffffffffffffffffffffffff1916827bffffffffffffffffffffffffffffffffffffffffffffffffffffffff191614806115db57507f5b5e139f000000000000000000000000000000000000000000000000000000007bffffffffffffffffffffffffffffffffffffffffffffffffffffffff1916827bffffffffffffffffffffffffffffffffffffffffffffffffffffffff1916145b806115eb57506115ea82611b29565b5b9050919050565b60008073ffffffffffffffffffffffffffffffffffffffff166002600084815260200190815260200160002060009054906101000a900473ffffffffffffffffffffffffffffffffffffffff1673ffffffffffffffffffffffffffffffffffffffff1614159050919050565b600033905090565b816004600083815260200190815260200160002060006101000a81548173ffffffffffffffffffffffffffffffffffffffff021916908373ffffffffffffffffffffffffffffffffffffffff160217905550808273ffffffffffffffffffffffffffffffffffffffff166116d983610a3a565b73ffffffffffffffffffffffffffffffffffffffff167f8c5be1e5ebec7d5bd14f71427d1e84f3dd0314c0f7b2291e5b200ac8c7c3b92560405160405180910390a45050565b61172881611b93565b600060066000838152602001908152602001600020805461174890612cbe565b90501461176f5760066000828152602001908152602001600020600061176e9190611f05565b5b50565b600073ffffffffffffffffffffffffffffffffffffffff168273ffffffffffffffffffffffffffffffffffffffff1614156117e2576040517f08c379a00000000000000000000000000000000000000000000000000000000081526004016117d9906128ca565b60405180910390fd5b6117eb816115f2565b1561182b576040517f08c379a0000000000000000000000000000000000000000000000000000000008152600401611822906127aa565b60405180910390fd5b61183760008383611ca4565b6001600360008473ffffffffffffffffffffffffffffffffffffffff1673ffffffffffffffffffffffffffffffffffffffff16815260200190815260200160002060008282546118879190612af3565b92505081905550816002600083815260200190815260200160002060006101000a81548173ffffffffffffffffffffffffffffffffffffffff021916908373ffffffffffffffffffffffffffffffffffffffff160217905550808273ffffffffffffffffffffffffffffffffffffffff16600073ffffffffffffffffffffffffffffffffffffffff167fddf252ad1be2c89b69c2b068fc378daa952ba7f163c4a11628f55a4df523b3ef60405160405180910390a45050565b600061194b83610a3a565b9050611958818585611ca9565b816008600085815260200190815260200160002081905550600060076000858152602001908152602001600020819055506000600b54836119999190612b49565b905060008273ffffffffffffffffffffffffffffffffffffffff1682856119c09190612bd4565b6040516119cc906126e6565b60006040518083038185875af1925050503d8060008114611a09576040519150601f19603f3d011682016040523d82523d6000602084013e611a0e565b606091505b5050905080611a52576040517f08c379a0000000000000000000000000000000000000000000000000000000008152600401611a499061278a565b60405180910390fd5b6000600a60009054906101000a900473ffffffffffffffffffffffffffffffffffffffff1673ffffffffffffffffffffffffffffffffffffffff1683604051611a9a906126e6565b60006040518083038185875af1925050503d8060008114611ad7576040519150601f19603f3d011682016040523d82523d6000602084013e611adc565b606091505b5050905080611b20576040517f08c379a0000000000000000000000000000000000000000000000000000000008152600401611b17906129ea565b60405180910390fd5b50505050505050565b60007f01ffc9a7000000000000000000000000000000000000000000000000000000007bffffffffffffffffffffffffffffffffffffffffffffffffffffffff1916827bffffffffffffffffffffffffffffffffffffffffffffffffffffffff1916149050919050565b6000611b9e82610a3a565b9050611bac81600084611ca4565b611bb7600083611666565b6001600360008373ffffffffffffffffffffffffffffffffffffffff1673ffffffffffffffffffffffffffffffffffffffff1681526020019081526020016000206000828254611c079190612bd4565b925050819055506002600083815260200190815260200160002060006101000a81549073ffffffffffffffffffffffffffffffffffffffff021916905581600073ffffffffffffffffffffffffffffffffffffffff168273ffffffffffffffffffffffffffffffffffffffff167fddf252ad1be2c89b69c2b068fc378daa952ba7f163c4a11628f55a4df523b3ef60405160405180910390a45050565b505050565b8273ffffffffffffffffffffffffffffffffffffffff16611cc982610a3a565b73ffffffffffffffffffffffffffffffffffffffff1614611d1f576040517f08c379a0000000000000000000000000000000000000000000000000000000008152600401611d169061292a565b60405180910390fd5b600073ffffffffffffffffffffffffffffffffffffffff168273ffffffffffffffffffffffffffffffffffffffff161415611d8f576040517f08c379a0000000000000000000000000000000000000000000000000000000008152600401611d869061280a565b60405180910390fd5b611d9a838383611ca4565b611da5600082611666565b6001600360008573ffffffffffffffffffffffffffffffffffffffff1673ffffffffffffffffffffffffffffffffffffffff1681526020019081526020016000206000828254611df59190612bd4565b925050819055506001600360008473ffffffffffffffffffffffffffffffffffffffff1673ffffffffffffffffffffffffffffffffffffffff1681526020019081526020016000206000828254611e4c9190612af3565b92505081905550816002600083815260200190815260200160002060006101000a81548173ffffffffffffffffffffffffffffffffffffffff021916908373ffffffffffffffffffffffffffffffffffffffff160217905550808273ffffffffffffffffffffffffffffffffffffffff168473ffffffffffffffffffffffffffffffffffffffff167fddf252ad1be2c89b69c2b068fc378daa952ba7f163c4a11628f55a4df523b3ef60405160405180910390a4505050565b508054611f1190612cbe565b6000825580601f10611f235750611f42565b601f016020900490600052602060002090810190611f419190611f45565b5b50565b5b80821115611f5e576000816000905550600101611f46565b5090565b6000611f75611f7084612a6a565b612a45565b905082815260208101848484011115611f9157611f90612de2565b5b611f9c848285612c7c565b509392505050565b6000611fb7611fb284612a9b565b612a45565b905082815260208101848484011115611fd357611fd2612de2565b5b611fde848285612c8b565b509392505050565b600081359050611ff58161339c565b92915050565b60008151905061200a8161339c565b92915050565b60008135905061201f816133b3565b92915050565b600081359050612034816133ca565b92915050565b600082601f83011261204f5761204e612ddd565b5b813561205f848260208601611f62565b91505092915050565b600082601f83011261207d5761207c612ddd565b5b815161208d848260208601611fa4565b91505092915050565b6000813590506120a5816133e1565b92915050565b6000602082840312156120c1576120c0612dec565b5b60006120cf84828501611fe6565b91505092915050565b6000602082840312156120ee576120ed612dec565b5b60006120fc84828501611ffb565b91505092915050565b6000806040838503121561211c5761211b612dec565b5b600061212a85828601611fe6565b925050602061213b85828601611fe6565b9150509250929050565b60008060006060848603121561215e5761215d612dec565b5b600061216c86828701611fe6565b935050602061217d86828701611fe6565b925050604061218e86828701612096565b9150509250925092565b600080600080608085870312156121b2576121b1612dec565b5b60006121c087828801611fe6565b94505060206121d187828801611fe6565b93505060406121e287828801612096565b925050606085013567ffffffffffffffff81111561220357612202612de7565b5b61220f8782880161203a565b91505092959194509250565b6000806040838503121561223257612231612dec565b5b600061224085828601611fe6565b925050602061225185828601612010565b9150509250929050565b6000806040838503121561227257612271612dec565b5b600061228085828601611fe6565b925050602061229185828601612096565b9150509250929050565b6000602082840312156122b1576122b0612dec565b5b60006122bf84828501612025565b91505092915050565b6000602082840312156122de576122dd612dec565b5b600082015167ffffffffffffffff8111156122fc576122fb612de7565b5b61230884828501612068565b91505092915050565b60006020828403121561232757612326612dec565b5b600061233584828501612096565b91505092915050565b6000806040838503121561235557612354612dec565b5b600061236385828601612096565b925050602061237485828601612096565b9150509250929050565b61238781612c08565b82525050565b61239681612c1a565b82525050565b60006123a782612acc565b6123b18185612ae2565b93506123c1818560208601612c8b565b6123ca81612df1565b840191505092915050565b60006123e2601983612ae2565b91506123ed82612e02565b602082019050919050565b6000612405601c83612ae2565b915061241082612e2b565b602082019050919050565b6000612428602e83612ae2565b915061243382612e54565b604082019050919050565b600061244b601a83612ae2565b915061245682612ea3565b602082019050919050565b600061246e602483612ae2565b915061247982612ecc565b604082019050919050565b6000612491601983612ae2565b915061249c82612f1b565b602082019050919050565b60006124b4603883612ae2565b91506124bf82612f44565b604082019050919050565b60006124d7602a83612ae2565b91506124e282612f93565b604082019050919050565b60006124fa602983612ae2565b915061250582612fe2565b604082019050919050565b600061251d602e83612ae2565b915061252882613031565b604082019050919050565b6000612540602083612ae2565b915061254b82613080565b602082019050919050565b6000612563602c83612ae2565b915061256e826130a9565b604082019050919050565b6000612586601383612ae2565b9150612591826130f8565b602082019050919050565b60006125a9602983612ae2565b91506125b482613121565b604082019050919050565b60006125cc602183612ae2565b91506125d782613170565b604082019050919050565b60006125ef600083612ad7565b91506125fa826131bf565b600082019050919050565b6000612612602983612ae2565b915061261d826131c2565b604082019050919050565b6000612635603d83612ae2565b915061264082613211565b604082019050919050565b6000612658604883612ae2565b915061266382613260565b606082019050919050565b600061267b603783612ae2565b9150612686826132d5565b604082019050919050565b600061269e601d83612ae2565b91506126a982613324565b602082019050919050565b60006126c1603983612ae2565b91506126cc8261334d565b604082019050919050565b6126e081612c72565b82525050565b60006126f1826125e2565b9150819050919050565b6000602082019050612710600083018461237e565b92915050565b600060608201905061272b600083018661237e565b612738602083018561237e565b61274560408301846126d7565b949350505050565b6000602082019050612762600083018461238d565b92915050565b60006020820190508181036000830152612782818461239c565b905092915050565b600060208201905081810360008301526127a3816123d5565b9050919050565b600060208201905081810360008301526127c3816123f8565b9050919050565b600060208201905081810360008301526127e38161241b565b9050919050565b600060208201905081810360008301526128038161243e565b9050919050565b6000602082019050818103600083015261282381612461565b9050919050565b6000602082019050818103600083015261284381612484565b9050919050565b60006020820190508181036000830152612863816124a7565b9050919050565b60006020820190508181036000830152612883816124ca565b9050919050565b600060208201905081810360008301526128a3816124ed565b9050919050565b600060208201905081810360008301526128c381612510565b9050919050565b600060208201905081810360008301526128e381612533565b9050919050565b6000602082019050818103600083015261290381612556565b9050919050565b6000602082019050818103600083015261292381612579565b9050919050565b600060208201905081810360008301526129438161259c565b9050919050565b60006020820190508181036000830152612963816125bf565b9050919050565b6000602082019050818103600083015261298381612605565b9050919050565b600060208201905081810360008301526129a381612628565b9050919050565b600060208201905081810360008301526129c38161264b565b9050919050565b600060208201905081810360008301526129e38161266e565b9050919050565b60006020820190508181036000830152612a0381612691565b9050919050565b60006020820190508181036000830152612a23816126b4565b9050919050565b6000602082019050612a3f60008301846126d7565b92915050565b6000612a4f612a60565b9050612a5b8282612cf0565b919050565b6000604051905090565b600067ffffffffffffffff821115612a8557612a84612dae565b5b612a8e82612df1565b9050602081019050919050565b600067ffffffffffffffff821115612ab657612ab5612dae565b5b612abf82612df1565b9050602081019050919050565b600081519050919050565b600081905092915050565b600082825260208201905092915050565b6000612afe82612c72565b9150612b0983612c72565b9250827fffffffffffffffffffffffffffffffffffffffffffffffffffffffffffffffff03821115612b3e57612b3d612d21565b5b828201905092915050565b6000612b5482612c72565b9150612b5f83612c72565b925082612b6f57612b6e612d50565b5b828204905092915050565b6000612b8582612c72565b9150612b9083612c72565b9250817fffffffffffffffffffffffffffffffffffffffffffffffffffffffffffffffff0483118215151615612bc957612bc8612d21565b5b828202905092915050565b6000612bdf82612c72565b9150612bea83612c72565b925082821015612bfd57612bfc612d21565b5b828203905092915050565b6000612c1382612c52565b9050919050565b60008115159050919050565b60007fffffffff0000000000000000000000000000000000000000000000000000000082169050919050565b600073ffffffffffffffffffffffffffffffffffffffff82169050919050565b6000819050919050565b82818337600083830152505050565b60005b83811015612ca9578082015181840152602081019050612c8e565b83811115612cb8576000848401525b50505050565b60006002820490506001821680612cd657607f821691505b60208210811415612cea57612ce9612d7f565b5b50919050565b612cf982612df1565b810181811067ffffffffffffffff82111715612d1857612d17612dae565b5b80604052505050565b7f4e487b7100000000000000000000000000000000000000000000000000000000600052601160045260246000fd5b7f4e487b7100000000000000000000000000000000000000000000000000000000600052601260045260246000fd5b7f4e487b7100000000000000000000000000000000000000000000000000000000600052602260045260246000fd5b7f4e487b7100000000000000000000000000000000000000000000000000000000600052604160045260246000fd5b600080fd5b600080fd5b600080fd5b600080fd5b6000601f19601f8301169050919050565b7f5472616e7366657220746f206f776e6572206661696c65642e00000000000000600082015250565b7f4552433732313a20746f6b656e20616c7265616479206d696e74656400000000600082015250565b7f4e465420776173206e6f7420796574207075726368617365642077697468696e60008201527f20446f75626c6554726f75626c65000000000000000000000000000000000000602082015250565b7f506c656173652075736520627579206f7220666f726365427579000000000000600082015250565b7f4552433732313a207472616e7366657220746f20746865207a65726f2061646460008201527f7265737300000000000000000000000000000000000000000000000000000000602082015250565b7f4552433732313a20617070726f766520746f2063616c6c657200000000000000600082015250565b7f4552433732313a20617070726f76652063616c6c6572206973206e6f74206f7760008201527f6e6572206e6f7220617070726f76656420666f7220616c6c0000000000000000602082015250565b7f4552433732313a2062616c616e636520717565727920666f7220746865207a6560008201527f726f206164647265737300000000000000000000000000000000000000000000602082015250565b7f4552433732313a206f776e657220717565727920666f72206e6f6e657869737460008201527f656e7420746f6b656e0000000000000000000000000000000000000000000000602082015250565b7f56616c75652073656e74206d757374206265206174206c65617374207468652060008201527f666f722073616c65207072696365000000000000000000000000000000000000602082015250565b7f4552433732313a206d696e7420746f20746865207a65726f2061646472657373600082015250565b7f4552433732313a20617070726f76656420717565727920666f72206e6f6e657860008201527f697374656e7420746f6b656e0000000000000000000000000000000000000000602082015250565b7f4e4654206973206e6f7420666f722073616c6500000000000000000000000000600082015250565b7f4552433732313a207472616e73666572206f6620746f6b656e2074686174206960008201527f73206e6f74206f776e0000000000000000000000000000000000000000000000602082015250565b7f4552433732313a20617070726f76616c20746f2063757272656e74206f776e6560008201527f7200000000000000000000000000000000000000000000000000000000000000602082015250565b50565b7f6d73672e73656e6465722073686f756c642062652063757272656e74206f776e60008201527f6572206f66204e46540000000000000000000000000000000000000000000000602082015250565b7f446f75626c6554726f75626c6520636f6e7472616374206d757374206265206160008201527f7070726f76656420746f206f706572617465207468697320746f6b656e000000602082015250565b7f43616e6e6f742072656d6f7665204e46542066726f6d20446f75626c6554726f60008201527f75626c652069662069742077617320616c726561647920626f7567687420627960208201527f20736f6d656f6e65000000000000000000000000000000000000000000000000604082015250565b7f636f6c6c656374696f6e20616e6420746f6b656e496420636f6d62696e61746960008201527f6f6e206973206e6f742070726573656e7420696e204454000000000000000000602082015250565b7f5472616e7366657220746f2044542077616c6c6574206661696c65642e000000600082015250565b7f56616c75652073656e74206d757374206265206174206c65617374207477696360008201527f6520746865206c61737420707572636861736520707269636500000000000000602082015250565b6133a581612c08565b81146133b057600080fd5b50565b6133bc81612c1a565b81146133c757600080fd5b50565b6133d381612c26565b81146133de57600080fd5b50565b6133ea81612c72565b81146133f557600080fd5b5056fea2646970667358221220951fcdf648b0c3a72a8425089333dcc88ede216408cd4f70384bdcf1fa6a438864736f6c63430008070033a26469706673582212201bd4e838ecbf78671ae0d8567c08d47e09a379edd58be411b7c02dca644662b964736f6c63430008070033",
  "immutableReferences": {},
  "source": "pragma solidity ^0.8.0;\n\nimport \"@openzeppelin/contracts/token/ERC721/extensions/IERC721Metadata.sol\";\nimport \"./DoubleTrouble.sol\";\n\n// SPDX-License-Identifier: MIT\ncontract DoubleTroubleOrchestrator {\n  mapping (address => DoubleTrouble) public _troublesomeCollections;\n  address _feeWallet;\n  address[] _registeredCollections;\n\n  constructor(address feeWallet) {\n    _feeWallet = feeWallet;\n  }\n\n  function makeTroublesomeCollection(address nftCollection, string memory name, string memory symbol) external {\n    _ensureSupportedNftContract(nftCollection);\n    require(address(_troublesomeCollections[nftCollection]) == address(0), \"Collection is already Troublesome\");\n\n    // Deploy troublesome contract for nftCollection\n    _troublesomeCollections[nftCollection] = new DoubleTrouble(name, symbol, nftCollection, _feeWallet);\n    _registeredCollections.push(nftCollection);\n  }\n\n  function troublesomeCollection(address nftCollection) external view returns (DoubleTrouble) {\n    _ensureSupportedNftContract(nftCollection);\n    return _troublesomeCollections[nftCollection];\n  }\n\n  function registeredCollections() external view returns (address[] memory) {\n    return _registeredCollections;\n  }\n\n  function _ensureSupportedNftContract(address nftCollection) internal view {\n    require(IERC721Metadata(nftCollection).supportsInterface(0x80ac58cd),  \"collection must refer to an ERC721 address\");\n  }\n}\n",
  "sourcePath": "/Users/gabrielguimaraes/crypto/double_trouble/contracts/DoubleTroubleOrchestrator.sol",
  "compiler": {
    "name": "solc",
    "version": "0.8.7+commit.e28d00a7.Emscripten.clang"
  },
  "schemaVersion": "3.4.2",
  "updatedAt": "2021-09-02T19:27:15.931Z",
  "networkType": "ethereum",
  "devdoc": {
    "kind": "dev",
    "methods": {},
    "version": 1
  },
  "userdoc": {
    "kind": "user",
    "methods": {},
    "version": 1
  }
}