{
  "contractName": "DoubleTrouble",
  "abi": [
    {
      "inputs": [
        {
          "internalType": "address",
          "name": "",
          "type": "address"
        },
        {
          "internalType": "uint256",
          "name": "",
          "type": "uint256"
        }
      ],
      "name": "_NFTs",
      "outputs": [
        {
          "internalType": "address",
          "name": "owner",
          "type": "address"
        },
        {
          "internalType": "uint256",
          "name": "currentForSalePrice",
          "type": "uint256"
        },
        {
          "internalType": "uint256",
          "name": "lastPurchasePrice",
          "type": "uint256"
        }
      ],
      "stateMutability": "view",
      "type": "function",
      "constant": true
    },
    {
      "inputs": [
        {
          "internalType": "address",
          "name": "collection",
          "type": "address"
        },
        {
          "internalType": "uint256",
          "name": "tokenId",
          "type": "uint256"
        }
      ],
      "name": "ownerOf",
      "outputs": [
        {
          "internalType": "address",
          "name": "",
          "type": "address"
        }
      ],
      "stateMutability": "view",
      "type": "function",
      "constant": true
    },
    {
      "inputs": [
        {
          "internalType": "address",
          "name": "collection",
          "type": "address"
        },
        {
          "internalType": "uint256",
          "name": "tokenId",
          "type": "uint256"
        }
      ],
      "name": "makeDTable",
      "outputs": [],
      "stateMutability": "nonpayable",
      "type": "function"
    },
    {
      "inputs": [
        {
          "internalType": "address",
          "name": "from",
          "type": "address"
        },
        {
          "internalType": "address",
          "name": "to",
          "type": "address"
        },
        {
          "internalType": "address",
          "name": "collection",
          "type": "address"
        },
        {
          "internalType": "uint256",
          "name": "tokenId",
          "type": "uint256"
        }
      ],
      "name": "transferFrom",
      "outputs": [],
      "stateMutability": "nonpayable",
      "type": "function"
    },
    {
      "inputs": [
        {
          "internalType": "address",
          "name": "collection",
          "type": "address"
        }
      ],
      "name": "debug",
      "outputs": [
        {
          "internalType": "bool",
          "name": "",
          "type": "bool"
        }
      ],
      "stateMutability": "view",
      "type": "function",
      "constant": true
    },
    {
      "inputs": [
        {
          "internalType": "address",
          "name": "collection",
          "type": "address"
        },
        {
          "internalType": "uint256",
          "name": "tokenId",
          "type": "uint256"
        }
      ],
      "name": "forSalePrice",
      "outputs": [
        {
          "internalType": "uint256",
          "name": "",
          "type": "uint256"
        }
      ],
      "stateMutability": "view",
      "type": "function",
      "constant": true
    },
    {
      "inputs": [
        {
          "internalType": "address",
          "name": "collection",
          "type": "address"
        },
        {
          "internalType": "uint256",
          "name": "tokenId",
          "type": "uint256"
        }
      ],
      "name": "lastPurchasePrice",
      "outputs": [
        {
          "internalType": "uint256",
          "name": "",
          "type": "uint256"
        }
      ],
      "stateMutability": "view",
      "type": "function",
      "constant": true
    },
    {
      "inputs": [
        {
          "internalType": "address",
          "name": "collection",
          "type": "address"
        },
        {
          "internalType": "uint256",
          "name": "tokenId",
          "type": "uint256"
        },
        {
          "internalType": "uint256",
          "name": "price",
          "type": "uint256"
        }
      ],
      "name": "putUpForSale",
      "outputs": [],
      "stateMutability": "nonpayable",
      "type": "function"
    }
  ],
  "bytecode": "0x608060405234801561001057600080fd5b50611530806100206000396000f3fe608060405234801561001057600080fd5b50600436106100885760003560e01c806358e54e121161005b57806358e54e12146101395780636714a34e14610155578063c283e7eb14610185578063d96592b8146101a157610088565b806315dacbea1461008d5780631f29d2dc146100a957806324de9761146100d95780634525141a14610109575b600080fd5b6100a760048036038101906100a29190610da5565b6101d3565b005b6100c360048036038101906100be9190610e0c565b61049e565b6040516100d09190611020565b60405180910390f35b6100f360048036038101906100ee9190610e0c565b61058a565b60405161010091906111df565b60405180910390f35b610123600480360381019061011e9190610e0c565b6105e7565b60405161013091906111df565b60405180910390f35b610153600480360381019061014e9190610e0c565b610644565b005b61016f600480360381019061016a9190610d4b565b610ac8565b60405161017c91906110a9565b60405180910390f35b61019f600480360381019061019a9190610e4c565b610b5e565b005b6101bb60048036038101906101b69190610e0c565b610ca0565b6040516101ca93929190611072565b60405180910390f35b60008060008473ffffffffffffffffffffffffffffffffffffffff1673ffffffffffffffffffffffffffffffffffffffff168152602001908152602001600020600083815260200190815260200160002060000160009054906101000a900473ffffffffffffffffffffffffffffffffffffffff169050600073ffffffffffffffffffffffffffffffffffffffff168173ffffffffffffffffffffffffffffffffffffffff1614156102ba576040517f08c379a00000000000000000000000000000000000000000000000000000000081526004016102b1906111bf565b60405180910390fd5b8073ffffffffffffffffffffffffffffffffffffffff163373ffffffffffffffffffffffffffffffffffffffff1614610328576040517f08c379a000000000000000000000000000000000000000000000000000000000815260040161031f9061117f565b60405180910390fd5b8073ffffffffffffffffffffffffffffffffffffffff168573ffffffffffffffffffffffffffffffffffffffff1614610396576040517f08c379a000000000000000000000000000000000000000000000000000000000815260040161038d906110df565b60405180910390fd5b600073ffffffffffffffffffffffffffffffffffffffff168473ffffffffffffffffffffffffffffffffffffffff161415610406576040517f08c379a00000000000000000000000000000000000000000000000000000000081526004016103fd906110ff565b60405180910390fd5b836000808573ffffffffffffffffffffffffffffffffffffffff1673ffffffffffffffffffffffffffffffffffffffff168152602001908152602001600020600084815260200190815260200160002060000160006101000a81548173ffffffffffffffffffffffffffffffffffffffff021916908373ffffffffffffffffffffffffffffffffffffffff1602179055505050505050565b60008073ffffffffffffffffffffffffffffffffffffffff168373ffffffffffffffffffffffffffffffffffffffff16141561050f576040517f08c379a00000000000000000000000000000000000000000000000000000000081526004016105069061115f565b60405180910390fd5b6000808473ffffffffffffffffffffffffffffffffffffffff1673ffffffffffffffffffffffffffffffffffffffff168152602001908152602001600020600083815260200190815260200160002060000160009054906101000a900473ffffffffffffffffffffffffffffffffffffffff16905092915050565b60008060008473ffffffffffffffffffffffffffffffffffffffff1673ffffffffffffffffffffffffffffffffffffffff168152602001908152602001600020600083815260200190815260200160002060020154905092915050565b60008060008473ffffffffffffffffffffffffffffffffffffffff1673ffffffffffffffffffffffffffffffffffffffff168152602001908152602001600020600083815260200190815260200160002060010154905092915050565b600073ffffffffffffffffffffffffffffffffffffffff166000808473ffffffffffffffffffffffffffffffffffffffff1673ffffffffffffffffffffffffffffffffffffffff168152602001908152602001600020600083815260200190815260200160002060000160009054906101000a900473ffffffffffffffffffffffffffffffffffffffff1673ffffffffffffffffffffffffffffffffffffffff1614610725576040517f08c379a000000000000000000000000000000000000000000000000000000000815260040161071c9061113f565b60405180910390fd5b8173ffffffffffffffffffffffffffffffffffffffff166301ffc9a76380ac58cd6040518263ffffffff1660e01b815260040161076291906110c4565b60206040518083038186803b15801561077a57600080fd5b505afa15801561078e573d6000803e3d6000fd5b505050506040513d601f19601f820116820180604052508101906107b29190610e9f565b6107f1576040517f08c379a00000000000000000000000000000000000000000000000000000000081526004016107e89061111f565b60405180910390fd5b3073ffffffffffffffffffffffffffffffffffffffff168273ffffffffffffffffffffffffffffffffffffffff1663081812fc836040518263ffffffff1660e01b815260040161084191906111df565b60206040518083038186803b15801561085957600080fd5b505afa15801561086d573d6000803e3d6000fd5b505050506040513d601f19601f820116820180604052508101906108919190610d78565b73ffffffffffffffffffffffffffffffffffffffff16146108e7576040517f08c379a00000000000000000000000000000000000000000000000000000000081526004016108de9061119f565b60405180910390fd5b60008273ffffffffffffffffffffffffffffffffffffffff16636352211e836040518263ffffffff1660e01b815260040161092291906111df565b60206040518083038186803b15801561093a57600080fd5b505afa15801561094e573d6000803e3d6000fd5b505050506040513d601f19601f820116820180604052508101906109729190610d78565b90508273ffffffffffffffffffffffffffffffffffffffff166323b872dd8230856040518463ffffffff1660e01b81526004016109b19392919061103b565b600060405180830381600087803b1580156109cb57600080fd5b505af11580156109df573d6000803e3d6000fd5b5050505060405180606001604052808273ffffffffffffffffffffffffffffffffffffffff1681526020016000815260200160008152506000808573ffffffffffffffffffffffffffffffffffffffff1673ffffffffffffffffffffffffffffffffffffffff168152602001908152602001600020600084815260200190815260200160002060008201518160000160006101000a81548173ffffffffffffffffffffffffffffffffffffffff021916908373ffffffffffffffffffffffffffffffffffffffff1602179055506020820151816001015560408201518160020155905050505050565b60008173ffffffffffffffffffffffffffffffffffffffff166301ffc9a76380ac58cd6040518263ffffffff1660e01b8152600401610b0791906110c4565b60206040518083038186803b158015610b1f57600080fd5b505afa158015610b33573d6000803e3d6000fd5b505050506040513d601f19601f82011682018060405250810190610b579190610e9f565b9050919050565b60008060008573ffffffffffffffffffffffffffffffffffffffff1673ffffffffffffffffffffffffffffffffffffffff168152602001908152602001600020600084815260200190815260200160002060000160009054906101000a900473ffffffffffffffffffffffffffffffffffffffff1690508073ffffffffffffffffffffffffffffffffffffffff163373ffffffffffffffffffffffffffffffffffffffff1614610c43576040517f08c379a0000000000000000000000000000000000000000000000000000000008152600401610c3a9061117f565b60405180910390fd5b816000808673ffffffffffffffffffffffffffffffffffffffff1673ffffffffffffffffffffffffffffffffffffffff16815260200190815260200160002060008581526020019081526020016000206001018190555050505050565b6000602052816000526040600020602052806000526040600020600091509150508060000160009054906101000a900473ffffffffffffffffffffffffffffffffffffffff16908060010154908060020154905083565b600081359050610d06816114b5565b92915050565b600081519050610d1b816114b5565b92915050565b600081519050610d30816114cc565b92915050565b600081359050610d45816114e3565b92915050565b600060208284031215610d6157610d60611277565b5b6000610d6f84828501610cf7565b91505092915050565b600060208284031215610d8e57610d8d611277565b5b6000610d9c84828501610d0c565b91505092915050565b60008060008060808587031215610dbf57610dbe611277565b5b6000610dcd87828801610cf7565b9450506020610dde87828801610cf7565b9350506040610def87828801610cf7565b9250506060610e0087828801610d36565b91505092959194509250565b60008060408385031215610e2357610e22611277565b5b6000610e3185828601610cf7565b9250506020610e4285828601610d36565b9150509250929050565b600080600060608486031215610e6557610e64611277565b5b6000610e7386828701610cf7565b9350506020610e8486828701610d36565b9250506040610e9586828701610d36565b9150509250925092565b600060208284031215610eb557610eb4611277565b5b6000610ec384828501610d21565b91505092915050565b610ed58161120b565b82525050565b610ee48161121d565b82525050565b610ef38161125d565b82525050565b6000610f06602b836111fa565b9150610f1182611289565b604082019050919050565b6000610f296019836111fa565b9150610f34826112d8565b602082019050919050565b6000610f4c602a836111fa565b9150610f5782611301565b604082019050919050565b6000610f6f601a836111fa565b9150610f7a82611350565b602082019050919050565b6000610f926021836111fa565b9150610f9d82611379565b604082019050919050565b6000610fb56029836111fa565b9150610fc0826113c8565b604082019050919050565b6000610fd8603d836111fa565b9150610fe382611417565b604082019050919050565b6000610ffb6037836111fa565b915061100682611466565b604082019050919050565b61101a81611253565b82525050565b60006020820190506110356000830184610ecc565b92915050565b60006060820190506110506000830186610ecc565b61105d6020830185610ecc565b61106a6040830184611011565b949350505050565b60006060820190506110876000830186610ecc565b6110946020830185611011565b6110a16040830184611011565b949350505050565b60006020820190506110be6000830184610edb565b92915050565b60006020820190506110d96000830184610eea565b92915050565b600060208201905081810360008301526110f881610ef9565b9050919050565b6000602082019050818103600083015261111881610f1c565b9050919050565b6000602082019050818103600083015261113881610f3f565b9050919050565b6000602082019050818103600083015261115881610f62565b9050919050565b6000602082019050818103600083015261117881610f85565b9050919050565b6000602082019050818103600083015261119881610fa8565b9050919050565b600060208201905081810360008301526111b881610fcb565b9050919050565b600060208201905081810360008301526111d881610fee565b9050919050565b60006020820190506111f46000830184611011565b92915050565b600082825260208201905092915050565b600061121682611233565b9050919050565b60008115159050919050565b6000819050919050565b600073ffffffffffffffffffffffffffffffffffffffff82169050919050565b6000819050919050565b600061127061126b83611229565b61127c565b9050919050565b600080fd5b60008160e01b9050919050565b7f66726f6d20616464726573732073686f756c642062652063757272656e74206f60008201527f776e6572206f66204e4654000000000000000000000000000000000000000000602082015250565b7f746f20616464726573732063616e6e6f74206265207a65726f00000000000000600082015250565b7f636f6c6c656374696f6e206d75737420726566657220746f20616e204552433760008201527f3231206164647265737300000000000000000000000000000000000000000000602082015250565b7f54686973204e465420697320616c726561647920445461626c65000000000000600082015250565b7f636f6c6c656374696f6e20616464726573732063616e6e6f74206265207a657260008201527f6f00000000000000000000000000000000000000000000000000000000000000602082015250565b7f6d73672e73656e6465722073686f756c642062652063757272656e74206f776e60008201527f6572206f66204e46540000000000000000000000000000000000000000000000602082015250565b7f446f75626c6554726f75626c6520636f6e7472616374206d757374206265206160008201527f7070726f76656420746f206f706572617465207468697320746f6b656e000000602082015250565b7f636f6c6c656374696f6e20616e6420746f6b656e496420636f6d62696e61746960008201527f6f6e206973206e6f742070726573656e7420696e204454000000000000000000602082015250565b6114be8161120b565b81146114c957600080fd5b50565b6114d58161121d565b81146114e057600080fd5b50565b6114ec81611253565b81146114f757600080fd5b5056fea2646970667358221220899584cecad2b1fd6a8d5e09ea1d56eab75bdc75bdf30fc308b1ca753919c05d64736f6c63430008070033",
  "immutableReferences": {},
  "source": "pragma solidity ^0.8.0;\n\nimport \"@openzeppelin/contracts/token/ERC721/IERC721.sol\";\n\n// SPDX-License-Identifier: MIT\n\n// TODO: look into the difference between external vs. public\n// TODO: check what our protocol thinks of the throw requirements of EIP 721 for transferFrom\n// TODO: implement throw requirement of transferFrom that checks whether they are an\n// \"authorized operator\" or \"approved address\" whatever those mean.\n// TODO: design wise, if someone \"putsupforsale\" an NFT that is not in our records, do we throw\n// an error or do we add it to the db? doing the latter for now but can change\n\n// CONCEPTUAL QUESTION: why do we need collection address? will it even be EIP 721 compliant with that param?\n\n// COMMENT: I changed _new_owner to _newOwner to match syntax of the EIP 721 doc\n\n\ncontract DoubleTrouble {\n  struct NftState {\n    address owner;\n    uint256 currentForSalePrice;\n    uint256 lastPurchasePrice;\n  }\n\n  // nested mapping that keeps track of who owns the NFTs\n  mapping (address => mapping (uint256 => NftState)) public _NFTs;\n\n  // Returns the current owner of the NFT\n  function ownerOf(address collection, uint256 tokenId) external view returns (address) {\n    require(collection != address(0), \"collection address cannot be zero\");\n    return _NFTs[collection][tokenId].owner;\n  }\n\n  function makeDTable(address collection, uint256 tokenId) external {\n    require(_NFTs[collection][tokenId].owner == address(0), \"This NFT is already DTable\");\n    require(IERC721(collection).supportsInterface(0x80ac58cd),  \"collection must refer to an ERC721 address\");\n    require(IERC721(collection).getApproved(tokenId) == address(this), \"DoubleTrouble contract must be approved to operate this token\");\n\n    // In the original collection, the owner forever becomes the DoubleTrouble contract\n    address owner = IERC721(collection).ownerOf(tokenId);\n    IERC721(collection).transferFrom(owner, address(this), tokenId);\n\n    // Moving forward, we record the true owner in the DoubleTrouble contract\n    _NFTs[collection][tokenId] = NftState({\n      owner: owner,\n      currentForSalePrice: 0,\n      lastPurchasePrice: 0\n    });\n  }\n\n  // Changes ownership of the NFT\n  function transferFrom(address from, address to, address collection, uint256 tokenId) external {\n    address currentOwner = _NFTs[collection][tokenId].owner;\n    require(currentOwner != address(0), \"collection and tokenId combination is not present in DT\");\n    require(msg.sender == currentOwner, \"msg.sender should be current owner of NFT\");\n    require(from == currentOwner, \"from address should be current owner of NFT\");\n    require(to != address(0), \"to address cannot be zero\");\n    _NFTs[collection][tokenId].owner = to;\n  }\n\n  // FIXME: Delete\n  function debug(address collection) external view returns (bool) {\n    return IERC721(collection).supportsInterface(0x80ac58cd);\n  }\n\n  function forSalePrice(address collection, uint256 tokenId) external view returns (uint256) {\n    return _NFTs[collection][tokenId].currentForSalePrice;\n  }\n\n  function lastPurchasePrice(address collection, uint256 tokenId) external view returns (uint256) {\n    return _NFTs[collection][tokenId].lastPurchasePrice;\n  }\n\n  // sets currentForSalePrice to price\n  function putUpForSale(address collection, uint256 tokenId, uint256 price) external {\n    address currentOwner = _NFTs[collection][tokenId].owner;\n    require(msg.sender == currentOwner, \"msg.sender should be current owner of NFT\");\n    _NFTs[collection][tokenId].currentForSalePrice = price;\n  }\n\n  /*\n\n\n  // Transfers ownership of the NFT to the _newOwner\n  // as long as _price >= currentForSalePrice or _price >= lastPurchasePrice * 2\n  // Moves _price ether from _newOwner to the current owner\n  // sets lastPurchasePrice = price\n  function buy(address _newOwner, address _collection, uint256 _tokenId, uint256 _price) external {\n    // TODO: is this the right way to transfer? what about collections?\n    address currentOwner = _NFTs[_collection][_tokenId].owner;\n    require(msg.sender == currentOwner, \"msg.sender should be current owner of NFT\");\n    require(_newOwner != 0, \"newOwner address can't be zero\");\n    require((_price >= currentForSalePrice) || (_price >= lastPurchasePrice * 2)), \"price should be greater than or equal to currentForSalePrice OR double the lastPurchasePrice\");\n    _NFTs[_collection][_tokenId].owner = _newOwner;\n    _NFTs[_collection][_tokenId].lastPurchasePrice = _price;\n  }\n  */\n}\n",
  "sourcePath": "/Users/laurafiuza/Desktop/double-trouble/contracts/DoubleTrouble.sol",
  "compiler": {
    "name": "solc",
    "version": "0.8.7+commit.e28d00a7.Emscripten.clang"
  },
  "schemaVersion": "3.4.3",
  "updatedAt": "2021-08-27T16:27:07.816Z",
  "networkType": "ethereum",
  "devdoc": {
    "kind": "dev",
    "methods": {},
    "version": 1
  },
  "userdoc": {
    "kind": "user",
    "methods": {},
    "version": 1
  }
}