{
  "contractName": "DoubleTroubleOrchestrator",
  "abi": [
    {
      "inputs": [
        {
          "internalType": "contract DoubleTroubleFactory",
          "name": "dtFactory",
          "type": "address"
        },
        {
          "internalType": "address",
          "name": "feeWallet",
          "type": "address"
        }
      ],
      "stateMutability": "nonpayable",
      "type": "constructor"
    },
    {
      "anonymous": false,
      "inputs": [
        {
          "indexed": true,
          "internalType": "address",
          "name": "owner",
          "type": "address"
        },
        {
          "indexed": true,
          "internalType": "address",
          "name": "approved",
          "type": "address"
        },
        {
          "indexed": true,
          "internalType": "uint256",
          "name": "tokenId",
          "type": "uint256"
        }
      ],
      "name": "Approval",
      "type": "event"
    },
    {
      "anonymous": false,
      "inputs": [
        {
          "indexed": true,
          "internalType": "address",
          "name": "owner",
          "type": "address"
        },
        {
          "indexed": true,
          "internalType": "address",
          "name": "operator",
          "type": "address"
        },
        {
          "indexed": false,
          "internalType": "bool",
          "name": "approved",
          "type": "bool"
        }
      ],
      "name": "ApprovalForAll",
      "type": "event"
    },
    {
      "anonymous": false,
      "inputs": [
        {
          "indexed": true,
          "internalType": "address",
          "name": "from",
          "type": "address"
        },
        {
          "indexed": true,
          "internalType": "address",
          "name": "to",
          "type": "address"
        },
        {
          "indexed": true,
          "internalType": "uint256",
          "name": "tokenId",
          "type": "uint256"
        }
      ],
      "name": "Transfer",
      "type": "event"
    },
    {
      "inputs": [
        {
          "internalType": "address",
          "name": "",
          "type": "address"
        }
      ],
      "name": "_troublesomeCollections",
      "outputs": [
        {
          "internalType": "contract DoubleTrouble",
          "name": "",
          "type": "address"
        }
      ],
      "stateMutability": "view",
      "type": "function",
      "constant": true
    },
    {
      "inputs": [
        {
          "internalType": "address",
          "name": "to",
          "type": "address"
        },
        {
          "internalType": "uint256",
          "name": "tokenId",
          "type": "uint256"
        }
      ],
      "name": "approve",
      "outputs": [],
      "stateMutability": "nonpayable",
      "type": "function"
    },
    {
      "inputs": [
        {
          "internalType": "address",
          "name": "owner",
          "type": "address"
        }
      ],
      "name": "balanceOf",
      "outputs": [
        {
          "internalType": "uint256",
          "name": "",
          "type": "uint256"
        }
      ],
      "stateMutability": "view",
      "type": "function",
      "constant": true
    },
    {
      "inputs": [
        {
          "internalType": "uint256",
          "name": "tokenId",
          "type": "uint256"
        }
      ],
      "name": "getApproved",
      "outputs": [
        {
          "internalType": "address",
          "name": "",
          "type": "address"
        }
      ],
      "stateMutability": "view",
      "type": "function",
      "constant": true
    },
    {
      "inputs": [
        {
          "internalType": "address",
          "name": "owner",
          "type": "address"
        },
        {
          "internalType": "address",
          "name": "operator",
          "type": "address"
        }
      ],
      "name": "isApprovedForAll",
      "outputs": [
        {
          "internalType": "bool",
          "name": "",
          "type": "bool"
        }
      ],
      "stateMutability": "view",
      "type": "function",
      "constant": true
    },
    {
      "inputs": [],
      "name": "name",
      "outputs": [
        {
          "internalType": "string",
          "name": "",
          "type": "string"
        }
      ],
      "stateMutability": "view",
      "type": "function",
      "constant": true
    },
    {
      "inputs": [
        {
          "internalType": "uint256",
          "name": "tokenId",
          "type": "uint256"
        }
      ],
      "name": "ownerOf",
      "outputs": [
        {
          "internalType": "address",
          "name": "",
          "type": "address"
        }
      ],
      "stateMutability": "view",
      "type": "function",
      "constant": true
    },
    {
      "inputs": [
        {
          "internalType": "address",
          "name": "from",
          "type": "address"
        },
        {
          "internalType": "address",
          "name": "to",
          "type": "address"
        },
        {
          "internalType": "uint256",
          "name": "tokenId",
          "type": "uint256"
        }
      ],
      "name": "safeTransferFrom",
      "outputs": [],
      "stateMutability": "nonpayable",
      "type": "function"
    },
    {
      "inputs": [
        {
          "internalType": "address",
          "name": "from",
          "type": "address"
        },
        {
          "internalType": "address",
          "name": "to",
          "type": "address"
        },
        {
          "internalType": "uint256",
          "name": "tokenId",
          "type": "uint256"
        },
        {
          "internalType": "bytes",
          "name": "_data",
          "type": "bytes"
        }
      ],
      "name": "safeTransferFrom",
      "outputs": [],
      "stateMutability": "nonpayable",
      "type": "function"
    },
    {
      "inputs": [
        {
          "internalType": "address",
          "name": "operator",
          "type": "address"
        },
        {
          "internalType": "bool",
          "name": "approved",
          "type": "bool"
        }
      ],
      "name": "setApprovalForAll",
      "outputs": [],
      "stateMutability": "nonpayable",
      "type": "function"
    },
    {
      "inputs": [
        {
          "internalType": "bytes4",
          "name": "interfaceId",
          "type": "bytes4"
        }
      ],
      "name": "supportsInterface",
      "outputs": [
        {
          "internalType": "bool",
          "name": "",
          "type": "bool"
        }
      ],
      "stateMutability": "view",
      "type": "function",
      "constant": true
    },
    {
      "inputs": [],
      "name": "symbol",
      "outputs": [
        {
          "internalType": "string",
          "name": "",
          "type": "string"
        }
      ],
      "stateMutability": "view",
      "type": "function",
      "constant": true
    },
    {
      "inputs": [
        {
          "internalType": "address",
          "name": "from",
          "type": "address"
        },
        {
          "internalType": "address",
          "name": "to",
          "type": "address"
        },
        {
          "internalType": "uint256",
          "name": "tokenId",
          "type": "uint256"
        }
      ],
      "name": "transferFrom",
      "outputs": [],
      "stateMutability": "nonpayable",
      "type": "function"
    },
    {
      "inputs": [
        {
          "internalType": "address",
          "name": "nftCollection",
          "type": "address"
        },
        {
          "internalType": "string",
          "name": "name",
          "type": "string"
        },
        {
          "internalType": "string",
          "name": "symbol",
          "type": "string"
        }
      ],
      "name": "makeTroublesomeCollection",
      "outputs": [],
      "stateMutability": "nonpayable",
      "type": "function"
    },
    {
      "inputs": [
        {
          "internalType": "address",
          "name": "nftCollection",
          "type": "address"
        }
      ],
      "name": "troublesomeCollection",
      "outputs": [
        {
          "internalType": "contract DoubleTrouble",
          "name": "",
          "type": "address"
        }
      ],
      "stateMutability": "view",
      "type": "function",
      "constant": true
    },
    {
      "inputs": [],
      "name": "registeredCollections",
      "outputs": [
        {
          "internalType": "address[]",
          "name": "",
          "type": "address[]"
        },
        {
          "internalType": "address[]",
          "name": "",
          "type": "address[]"
        }
      ],
      "stateMutability": "view",
      "type": "function",
      "constant": true
    },
    {
      "inputs": [
        {
          "internalType": "uint256",
          "name": "tokenId",
          "type": "uint256"
        }
      ],
      "name": "registeredCollection",
      "outputs": [
        {
          "internalType": "address",
          "name": "",
          "type": "address"
        },
        {
          "internalType": "address",
          "name": "",
          "type": "address"
        }
      ],
      "stateMutability": "view",
      "type": "function",
      "constant": true
    },
    {
      "inputs": [
        {
          "internalType": "uint256",
          "name": "tokenId",
          "type": "uint256"
        }
      ],
      "name": "getOriginalCollectionName",
      "outputs": [
        {
          "internalType": "string",
          "name": "",
          "type": "string"
        }
      ],
      "stateMutability": "view",
      "type": "function",
      "constant": true
    },
    {
      "inputs": [
        {
          "internalType": "uint256",
          "name": "tokenId",
          "type": "uint256"
        }
      ],
      "name": "getOriginalCollectionSymbol",
      "outputs": [
        {
          "internalType": "string",
          "name": "",
          "type": "string"
        }
      ],
      "stateMutability": "view",
      "type": "function",
      "constant": true
    },
    {
      "inputs": [
        {
          "internalType": "uint256",
          "name": "tokenId",
          "type": "uint256"
        }
      ],
      "name": "tokenURI",
      "outputs": [
        {
          "internalType": "string",
          "name": "",
          "type": "string"
        }
      ],
      "stateMutability": "view",
      "type": "function",
      "constant": true
    }
  ],
  "bytecode": "0x60806040523480156200001157600080fd5b5060405162004cf838038062004cf883398181016040528101906200003791906200023f565b6040518060400160405280600e81526020017f446f75626c652054726f75626c650000000000000000000000000000000000008152506040518060400160405280600481526020017f5452424c000000000000000000000000000000000000000000000000000000008152508160009080519060200190620000bb92919062000161565b508060019080519060200190620000d492919062000161565b50505080600960006101000a81548173ffffffffffffffffffffffffffffffffffffffff021916908373ffffffffffffffffffffffffffffffffffffffff16021790555081600860006101000a81548173ffffffffffffffffffffffffffffffffffffffff021916908373ffffffffffffffffffffffffffffffffffffffff16021790555050506200036c565b8280546200016f90620002ce565b90600052602060002090601f016020900481019282620001935760008555620001df565b82601f10620001ae57805160ff1916838001178555620001df565b82800160010185558215620001df579182015b82811115620001de578251825591602001919060010190620001c1565b5b509050620001ee9190620001f2565b5090565b5b808211156200020d576000816000905550600101620001f3565b5090565b600081519050620002228162000338565b92915050565b600081519050620002398162000352565b92915050565b6000806040838503121562000259576200025862000333565b5b6000620002698582860162000228565b92505060206200027c8582860162000211565b9150509250929050565b60006200029382620002ae565b9050919050565b6000620002a78262000286565b9050919050565b600073ffffffffffffffffffffffffffffffffffffffff82169050919050565b60006002820490506001821680620002e757607f821691505b60208210811415620002fe57620002fd62000304565b5b50919050565b7f4e487b7100000000000000000000000000000000000000000000000000000000600052602260045260246000fd5b600080fd5b620003438162000286565b81146200034f57600080fd5b50565b6200035d816200029a565b81146200036957600080fd5b50565b61497c806200037c6000396000f3fe608060405234801561001057600080fd5b506004361061012c5760003560e01c806395d89b41116100ad578063cd9a41f711610071578063cd9a41f714610365578063e985e9c514610395578063f70d7e4b146103c5578063f82ca21f146103f5578063f9871f93146104145761012c565b806395d89b41146102af578063a22cb465146102cd578063ae21cd81146102e9578063b88d4fde14610319578063c87b56dd146103355761012c565b8063404d09f8116100f4578063404d09f8146101e757806342842e0e146102175780636352211e1461023357806370a082311461026357806394d27158146102935761012c565b806301ffc9a71461013157806306fdde0314610161578063081812fc1461017f578063095ea7b3146101af57806323b872dd146101cb575b600080fd5b61014b60048036038101906101469190612e2c565b610445565b6040516101589190613604565b60405180910390f35b610169610527565b604051610176919061363a565b60405180910390f35b61019960048036038101906101949190612efc565b6105b9565b6040516101a6919061353d565b60405180910390f35b6101c960048036038101906101c49190612dec565b61063e565b005b6101e560048036038101906101e09190612c4b565b610756565b005b61020160048036038101906101fc9190612b9e565b6107b6565b60405161020e919061361f565b60405180910390f35b610231600480360381019061022c9190612c4b565b6107e9565b005b61024d60048036038101906102489190612efc565b610809565b60405161025a919061353d565b60405180910390f35b61027d60048036038101906102789190612b9e565b6108bb565b60405161028a919061388f565b60405180910390f35b6102ad60048036038101906102a89190612d61565b610973565b005b6102b7610c0a565b6040516102c4919061363a565b60405180910390f35b6102e760048036038101906102e29190612d21565b610c9c565b005b61030360048036038101906102fe9190612efc565b610e1d565b604051610310919061363a565b60405180910390f35b610333600480360381019061032e9190612c9e565b610f2e565b005b61034f600480360381019061034a9190612efc565b610f90565b60405161035c919061363a565b60405180910390f35b61037f600480360381019061037a9190612efc565b6116ca565b60405161038c919061363a565b60405180910390f35b6103af60048036038101906103aa9190612bcb565b6117db565b6040516103bc9190613604565b60405180910390f35b6103df60048036038101906103da9190612b9e565b61186f565b6040516103ec919061361f565b60405180910390f35b6103fd6118d8565b60405161040b9291906135cd565b60405180910390f35b61042e60048036038101906104299190612efc565b611ad0565b60405161043c929190613558565b60405180910390f35b60007f80ac58cd000000000000000000000000000000000000000000000000000000007bffffffffffffffffffffffffffffffffffffffffffffffffffffffff1916827bffffffffffffffffffffffffffffffffffffffffffffffffffffffff1916148061051057507f5b5e139f000000000000000000000000000000000000000000000000000000007bffffffffffffffffffffffffffffffffffffffffffffffffffffffff1916827bffffffffffffffffffffffffffffffffffffffffffffffffffffffff1916145b80610520575061051f82611bc8565b5b9050919050565b60606000805461053690613e15565b80601f016020809104026020016040519081016040528092919081815260200182805461056290613e15565b80156105af5780601f10610584576101008083540402835291602001916105af565b820191906000526020600020905b81548152906001019060200180831161059257829003601f168201915b5050505050905090565b60006105c482611c32565b610603576040517f08c379a00000000000000000000000000000000000000000000000000000000081526004016105fa906137ef565b60405180910390fd5b6004600083815260200190815260200160002060009054906101000a900473ffffffffffffffffffffffffffffffffffffffff169050919050565b600061064982610809565b90508073ffffffffffffffffffffffffffffffffffffffff168373ffffffffffffffffffffffffffffffffffffffff1614156106ba576040517f08c379a00000000000000000000000000000000000000000000000000000000081526004016106b19061382f565b60405180910390fd5b8073ffffffffffffffffffffffffffffffffffffffff166106d9611c9e565b73ffffffffffffffffffffffffffffffffffffffff161480610708575061070781610702611c9e565b6117db565b5b610747576040517f08c379a000000000000000000000000000000000000000000000000000000000815260040161073e9061376f565b60405180910390fd5b6107518383611ca6565b505050565b610767610761611c9e565b82611d5f565b6107a6576040517f08c379a000000000000000000000000000000000000000000000000000000000815260040161079d9061386f565b60405180910390fd5b6107b1838383611e3d565b505050565b60076020528060005260406000206000915054906101000a900473ffffffffffffffffffffffffffffffffffffffff1681565b61080483838360405180602001604052806000815250610f2e565b505050565b6000806002600084815260200190815260200160002060009054906101000a900473ffffffffffffffffffffffffffffffffffffffff169050600073ffffffffffffffffffffffffffffffffffffffff168173ffffffffffffffffffffffffffffffffffffffff1614156108b2576040517f08c379a00000000000000000000000000000000000000000000000000000000081526004016108a9906137af565b60405180910390fd5b80915050919050565b60008073ffffffffffffffffffffffffffffffffffffffff168273ffffffffffffffffffffffffffffffffffffffff16141561092c576040517f08c379a00000000000000000000000000000000000000000000000000000000081526004016109239061378f565b60405180910390fd5b600360008373ffffffffffffffffffffffffffffffffffffffff1673ffffffffffffffffffffffffffffffffffffffff168152602001908152602001600020549050919050565b600073ffffffffffffffffffffffffffffffffffffffff16600760008573ffffffffffffffffffffffffffffffffffffffff1673ffffffffffffffffffffffffffffffffffffffff16815260200190815260200160002060009054906101000a900473ffffffffffffffffffffffffffffffffffffffff1673ffffffffffffffffffffffffffffffffffffffff1614610a41576040517f08c379a0000000000000000000000000000000000000000000000000000000008152600401610a389061384f565b60405180910390fd5b600860009054906101000a900473ffffffffffffffffffffffffffffffffffffffff1673ffffffffffffffffffffffffffffffffffffffff166361474810838386600960009054906101000a900473ffffffffffffffffffffffffffffffffffffffff166040518563ffffffff1660e01b8152600401610ac4949392919061365c565b602060405180830381600087803b158015610ade57600080fd5b505af1158015610af2573d6000803e3d6000fd5b505050506040513d601f19601f82011682018060405250810190610b169190612e86565b600760008573ffffffffffffffffffffffffffffffffffffffff1673ffffffffffffffffffffffffffffffffffffffff16815260200190815260200160002060006101000a81548173ffffffffffffffffffffffffffffffffffffffff021916908373ffffffffffffffffffffffffffffffffffffffff160217905550610ba233600a80549050612099565b600a839080600181540180825580915050600190039060005260206000200160009091909190916101000a81548173ffffffffffffffffffffffffffffffffffffffff021916908373ffffffffffffffffffffffffffffffffffffffff160217905550505050565b606060018054610c1990613e15565b80601f0160208091040260200160405190810160405280929190818152602001828054610c4590613e15565b8015610c925780601f10610c6757610100808354040283529160200191610c92565b820191906000526020600020905b815481529060010190602001808311610c7557829003601f168201915b5050505050905090565b610ca4611c9e565b73ffffffffffffffffffffffffffffffffffffffff168273ffffffffffffffffffffffffffffffffffffffff161415610d12576040517f08c379a0000000000000000000000000000000000000000000000000000000008152600401610d099061372f565b60405180910390fd5b8060056000610d1f611c9e565b73ffffffffffffffffffffffffffffffffffffffff1673ffffffffffffffffffffffffffffffffffffffff16815260200190815260200160002060008473ffffffffffffffffffffffffffffffffffffffff1673ffffffffffffffffffffffffffffffffffffffff16815260200190815260200160002060006101000a81548160ff0219169083151502179055508173ffffffffffffffffffffffffffffffffffffffff16610dcc611c9e565b73ffffffffffffffffffffffffffffffffffffffff167f17307eab39ab6107e8899845ad3d59bd9653f200f220920489ca2b5937696c3183604051610e119190613604565b60405180910390a35050565b6060600a805490508210610e66576040517f08c379a0000000000000000000000000000000000000000000000000000000008152600401610e5d906136cf565b60405180910390fd5b600a8281548110610e7a57610e79613f7f565b5b9060005260206000200160009054906101000a900473ffffffffffffffffffffffffffffffffffffffff1673ffffffffffffffffffffffffffffffffffffffff166395d89b416040518163ffffffff1660e01b815260040160006040518083038186803b158015610eea57600080fd5b505afa158015610efe573d6000803e3d6000fd5b505050506040513d6000823e3d601f19601f82011682018060405250810190610f279190612eb3565b9050919050565b610f3f610f39611c9e565b83611d5f565b610f7e576040517f08c379a0000000000000000000000000000000000000000000000000000000008152600401610f759061386f565b60405180910390fd5b610f8a84848484612267565b50505050565b6060600a805490508210610fd9576040517f08c379a0000000000000000000000000000000000000000000000000000000008152600401610fd0906136cf565b60405180910390fd5b6000803073ffffffffffffffffffffffffffffffffffffffff1663f9871f93856040518263ffffffff1660e01b8152600401611015919061388f565b604080518083038186803b15801561102c57600080fd5b505afa158015611040573d6000803e3d6000fd5b505050506040513d601f19601f820116820180604052508101906110649190612c0b565b80925081935050506000611077836122c3565b90506000611084836122c3565b90506000611091876124a5565b905061109b612993565b600060405180610120016040528060fd815260200161480860fd91398282806110c390613e78565b9350601481106110d6576110d5613f7f565b5b6020020181905250826040516020016110ef91906134f9565b60405160208183030381529060405282828061110a90613e78565b93506014811061111d5761111c613f7f565b5b60200201819052506040518060400160405280600781526020017f3c2f746578743e0000000000000000000000000000000000000000000000000081525082828061116790613e78565b93506014811061117a57611179613f7f565b5b60200201819052503073ffffffffffffffffffffffffffffffffffffffff1663cd9a41f78a6040518263ffffffff1660e01b81526004016111bb919061388f565b60006040518083038186803b1580156111d357600080fd5b505afa92505050801561120957506040513d6000823e3d601f19601f820116820180604052508101906112069190612eb3565b60015b611245573d8060008114611239576040519150601f19603f3d011682016040523d82523d6000602084013e61123e565b606091505b505061130c565b6040518060600160405280602181526020016149056021913983838061126a90613e78565b94506014811061127d5761127c613f7f565b5b60200201819052508083838061129290613e78565b9450601481106112a5576112a4613f7f565b5b60200201819052506040518060400160405280600781526020017f3c2f746578743e000000000000000000000000000000000000000000000000008152508383806112ef90613e78565b94506014811061130257611301613f7f565b5b6020020181905250505b3073ffffffffffffffffffffffffffffffffffffffff1663ae21cd818a6040518263ffffffff1660e01b8152600401611345919061388f565b60006040518083038186803b15801561135d57600080fd5b505afa92505050801561139357506040513d6000823e3d601f19601f820116820180604052508101906113909190612eb3565b60015b6113cf573d80600081146113c3576040519150601f19603f3d011682016040523d82523d6000602084013e6113c8565b606091505b5050611496565b604051806060016040528060218152602001614926602191398383806113f490613e78565b94506014811061140757611406613f7f565b5b60200201819052508083838061141c90613e78565b94506014811061142f5761142e613f7f565b5b60200201819052506040518060400160405280600781526020017f3c2f746578743e0000000000000000000000000000000000000000000000000081525083838061147990613e78565b94506014811061148c5761148b613f7f565b5b6020020181905250505b60405180606001604052806021815260200161477e602191398282806114bb90613e78565b9350601481106114ce576114cd613f7f565b5b6020020181905250846040516020016114e791906134d7565b60405160208183030381529060405282828061150290613e78565b93506014811061151557611514613f7f565b5b602002018190525060405180606001604052806029815260200161479f6029913982828061154290613e78565b93506014811061155557611554613f7f565b5b60200201819052508360405160200161156e91906134b5565b60405160208183030381529060405282828061158990613e78565b93506014811061159c5761159b613f7f565b5b60200201819052506040518060400160405280600d81526020017f3c2f746578743e3c2f7376673e000000000000000000000000000000000000008152508282806115e690613e78565b9350601481106115f9576115f8613f7f565b5b6020020181905250606060005b8281101561165c578184826014811061162257611621613f7f565b5b60200201516040516020016116389291906133fa565b6040516020818303038152906040529150808061165490613e78565b915050611606565b50600061169585888861166e86612606565b604051602001611681949392919061341e565b604051602081830303815290604052612606565b9050806040516020016116a8919061351b565b6040516020818303038152906040529150819950505050505050505050919050565b6060600a805490508210611713576040517f08c379a000000000000000000000000000000000000000000000000000000000815260040161170a906136cf565b60405180910390fd5b600a828154811061172757611726613f7f565b5b9060005260206000200160009054906101000a900473ffffffffffffffffffffffffffffffffffffffff1673ffffffffffffffffffffffffffffffffffffffff166306fdde036040518163ffffffff1660e01b815260040160006040518083038186803b15801561179757600080fd5b505afa1580156117ab573d6000803e3d6000fd5b505050506040513d6000823e3d601f19601f820116820180604052508101906117d49190612eb3565b9050919050565b6000600560008473ffffffffffffffffffffffffffffffffffffffff1673ffffffffffffffffffffffffffffffffffffffff16815260200190815260200160002060008373ffffffffffffffffffffffffffffffffffffffff1673ffffffffffffffffffffffffffffffffffffffff16815260200190815260200160002060009054906101000a900460ff16905092915050565b6000600760008373ffffffffffffffffffffffffffffffffffffffff1673ffffffffffffffffffffffffffffffffffffffff16815260200190815260200160002060009054906101000a900473ffffffffffffffffffffffffffffffffffffffff169050919050565b6060806000600a8054905067ffffffffffffffff8111156118fc576118fb613fae565b5b60405190808252806020026020018201604052801561192a5781602001602082028036833780820191505090505b50905060005b600a80549050811015611a3b5760076000600a838154811061195557611954613f7f565b5b9060005260206000200160009054906101000a900473ffffffffffffffffffffffffffffffffffffffff1673ffffffffffffffffffffffffffffffffffffffff1673ffffffffffffffffffffffffffffffffffffffff16815260200190815260200160002060009054906101000a900473ffffffffffffffffffffffffffffffffffffffff168282815181106119ee576119ed613f7f565b5b602002602001019073ffffffffffffffffffffffffffffffffffffffff16908173ffffffffffffffffffffffffffffffffffffffff16815250508080611a3390613e78565b915050611930565b50600a8181805480602002602001604051908101604052809291908181526020018280548015611ac057602002820191906000526020600020905b8160009054906101000a900473ffffffffffffffffffffffffffffffffffffffff1673ffffffffffffffffffffffffffffffffffffffff1681526020019060010190808311611a76575b5050505050915092509250509091565b600080600a805490508310611b1a576040517f08c379a0000000000000000000000000000000000000000000000000000000008152600401611b11906136cf565b60405180910390fd5b6000600a8481548110611b3057611b2f613f7f565b5b9060005260206000200160009054906101000a900473ffffffffffffffffffffffffffffffffffffffff16905080600760008373ffffffffffffffffffffffffffffffffffffffff1673ffffffffffffffffffffffffffffffffffffffff16815260200190815260200160002060009054906101000a900473ffffffffffffffffffffffffffffffffffffffff169250925050915091565b60007f01ffc9a7000000000000000000000000000000000000000000000000000000007bffffffffffffffffffffffffffffffffffffffffffffffffffffffff1916827bffffffffffffffffffffffffffffffffffffffffffffffffffffffff1916149050919050565b60008073ffffffffffffffffffffffffffffffffffffffff166002600084815260200190815260200160002060009054906101000a900473ffffffffffffffffffffffffffffffffffffffff1673ffffffffffffffffffffffffffffffffffffffff1614159050919050565b600033905090565b816004600083815260200190815260200160002060006101000a81548173ffffffffffffffffffffffffffffffffffffffff021916908373ffffffffffffffffffffffffffffffffffffffff160217905550808273ffffffffffffffffffffffffffffffffffffffff16611d1983610809565b73ffffffffffffffffffffffffffffffffffffffff167f8c5be1e5ebec7d5bd14f71427d1e84f3dd0314c0f7b2291e5b200ac8c7c3b92560405160405180910390a45050565b6000611d6a82611c32565b611da9576040517f08c379a0000000000000000000000000000000000000000000000000000000008152600401611da09061374f565b60405180910390fd5b6000611db483610809565b90508073ffffffffffffffffffffffffffffffffffffffff168473ffffffffffffffffffffffffffffffffffffffff161480611e2357508373ffffffffffffffffffffffffffffffffffffffff16611e0b846105b9565b73ffffffffffffffffffffffffffffffffffffffff16145b80611e345750611e3381856117db565b5b91505092915050565b8273ffffffffffffffffffffffffffffffffffffffff16611e5d82610809565b73ffffffffffffffffffffffffffffffffffffffff1614611eb3576040517f08c379a0000000000000000000000000000000000000000000000000000000008152600401611eaa9061380f565b60405180910390fd5b600073ffffffffffffffffffffffffffffffffffffffff168273ffffffffffffffffffffffffffffffffffffffff161415611f23576040517f08c379a0000000000000000000000000000000000000000000000000000000008152600401611f1a9061370f565b60405180910390fd5b611f2e83838361279e565b611f39600082611ca6565b6001600360008573ffffffffffffffffffffffffffffffffffffffff1673ffffffffffffffffffffffffffffffffffffffff1681526020019081526020016000206000828254611f899190613ca2565b925050819055506001600360008473ffffffffffffffffffffffffffffffffffffffff1673ffffffffffffffffffffffffffffffffffffffff1681526020019081526020016000206000828254611fe091906139ad565b92505081905550816002600083815260200190815260200160002060006101000a81548173ffffffffffffffffffffffffffffffffffffffff021916908373ffffffffffffffffffffffffffffffffffffffff160217905550808273ffffffffffffffffffffffffffffffffffffffff168473ffffffffffffffffffffffffffffffffffffffff167fddf252ad1be2c89b69c2b068fc378daa952ba7f163c4a11628f55a4df523b3ef60405160405180910390a4505050565b600073ffffffffffffffffffffffffffffffffffffffff168273ffffffffffffffffffffffffffffffffffffffff161415612109576040517f08c379a0000000000000000000000000000000000000000000000000000000008152600401612100906137cf565b60405180910390fd5b61211281611c32565b15612152576040517f08c379a0000000000000000000000000000000000000000000000000000000008152600401612149906136ef565b60405180910390fd5b61215e6000838361279e565b6001600360008473ffffffffffffffffffffffffffffffffffffffff1673ffffffffffffffffffffffffffffffffffffffff16815260200190815260200160002060008282546121ae91906139ad565b92505081905550816002600083815260200190815260200160002060006101000a81548173ffffffffffffffffffffffffffffffffffffffff021916908373ffffffffffffffffffffffffffffffffffffffff160217905550808273ffffffffffffffffffffffffffffffffffffffff16600073ffffffffffffffffffffffffffffffffffffffff167fddf252ad1be2c89b69c2b068fc378daa952ba7f163c4a11628f55a4df523b3ef60405160405180910390a45050565b612272848484611e3d565b61227e848484846127a3565b6122bd576040517f08c379a00000000000000000000000000000000000000000000000000000000081526004016122b4906136af565b60405180910390fd5b50505050565b60606000602867ffffffffffffffff8111156122e2576122e1613fae565b5b6040519080825280601f01601f1916602001820160405280156123145781602001600182028036833780820191505090505b50905060005b601481101561247c5760008160136123329190613ca2565b600861233e9190613c0d565b600261234a9190613aef565b8573ffffffffffffffffffffffffffffffffffffffff1661236b9190613a3a565b60f81b9050600060108260f81c6123829190613a6b565b60f81b905060008160f81c60106123999190613c67565b8360f81c6123a79190613cd6565b60f81b90506123b58261293a565b858560026123c39190613c0d565b815181106123d4576123d3613f7f565b5b60200101907effffffffffffffffffffffffffffffffffffffffffffffffffffffffffffff1916908160001a90535061240c8161293a565b85600186600261241c9190613c0d565b61242691906139ad565b8151811061243757612436613f7f565b5b60200101907effffffffffffffffffffffffffffffffffffffffffffffffffffffffffffff1916908160001a905350505050808061247490613e78565b91505061231a565b508060405160200161248e9190613493565b604051602081830303815290604052915050919050565b606060008214156124ed576040518060400160405280600181526020017f30000000000000000000000000000000000000000000000000000000000000008152509050612601565b600082905060005b6000821461251f57808061250890613e78565b915050600a826125189190613a3a565b91506124f5565b60008167ffffffffffffffff81111561253b5761253a613fae565b5b6040519080825280601f01601f19166020018201604052801561256d5781602001600182028036833780820191505090505b5090505b600085146125fa576001826125869190613ca2565b9150600a856125959190613ec1565b60306125a191906139ad565b60f81b8183815181106125b7576125b6613f7f565b5b60200101907effffffffffffffffffffffffffffffffffffffffffffffffffffffffffffff1916908160001a905350600a856125f39190613a3a565b9450612571565b8093505050505b919050565b6060600082519050600081141561262f5760405180602001604052806000815250915050612799565b6000600360028361264091906139ad565b61264a9190613a3a565b60046126569190613c0d565b9050600060208261266791906139ad565b67ffffffffffffffff8111156126805761267f613fae565b5b6040519080825280601f01601f1916602001820160405280156126b25781602001600182028036833780820191505090505b50905060006040518060600160405280604081526020016147c8604091399050600181016020830160005b868110156127565760038101905062ffffff818a015116603f8160121c168401518060081b905060ff603f83600c1c1686015116810190508060081b905060ff603f8360061c1686015116810190508060081b905060ff603f831686015116810190508060e01b905080845260048401935050506126dd565b50600386066001811461277057600281146127805761278b565b613d3d60f01b600283035261278b565b603d60f81b60018303525b508484525050819450505050505b919050565b505050565b60006127c48473ffffffffffffffffffffffffffffffffffffffff16612980565b1561292d578373ffffffffffffffffffffffffffffffffffffffff1663150b7a026127ed611c9e565b8786866040518563ffffffff1660e01b815260040161280f9493929190613581565b602060405180830381600087803b15801561282957600080fd5b505af192505050801561285a57506040513d601f19601f820116820180604052508101906128579190612e59565b60015b6128dd573d806000811461288a576040519150601f19603f3d011682016040523d82523d6000602084013e61288f565b606091505b506000815114156128d5576040517f08c379a00000000000000000000000000000000000000000000000000000000081526004016128cc906136af565b60405180910390fd5b805181602001fd5b63150b7a0260e01b7bffffffffffffffffffffffffffffffffffffffffffffffffffffffff1916817bffffffffffffffffffffffffffffffffffffffffffffffffffffffff191614915050612932565b600190505b949350505050565b6000600a8260f81c60ff1610156129655760308260f81c61295b9190613a03565b60f81b905061297b565b60578260f81c6129759190613a03565b60f81b90505b919050565b600080823b905060008111915050919050565b6040518061028001604052806014905b60608152602001906001900390816129a35790505090565b60006129ce6129c9846138cf565b6138aa565b9050828152602081018484840111156129ea576129e9613fe2565b5b6129f5848285613dd3565b509392505050565b6000612a10612a0b84613900565b6138aa565b905082815260208101848484011115612a2c57612a2b613fe2565b5b612a37848285613dd3565b509392505050565b6000612a52612a4d84613900565b6138aa565b905082815260208101848484011115612a6e57612a6d613fe2565b5b612a79848285613de2565b509392505050565b600081359050612a908161470a565b92915050565b600081519050612aa58161470a565b92915050565b600081359050612aba81614721565b92915050565b600081359050612acf81614738565b92915050565b600081519050612ae481614738565b92915050565b600082601f830112612aff57612afe613fdd565b5b8135612b0f8482602086016129bb565b91505092915050565b600081519050612b278161474f565b92915050565b600082601f830112612b4257612b41613fdd565b5b8135612b528482602086016129fd565b91505092915050565b600082601f830112612b7057612b6f613fdd565b5b8151612b80848260208601612a3f565b91505092915050565b600081359050612b9881614766565b92915050565b600060208284031215612bb457612bb3613fec565b5b6000612bc284828501612a81565b91505092915050565b60008060408385031215612be257612be1613fec565b5b6000612bf085828601612a81565b9250506020612c0185828601612a81565b9150509250929050565b60008060408385031215612c2257612c21613fec565b5b6000612c3085828601612a96565b9250506020612c4185828601612a96565b9150509250929050565b600080600060608486031215612c6457612c63613fec565b5b6000612c7286828701612a81565b9350506020612c8386828701612a81565b9250506040612c9486828701612b89565b9150509250925092565b60008060008060808587031215612cb857612cb7613fec565b5b6000612cc687828801612a81565b9450506020612cd787828801612a81565b9350506040612ce887828801612b89565b925050606085013567ffffffffffffffff811115612d0957612d08613fe7565b5b612d1587828801612aea565b91505092959194509250565b60008060408385031215612d3857612d37613fec565b5b6000612d4685828601612a81565b9250506020612d5785828601612aab565b9150509250929050565b600080600060608486031215612d7a57612d79613fec565b5b6000612d8886828701612a81565b935050602084013567ffffffffffffffff811115612da957612da8613fe7565b5b612db586828701612b2d565b925050604084013567ffffffffffffffff811115612dd657612dd5613fe7565b5b612de286828701612b2d565b9150509250925092565b60008060408385031215612e0357612e02613fec565b5b6000612e1185828601612a81565b9250506020612e2285828601612b89565b9150509250929050565b600060208284031215612e4257612e41613fec565b5b6000612e5084828501612ac0565b91505092915050565b600060208284031215612e6f57612e6e613fec565b5b6000612e7d84828501612ad5565b91505092915050565b600060208284031215612e9c57612e9b613fec565b5b6000612eaa84828501612b18565b91505092915050565b600060208284031215612ec957612ec8613fec565b5b600082015167ffffffffffffffff811115612ee757612ee6613fe7565b5b612ef384828501612b5b565b91505092915050565b600060208284031215612f1257612f11613fec565b5b6000612f2084828501612b89565b91505092915050565b6000612f358383612f41565b60208301905092915050565b612f4a81613d0a565b82525050565b612f5981613d0a565b82525050565b6000612f6a82613941565b612f74818561396f565b9350612f7f83613931565b8060005b83811015612fb0578151612f978882612f29565b9750612fa283613962565b925050600181019050612f83565b5085935050505092915050565b612fc681613d1c565b82525050565b6000612fd78261394c565b612fe18185613980565b9350612ff1818560208601613de2565b612ffa81613ff1565b840191505092915050565b61300e81613d9d565b82525050565b600061301f82613957565b6130298185613991565b9350613039818560208601613de2565b61304281613ff1565b840191505092915050565b600061305882613957565b61306281856139a2565b9350613072818560208601613de2565b80840191505092915050565b600061308b603283613991565b91506130968261400f565b604082019050919050565b60006130ae6010836139a2565b91506130b98261405e565b601082019050919050565b60006130d1601383613991565b91506130dc82614087565b602082019050919050565b60006130f4601c83613991565b91506130ff826140b0565b602082019050919050565b60006131176002836139a2565b9150613122826140d9565b600282019050919050565b600061313a602483613991565b915061314582614102565b604082019050919050565b600061315d601983613991565b915061316882614151565b602082019050919050565b6000613180602c83613991565b915061318b8261417a565b604082019050919050565b60006131a3600d836139a2565b91506131ae826141c9565b600d82019050919050565b60006131c6603883613991565b91506131d1826141f2565b604082019050919050565b60006131e9602a83613991565b91506131f482614241565b604082019050919050565b600061320c602983613991565b915061321782614290565b604082019050919050565b600061322f600a836139a2565b915061323a826142df565b600a82019050919050565b6000613252601d836139a2565b915061325d82614308565b601d82019050919050565b60006132756002836139a2565b915061328082614331565b600282019050919050565b6000613298602083613991565b91506132a38261435a565b602082019050919050565b60006132bb602c83613991565b91506132c682614383565b604082019050919050565b60006132de602983613991565b91506132e9826143d2565b604082019050919050565b6000613301602183613991565b915061330c82614421565b604082019050919050565b600061332561013b836139a2565b915061333082614470565b61013b82019050919050565b60006133496006836139a2565b9150613354826145f1565b600682019050919050565b600061336c601a836139a2565b91506133778261461a565b601a82019050919050565b600061338f601d836139a2565b915061339a82614643565b601d82019050919050565b60006133b2602183613991565b91506133bd8261466c565b604082019050919050565b60006133d5603183613991565b91506133e0826146bb565b604082019050919050565b6133f481613d86565b82525050565b6000613406828561304d565b9150613412828461304d565b91508190509392505050565b6000613429826130a1565b9150613435828761304d565b91506134408261335f565b915061344c828661304d565b915061345782613245565b9150613463828561304d565b915061346e82613317565b915061347a828461304d565b915061348582613268565b915081905095945050505050565b600061349e8261310a565b91506134aa828461304d565b915081905092915050565b60006134c082613196565b91506134cc828461304d565b915081905092915050565b60006134e282613222565b91506134ee828461304d565b915081905092915050565b60006135048261333c565b9150613510828461304d565b915081905092915050565b600061352682613382565b9150613532828461304d565b915081905092915050565b60006020820190506135526000830184612f50565b92915050565b600060408201905061356d6000830185612f50565b61357a6020830184612f50565b9392505050565b60006080820190506135966000830187612f50565b6135a36020830186612f50565b6135b060408301856133eb565b81810360608301526135c28184612fcc565b905095945050505050565b600060408201905081810360008301526135e78185612f5f565b905081810360208301526135fb8184612f5f565b90509392505050565b60006020820190506136196000830184612fbd565b92915050565b60006020820190506136346000830184613005565b92915050565b600060208201905081810360008301526136548184613014565b905092915050565b600060808201905081810360008301526136768187613014565b9050818103602083015261368a8186613014565b90506136996040830185612f50565b6136a66060830184612f50565b95945050505050565b600060208201905081810360008301526136c88161307e565b9050919050565b600060208201905081810360008301526136e8816130c4565b9050919050565b60006020820190508181036000830152613708816130e7565b9050919050565b600060208201905081810360008301526137288161312d565b9050919050565b6000602082019050818103600083015261374881613150565b9050919050565b6000602082019050818103600083015261376881613173565b9050919050565b60006020820190508181036000830152613788816131b9565b9050919050565b600060208201905081810360008301526137a8816131dc565b9050919050565b600060208201905081810360008301526137c8816131ff565b9050919050565b600060208201905081810360008301526137e88161328b565b9050919050565b60006020820190508181036000830152613808816132ae565b9050919050565b60006020820190508181036000830152613828816132d1565b9050919050565b60006020820190508181036000830152613848816132f4565b9050919050565b60006020820190508181036000830152613868816133a5565b9050919050565b60006020820190508181036000830152613888816133c8565b9050919050565b60006020820190506138a460008301846133eb565b92915050565b60006138b46138c5565b90506138c08282613e47565b919050565b6000604051905090565b600067ffffffffffffffff8211156138ea576138e9613fae565b5b6138f382613ff1565b9050602081019050919050565b600067ffffffffffffffff82111561391b5761391a613fae565b5b61392482613ff1565b9050602081019050919050565b6000819050602082019050919050565b600081519050919050565b600081519050919050565b600081519050919050565b6000602082019050919050565b600082825260208201905092915050565b600082825260208201905092915050565b600082825260208201905092915050565b600081905092915050565b60006139b882613d86565b91506139c383613d86565b9250827fffffffffffffffffffffffffffffffffffffffffffffffffffffffffffffffff038211156139f8576139f7613ef2565b5b828201905092915050565b6000613a0e82613d90565b9150613a1983613d90565b92508260ff03821115613a2f57613a2e613ef2565b5b828201905092915050565b6000613a4582613d86565b9150613a5083613d86565b925082613a6057613a5f613f21565b5b828204905092915050565b6000613a7682613d90565b9150613a8183613d90565b925082613a9157613a90613f21565b5b828204905092915050565b6000808291508390505b6001851115613ae657808604811115613ac257613ac1613ef2565b5b6001851615613ad15780820291505b8081029050613adf85614002565b9450613aa6565b94509492505050565b6000613afa82613d86565b9150613b0583613d86565b9250613b327fffffffffffffffffffffffffffffffffffffffffffffffffffffffffffffffff8484613b3a565b905092915050565b600082613b4a5760019050613c06565b81613b585760009050613c06565b8160018114613b6e5760028114613b7857613ba7565b6001915050613c06565b60ff841115613b8a57613b89613ef2565b5b8360020a915084821115613ba157613ba0613ef2565b5b50613c06565b5060208310610133831016604e8410600b8410161715613bdc5782820a905083811115613bd757613bd6613ef2565b5b613c06565b613be98484846001613a9c565b92509050818404811115613c0057613bff613ef2565b5b81810290505b9392505050565b6000613c1882613d86565b9150613c2383613d86565b9250817fffffffffffffffffffffffffffffffffffffffffffffffffffffffffffffffff0483118215151615613c5c57613c5b613ef2565b5b828202905092915050565b6000613c7282613d90565b9150613c7d83613d90565b92508160ff0483118215151615613c9757613c96613ef2565b5b828202905092915050565b6000613cad82613d86565b9150613cb883613d86565b925082821015613ccb57613cca613ef2565b5b828203905092915050565b6000613ce182613d90565b9150613cec83613d90565b925082821015613cff57613cfe613ef2565b5b828203905092915050565b6000613d1582613d66565b9050919050565b60008115159050919050565b60007fffffffff0000000000000000000000000000000000000000000000000000000082169050919050565b6000613d5f82613d0a565b9050919050565b600073ffffffffffffffffffffffffffffffffffffffff82169050919050565b6000819050919050565b600060ff82169050919050565b6000613da882613daf565b9050919050565b6000613dba82613dc1565b9050919050565b6000613dcc82613d66565b9050919050565b82818337600083830152505050565b60005b83811015613e00578082015181840152602081019050613de5565b83811115613e0f576000848401525b50505050565b60006002820490506001821680613e2d57607f821691505b60208210811415613e4157613e40613f50565b5b50919050565b613e5082613ff1565b810181811067ffffffffffffffff82111715613e6f57613e6e613fae565b5b80604052505050565b6000613e8382613d86565b91507fffffffffffffffffffffffffffffffffffffffffffffffffffffffffffffffff821415613eb657613eb5613ef2565b5b600182019050919050565b6000613ecc82613d86565b9150613ed783613d86565b925082613ee757613ee6613f21565b5b828206905092915050565b7f4e487b7100000000000000000000000000000000000000000000000000000000600052601160045260246000fd5b7f4e487b7100000000000000000000000000000000000000000000000000000000600052601260045260246000fd5b7f4e487b7100000000000000000000000000000000000000000000000000000000600052602260045260246000fd5b7f4e487b7100000000000000000000000000000000000000000000000000000000600052603260045260246000fd5b7f4e487b7100000000000000000000000000000000000000000000000000000000600052604160045260246000fd5b600080fd5b600080fd5b600080fd5b600080fd5b6000601f19601f8301169050919050565b60008160011c9050919050565b7f4552433732313a207472616e7366657220746f206e6f6e20455243373231526560008201527f63656976657220696d706c656d656e7465720000000000000000000000000000602082015250565b7f7b226e616d65223a20225452424c202300000000000000000000000000000000600082015250565b7f746f6b656e4964206e6f742070726573656e7400000000000000000000000000600082015250565b7f4552433732313a20746f6b656e20616c7265616479206d696e74656400000000600082015250565b7f3078000000000000000000000000000000000000000000000000000000000000600082015250565b7f4552433732313a207472616e7366657220746f20746865207a65726f2061646460008201527f7265737300000000000000000000000000000000000000000000000000000000602082015250565b7f4552433732313a20617070726f766520746f2063616c6c657200000000000000600082015250565b7f4552433732313a206f70657261746f7220717565727920666f72206e6f6e657860008201527f697374656e7420746f6b656e0000000000000000000000000000000000000000602082015250565b7f54726f75626c65736f6d653a2000000000000000000000000000000000000000600082015250565b7f4552433732313a20617070726f76652063616c6c6572206973206e6f74206f7760008201527f6e6572206e6f7220617070726f76656420666f7220616c6c0000000000000000602082015250565b7f4552433732313a2062616c616e636520717565727920666f7220746865207a6560008201527f726f206164647265737300000000000000000000000000000000000000000000602082015250565b7f4552433732313a206f776e657220717565727920666f72206e6f6e657869737460008201527f656e7420746f6b656e0000000000000000000000000000000000000000000000602082015250565b7f4f726967696e616c3a2000000000000000000000000000000000000000000000600082015250565b7f222c202274726f75626c65736f6d65436f6c6c656374696f6e223a2022000000600082015250565b7f227d000000000000000000000000000000000000000000000000000000000000600082015250565b7f4552433732313a206d696e7420746f20746865207a65726f2061646472657373600082015250565b7f4552433732313a20617070726f76656420717565727920666f72206e6f6e657860008201527f697374656e7420746f6b656e0000000000000000000000000000000000000000602082015250565b7f4552433732313a207472616e73666572206f6620746f6b656e2074686174206960008201527f73206e6f74206f776e0000000000000000000000000000000000000000000000602082015250565b7f4552433732313a20617070726f76616c20746f2063757272656e74206f776e6560008201527f7200000000000000000000000000000000000000000000000000000000000000602082015250565b7f222c20226465736372697074696f6e223a20225468657265206973206f6e652060008201527f5452424c204e465420666f72206561636820636f6c6c656374696f6e206d616460208201527f652074726f75626c65736f6d65206279206f757220636f6d6d756e6974792e2060408201527f57686f65766572206172726976657320666972737420616e64206d616b65732060608201527f616e204e465420636f6c6c656374696f6e2074726f75626c65736f6d6520676560808201527f74732074686520756e69717565205452424c204e465420666f7220746861742060a08201527f636f6c6c656374696f6e2061732061207072697a652e204665656c206672656560c08201527f20746f2075736520616e6420696e74657270726574205452424c204e4654732060e08201527f696e20616e792077617920796f752077616e742e222c2022696d616765223a206101008201527f22646174613a696d6167652f7376672b786d6c3b6261736536342c000000000061012082015250565b7f5452424c20230000000000000000000000000000000000000000000000000000600082015250565b7f222c20226f726967696e616c436f6c6c656374696f6e223a2022000000000000600082015250565b7f646174613a6170706c69636174696f6e2f6a736f6e3b6261736536342c000000600082015250565b7f436f6c6c656374696f6e20697320616c72656164792054726f75626c65736f6d60008201527f6500000000000000000000000000000000000000000000000000000000000000602082015250565b7f4552433732313a207472616e736665722063616c6c6572206973206e6f74206f60008201527f776e6572206e6f7220617070726f766564000000000000000000000000000000602082015250565b61471381613d0a565b811461471e57600080fd5b50565b61472a81613d1c565b811461473557600080fd5b50565b61474181613d28565b811461474c57600080fd5b50565b61475881613d54565b811461476357600080fd5b50565b61476f81613d86565b811461477a57600080fd5b5056fe3c7465787420783d2231302220793d2238302220636c6173733d2262617365223e3c2f746578743e3c7465787420783d2231302220793d223130302220636c6173733d2262617365223e4142434445464748494a4b4c4d4e4f505152535455565758595a6162636465666768696a6b6c6d6e6f707172737475767778797a303132333435363738392b2f3c73766720786d6c6e733d22687474703a2f2f7777772e77332e6f72672f323030302f73766722207072657365727665417370656374526174696f3d22784d696e594d696e206d656574222076696577426f783d223020302034303020343030223e3c7374796c653e2e62617365207b2066696c6c3a2077686974653b20666f6e742d66616d696c793a2073657269663b20666f6e742d73697a653a20313470783b207d3c2f7374796c653e3c726563742077696474683d223130302522206865696768743d2231303025222066696c6c3d22626c61636b22202f3e3c7465787420783d2231302220793d2232302220636c6173733d2262617365223e3c7465787420783d2231302220793d2234302220636c6173733d2262617365223e3c7465787420783d2231302220793d2236302220636c6173733d2262617365223ea264697066735822122087db447d47e4dbb22f724aef23c04d47578af913d5e1f573762f9184fea5907f64736f6c63430008070033",
  "immutableReferences": {},
  "source": "pragma solidity ^0.8.0;\n\nimport \"@openzeppelin/contracts/token/ERC721/extensions/IERC721Metadata.sol\";\nimport \"@openzeppelin/contracts/token/ERC721/extensions/ERC721URIStorage.sol\";\nimport \"./DoubleTrouble.sol\";\n\n// SPDX-License-Identifier: MIT\ncontract DoubleTroubleOrchestrator is ERC721URIStorage {\n  mapping (address => DoubleTrouble) public _troublesomeCollections;\n  DoubleTroubleFactory _dtFactory;\n  address _feeWallet;\n  address[] _registeredCollections;\n\n  constructor(DoubleTroubleFactory dtFactory, address feeWallet) ERC721(\"Double Trouble\", \"TRBL\") {\n    _feeWallet = feeWallet;\n    _dtFactory = dtFactory;\n  }\n\n  function makeTroublesomeCollection(address nftCollection, string memory name, string memory symbol) external {\n    require(address(_troublesomeCollections[nftCollection]) == address(0), \"Collection is already Troublesome\");\n\n    // Deploy troublesome contract for nftCollection\n    _troublesomeCollections[nftCollection] = _dtFactory.makeNew(name, symbol, nftCollection, _feeWallet);\n    _mint(msg.sender, _registeredCollections.length);\n    _registeredCollections.push(nftCollection);\n  }\n\n  function troublesomeCollection(address nftCollection) external view returns (DoubleTrouble) {\n    return _troublesomeCollections[nftCollection];\n  }\n\n  function registeredCollections() external view returns (address[] memory, address[] memory) {\n    address[] memory mappedCollections = new address[](_registeredCollections.length);\n    for (uint i = 0; i < _registeredCollections.length; i++) {\n      mappedCollections[i] = address(_troublesomeCollections[_registeredCollections[i]]);\n    }\n\n    return (_registeredCollections, mappedCollections);\n  }\n\n  function registeredCollection(uint256 tokenId) external view returns (address, address) {\n    require(tokenId < _registeredCollections.length, \"tokenId not present\");\n    address original = _registeredCollections[tokenId];\n    return (original, address(_troublesomeCollections[original]));\n  }\n\n  function getOriginalCollectionName(uint256 tokenId) external view returns (string memory) {\n    require(tokenId < _registeredCollections.length, \"tokenId not present\");\n    return IERC721Metadata(_registeredCollections[tokenId]).name();\n  }\n\n  function getOriginalCollectionSymbol(uint256 tokenId) external view returns (string memory) {\n    require(tokenId < _registeredCollections.length, \"tokenId not present\");\n    return IERC721Metadata(_registeredCollections[tokenId]).symbol();\n  }\n\n\n  function tokenURI(uint256 tokenId) public view virtual override returns (string memory) {\n    require(tokenId < _registeredCollections.length, \"tokenId not present\");\n    address o;\n    address t;\n    (o, t) = this.registeredCollection(tokenId);\n    string memory originalAddr = toString(o);\n    string memory troublesomeAddr= toString(t);\n    string memory strTokenId = toString(tokenId);\n\n    string[20] memory parts;\n    uint256 lastPart = 0;\n    parts[lastPart++] = '<svg xmlns=\"http://www.w3.org/2000/svg\" preserveAspectRatio=\"xMinYMin meet\" viewBox=\"0 0 400 400\"><style>.base { fill: white; font-family: serif; font-size: 14px; }</style><rect width=\"100%\" height=\"100%\" fill=\"black\" /><text x=\"10\" y=\"20\" class=\"base\">';\n\n    parts[lastPart++] = string(abi.encodePacked('TRBL #', strTokenId));\n    parts[lastPart++] = '</text>';\n\n    try this.getOriginalCollectionName(tokenId) returns (string memory name) {\n      parts[lastPart++] = '<text x=\"10\" y=\"40\" class=\"base\">';\n      parts[lastPart++] = name;\n      parts[lastPart++] = '</text>';\n    } catch (bytes memory /*lowLevelData*/) {\n      // NOOP\n    }\n\n    try this.getOriginalCollectionSymbol(tokenId) returns (string memory symbol) {\n      parts[lastPart++] = '<text x=\"10\" y=\"60\" class=\"base\">';\n      parts[lastPart++] = symbol;\n      parts[lastPart++] = '</text>';\n    } catch (bytes memory /*lowLevelData*/) {\n      // NOOP\n    }\n\n    parts[lastPart++] = '<text x=\"10\" y=\"80\" class=\"base\">';\n    parts[lastPart++] = string(abi.encodePacked('Original: ', originalAddr));\n    parts[lastPart++] = '</text><text x=\"10\" y=\"100\" class=\"base\">';\n\n    parts[lastPart++] = string(abi.encodePacked('Troublesome: ', troublesomeAddr));\n    parts[lastPart++] = '</text></svg>';\n\n    string memory output;\n    for (uint256 i = 0; i < lastPart; i++) {\n      output = string(abi.encodePacked(output, parts[i]));\n    }\n\n    string memory json = Base64.encode(bytes(string(abi.encodePacked('{\"name\": \"TRBL #', strTokenId, '\", \"originalCollection\": \"',\n                                                                      originalAddr, '\", \"troublesomeCollection\": \"',\n                                                                      troublesomeAddr, '\", \"description\": \"There is one TRBL NFT for each collection made troublesome by our community. Whoever arrives first and makes an NFT collection troublesome gets the unique TRBL NFT for that collection as a prize. Feel free to use and interpret TRBL NFTs in any way you want.\", \"image\": \"data:image/svg+xml;base64,',\n                                                                      Base64.encode(bytes(output)), '\"}'))));\n    output = string(abi.encodePacked('data:application/json;base64,', json));\n\n    return output;\n  }\n\n  // Library functions below here\n\n  function toString(uint256 value) internal pure returns (string memory) {\n    // Inspired by OraclizeAPI's implementation - MIT license\n    // https://github.com/oraclize/ethereum-api/blob/b42146b063c7d6ee1358846c198246239e9360e8/oraclizeAPI_0.4.25.sol\n    if (value == 0) {\n        return \"0\";\n    }\n    uint256 temp = value;\n    uint256 digits;\n    while (temp != 0) {\n        digits++;\n        temp /= 10;\n    }\n    bytes memory buffer = new bytes(digits);\n    while (value != 0) {\n        digits -= 1;\n        buffer[digits] = bytes1(uint8(48 + uint256(value % 10)));\n        value /= 10;\n    }\n    return string(buffer);\n  }\n\n  function toString(address x) internal pure returns (string memory) {\n    bytes memory s = new bytes(40);\n    for (uint i = 0; i < 20; i++) {\n        bytes1 b = bytes1(uint8(uint(uint160(x)) / (2**(8*(19 - i)))));\n        bytes1 hi = bytes1(uint8(b) / 16);\n        bytes1 lo = bytes1(uint8(b) - 16 * uint8(hi));\n        s[2*i] = char(hi);\n        s[2*i+1] = char(lo);\n    }\n    return string(abi.encodePacked('0x', string(s)));\n }\n\n  function char(bytes1 b) internal pure returns (bytes1 c) {\n      if (uint8(b) < 10) return bytes1(uint8(b) + 0x30);\n      else return bytes1(uint8(b) + 0x57);\n  }\n}\n\n/*\n* We need a Factory contract here because otherwise\n* DoubleTroubleOrchestrator's code would have to include all of\n* DoubleTrouble's code, and this would make DTO go above the 24KB Ethereum contract size limit.\n*\n* See more on this here: https://ethereum.stackexchange.com/questions/41501/contract-code-size-and-how-to-work-around-it\n*/\ncontract DoubleTroubleFactory {\n  function makeNew(string memory name, string memory symbol, address nftCollection, address feeWallet)\n        external returns (DoubleTrouble) {\n    return new DoubleTrouble(name, symbol, nftCollection, feeWallet);\n  }\n}\n\n/// [MIT License]\n/// @title Base64\n/// @notice Provides a function for encoding some bytes in base64\n/// @author Brecht Devos <brecht@loopring.org>\nlibrary Base64 {\n    bytes internal constant TABLE = \"ABCDEFGHIJKLMNOPQRSTUVWXYZabcdefghijklmnopqrstuvwxyz0123456789+/\";\n\n    /// @notice Encodes some bytes to the base64 representation\n    function encode(bytes memory data) internal pure returns (string memory) {\n        uint256 len = data.length;\n        if (len == 0) return \"\";\n\n        // multiply by 4/3 rounded up\n        uint256 encodedLen = 4 * ((len + 2) / 3);\n\n        // Add some extra buffer at the end\n        bytes memory result = new bytes(encodedLen + 32);\n\n        bytes memory table = TABLE;\n\n        assembly {\n            let tablePtr := add(table, 1)\n            let resultPtr := add(result, 32)\n\n            for {\n                let i := 0\n            } lt(i, len) {\n\n            } {\n                i := add(i, 3)\n                let input := and(mload(add(data, i)), 0xffffff)\n\n                let out := mload(add(tablePtr, and(shr(18, input), 0x3F)))\n                out := shl(8, out)\n                out := add(out, and(mload(add(tablePtr, and(shr(12, input), 0x3F))), 0xFF))\n                out := shl(8, out)\n                out := add(out, and(mload(add(tablePtr, and(shr(6, input), 0x3F))), 0xFF))\n                out := shl(8, out)\n                out := add(out, and(mload(add(tablePtr, and(input, 0x3F))), 0xFF))\n                out := shl(224, out)\n\n                mstore(resultPtr, out)\n\n                resultPtr := add(resultPtr, 4)\n            }\n\n            switch mod(len, 3)\n            case 1 {\n                mstore(sub(resultPtr, 2), shl(240, 0x3d3d))\n            }\n            case 2 {\n                mstore(sub(resultPtr, 1), shl(248, 0x3d))\n            }\n\n            mstore(result, encodedLen)\n        }\n\n        return string(result);\n    }\n}\n",
  "sourcePath": "/Users/gabrielguimaraes/crypto/double_trouble/blockchain-backend/contracts/DoubleTroubleOrchestrator.sol",
  "compiler": {
    "name": "solc",
    "version": "0.8.7+commit.e28d00a7.Emscripten.clang"
  },
  "schemaVersion": "3.4.2",
  "updatedAt": "2021-09-08T01:49:58.271Z",
  "networkType": "ethereum",
  "devdoc": {
    "kind": "dev",
    "methods": {
      "approve(address,uint256)": {
        "details": "See {IERC721-approve}."
      },
      "balanceOf(address)": {
        "details": "See {IERC721-balanceOf}."
      },
      "getApproved(uint256)": {
        "details": "See {IERC721-getApproved}."
      },
      "isApprovedForAll(address,address)": {
        "details": "See {IERC721-isApprovedForAll}."
      },
      "name()": {
        "details": "See {IERC721Metadata-name}."
      },
      "ownerOf(uint256)": {
        "details": "See {IERC721-ownerOf}."
      },
      "safeTransferFrom(address,address,uint256)": {
        "details": "See {IERC721-safeTransferFrom}."
      },
      "safeTransferFrom(address,address,uint256,bytes)": {
        "details": "See {IERC721-safeTransferFrom}."
      },
      "setApprovalForAll(address,bool)": {
        "details": "See {IERC721-setApprovalForAll}."
      },
      "supportsInterface(bytes4)": {
        "details": "See {IERC165-supportsInterface}."
      },
      "symbol()": {
        "details": "See {IERC721Metadata-symbol}."
      },
      "tokenURI(uint256)": {
        "details": "See {IERC721Metadata-tokenURI}."
      },
      "transferFrom(address,address,uint256)": {
        "details": "See {IERC721-transferFrom}."
      }
    },
    "version": 1
  },
  "userdoc": {
    "kind": "user",
    "methods": {},
    "version": 1
  }
}