{
  "contractName": "DoubleTroubleOrchestrator",
  "abi": [
    {
      "inputs": [
        {
          "internalType": "address",
          "name": "",
          "type": "address"
        }
      ],
      "name": "_troublesomeCollections",
      "outputs": [
        {
          "internalType": "contract DoubleTrouble",
          "name": "",
          "type": "address"
        }
      ],
      "stateMutability": "view",
      "type": "function",
      "constant": true
    },
    {
      "inputs": [
        {
          "internalType": "address",
          "name": "nftCollection",
          "type": "address"
        },
        {
          "internalType": "string",
          "name": "name",
          "type": "string"
        },
        {
          "internalType": "string",
          "name": "symbol",
          "type": "string"
        }
      ],
      "name": "makeTroublesomeCollection",
      "outputs": [],
      "stateMutability": "nonpayable",
      "type": "function"
    },
    {
      "inputs": [
        {
          "internalType": "address",
          "name": "nftCollection",
          "type": "address"
        }
      ],
      "name": "troublesomeCollection",
      "outputs": [
        {
          "internalType": "contract DoubleTrouble",
          "name": "",
          "type": "address"
        }
      ],
      "stateMutability": "view",
      "type": "function",
      "constant": true
    }
  ],
  "bytecode": "0x608060405234801561001057600080fd5b50614260806100206000396000f3fe60806040523480156200001157600080fd5b5060043610620000465760003560e01c8063404d09f8146200004b57806394d271581462000081578063f70d7e4b14620000a1575b600080fd5b620000696004803603810190620000639190620004a8565b620000d7565b60405162000078919062000668565b60405180910390f35b6200009f6004803603810190620000999190620004da565b6200010a565b005b620000bf6004803603810190620000b99190620004a8565b620002a3565b604051620000ce919062000668565b60405180910390f35b60006020528060005260406000206000915054906101000a900473ffffffffffffffffffffffffffffffffffffffff1681565b620001158362000316565b600073ffffffffffffffffffffffffffffffffffffffff166000808573ffffffffffffffffffffffffffffffffffffffff1673ffffffffffffffffffffffffffffffffffffffff16815260200190815260200160002060009054906101000a900473ffffffffffffffffffffffffffffffffffffffff1673ffffffffffffffffffffffffffffffffffffffff1614620001e5576040517f08c379a0000000000000000000000000000000000000000000000000000000008152600401620001dc906200070f565b60405180910390fd5b818184604051620001f690620003ee565b6200020493929190620006a2565b604051809103906000f08015801562000221573d6000803e3d6000fd5b506000808573ffffffffffffffffffffffffffffffffffffffff1673ffffffffffffffffffffffffffffffffffffffff16815260200190815260200160002060006101000a81548173ffffffffffffffffffffffffffffffffffffffff021916908373ffffffffffffffffffffffffffffffffffffffff160217905550505050565b6000620002b08262000316565b6000808373ffffffffffffffffffffffffffffffffffffffff1673ffffffffffffffffffffffffffffffffffffffff16815260200190815260200160002060009054906101000a900473ffffffffffffffffffffffffffffffffffffffff169050919050565b8073ffffffffffffffffffffffffffffffffffffffff166301ffc9a76380ac58cd6040518263ffffffff1660e01b815260040162000355919062000685565b60206040518083038186803b1580156200036e57600080fd5b505afa15801562000383573d6000803e3d6000fd5b505050506040513d601f19601f82011682018060405250810190620003a9919062000574565b620003eb576040517f08c379a0000000000000000000000000000000000000000000000000000000008152600401620003e290620006ed565b60405180910390fd5b50565b61382c80620009ff83390190565b6000620004136200040d846200075a565b62000731565b905082815260208101848484011115620004325762000431620008ff565b5b6200043f84828562000850565b509392505050565b6000813590506200045881620009ca565b92915050565b6000815190506200046f81620009e4565b92915050565b600082601f8301126200048d576200048c620008fa565b5b81356200049f848260208601620003fc565b91505092915050565b600060208284031215620004c157620004c062000909565b5b6000620004d18482850162000447565b91505092915050565b600080600060608486031215620004f657620004f562000909565b5b6000620005068682870162000447565b935050602084013567ffffffffffffffff8111156200052a576200052962000904565b5b620005388682870162000475565b925050604084013567ffffffffffffffff8111156200055c576200055b62000904565b5b6200056a8682870162000475565b9150509250925092565b6000602082840312156200058d576200058c62000909565b5b60006200059d848285016200045e565b91505092915050565b620005b181620007ac565b82525050565b620005c281620007f6565b82525050565b620005d3816200080a565b82525050565b6000620005e68262000790565b620005f281856200079b565b9350620006048185602086016200085f565b6200060f816200090e565b840191505092915050565b600062000629602a836200079b565b915062000636826200092c565b604082019050919050565b6000620006506021836200079b565b91506200065d826200097b565b604082019050919050565b60006020820190506200067f6000830184620005b7565b92915050565b60006020820190506200069c6000830184620005c8565b92915050565b60006060820190508181036000830152620006be8186620005d9565b90508181036020830152620006d48185620005d9565b9050620006e56040830184620005a6565b949350505050565b6000602082019050818103600083015262000708816200061a565b9050919050565b600060208201905081810360008301526200072a8162000641565b9050919050565b60006200073d62000750565b90506200074b828262000895565b919050565b6000604051905090565b600067ffffffffffffffff821115620007785762000777620008cb565b5b62000783826200090e565b9050602081019050919050565b600081519050919050565b600082825260208201905092915050565b6000620007b982620007d6565b9050919050565b60008115159050919050565b6000819050919050565b600073ffffffffffffffffffffffffffffffffffffffff82169050919050565b6000620008038262000828565b9050919050565b6000620008216200081b83620007cc565b6200091f565b9050919050565b600062000835826200083c565b9050919050565b60006200084982620007d6565b9050919050565b82818337600083830152505050565b60005b838110156200087f57808201518184015260208101905062000862565b838111156200088f576000848401525b50505050565b620008a0826200090e565b810181811067ffffffffffffffff82111715620008c257620008c1620008cb565b5b80604052505050565b7f4e487b7100000000000000000000000000000000000000000000000000000000600052604160045260246000fd5b600080fd5b600080fd5b600080fd5b600080fd5b6000601f19601f8301169050919050565b60008160e01b9050919050565b7f636f6c6c656374696f6e206d75737420726566657220746f20616e204552433760008201527f3231206164647265737300000000000000000000000000000000000000000000602082015250565b7f436f6c6c656374696f6e20697320616c72656164792054726f75626c65736f6d60008201527f6500000000000000000000000000000000000000000000000000000000000000602082015250565b620009d581620007ac565b8114620009e157600080fd5b50565b620009ef81620007c0565b8114620009fb57600080fd5b5056fe6080604052738dbbf70afb0681eafde71be77781b207539746b9600a60006101000a81548173ffffffffffffffffffffffffffffffffffffffff021916908373ffffffffffffffffffffffffffffffffffffffff1602179055506064600b553480156200006b57600080fd5b506040516200382c3803806200382c8339818101604052810190620000919190620003e7565b82828160009080519060200190620000ab92919062000259565b508060019080519060200190620000c492919062000259565b505050600073ffffffffffffffffffffffffffffffffffffffff168173ffffffffffffffffffffffffffffffffffffffff1614156200013a576040517f08c379a000000000000000000000000000000000000000000000000000000000815260040162000131906200051f565b60405180910390fd5b8073ffffffffffffffffffffffffffffffffffffffff166301ffc9a76380ac58cd6040518263ffffffff1660e01b8152600401620001799190620004e0565b60206040518083038186803b1580156200019257600080fd5b505afa158015620001a7573d6000803e3d6000fd5b505050506040513d601f19601f82011682018060405250810190620001cd9190620003b5565b6200020f576040517f08c379a00000000000000000000000000000000000000000000000000000000081526004016200020690620004fd565b60405180910390fd5b80600960006101000a81548173ffffffffffffffffffffffffffffffffffffffff021916908373ffffffffffffffffffffffffffffffffffffffff1602179055505050506200081d565b82805462000267906200064f565b90600052602060002090601f0160209004810192826200028b5760008555620002d7565b82601f10620002a657805160ff1916838001178555620002d7565b82800160010185558215620002d7579182015b82811115620002d6578251825591602001919060010190620002b9565b5b509050620002e69190620002ea565b5090565b5b8082111562000305576000816000905550600101620002eb565b5090565b6000620003206200031a846200056a565b62000541565b9050828152602081018484840111156200033f576200033e6200071e565b5b6200034c84828562000619565b509392505050565b6000815190506200036581620007e9565b92915050565b6000815190506200037c8162000803565b92915050565b600082601f8301126200039a576200039962000719565b5b8151620003ac84826020860162000309565b91505092915050565b600060208284031215620003ce57620003cd62000728565b5b6000620003de848285016200036b565b91505092915050565b60008060006060848603121562000403576200040262000728565b5b600084015167ffffffffffffffff81111562000424576200042362000723565b5b620004328682870162000382565b935050602084015167ffffffffffffffff81111562000456576200045562000723565b5b620004648682870162000382565b9250506040620004778682870162000354565b9150509250925092565b6200048c81620005fb565b82525050565b6000620004a1602a83620005a0565b9150620004ae826200074b565b604082019050919050565b6000620004c8602183620005a0565b9150620004d5826200079a565b604082019050919050565b6000602082019050620004f7600083018462000481565b92915050565b60006020820190508181036000830152620005188162000492565b9050919050565b600060208201905081810360008301526200053a81620004b9565b9050919050565b60006200054d62000560565b90506200055b828262000685565b919050565b6000604051905090565b600067ffffffffffffffff821115620005885762000587620006ea565b5b62000593826200072d565b9050602081019050919050565b600082825260208201905092915050565b6000620005be82620005db565b9050919050565b60008115159050919050565b6000819050919050565b600073ffffffffffffffffffffffffffffffffffffffff82169050919050565b6000620006126200060c83620005d1565b6200073e565b9050919050565b60005b83811015620006395780820151818401526020810190506200061c565b8381111562000649576000848401525b50505050565b600060028204905060018216806200066857607f821691505b602082108114156200067f576200067e620006bb565b5b50919050565b62000690826200072d565b810181811067ffffffffffffffff82111715620006b257620006b1620006ea565b5b80604052505050565b7f4e487b7100000000000000000000000000000000000000000000000000000000600052602260045260246000fd5b7f4e487b7100000000000000000000000000000000000000000000000000000000600052604160045260246000fd5b600080fd5b600080fd5b600080fd5b600080fd5b6000601f19601f8301169050919050565b60008160e01b9050919050565b7f636f6c6c656374696f6e206d75737420726566657220746f20616e204552433760008201527f3231206164647265737300000000000000000000000000000000000000000000602082015250565b7f636f6c6c656374696f6e20616464726573732063616e6e6f74206265207a657260008201527f6f00000000000000000000000000000000000000000000000000000000000000602082015250565b620007f481620005b1565b81146200080057600080fd5b50565b6200080e81620005c5565b81146200081a57600080fd5b50565b612fff806200082d6000396000f3fe6080604052600436106101355760003560e01c806370a08231116100ab578063b88d4fde1161006f578063b88d4fde1461043b578063c87b56dd14610464578063d96a094a146104a1578063dbe05fff146104bd578063e6c17350146104fa578063e985e9c51461053757610135565b806370a082311461035157806373b1dc801461038e57806380b48a7c146103aa57806395d89b41146103e7578063a22cb4651461041257610135565b80632ac342b8116100fd5780632ac342b81461023157806342842e0e1461025a578063522da633146102835780635e96c694146102c057806361dd277e146102e95780636352211e1461031457610135565b806301ffc9a71461013a57806306fdde0314610177578063081812fc146101a2578063095ea7b3146101df57806323b872dd14610208575b600080fd5b34801561014657600080fd5b50610161600480360381019061015c9190611f24565b610574565b60405161016e91906123b3565b60405180910390f35b34801561018357600080fd5b5061018c6105b6565b60405161019991906123ce565b60405180910390f35b3480156101ae57600080fd5b506101c960048036038101906101c49190611f9a565b610648565b6040516101d69190612361565b60405180910390f35b3480156101eb57600080fd5b5061020660048036038101906102019190611ee4565b6106cd565b005b34801561021457600080fd5b5061022f600480360381019061022a9190611dce565b6107e5565b005b34801561023d57600080fd5b5061025860048036038101906102539190611f9a565b610820565b005b34801561026657600080fd5b50610281600480360381019061027c9190611dce565b610a86565b005b34801561028f57600080fd5b506102aa60048036038101906102a59190611f9a565b610ac1565b6040516102b79190612670565b60405180910390f35b3480156102cc57600080fd5b506102e760048036038101906102e29190611fc7565b610ad9565b005b3480156102f557600080fd5b506102fe610b6b565b60405161030b9190612361565b60405180910390f35b34801561032057600080fd5b5061033b60048036038101906103369190611f9a565b610b95565b6040516103489190612361565b60405180910390f35b34801561035d57600080fd5b5061037860048036038101906103739190611d34565b610c47565b6040516103859190612670565b60405180910390f35b6103a860048036038101906103a39190611f9a565b610cff565b005b3480156103b657600080fd5b506103d160048036038101906103cc9190611f9a565b610dc5565b6040516103de9190612670565b60405180910390f35b3480156103f357600080fd5b506103fc610e59565b60405161040991906123ce565b60405180910390f35b34801561041e57600080fd5b5061043960048036038101906104349190611ea4565b610eeb565b005b34801561044757600080fd5b50610462600480360381019061045d9190611e21565b61106c565b005b34801561047057600080fd5b5061048b60048036038101906104869190611f9a565b6110a7565b60405161049891906123ce565b60405180910390f35b6104bb60048036038101906104b69190611f9a565b611160565b005b3480156104c957600080fd5b506104e460048036038101906104df9190611f9a565b61121a565b6040516104f19190612670565b60405180910390f35b34801561050657600080fd5b50610521600480360381019061051c9190611f9a565b611232565b60405161052e9190612670565b60405180910390f35b34801561054357600080fd5b5061055e60048036038101906105599190611d8e565b6112c6565b60405161056b91906123b3565b60405180910390f35b600063deadbeef60e01b827bffffffffffffffffffffffffffffffffffffffffffffffffffffffff191614806105af57506105ae8261135a565b5b9050919050565b6060600080546105c590612904565b80601f01602080910402602001604051908101604052809291908181526020018280546105f190612904565b801561063e5780601f106106135761010080835404028352916020019161063e565b820191906000526020600020905b81548152906001019060200180831161062157829003601f168201915b5050505050905090565b60006106538261143c565b610692576040517f08c379a000000000000000000000000000000000000000000000000000000000815260040161068990612550565b60405180910390fd5b6004600083815260200190815260200160002060009054906101000a900473ffffffffffffffffffffffffffffffffffffffff169050919050565b60006106d882610b95565b90508073ffffffffffffffffffffffffffffffffffffffff168373ffffffffffffffffffffffffffffffffffffffff161415610749576040517f08c379a0000000000000000000000000000000000000000000000000000000008152600401610740906125b0565b60405180910390fd5b8073ffffffffffffffffffffffffffffffffffffffff166107686114a8565b73ffffffffffffffffffffffffffffffffffffffff1614806107975750610796816107916114a8565b6112c6565b5b6107d6576040517f08c379a00000000000000000000000000000000000000000000000000000000081526004016107cd906124b0565b60405180910390fd5b6107e083836114b0565b505050565b6040517f08c379a000000000000000000000000000000000000000000000000000000000815260040161081790612450565b60405180910390fd5b3073ffffffffffffffffffffffffffffffffffffffff16600960009054906101000a900473ffffffffffffffffffffffffffffffffffffffff1673ffffffffffffffffffffffffffffffffffffffff1663081812fc836040518263ffffffff1660e01b81526004016108929190612670565b60206040518083038186803b1580156108aa57600080fd5b505afa1580156108be573d6000803e3d6000fd5b505050506040513d601f19601f820116820180604052508101906108e29190611d61565b73ffffffffffffffffffffffffffffffffffffffff1614610938576040517f08c379a000000000000000000000000000000000000000000000000000000000815260040161092f906125f0565b60405180910390fd5b6000600960009054906101000a900473ffffffffffffffffffffffffffffffffffffffff1673ffffffffffffffffffffffffffffffffffffffff16636352211e836040518263ffffffff1660e01b81526004016109959190612670565b60206040518083038186803b1580156109ad57600080fd5b505afa1580156109c1573d6000803e3d6000fd5b505050506040513d601f19601f820116820180604052508101906109e59190611d61565b9050600960009054906101000a900473ffffffffffffffffffffffffffffffffffffffff1673ffffffffffffffffffffffffffffffffffffffff166323b872dd8230856040518463ffffffff1660e01b8152600401610a469392919061237c565b600060405180830381600087803b158015610a6057600080fd5b505af1158015610a74573d6000803e3d6000fd5b50505050610a828183611569565b5050565b6040517f08c379a0000000000000000000000000000000000000000000000000000000008152600401610ab890612450565b60405180910390fd5b60076020528060005260406000206000915090505481565b610ae282610b95565b73ffffffffffffffffffffffffffffffffffffffff163373ffffffffffffffffffffffffffffffffffffffff1614610b4f576040517f08c379a0000000000000000000000000000000000000000000000000000000008152600401610b46906125d0565b60405180910390fd5b8060076000848152602001908152602001600020819055505050565b6000600960009054906101000a900473ffffffffffffffffffffffffffffffffffffffff16905090565b6000806002600084815260200190815260200160002060009054906101000a900473ffffffffffffffffffffffffffffffffffffffff169050600073ffffffffffffffffffffffffffffffffffffffff168173ffffffffffffffffffffffffffffffffffffffff161415610c3e576040517f08c379a0000000000000000000000000000000000000000000000000000000008152600401610c35906124f0565b60405180910390fd5b80915050919050565b60008073ffffffffffffffffffffffffffffffffffffffff168273ffffffffffffffffffffffffffffffffffffffff161415610cb8576040517f08c379a0000000000000000000000000000000000000000000000000000000008152600401610caf906124d0565b60405180910390fd5b600360008373ffffffffffffffffffffffffffffffffffffffff1673ffffffffffffffffffffffffffffffffffffffff168152602001908152602001600020549050919050565b6000600860008381526020019081526020016000205411610d55576040517f08c379a0000000000000000000000000000000000000000000000000000000008152600401610d4c90612430565b60405180910390fd5b60086000828152602001908152602001600020546002610d7591906127c0565b341015610db7576040517f08c379a0000000000000000000000000000000000000000000000000000000008152600401610dae90612650565b60405180910390fd5b610dc2338234611737565b50565b60008073ffffffffffffffffffffffffffffffffffffffff16610de783610b95565b73ffffffffffffffffffffffffffffffffffffffff161415610e3e576040517f08c379a0000000000000000000000000000000000000000000000000000000008152600401610e3590612610565b60405180910390fd5b60086000838152602001908152602001600020549050919050565b606060018054610e6890612904565b80601f0160208091040260200160405190810160405280929190818152602001828054610e9490612904565b8015610ee15780601f10610eb657610100808354040283529160200191610ee1565b820191906000526020600020905b815481529060010190602001808311610ec457829003601f168201915b5050505050905090565b610ef36114a8565b73ffffffffffffffffffffffffffffffffffffffff168273ffffffffffffffffffffffffffffffffffffffff161415610f61576040517f08c379a0000000000000000000000000000000000000000000000000000000008152600401610f5890612490565b60405180910390fd5b8060056000610f6e6114a8565b73ffffffffffffffffffffffffffffffffffffffff1673ffffffffffffffffffffffffffffffffffffffff16815260200190815260200160002060008473ffffffffffffffffffffffffffffffffffffffff1673ffffffffffffffffffffffffffffffffffffffff16815260200190815260200160002060006101000a81548160ff0219169083151502179055508173ffffffffffffffffffffffffffffffffffffffff1661101b6114a8565b73ffffffffffffffffffffffffffffffffffffffff167f17307eab39ab6107e8899845ad3d59bd9653f200f220920489ca2b5937696c318360405161106091906123b3565b60405180910390a35050565b6040517f08c379a000000000000000000000000000000000000000000000000000000000815260040161109e90612450565b60405180910390fd5b6060600960009054906101000a900473ffffffffffffffffffffffffffffffffffffffff1673ffffffffffffffffffffffffffffffffffffffff1663c87b56dd836040518263ffffffff1660e01b81526004016111049190612670565b60006040518083038186803b15801561111c57600080fd5b505afa158015611130573d6000803e3d6000fd5b505050506040513d6000823e3d601f19601f820116820180604052508101906111599190611f51565b9050919050565b60006007600083815260200190815260200160002054116111b6576040517f08c379a00000000000000000000000000000000000000000000000000000000081526004016111ad90612570565b60405180910390fd5b600760008281526020019081526020016000205434101561120c576040517f08c379a000000000000000000000000000000000000000000000000000000000815260040161120390612510565b60405180910390fd5b611217338234611737565b50565b60086020528060005260406000206000915090505481565b60008073ffffffffffffffffffffffffffffffffffffffff1661125483610b95565b73ffffffffffffffffffffffffffffffffffffffff1614156112ab576040517f08c379a00000000000000000000000000000000000000000000000000000000081526004016112a290612610565b60405180910390fd5b60076000838152602001908152602001600020549050919050565b6000600560008473ffffffffffffffffffffffffffffffffffffffff1673ffffffffffffffffffffffffffffffffffffffff16815260200190815260200160002060008373ffffffffffffffffffffffffffffffffffffffff1673ffffffffffffffffffffffffffffffffffffffff16815260200190815260200160002060009054906101000a900460ff16905092915050565b60007f80ac58cd000000000000000000000000000000000000000000000000000000007bffffffffffffffffffffffffffffffffffffffffffffffffffffffff1916827bffffffffffffffffffffffffffffffffffffffffffffffffffffffff1916148061142557507f5b5e139f000000000000000000000000000000000000000000000000000000007bffffffffffffffffffffffffffffffffffffffffffffffffffffffff1916827bffffffffffffffffffffffffffffffffffffffffffffffffffffffff1916145b80611435575061143482611920565b5b9050919050565b60008073ffffffffffffffffffffffffffffffffffffffff166002600084815260200190815260200160002060009054906101000a900473ffffffffffffffffffffffffffffffffffffffff1673ffffffffffffffffffffffffffffffffffffffff1614159050919050565b600033905090565b816004600083815260200190815260200160002060006101000a81548173ffffffffffffffffffffffffffffffffffffffff021916908373ffffffffffffffffffffffffffffffffffffffff160217905550808273ffffffffffffffffffffffffffffffffffffffff1661152383610b95565b73ffffffffffffffffffffffffffffffffffffffff167f8c5be1e5ebec7d5bd14f71427d1e84f3dd0314c0f7b2291e5b200ac8c7c3b92560405160405180910390a45050565b600073ffffffffffffffffffffffffffffffffffffffff168273ffffffffffffffffffffffffffffffffffffffff1614156115d9576040517f08c379a00000000000000000000000000000000000000000000000000000000081526004016115d090612530565b60405180910390fd5b6115e28161143c565b15611622576040517f08c379a000000000000000000000000000000000000000000000000000000000815260040161161990612410565b60405180910390fd5b61162e6000838361198a565b6001600360008473ffffffffffffffffffffffffffffffffffffffff1673ffffffffffffffffffffffffffffffffffffffff168152602001908152602001600020600082825461167e9190612739565b92505081905550816002600083815260200190815260200160002060006101000a81548173ffffffffffffffffffffffffffffffffffffffff021916908373ffffffffffffffffffffffffffffffffffffffff160217905550808273ffffffffffffffffffffffffffffffffffffffff16600073ffffffffffffffffffffffffffffffffffffffff167fddf252ad1be2c89b69c2b068fc378daa952ba7f163c4a11628f55a4df523b3ef60405160405180910390a45050565b600061174283610b95565b905061174f81858561198f565b816008600085815260200190815260200160002081905550600060076000858152602001908152602001600020819055506000600b5483611790919061278f565b905060008273ffffffffffffffffffffffffffffffffffffffff1682856117b7919061281a565b6040516117c39061234c565b60006040518083038185875af1925050503d8060008114611800576040519150601f19603f3d011682016040523d82523d6000602084013e611805565b606091505b5050905080611849576040517f08c379a0000000000000000000000000000000000000000000000000000000008152600401611840906123f0565b60405180910390fd5b6000600a60009054906101000a900473ffffffffffffffffffffffffffffffffffffffff1673ffffffffffffffffffffffffffffffffffffffff16836040516118919061234c565b60006040518083038185875af1925050503d80600081146118ce576040519150601f19603f3d011682016040523d82523d6000602084013e6118d3565b606091505b5050905080611917576040517f08c379a000000000000000000000000000000000000000000000000000000000815260040161190e90612630565b60405180910390fd5b50505050505050565b60007f01ffc9a7000000000000000000000000000000000000000000000000000000007bffffffffffffffffffffffffffffffffffffffffffffffffffffffff1916827bffffffffffffffffffffffffffffffffffffffffffffffffffffffff1916149050919050565b505050565b8273ffffffffffffffffffffffffffffffffffffffff166119af82610b95565b73ffffffffffffffffffffffffffffffffffffffff1614611a05576040517f08c379a00000000000000000000000000000000000000000000000000000000081526004016119fc90612590565b60405180910390fd5b600073ffffffffffffffffffffffffffffffffffffffff168273ffffffffffffffffffffffffffffffffffffffff161415611a75576040517f08c379a0000000000000000000000000000000000000000000000000000000008152600401611a6c90612470565b60405180910390fd5b611a8083838361198a565b611a8b6000826114b0565b6001600360008573ffffffffffffffffffffffffffffffffffffffff1673ffffffffffffffffffffffffffffffffffffffff1681526020019081526020016000206000828254611adb919061281a565b925050819055506001600360008473ffffffffffffffffffffffffffffffffffffffff1673ffffffffffffffffffffffffffffffffffffffff1681526020019081526020016000206000828254611b329190612739565b92505081905550816002600083815260200190815260200160002060006101000a81548173ffffffffffffffffffffffffffffffffffffffff021916908373ffffffffffffffffffffffffffffffffffffffff160217905550808273ffffffffffffffffffffffffffffffffffffffff168473ffffffffffffffffffffffffffffffffffffffff167fddf252ad1be2c89b69c2b068fc378daa952ba7f163c4a11628f55a4df523b3ef60405160405180910390a4505050565b6000611bfe611bf9846126b0565b61268b565b905082815260208101848484011115611c1a57611c19612a28565b5b611c258482856128c2565b509392505050565b6000611c40611c3b846126e1565b61268b565b905082815260208101848484011115611c5c57611c5b612a28565b5b611c678482856128d1565b509392505050565b600081359050611c7e81612f6d565b92915050565b600081519050611c9381612f6d565b92915050565b600081359050611ca881612f84565b92915050565b600081359050611cbd81612f9b565b92915050565b600082601f830112611cd857611cd7612a23565b5b8135611ce8848260208601611beb565b91505092915050565b600082601f830112611d0657611d05612a23565b5b8151611d16848260208601611c2d565b91505092915050565b600081359050611d2e81612fb2565b92915050565b600060208284031215611d4a57611d49612a32565b5b6000611d5884828501611c6f565b91505092915050565b600060208284031215611d7757611d76612a32565b5b6000611d8584828501611c84565b91505092915050565b60008060408385031215611da557611da4612a32565b5b6000611db385828601611c6f565b9250506020611dc485828601611c6f565b9150509250929050565b600080600060608486031215611de757611de6612a32565b5b6000611df586828701611c6f565b9350506020611e0686828701611c6f565b9250506040611e1786828701611d1f565b9150509250925092565b60008060008060808587031215611e3b57611e3a612a32565b5b6000611e4987828801611c6f565b9450506020611e5a87828801611c6f565b9350506040611e6b87828801611d1f565b925050606085013567ffffffffffffffff811115611e8c57611e8b612a2d565b5b611e9887828801611cc3565b91505092959194509250565b60008060408385031215611ebb57611eba612a32565b5b6000611ec985828601611c6f565b9250506020611eda85828601611c99565b9150509250929050565b60008060408385031215611efb57611efa612a32565b5b6000611f0985828601611c6f565b9250506020611f1a85828601611d1f565b9150509250929050565b600060208284031215611f3a57611f39612a32565b5b6000611f4884828501611cae565b91505092915050565b600060208284031215611f6757611f66612a32565b5b600082015167ffffffffffffffff811115611f8557611f84612a2d565b5b611f9184828501611cf1565b91505092915050565b600060208284031215611fb057611faf612a32565b5b6000611fbe84828501611d1f565b91505092915050565b60008060408385031215611fde57611fdd612a32565b5b6000611fec85828601611d1f565b9250506020611ffd85828601611d1f565b9150509250929050565b6120108161284e565b82525050565b61201f81612860565b82525050565b600061203082612712565b61203a8185612728565b935061204a8185602086016128d1565b61205381612a37565b840191505092915050565b600061206b601983612728565b915061207682612a48565b602082019050919050565b600061208e601c83612728565b915061209982612a71565b602082019050919050565b60006120b1602e83612728565b91506120bc82612a9a565b604082019050919050565b60006120d4601a83612728565b91506120df82612ae9565b602082019050919050565b60006120f7602483612728565b915061210282612b12565b604082019050919050565b600061211a601983612728565b915061212582612b61565b602082019050919050565b600061213d603883612728565b915061214882612b8a565b604082019050919050565b6000612160602a83612728565b915061216b82612bd9565b604082019050919050565b6000612183602983612728565b915061218e82612c28565b604082019050919050565b60006121a6602e83612728565b91506121b182612c77565b604082019050919050565b60006121c9602083612728565b91506121d482612cc6565b602082019050919050565b60006121ec602c83612728565b91506121f782612cef565b604082019050919050565b600061220f601383612728565b915061221a82612d3e565b602082019050919050565b6000612232602983612728565b915061223d82612d67565b604082019050919050565b6000612255602183612728565b915061226082612db6565b604082019050919050565b600061227860008361271d565b915061228382612e05565b600082019050919050565b600061229b602983612728565b91506122a682612e08565b604082019050919050565b60006122be603d83612728565b91506122c982612e57565b604082019050919050565b60006122e1603783612728565b91506122ec82612ea6565b604082019050919050565b6000612304601d83612728565b915061230f82612ef5565b602082019050919050565b6000612327603983612728565b915061233282612f1e565b604082019050919050565b612346816128b8565b82525050565b60006123578261226b565b9150819050919050565b60006020820190506123766000830184612007565b92915050565b60006060820190506123916000830186612007565b61239e6020830185612007565b6123ab604083018461233d565b949350505050565b60006020820190506123c86000830184612016565b92915050565b600060208201905081810360008301526123e88184612025565b905092915050565b600060208201905081810360008301526124098161205e565b9050919050565b6000602082019050818103600083015261242981612081565b9050919050565b60006020820190508181036000830152612449816120a4565b9050919050565b60006020820190508181036000830152612469816120c7565b9050919050565b60006020820190508181036000830152612489816120ea565b9050919050565b600060208201905081810360008301526124a98161210d565b9050919050565b600060208201905081810360008301526124c981612130565b9050919050565b600060208201905081810360008301526124e981612153565b9050919050565b6000602082019050818103600083015261250981612176565b9050919050565b6000602082019050818103600083015261252981612199565b9050919050565b60006020820190508181036000830152612549816121bc565b9050919050565b60006020820190508181036000830152612569816121df565b9050919050565b6000602082019050818103600083015261258981612202565b9050919050565b600060208201905081810360008301526125a981612225565b9050919050565b600060208201905081810360008301526125c981612248565b9050919050565b600060208201905081810360008301526125e98161228e565b9050919050565b60006020820190508181036000830152612609816122b1565b9050919050565b60006020820190508181036000830152612629816122d4565b9050919050565b60006020820190508181036000830152612649816122f7565b9050919050565b600060208201905081810360008301526126698161231a565b9050919050565b6000602082019050612685600083018461233d565b92915050565b60006126956126a6565b90506126a18282612936565b919050565b6000604051905090565b600067ffffffffffffffff8211156126cb576126ca6129f4565b5b6126d482612a37565b9050602081019050919050565b600067ffffffffffffffff8211156126fc576126fb6129f4565b5b61270582612a37565b9050602081019050919050565b600081519050919050565b600081905092915050565b600082825260208201905092915050565b6000612744826128b8565b915061274f836128b8565b9250827fffffffffffffffffffffffffffffffffffffffffffffffffffffffffffffffff0382111561278457612783612967565b5b828201905092915050565b600061279a826128b8565b91506127a5836128b8565b9250826127b5576127b4612996565b5b828204905092915050565b60006127cb826128b8565b91506127d6836128b8565b9250817fffffffffffffffffffffffffffffffffffffffffffffffffffffffffffffffff048311821515161561280f5761280e612967565b5b828202905092915050565b6000612825826128b8565b9150612830836128b8565b92508282101561284357612842612967565b5b828203905092915050565b600061285982612898565b9050919050565b60008115159050919050565b60007fffffffff0000000000000000000000000000000000000000000000000000000082169050919050565b600073ffffffffffffffffffffffffffffffffffffffff82169050919050565b6000819050919050565b82818337600083830152505050565b60005b838110156128ef5780820151818401526020810190506128d4565b838111156128fe576000848401525b50505050565b6000600282049050600182168061291c57607f821691505b602082108114156129305761292f6129c5565b5b50919050565b61293f82612a37565b810181811067ffffffffffffffff8211171561295e5761295d6129f4565b5b80604052505050565b7f4e487b7100000000000000000000000000000000000000000000000000000000600052601160045260246000fd5b7f4e487b7100000000000000000000000000000000000000000000000000000000600052601260045260246000fd5b7f4e487b7100000000000000000000000000000000000000000000000000000000600052602260045260246000fd5b7f4e487b7100000000000000000000000000000000000000000000000000000000600052604160045260246000fd5b600080fd5b600080fd5b600080fd5b600080fd5b6000601f19601f8301169050919050565b7f5472616e7366657220746f206f776e6572206661696c65642e00000000000000600082015250565b7f4552433732313a20746f6b656e20616c7265616479206d696e74656400000000600082015250565b7f4e465420776173206e6f7420796574207075726368617365642077697468696e60008201527f20446f75626c6554726f75626c65000000000000000000000000000000000000602082015250565b7f506c656173652075736520627579206f7220666f726365427579000000000000600082015250565b7f4552433732313a207472616e7366657220746f20746865207a65726f2061646460008201527f7265737300000000000000000000000000000000000000000000000000000000602082015250565b7f4552433732313a20617070726f766520746f2063616c6c657200000000000000600082015250565b7f4552433732313a20617070726f76652063616c6c6572206973206e6f74206f7760008201527f6e6572206e6f7220617070726f76656420666f7220616c6c0000000000000000602082015250565b7f4552433732313a2062616c616e636520717565727920666f7220746865207a6560008201527f726f206164647265737300000000000000000000000000000000000000000000602082015250565b7f4552433732313a206f776e657220717565727920666f72206e6f6e657869737460008201527f656e7420746f6b656e0000000000000000000000000000000000000000000000602082015250565b7f56616c75652073656e74206d757374206265206174206c65617374207468652060008201527f666f722073616c65207072696365000000000000000000000000000000000000602082015250565b7f4552433732313a206d696e7420746f20746865207a65726f2061646472657373600082015250565b7f4552433732313a20617070726f76656420717565727920666f72206e6f6e657860008201527f697374656e7420746f6b656e0000000000000000000000000000000000000000602082015250565b7f4e4654206973206e6f7420666f722073616c6500000000000000000000000000600082015250565b7f4552433732313a207472616e73666572206f6620746f6b656e2074686174206960008201527f73206e6f74206f776e0000000000000000000000000000000000000000000000602082015250565b7f4552433732313a20617070726f76616c20746f2063757272656e74206f776e6560008201527f7200000000000000000000000000000000000000000000000000000000000000602082015250565b50565b7f6d73672e73656e6465722073686f756c642062652063757272656e74206f776e60008201527f6572206f66204e46540000000000000000000000000000000000000000000000602082015250565b7f446f75626c6554726f75626c6520636f6e7472616374206d757374206265206160008201527f7070726f76656420746f206f706572617465207468697320746f6b656e000000602082015250565b7f636f6c6c656374696f6e20616e6420746f6b656e496420636f6d62696e61746960008201527f6f6e206973206e6f742070726573656e7420696e204454000000000000000000602082015250565b7f5472616e7366657220746f2044542077616c6c6574206661696c65642e000000600082015250565b7f56616c75652073656e74206d757374206265206174206c65617374207477696360008201527f6520746865206c61737420707572636861736520707269636500000000000000602082015250565b612f768161284e565b8114612f8157600080fd5b50565b612f8d81612860565b8114612f9857600080fd5b50565b612fa48161286c565b8114612faf57600080fd5b50565b612fbb816128b8565b8114612fc657600080fd5b5056fea26469706673582212201e57f532816f71044567c117a8b03ac700e04796ddfea8e84fca39bdcab9823e64736f6c63430008070033a26469706673582212207794b9aea0ac3f4cdd974cb3ed446a352a0e5cbed09c071937c3b791b721a9b564736f6c63430008070033",
  "immutableReferences": {},
  "source": "pragma solidity ^0.8.0;\n\nimport \"@openzeppelin/contracts/token/ERC721/extensions/IERC721Metadata.sol\";\nimport \"./DoubleTrouble.sol\";\n\n// SPDX-License-Identifier: MIT\ncontract DoubleTroubleOrchestrator {\n  mapping (address => DoubleTrouble) public _troublesomeCollections;\n\n  function makeTroublesomeCollection(address nftCollection, string memory name, string memory symbol) external {\n    _ensureSupportedNftContract(nftCollection);\n    require(address(_troublesomeCollections[nftCollection]) == address(0), \"Collection is already Troublesome\");\n\n    // Deploy troublesome contract for nftCollection\n    _troublesomeCollections[nftCollection] = new DoubleTrouble(name, symbol, nftCollection);\n  }\n\n  function troublesomeCollection(address nftCollection) external view returns (DoubleTrouble) {\n    _ensureSupportedNftContract(nftCollection);\n    return _troublesomeCollections[nftCollection];\n  }\n\n  function _ensureSupportedNftContract(address nftCollection) internal view {\n    require(IERC721Metadata(nftCollection).supportsInterface(0x80ac58cd),  \"collection must refer to an ERC721 address\");\n  }\n}\n",
  "sourcePath": "/Users/gabrielguimaraes/crypto/double_trouble/contracts/DoubleTroubleOrchestrator.sol",
  "compiler": {
    "name": "solc",
    "version": "0.8.7+commit.e28d00a7.Emscripten.clang"
  },
  "schemaVersion": "3.4.2",
  "updatedAt": "2021-09-01T21:18:17.782Z",
  "networkType": "ethereum",
  "devdoc": {
    "kind": "dev",
    "methods": {},
    "version": 1
  },
  "userdoc": {
    "kind": "user",
    "methods": {},
    "version": 1
  }
}