{
  "contractName": "DoubleTrouble",
  "abi": [
    {
      "inputs": [
        {
          "internalType": "string",
          "name": "name",
          "type": "string"
        },
        {
          "internalType": "string",
          "name": "symbol",
          "type": "string"
        },
        {
          "internalType": "address",
          "name": "nftCollection",
          "type": "address"
        },
        {
          "internalType": "address",
          "name": "feeWallet",
          "type": "address"
        },
        {
          "internalType": "address",
          "name": "dto",
          "type": "address"
        },
        {
          "internalType": "uint256",
          "name": "daysForWithdraw",
          "type": "uint256"
        },
        {
          "internalType": "uint256",
          "name": "dtNumerator",
          "type": "uint256"
        },
        {
          "internalType": "uint256",
          "name": "dtDenominator",
          "type": "uint256"
        },
        {
          "internalType": "uint256",
          "name": "feeRate",
          "type": "uint256"
        }
      ],
      "stateMutability": "nonpayable",
      "type": "constructor"
    },
    {
      "anonymous": false,
      "inputs": [
        {
          "indexed": true,
          "internalType": "address",
          "name": "owner",
          "type": "address"
        },
        {
          "indexed": true,
          "internalType": "address",
          "name": "approved",
          "type": "address"
        },
        {
          "indexed": true,
          "internalType": "uint256",
          "name": "tokenId",
          "type": "uint256"
        }
      ],
      "name": "Approval",
      "type": "event"
    },
    {
      "anonymous": false,
      "inputs": [
        {
          "indexed": true,
          "internalType": "address",
          "name": "owner",
          "type": "address"
        },
        {
          "indexed": true,
          "internalType": "address",
          "name": "operator",
          "type": "address"
        },
        {
          "indexed": false,
          "internalType": "bool",
          "name": "approved",
          "type": "bool"
        }
      ],
      "name": "ApprovalForAll",
      "type": "event"
    },
    {
      "anonymous": false,
      "inputs": [
        {
          "indexed": false,
          "internalType": "address",
          "name": "oldOwner",
          "type": "address"
        },
        {
          "indexed": false,
          "internalType": "address",
          "name": "newOwner",
          "type": "address"
        },
        {
          "indexed": false,
          "internalType": "uint256",
          "name": "tokenId",
          "type": "uint256"
        },
        {
          "indexed": false,
          "internalType": "uint256",
          "name": "valueSent",
          "type": "uint256"
        },
        {
          "indexed": false,
          "internalType": "uint256",
          "name": "amountPaid",
          "type": "uint256"
        }
      ],
      "name": "Buy",
      "type": "event"
    },
    {
      "anonymous": false,
      "inputs": [
        {
          "indexed": false,
          "internalType": "address",
          "name": "oldOwner",
          "type": "address"
        },
        {
          "indexed": false,
          "internalType": "address",
          "name": "newOwner",
          "type": "address"
        },
        {
          "indexed": false,
          "internalType": "uint256",
          "name": "tokenId",
          "type": "uint256"
        },
        {
          "indexed": false,
          "internalType": "uint256",
          "name": "valueSent",
          "type": "uint256"
        },
        {
          "indexed": false,
          "internalType": "uint256",
          "name": "lastPurchasePrice",
          "type": "uint256"
        },
        {
          "indexed": false,
          "internalType": "uint256",
          "name": "amountPaid",
          "type": "uint256"
        }
      ],
      "name": "ForceBuy",
      "type": "event"
    },
    {
      "anonymous": false,
      "inputs": [
        {
          "indexed": false,
          "internalType": "address",
          "name": "msgSender",
          "type": "address"
        },
        {
          "indexed": false,
          "internalType": "uint256",
          "name": "tokenId",
          "type": "uint256"
        },
        {
          "indexed": false,
          "internalType": "uint256",
          "name": "price",
          "type": "uint256"
        }
      ],
      "name": "SetPrice",
      "type": "event"
    },
    {
      "anonymous": false,
      "inputs": [
        {
          "indexed": true,
          "internalType": "address",
          "name": "from",
          "type": "address"
        },
        {
          "indexed": true,
          "internalType": "address",
          "name": "to",
          "type": "address"
        },
        {
          "indexed": true,
          "internalType": "uint256",
          "name": "tokenId",
          "type": "uint256"
        }
      ],
      "name": "Transfer",
      "type": "event"
    },
    {
      "anonymous": false,
      "inputs": [
        {
          "indexed": false,
          "internalType": "address",
          "name": "owner",
          "type": "address"
        },
        {
          "indexed": false,
          "internalType": "uint256",
          "name": "tokenId",
          "type": "uint256"
        },
        {
          "indexed": false,
          "internalType": "uint256",
          "name": "lastPurchasePrice",
          "type": "uint256"
        }
      ],
      "name": "Withdraw",
      "type": "event"
    },
    {
      "inputs": [],
      "name": "_daysForWithdraw",
      "outputs": [
        {
          "internalType": "uint256",
          "name": "",
          "type": "uint256"
        }
      ],
      "stateMutability": "view",
      "type": "function"
    },
    {
      "inputs": [],
      "name": "_dtDenominator",
      "outputs": [
        {
          "internalType": "uint256",
          "name": "",
          "type": "uint256"
        }
      ],
      "stateMutability": "view",
      "type": "function"
    },
    {
      "inputs": [],
      "name": "_dtNumerator",
      "outputs": [
        {
          "internalType": "uint256",
          "name": "",
          "type": "uint256"
        }
      ],
      "stateMutability": "view",
      "type": "function"
    },
    {
      "inputs": [],
      "name": "_feeRate",
      "outputs": [
        {
          "internalType": "uint256",
          "name": "",
          "type": "uint256"
        }
      ],
      "stateMutability": "view",
      "type": "function"
    },
    {
      "inputs": [],
      "name": "_originalCollection",
      "outputs": [
        {
          "internalType": "contract IERC721Metadata",
          "name": "",
          "type": "address"
        }
      ],
      "stateMutability": "view",
      "type": "function"
    },
    {
      "inputs": [
        {
          "internalType": "address",
          "name": "to",
          "type": "address"
        },
        {
          "internalType": "uint256",
          "name": "tokenId",
          "type": "uint256"
        }
      ],
      "name": "approve",
      "outputs": [],
      "stateMutability": "nonpayable",
      "type": "function"
    },
    {
      "inputs": [
        {
          "internalType": "address",
          "name": "owner",
          "type": "address"
        }
      ],
      "name": "balanceOf",
      "outputs": [
        {
          "internalType": "uint256",
          "name": "",
          "type": "uint256"
        }
      ],
      "stateMutability": "view",
      "type": "function"
    },
    {
      "inputs": [
        {
          "internalType": "uint256",
          "name": "tokenId",
          "type": "uint256"
        }
      ],
      "name": "getApproved",
      "outputs": [
        {
          "internalType": "address",
          "name": "",
          "type": "address"
        }
      ],
      "stateMutability": "view",
      "type": "function"
    },
    {
      "inputs": [
        {
          "internalType": "address",
          "name": "owner",
          "type": "address"
        },
        {
          "internalType": "address",
          "name": "operator",
          "type": "address"
        }
      ],
      "name": "isApprovedForAll",
      "outputs": [
        {
          "internalType": "bool",
          "name": "",
          "type": "bool"
        }
      ],
      "stateMutability": "view",
      "type": "function"
    },
    {
      "inputs": [],
      "name": "name",
      "outputs": [
        {
          "internalType": "string",
          "name": "",
          "type": "string"
        }
      ],
      "stateMutability": "view",
      "type": "function"
    },
    {
      "inputs": [
        {
          "internalType": "uint256",
          "name": "tokenId",
          "type": "uint256"
        }
      ],
      "name": "ownerOf",
      "outputs": [
        {
          "internalType": "address",
          "name": "",
          "type": "address"
        }
      ],
      "stateMutability": "view",
      "type": "function"
    },
    {
      "inputs": [
        {
          "internalType": "address",
          "name": "operator",
          "type": "address"
        },
        {
          "internalType": "bool",
          "name": "approved",
          "type": "bool"
        }
      ],
      "name": "setApprovalForAll",
      "outputs": [],
      "stateMutability": "nonpayable",
      "type": "function"
    },
    {
      "inputs": [],
      "name": "symbol",
      "outputs": [
        {
          "internalType": "string",
          "name": "",
          "type": "string"
        }
      ],
      "stateMutability": "view",
      "type": "function"
    },
    {
      "inputs": [],
      "name": "originalCollection",
      "outputs": [
        {
          "internalType": "address",
          "name": "",
          "type": "address"
        }
      ],
      "stateMutability": "view",
      "type": "function"
    },
    {
      "inputs": [
        {
          "internalType": "address",
          "name": "",
          "type": "address"
        },
        {
          "internalType": "address",
          "name": "",
          "type": "address"
        },
        {
          "internalType": "uint256",
          "name": "",
          "type": "uint256"
        }
      ],
      "name": "safeTransferFrom",
      "outputs": [],
      "stateMutability": "pure",
      "type": "function"
    },
    {
      "inputs": [
        {
          "internalType": "address",
          "name": "",
          "type": "address"
        },
        {
          "internalType": "address",
          "name": "",
          "type": "address"
        },
        {
          "internalType": "uint256",
          "name": "",
          "type": "uint256"
        },
        {
          "internalType": "bytes",
          "name": "",
          "type": "bytes"
        }
      ],
      "name": "safeTransferFrom",
      "outputs": [],
      "stateMutability": "pure",
      "type": "function"
    },
    {
      "inputs": [
        {
          "internalType": "address",
          "name": "",
          "type": "address"
        },
        {
          "internalType": "address",
          "name": "",
          "type": "address"
        },
        {
          "internalType": "uint256",
          "name": "",
          "type": "uint256"
        }
      ],
      "name": "transferFrom",
      "outputs": [],
      "stateMutability": "pure",
      "type": "function"
    },
    {
      "inputs": [
        {
          "internalType": "uint256",
          "name": "tokenId",
          "type": "uint256"
        }
      ],
      "name": "forSalePrice",
      "outputs": [
        {
          "internalType": "uint256",
          "name": "",
          "type": "uint256"
        }
      ],
      "stateMutability": "view",
      "type": "function"
    },
    {
      "inputs": [
        {
          "internalType": "uint256",
          "name": "tokenId",
          "type": "uint256"
        }
      ],
      "name": "lastPurchasePrice",
      "outputs": [
        {
          "internalType": "uint256",
          "name": "",
          "type": "uint256"
        }
      ],
      "stateMutability": "view",
      "type": "function"
    },
    {
      "inputs": [
        {
          "internalType": "uint256",
          "name": "tokenId",
          "type": "uint256"
        }
      ],
      "name": "lastPurchaseTime",
      "outputs": [
        {
          "internalType": "uint256",
          "name": "",
          "type": "uint256"
        }
      ],
      "stateMutability": "view",
      "type": "function"
    },
    {
      "inputs": [
        {
          "internalType": "uint256",
          "name": "tokenId",
          "type": "uint256"
        }
      ],
      "name": "availableToWithdraw",
      "outputs": [
        {
          "internalType": "uint256",
          "name": "",
          "type": "uint256"
        }
      ],
      "stateMutability": "view",
      "type": "function"
    },
    {
      "inputs": [
        {
          "internalType": "uint256",
          "name": "tokenId",
          "type": "uint256"
        }
      ],
      "name": "timeToWithdraw",
      "outputs": [
        {
          "internalType": "int256",
          "name": "",
          "type": "int256"
        }
      ],
      "stateMutability": "view",
      "type": "function"
    },
    {
      "inputs": [
        {
          "internalType": "uint256",
          "name": "tokenId",
          "type": "uint256"
        }
      ],
      "name": "troublesomeTokenURI",
      "outputs": [
        {
          "internalType": "string",
          "name": "",
          "type": "string"
        }
      ],
      "stateMutability": "view",
      "type": "function"
    },
    {
      "inputs": [
        {
          "internalType": "uint256",
          "name": "tokenId",
          "type": "uint256"
        }
      ],
      "name": "tokenURI",
      "outputs": [
        {
          "internalType": "string",
          "name": "",
          "type": "string"
        }
      ],
      "stateMutability": "view",
      "type": "function"
    },
    {
      "inputs": [
        {
          "internalType": "uint256",
          "name": "tokenId",
          "type": "uint256"
        },
        {
          "internalType": "uint256",
          "name": "price",
          "type": "uint256"
        }
      ],
      "name": "setPrice",
      "outputs": [],
      "stateMutability": "nonpayable",
      "type": "function"
    },
    {
      "inputs": [
        {
          "internalType": "uint256",
          "name": "tokenId",
          "type": "uint256"
        }
      ],
      "name": "buy",
      "outputs": [],
      "stateMutability": "payable",
      "type": "function"
    },
    {
      "inputs": [
        {
          "internalType": "uint256",
          "name": "tokenId",
          "type": "uint256"
        }
      ],
      "name": "withdraw",
      "outputs": [],
      "stateMutability": "payable",
      "type": "function"
    },
    {
      "inputs": [
        {
          "internalType": "uint256",
          "name": "tokenId",
          "type": "uint256"
        }
      ],
      "name": "forceBuy",
      "outputs": [],
      "stateMutability": "payable",
      "type": "function"
    },
    {
      "inputs": [
        {
          "internalType": "bytes4",
          "name": "interfaceId",
          "type": "bytes4"
        }
      ],
      "name": "supportsInterface",
      "outputs": [
        {
          "internalType": "bool",
          "name": "",
          "type": "bool"
        }
      ],
      "stateMutability": "view",
      "type": "function"
    },
    {
      "inputs": [],
      "name": "allKnownTokens",
      "outputs": [
        {
          "components": [
            {
              "internalType": "uint256",
              "name": "tokenId",
              "type": "uint256"
            },
            {
              "internalType": "uint256",
              "name": "lastPurchasePrice",
              "type": "uint256"
            },
            {
              "internalType": "uint256",
              "name": "forSalePrice",
              "type": "uint256"
            }
          ],
          "internalType": "struct TokenInfo[]",
          "name": "",
          "type": "tuple[]"
        }
      ],
      "stateMutability": "view",
      "type": "function"
    }
  ],
  "bytecode": "0x60806040523480156200001157600080fd5b50604051620059823803806200598283398181016040528101906200003791906200039d565b888881600090805190602001906200005192919062000241565b5080600190805190602001906200006a92919062000241565b505050600073ffffffffffffffffffffffffffffffffffffffff168773ffffffffffffffffffffffffffffffffffffffff161415620000e0576040517f08c379a0000000000000000000000000000000000000000000000000000000008152600401620000d7906200052a565b60405180910390fd5b600073ffffffffffffffffffffffffffffffffffffffff168573ffffffffffffffffffffffffffffffffffffffff16141562000153576040517f08c379a00000000000000000000000000000000000000000000000000000000081526004016200014a9062000508565b60405180910390fd5b86600b60006101000a81548173ffffffffffffffffffffffffffffffffffffffff021916908373ffffffffffffffffffffffffffffffffffffffff16021790555085600c60006101000a81548173ffffffffffffffffffffffffffffffffffffffff021916908373ffffffffffffffffffffffffffffffffffffffff16021790555084600a60006101000a81548173ffffffffffffffffffffffffffffffffffffffff021916908373ffffffffffffffffffffffffffffffffffffffff16021790555083600e8190555082600f819055508160108190555080600d81905550505050505050505050620007cb565b8280546200024f9062000630565b90600052602060002090601f016020900481019282620002735760008555620002bf565b82601f106200028e57805160ff1916838001178555620002bf565b82800160010185558215620002bf579182015b82811115620002be578251825591602001919060010190620002a1565b5b509050620002ce9190620002d2565b5090565b5b80821115620002ed576000816000905550600101620002d3565b5090565b600062000308620003028462000575565b6200054c565b905082815260208101848484011115620003275762000326620006ff565b5b62000334848285620005fa565b509392505050565b6000815190506200034d8162000797565b92915050565b600082601f8301126200036b576200036a620006fa565b5b81516200037d848260208601620002f1565b91505092915050565b6000815190506200039781620007b1565b92915050565b60008060008060008060008060006101208a8c031215620003c357620003c262000709565b5b60008a015167ffffffffffffffff811115620003e457620003e362000704565b5b620003f28c828d0162000353565b99505060208a015167ffffffffffffffff81111562000416576200041562000704565b5b620004248c828d0162000353565b9850506040620004378c828d016200033c565b97505060606200044a8c828d016200033c565b96505060806200045d8c828d016200033c565b95505060a0620004708c828d0162000386565b94505060c0620004838c828d0162000386565b93505060e0620004968c828d0162000386565b925050610100620004aa8c828d0162000386565b9150509295985092959850929598565b6000620004c9601a83620005ab565b9150620004d6826200071f565b602082019050919050565b6000620004f0602183620005ab565b9150620004fd8262000748565b604082019050919050565b600060208201905081810360008301526200052381620004ba565b9050919050565b600060208201905081810360008301526200054581620004e1565b9050919050565b6000620005586200056b565b905062000566828262000666565b919050565b6000604051905090565b600067ffffffffffffffff821115620005935762000592620006cb565b5b6200059e826200070e565b9050602081019050919050565b600082825260208201905092915050565b6000620005c982620005d0565b9050919050565b600073ffffffffffffffffffffffffffffffffffffffff82169050919050565b6000819050919050565b60005b838110156200061a578082015181840152602081019050620005fd565b838111156200062a576000848401525b50505050565b600060028204905060018216806200064957607f821691505b6020821081141562000660576200065f6200069c565b5b50919050565b62000671826200070e565b810181811067ffffffffffffffff82111715620006935762000692620006cb565b5b80604052505050565b7f4e487b7100000000000000000000000000000000000000000000000000000000600052602260045260246000fd5b7f4e487b7100000000000000000000000000000000000000000000000000000000600052604160045260246000fd5b600080fd5b600080fd5b600080fd5b600080fd5b6000601f19601f8301169050919050565b7f64746f20616464726573732063616e6e6f74206265207a65726f000000000000600082015250565b7f636f6c6c656374696f6e20616464726573732063616e6e6f74206265207a657260008201527f6f00000000000000000000000000000000000000000000000000000000000000602082015250565b620007a281620005bc565b8114620007ae57600080fd5b50565b620007bc81620005f0565b8114620007c857600080fd5b50565b6151a780620007db6000396000f3fe6080604052600436106101cd5760003560e01c806380b48a7c116100f7578063b88d4fde11610095578063e7c2775a11610064578063e7c2775a146106ad578063e985e9c5146106d8578063f7d9757714610715578063fc3ed43a1461073e576101cd565b8063b88d4fde146105ee578063c87b56dd14610617578063d96a094a14610654578063e6c1735014610670576101cd565b8063a80a14e1116100d1578063a80a14e114610530578063ad2e6fe81461056d578063b2131f7d14610598578063b3dc90eb146105c3576101cd565b806380b48a7c1461049f57806395d89b41146104dc578063a22cb46514610507576101cd565b806342842e0e1161016f5780636352211e1161013e5780636352211e146103cc57806370a082311461040957806373b1dc80146104465780637bf6b0a714610462576101cd565b806342842e0e146103105780634d02fe6f146103395780634fbcaf831461037657806361dd277e146103a1576101cd565b8063081812fc116101ab578063081812fc14610265578063095ea7b3146102a257806323b872dd146102cb5780632e1a7d4d146102f4576101cd565b806301ffc9a7146101d257806306fdde031461020f57806307341d8b1461023a575b600080fd5b3480156101de57600080fd5b506101f960048036038101906101f49190613348565b61077b565b6040516102069190613cbe565b60405180910390f35b34801561021b57600080fd5b506102246107bd565b6040516102319190613d0f565b60405180910390f35b34801561024657600080fd5b5061024f61084f565b60405161025c9190613c9c565b60405180910390f35b34801561027157600080fd5b5061028c600480360381019061028791906133be565b61095c565b6040516102999190613b5f565b60405180910390f35b3480156102ae57600080fd5b506102c960048036038101906102c49190613308565b6109e1565b005b3480156102d757600080fd5b506102f260048036038101906102ed91906131f2565b610af9565b005b61030e600480360381019061030991906133be565b610b34565b005b34801561031c57600080fd5b50610337600480360381019061033291906131f2565b610e19565b005b34801561034557600080fd5b50610360600480360381019061035b91906133be565b610e54565b60405161036d9190614011565b60405180910390f35b34801561038257600080fd5b5061038b610e8c565b6040516103989190614011565b60405180910390f35b3480156103ad57600080fd5b506103b6610e92565b6040516103c39190613b5f565b60405180910390f35b3480156103d857600080fd5b506103f360048036038101906103ee91906133be565b610ebc565b6040516104009190613b5f565b60405180910390f35b34801561041557600080fd5b50610430600480360381019061042b9190613158565b610f6e565b60405161043d9190614011565b60405180910390f35b610460600480360381019061045b91906133be565b611026565b005b34801561046e57600080fd5b50610489600480360381019061048491906133be565b611165565b6040516104969190613d0f565b60405180910390f35b3480156104ab57600080fd5b506104c660048036038101906104c191906133be565b61121e565b6040516104d39190614011565b60405180910390f35b3480156104e857600080fd5b506104f161123b565b6040516104fe9190613d0f565b60405180910390f35b34801561051357600080fd5b5061052e600480360381019061052991906132c8565b6112cd565b005b34801561053c57600080fd5b50610557600480360381019061055291906133be565b61144e565b6040516105649190614011565b60405180910390f35b34801561057957600080fd5b5061058261146b565b60405161058f9190614011565b60405180910390f35b3480156105a457600080fd5b506105ad611471565b6040516105ba9190614011565b60405180910390f35b3480156105cf57600080fd5b506105d8611477565b6040516105e59190614011565b60405180910390f35b3480156105fa57600080fd5b5061061560048036038101906106109190613245565b61147d565b005b34801561062357600080fd5b5061063e600480360381019061063991906133be565b6114b8565b60405161064b9190613d0f565b60405180910390f35b61066e600480360381019061066991906133be565b6115b0565b005b34801561067c57600080fd5b50610697600480360381019061069291906133be565b61195f565b6040516106a49190614011565b60405180910390f35b3480156106b957600080fd5b506106c261197c565b6040516106cf9190613cd9565b60405180910390f35b3480156106e457600080fd5b506106ff60048036038101906106fa91906131b2565b6119a2565b60405161070c9190613cbe565b60405180910390f35b34801561072157600080fd5b5061073c60048036038101906107379190613418565b611a36565b005b34801561074a57600080fd5b50610765600480360381019061076091906133be565b611cf9565b6040516107729190613cf4565b60405180910390f35b600063deadbeef60e01b827bffffffffffffffffffffffffffffffffffffffffffffffffffffffff191614806107b657506107b582611d8d565b5b9050919050565b6060600080546107cc9061457e565b80601f01602080910402602001604051908101604052809291908181526020018280546107f89061457e565b80156108455780601f1061081a57610100808354040283529160200191610845565b820191906000526020600020905b81548152906001019060200180831161082857829003601f168201915b5050505050905090565b6060600060118054905067ffffffffffffffff81111561087257610871614717565b5b6040519080825280602002602001820160405280156108ab57816020015b610898612f7c565b8152602001906001900390816108905790505b50905060005b601180549050811015610954576000601182815481106108d4576108d36146e8565b5b906000526020600020015490506040518060600160405280828152602001600860008481526020019081526020016000205481526020016007600084815260200190815260200160002054815250838381518110610935576109346146e8565b5b602002602001018190525050808061094c906145e1565b9150506108b1565b508091505090565b600061096782611e6f565b6109a6576040517f08c379a000000000000000000000000000000000000000000000000000000000815260040161099d90613ef1565b60405180910390fd5b6004600083815260200190815260200160002060009054906101000a900473ffffffffffffffffffffffffffffffffffffffff169050919050565b60006109ec82610ebc565b90508073ffffffffffffffffffffffffffffffffffffffff168373ffffffffffffffffffffffffffffffffffffffff161415610a5d576040517f08c379a0000000000000000000000000000000000000000000000000000000008152600401610a5490613f51565b60405180910390fd5b8073ffffffffffffffffffffffffffffffffffffffff16610a7c611edb565b73ffffffffffffffffffffffffffffffffffffffff161480610aab5750610aaa81610aa5611edb565b6119a2565b5b610aea576040517f08c379a0000000000000000000000000000000000000000000000000000000008152600401610ae190613e51565b60405180910390fd5b610af48383611ee3565b505050565b6040517f08c379a0000000000000000000000000000000000000000000000000000000008152600401610b2b90613db1565b60405180910390fd5b610b3e3382611f9c565b610b7d576040517f08c379a0000000000000000000000000000000000000000000000000000000008152600401610b7490613f71565b60405180910390fd5b3073ffffffffffffffffffffffffffffffffffffffff16634d02fe6f826040518263ffffffff1660e01b8152600401610bb69190614011565b60206040518083038186803b158015610bce57600080fd5b505afa158015610be2573d6000803e3d6000fd5b505050506040513d601f19601f82011682018060405250810190610c0691906133eb565b4211610c47576040517f08c379a0000000000000000000000000000000000000000000000000000000008152600401610c3e90613f91565b60405180910390fd5b6002600d546008600084815260200190815260200160002054610c6a91906141ab565b610c74919061437e565b341015610cb6576040517f08c379a0000000000000000000000000000000000000000000000000000000008152600401610cad90613d71565b60405180910390fd5b6000600860008381526020019081526020016000205490507ff279e6a1f5e320cca91135676d9cb6e44ca8a08c0b88342bcdb1144f6511b568610cf883610ebc565b8383604051610d0993929190613c65565b60405180910390a1600b60009054906101000a900473ffffffffffffffffffffffffffffffffffffffff1673ffffffffffffffffffffffffffffffffffffffff166323b872dd30610d5985610ebc565b856040518463ffffffff1660e01b8152600401610d7893929190613b7a565b600060405180830381600087803b158015610d9257600080fd5b505af1158015610da6573d6000803e3d6000fd5b50505050610db38261207a565b600060086000848152602001908152602001600020819055506000600760008481526020019081526020016000208190555060006009600084815260200190815260200160002081905550610e15600d5482610e0f91906141ab565b346120cd565b5050565b6040517f08c379a0000000000000000000000000000000000000000000000000000000008152600401610e4b90613db1565b60405180910390fd5b600062015180600e54610e67919061437e565b6009600084815260200190815260200160002054610e85919061411e565b9050919050565b60105481565b6000600b60009054906101000a900473ffffffffffffffffffffffffffffffffffffffff16905090565b6000806002600084815260200190815260200160002060009054906101000a900473ffffffffffffffffffffffffffffffffffffffff169050600073ffffffffffffffffffffffffffffffffffffffff168173ffffffffffffffffffffffffffffffffffffffff161415610f65576040517f08c379a0000000000000000000000000000000000000000000000000000000008152600401610f5c90613e91565b60405180910390fd5b80915050919050565b60008073ffffffffffffffffffffffffffffffffffffffff168273ffffffffffffffffffffffffffffffffffffffff161415610fdf576040517f08c379a0000000000000000000000000000000000000000000000000000000008152600401610fd690613e71565b60405180910390fd5b600360008373ffffffffffffffffffffffffffffffffffffffff1673ffffffffffffffffffffffffffffffffffffffff168152602001908152602001600020549050919050565b600060086000838152602001908152602001600020541161107c576040517f08c379a000000000000000000000000000000000000000000000000000000000815260040161107390613d91565b60405180910390fd5b60006010546008600084815260200190815260200160002054600f546110a2919061437e565b6110ac91906141ab565b9050803410156110f1576040517f08c379a00000000000000000000000000000000000000000000000000000000081526004016110e890613ff1565b60405180910390fd5b6110fa826122da565b7faf414daaef55b2bddca54e50c0748e88608ef3457b0a23a678e867e6c5acd02261112483610ebc565b33843460086000888152602001908152602001600020548660405161114e96959493929190613c04565b60405180910390a1611161338383612358565b5050565b6060600b60009054906101000a900473ffffffffffffffffffffffffffffffffffffffff1673ffffffffffffffffffffffffffffffffffffffff1663c87b56dd836040518263ffffffff1660e01b81526004016111c29190614011565b60006040518083038186803b1580156111da57600080fd5b505afa1580156111ee573d6000803e3d6000fd5b505050506040513d6000823e3d601f19601f820116820180604052508101906112179190613375565b9050919050565b600060086000838152602001908152602001600020549050919050565b60606001805461124a9061457e565b80601f01602080910402602001604051908101604052809291908181526020018280546112769061457e565b80156112c35780601f10611298576101008083540402835291602001916112c3565b820191906000526020600020905b8154815290600101906020018083116112a657829003601f168201915b5050505050905090565b6112d5611edb565b73ffffffffffffffffffffffffffffffffffffffff168273ffffffffffffffffffffffffffffffffffffffff161415611343576040517f08c379a000000000000000000000000000000000000000000000000000000000815260040161133a90613df1565b60405180910390fd5b8060056000611350611edb565b73ffffffffffffffffffffffffffffffffffffffff1673ffffffffffffffffffffffffffffffffffffffff16815260200190815260200160002060008473ffffffffffffffffffffffffffffffffffffffff1673ffffffffffffffffffffffffffffffffffffffff16815260200190815260200160002060006101000a81548160ff0219169083151502179055508173ffffffffffffffffffffffffffffffffffffffff166113fd611edb565b73ffffffffffffffffffffffffffffffffffffffff167f17307eab39ab6107e8899845ad3d59bd9653f200f220920489ca2b5937696c31836040516114429190613cbe565b60405180910390a35050565b600060096000838152602001908152602001600020549050919050565b600f5481565b600d5481565b600e5481565b6040517f08c379a00000000000000000000000000000000000000000000000000000000081526004016114af90613db1565b60405180910390fd5b6060600060405180610140016040528061011c815260200161501661011c913990506000611507600b60009054906101000a900473ffffffffffffffffffffffffffffffffffffffff166124b1565b90506000611514306124b1565b9050600061152186612693565b905060008282604051602001611538929190613aee565b6040516020818303038152906040529050600061158182868661155a8a6127f4565b60405160200161156d9493929190613a57565b6040516020818303038152906040526127f4565b9050806040516020016115949190613b28565b6040516020818303038152906040529650505050505050919050565b6000600760008381526020019081526020016000205411611606576040517f08c379a00000000000000000000000000000000000000000000000000000000081526004016115fd90613f11565b60405180910390fd5b600760008281526020019081526020016000205434101561165c576040517f08c379a000000000000000000000000000000000000000000000000000000000815260040161165390613eb1565b60405180910390fd5b611665816122da565b6000600860008381526020019081526020016000205414156118e5573073ffffffffffffffffffffffffffffffffffffffff16600b60009054906101000a900473ffffffffffffffffffffffffffffffffffffffff1673ffffffffffffffffffffffffffffffffffffffff1663081812fc836040518263ffffffff1660e01b81526004016116f39190614011565b60206040518083038186803b15801561170b57600080fd5b505afa15801561171f573d6000803e3d6000fd5b505050506040513d601f19601f820116820180604052508101906117439190613185565b73ffffffffffffffffffffffffffffffffffffffff1614611799576040517f08c379a000000000000000000000000000000000000000000000000000000000815260040161179090613fb1565b60405180910390fd5b6000600b60009054906101000a900473ffffffffffffffffffffffffffffffffffffffff1673ffffffffffffffffffffffffffffffffffffffff16636352211e836040518263ffffffff1660e01b81526004016117f69190614011565b60206040518083038186803b15801561180e57600080fd5b505afa158015611822573d6000803e3d6000fd5b505050506040513d601f19601f820116820180604052508101906118469190613185565b9050600b60009054906101000a900473ffffffffffffffffffffffffffffffffffffffff1673ffffffffffffffffffffffffffffffffffffffff166323b872dd8230856040518463ffffffff1660e01b81526004016118a793929190613b7a565b600060405180830381600087803b1580156118c157600080fd5b505af11580156118d5573d6000803e3d6000fd5b505050506118e3818361298c565b505b7ef93dbdb72854b6b6fb35433086556f2635fc83c37080c667496fecfa650fb461190e82610ebc565b3383346007600087815260200190815260200160002054604051611936959493929190613bb1565b60405180910390a161195c33826007600085815260200190815260200160002054612358565b50565b600060076000838152602001908152602001600020549050919050565b600b60009054906101000a900473ffffffffffffffffffffffffffffffffffffffff1681565b6000600560008473ffffffffffffffffffffffffffffffffffffffff1673ffffffffffffffffffffffffffffffffffffffff16815260200190815260200160002060008373ffffffffffffffffffffffffffffffffffffffff1673ffffffffffffffffffffffffffffffffffffffff16815260200190815260200160002060009054906101000a900460ff16905092915050565b611a3f826122da565b600060086000848152602001908152602001600020541415611c58573373ffffffffffffffffffffffffffffffffffffffff16600b60009054906101000a900473ffffffffffffffffffffffffffffffffffffffff1673ffffffffffffffffffffffffffffffffffffffff1663081812fc846040518263ffffffff1660e01b8152600401611acd9190614011565b60206040518083038186803b158015611ae557600080fd5b505afa158015611af9573d6000803e3d6000fd5b505050506040513d601f19601f82011682018060405250810190611b1d9190613185565b73ffffffffffffffffffffffffffffffffffffffff161480611c1457503373ffffffffffffffffffffffffffffffffffffffff16600b60009054906101000a900473ffffffffffffffffffffffffffffffffffffffff1673ffffffffffffffffffffffffffffffffffffffff16636352211e846040518263ffffffff1660e01b8152600401611bac9190614011565b60206040518083038186803b158015611bc457600080fd5b505afa158015611bd8573d6000803e3d6000fd5b505050506040513d601f19601f82011682018060405250810190611bfc9190613185565b73ffffffffffffffffffffffffffffffffffffffff16145b611c53576040517f08c379a0000000000000000000000000000000000000000000000000000000008152600401611c4a90613e31565b60405180910390fd5b611ca2565b611c623383611f9c565b611ca1576040517f08c379a0000000000000000000000000000000000000000000000000000000008152600401611c9890613f71565b60405180910390fd5b5b8060076000848152602001908152602001600020819055507f5c43325359179f4471448fd5c0247053caeec2178ee6378a1a3eb4b2030d3146338383604051611ced93929190613c65565b60405180910390a15050565b6000423073ffffffffffffffffffffffffffffffffffffffff16634d02fe6f846040518263ffffffff1660e01b8152600401611d359190614011565b60206040518083038186803b158015611d4d57600080fd5b505afa158015611d61573d6000803e3d6000fd5b505050506040513d601f19601f82011682018060405250810190611d8591906133eb565b039050919050565b60007f80ac58cd000000000000000000000000000000000000000000000000000000007bffffffffffffffffffffffffffffffffffffffffffffffffffffffff1916827bffffffffffffffffffffffffffffffffffffffffffffffffffffffff19161480611e5857507f5b5e139f000000000000000000000000000000000000000000000000000000007bffffffffffffffffffffffffffffffffffffffffffffffffffffffff1916827bffffffffffffffffffffffffffffffffffffffffffffffffffffffff1916145b80611e685750611e6782612b5a565b5b9050919050565b60008073ffffffffffffffffffffffffffffffffffffffff166002600084815260200190815260200160002060009054906101000a900473ffffffffffffffffffffffffffffffffffffffff1673ffffffffffffffffffffffffffffffffffffffff1614159050919050565b600033905090565b816004600083815260200190815260200160002060006101000a81548173ffffffffffffffffffffffffffffffffffffffff021916908373ffffffffffffffffffffffffffffffffffffffff160217905550808273ffffffffffffffffffffffffffffffffffffffff16611f5683610ebc565b73ffffffffffffffffffffffffffffffffffffffff167f8c5be1e5ebec7d5bd14f71427d1e84f3dd0314c0f7b2291e5b200ac8c7c3b92560405160405180910390a45050565b6000611fa782611e6f565b611fe6576040517f08c379a0000000000000000000000000000000000000000000000000000000008152600401611fdd90613e11565b60405180910390fd5b6000611ff183610ebc565b90508073ffffffffffffffffffffffffffffffffffffffff168473ffffffffffffffffffffffffffffffffffffffff16148061206057508373ffffffffffffffffffffffffffffffffffffffff166120488461095c565b73ffffffffffffffffffffffffffffffffffffffff16145b80612071575061207081856119a2565b5b91505092915050565b61208381612bc4565b60006006600083815260200190815260200160002080546120a39061457e565b9050146120ca576006600082815260200190815260200160002060006120c99190612f9d565b5b50565b6000600a60009054906101000a900473ffffffffffffffffffffffffffffffffffffffff1673ffffffffffffffffffffffffffffffffffffffff16630e2ccc78306040518263ffffffff1660e01b815260040161212a9190613b5f565b60206040518083038186803b15801561214257600080fd5b505afa158015612156573d6000803e3d6000fd5b505050506040513d601f19601f8201168201806040525081019061217a9190613185565b905060008173ffffffffffffffffffffffffffffffffffffffff16846040516121a290613b4a565b60006040518083038185875af1925050503d80600081146121df576040519150601f19603f3d011682016040523d82523d6000602084013e6121e4565b606091505b505090506000816121f55783612202565b84846122019190614413565b5b90506000600c60009054906101000a900473ffffffffffffffffffffffffffffffffffffffff1673ffffffffffffffffffffffffffffffffffffffff168260405161224c90613b4a565b60006040518083038185875af1925050503d8060008114612289576040519150601f19603f3d011682016040523d82523d6000602084013e61228e565b606091505b50509050806122d2576040517f08c379a00000000000000000000000000000000000000000000000000000000081526004016122c990613fd1565b60405180910390fd5b505050505050565b6012600082815260200190815260200160002060009054906101000a900460ff166123555760016012600083815260200190815260200160002060006101000a81548160ff02191690831515021790555060118190806001815401808255809150506001900390600052602060002001600090919091909150555b50565b600061236383610ebc565b9050612370818585612cd5565b816008600085815260200190815260200160002081905550426009600085815260200190815260200160002081905550600060076000858152602001908152602001600020819055506000600d54836123c991906141ab565b905060008160026123da919061437e565b846123e59190614413565b905060008373ffffffffffffffffffffffffffffffffffffffff168260405161240d90613b4a565b60006040518083038185875af1925050503d806000811461244a576040519150601f19603f3d011682016040523d82523d6000602084013e61244f565b606091505b5050905080612493576040517f08c379a000000000000000000000000000000000000000000000000000000000815260040161248a90613d31565b60405180910390fd5b6124a88383346124a39190614413565b6120cd565b50505050505050565b60606000602867ffffffffffffffff8111156124d0576124cf614717565b5b6040519080825280601f01601f1916602001820160405280156125025781602001600182028036833780820191505090505b50905060005b601481101561266a5760008160136125209190614413565b600861252c919061437e565b60026125389190614260565b8573ffffffffffffffffffffffffffffffffffffffff1661255991906141ab565b60f81b9050600060108260f81c61257091906141dc565b60f81b905060008160f81c601061258791906143d8565b8360f81c6125959190614447565b60f81b90506125a382612f31565b858560026125b1919061437e565b815181106125c2576125c16146e8565b5b60200101907effffffffffffffffffffffffffffffffffffffffffffffffffffffffffffff1916908160001a9053506125fa81612f31565b85600186600261260a919061437e565b612614919061411e565b81518110612625576126246146e8565b5b60200101907effffffffffffffffffffffffffffffffffffffffffffffffffffffffffffff1916908160001a9053505050508080612662906145e1565b915050612508565b508060405160200161267c9190613acc565b604051602081830303815290604052915050919050565b606060008214156126db576040518060400160405280600181526020017f300000000000000000000000000000000000000000000000000000000000000081525090506127ef565b600082905060005b6000821461270d5780806126f6906145e1565b915050600a8261270691906141ab565b91506126e3565b60008167ffffffffffffffff81111561272957612728614717565b5b6040519080825280601f01601f19166020018201604052801561275b5781602001600182028036833780820191505090505b5090505b600085146127e8576001826127749190614413565b9150600a85612783919061462a565b603061278f919061411e565b60f81b8183815181106127a5576127a46146e8565b5b60200101907effffffffffffffffffffffffffffffffffffffffffffffffffffffffffffff1916908160001a905350600a856127e191906141ab565b945061275f565b8093505050505b919050565b6060600082519050600081141561281d5760405180602001604052806000815250915050612987565b6000600360028361282e919061411e565b61283891906141ab565b6004612844919061437e565b90506000602082612855919061411e565b67ffffffffffffffff81111561286e5761286d614717565b5b6040519080825280601f01601f1916602001820160405280156128a05781602001600182028036833780820191505090505b5090506000604051806060016040528060408152602001615132604091399050600181016020830160005b868110156129445760038101905062ffffff818a015116603f8160121c168401518060081b905060ff603f83600c1c1686015116810190508060081b905060ff603f8360061c1686015116810190508060081b905060ff603f831686015116810190508060e01b905080845260048401935050506128cb565b50600386066001811461295e576002811461296e57612979565b613d3d60f01b6002830352612979565b603d60f81b60018303525b508484525050819450505050505b919050565b600073ffffffffffffffffffffffffffffffffffffffff168273ffffffffffffffffffffffffffffffffffffffff1614156129fc576040517f08c379a00000000000000000000000000000000000000000000000000000000081526004016129f390613ed1565b60405180910390fd5b612a0581611e6f565b15612a45576040517f08c379a0000000000000000000000000000000000000000000000000000000008152600401612a3c90613d51565b60405180910390fd5b612a5160008383612f77565b6001600360008473ffffffffffffffffffffffffffffffffffffffff1673ffffffffffffffffffffffffffffffffffffffff1681526020019081526020016000206000828254612aa1919061411e565b92505081905550816002600083815260200190815260200160002060006101000a81548173ffffffffffffffffffffffffffffffffffffffff021916908373ffffffffffffffffffffffffffffffffffffffff160217905550808273ffffffffffffffffffffffffffffffffffffffff16600073ffffffffffffffffffffffffffffffffffffffff167fddf252ad1be2c89b69c2b068fc378daa952ba7f163c4a11628f55a4df523b3ef60405160405180910390a45050565b60007f01ffc9a7000000000000000000000000000000000000000000000000000000007bffffffffffffffffffffffffffffffffffffffffffffffffffffffff1916827bffffffffffffffffffffffffffffffffffffffffffffffffffffffff1916149050919050565b6000612bcf82610ebc565b9050612bdd81600084612f77565b612be8600083611ee3565b6001600360008373ffffffffffffffffffffffffffffffffffffffff1673ffffffffffffffffffffffffffffffffffffffff1681526020019081526020016000206000828254612c389190614413565b925050819055506002600083815260200190815260200160002060006101000a81549073ffffffffffffffffffffffffffffffffffffffff021916905581600073ffffffffffffffffffffffffffffffffffffffff168273ffffffffffffffffffffffffffffffffffffffff167fddf252ad1be2c89b69c2b068fc378daa952ba7f163c4a11628f55a4df523b3ef60405160405180910390a45050565b8273ffffffffffffffffffffffffffffffffffffffff16612cf582610ebc565b73ffffffffffffffffffffffffffffffffffffffff1614612d4b576040517f08c379a0000000000000000000000000000000000000000000000000000000008152600401612d4290613f31565b60405180910390fd5b600073ffffffffffffffffffffffffffffffffffffffff168273ffffffffffffffffffffffffffffffffffffffff161415612dbb576040517f08c379a0000000000000000000000000000000000000000000000000000000008152600401612db290613dd1565b60405180910390fd5b612dc6838383612f77565b612dd1600082611ee3565b6001600360008573ffffffffffffffffffffffffffffffffffffffff1673ffffffffffffffffffffffffffffffffffffffff1681526020019081526020016000206000828254612e219190614413565b925050819055506001600360008473ffffffffffffffffffffffffffffffffffffffff1673ffffffffffffffffffffffffffffffffffffffff1681526020019081526020016000206000828254612e78919061411e565b92505081905550816002600083815260200190815260200160002060006101000a81548173ffffffffffffffffffffffffffffffffffffffff021916908373ffffffffffffffffffffffffffffffffffffffff160217905550808273ffffffffffffffffffffffffffffffffffffffff168473ffffffffffffffffffffffffffffffffffffffff167fddf252ad1be2c89b69c2b068fc378daa952ba7f163c4a11628f55a4df523b3ef60405160405180910390a4505050565b6000600a8260f81c60ff161015612f5c5760308260f81c612f529190614174565b60f81b9050612f72565b60578260f81c612f6c9190614174565b60f81b90505b919050565b505050565b60405180606001604052806000815260200160008152602001600081525090565b508054612fa99061457e565b6000825580601f10612fbb5750612fda565b601f016020900490600052602060002090810190612fd99190612fdd565b5b50565b5b80821115612ff6576000816000905550600101612fde565b5090565b600061300d61300884614051565b61402c565b9050828152602081018484840111156130295761302861474b565b5b61303484828561453c565b509392505050565b600061304f61304a84614082565b61402c565b90508281526020810184848401111561306b5761306a61474b565b5b61307684828561454b565b509392505050565b60008135905061308d81614fb9565b92915050565b6000815190506130a281614fb9565b92915050565b6000813590506130b781614fd0565b92915050565b6000813590506130cc81614fe7565b92915050565b600082601f8301126130e7576130e6614746565b5b81356130f7848260208601612ffa565b91505092915050565b600082601f83011261311557613114614746565b5b815161312584826020860161303c565b91505092915050565b60008135905061313d81614ffe565b92915050565b60008151905061315281614ffe565b92915050565b60006020828403121561316e5761316d614755565b5b600061317c8482850161307e565b91505092915050565b60006020828403121561319b5761319a614755565b5b60006131a984828501613093565b91505092915050565b600080604083850312156131c9576131c8614755565b5b60006131d78582860161307e565b92505060206131e88582860161307e565b9150509250929050565b60008060006060848603121561320b5761320a614755565b5b60006132198682870161307e565b935050602061322a8682870161307e565b925050604061323b8682870161312e565b9150509250925092565b6000806000806080858703121561325f5761325e614755565b5b600061326d8782880161307e565b945050602061327e8782880161307e565b935050604061328f8782880161312e565b925050606085013567ffffffffffffffff8111156132b0576132af614750565b5b6132bc878288016130d2565b91505092959194509250565b600080604083850312156132df576132de614755565b5b60006132ed8582860161307e565b92505060206132fe858286016130a8565b9150509250929050565b6000806040838503121561331f5761331e614755565b5b600061332d8582860161307e565b925050602061333e8582860161312e565b9150509250929050565b60006020828403121561335e5761335d614755565b5b600061336c848285016130bd565b91505092915050565b60006020828403121561338b5761338a614755565b5b600082015167ffffffffffffffff8111156133a9576133a8614750565b5b6133b584828501613100565b91505092915050565b6000602082840312156133d4576133d3614755565b5b60006133e28482850161312e565b91505092915050565b60006020828403121561340157613400614755565b5b600061340f84828501613143565b91505092915050565b6000806040838503121561342f5761342e614755565b5b600061343d8582860161312e565b925050602061344e8582860161312e565b9150509250929050565b600061346483836139f7565b60608301905092915050565b6134798161447b565b82525050565b600061348a826140c3565b61349481856140e6565b935061349f836140b3565b8060005b838110156134d05781516134b78882613458565b97506134c2836140d9565b9250506001810190506134a3565b5085935050505092915050565b6134e68161448d565b82525050565b6134f581614506565b82525050565b613504816144c5565b82525050565b6000613515826140ce565b61351f8185614102565b935061352f81856020860161454b565b6135388161475a565b840191505092915050565b600061354e826140ce565b6135588185614113565b935061356881856020860161454b565b80840191505092915050565b6000613581602783614113565b915061358c82614778565b602782019050919050565b60006135a4601983614102565b91506135af826147c7565b602082019050919050565b60006135c7601c83614102565b91506135d2826147f0565b602082019050919050565b60006135ea601883614102565b91506135f582614819565b602082019050919050565b600061360d600283614113565b915061361882614842565b600282019050919050565b6000613630602e83614102565b915061363b8261486b565b604082019050919050565b6000613653601a83614102565b915061365e826148ba565b602082019050919050565b6000613676602483614102565b9150613681826148e3565b604082019050919050565b6000613699601983614102565b91506136a482614932565b602082019050919050565b60006136bc602c83614102565b91506136c78261495b565b604082019050919050565b60006136df608d83614113565b91506136ea826149aa565b608d82019050919050565b6000613702603683614102565b915061370d82614a6b565b604082019050919050565b6000613725603883614102565b915061373082614aba565b604082019050919050565b6000613748602a83614102565b915061375382614b09565b604082019050919050565b600061376b602983614102565b915061377682614b58565b604082019050919050565b600061378e601d83614113565b915061379982614ba7565b601d82019050919050565b60006137b1600283614113565b91506137bc82614bd0565b600282019050919050565b60006137d4602e83614102565b91506137df82614bf9565b604082019050919050565b60006137f7602083614102565b915061380282614c48565b602082019050919050565b600061381a602c83614102565b915061382582614c71565b604082019050919050565b600061383d601383614102565b915061384882614cc0565b602082019050919050565b6000613860602683614113565b915061386b82614ce9565b602682019050919050565b6000613883602983614102565b915061388e82614d38565b604082019050919050565b60006138a6602183614102565b91506138b182614d87565b604082019050919050565b60006138c9602d83614102565b91506138d482614dd6565b604082019050919050565b60006138ec601a83614113565b91506138f782614e25565b601a82019050919050565b600061390f601d83614113565b915061391a82614e4e565b601d82019050919050565b60006139326000836140f7565b915061393d82614e77565b600082019050919050565b6000613955603583614102565b915061396082614e7a565b604082019050919050565b6000613978603d83614102565b915061398382614ec9565b604082019050919050565b600061399b601d83614102565b91506139a682614f18565b602082019050919050565b60006139be603983614102565b91506139c982614f41565b604082019050919050565b60006139e1600183614113565b91506139ec82614f90565b600182019050919050565b606082016000820151613a0d6000850182613a39565b506020820151613a206020850182613a39565b506040820151613a336040850182613a39565b50505050565b613a42816144ef565b82525050565b613a51816144ef565b82525050565b6000613a6282613574565b9150613a6e8287613543565b9150613a79826138df565b9150613a858286613543565b9150613a9082613781565b9150613a9c8285613543565b9150613aa7826136d2565b9150613ab38284613543565b9150613abe826137a4565b915081905095945050505050565b6000613ad782613600565b9150613ae38284613543565b915081905092915050565b6000613af982613853565b9150613b058285613543565b9150613b10826139d4565b9150613b1c8284613543565b91508190509392505050565b6000613b3382613902565b9150613b3f8284613543565b915081905092915050565b6000613b5582613925565b9150819050919050565b6000602082019050613b746000830184613470565b92915050565b6000606082019050613b8f6000830186613470565b613b9c6020830185613470565b613ba96040830184613a48565b949350505050565b600060a082019050613bc66000830188613470565b613bd36020830187613470565b613be06040830186613a48565b613bed6060830185613a48565b613bfa6080830184613a48565b9695505050505050565b600060c082019050613c196000830189613470565b613c266020830188613470565b613c336040830187613a48565b613c406060830186613a48565b613c4d6080830185613a48565b613c5a60a0830184613a48565b979650505050505050565b6000606082019050613c7a6000830186613470565b613c876020830185613a48565b613c946040830184613a48565b949350505050565b60006020820190508181036000830152613cb6818461347f565b905092915050565b6000602082019050613cd360008301846134dd565b92915050565b6000602082019050613cee60008301846134ec565b92915050565b6000602082019050613d0960008301846134fb565b92915050565b60006020820190508181036000830152613d29818461350a565b905092915050565b60006020820190508181036000830152613d4a81613597565b9050919050565b60006020820190508181036000830152613d6a816135ba565b9050919050565b60006020820190508181036000830152613d8a816135dd565b9050919050565b60006020820190508181036000830152613daa81613623565b9050919050565b60006020820190508181036000830152613dca81613646565b9050919050565b60006020820190508181036000830152613dea81613669565b9050919050565b60006020820190508181036000830152613e0a8161368c565b9050919050565b60006020820190508181036000830152613e2a816136af565b9050919050565b60006020820190508181036000830152613e4a816136f5565b9050919050565b60006020820190508181036000830152613e6a81613718565b9050919050565b60006020820190508181036000830152613e8a8161373b565b9050919050565b60006020820190508181036000830152613eaa8161375e565b9050919050565b60006020820190508181036000830152613eca816137c7565b9050919050565b60006020820190508181036000830152613eea816137ea565b9050919050565b60006020820190508181036000830152613f0a8161380d565b9050919050565b60006020820190508181036000830152613f2a81613830565b9050919050565b60006020820190508181036000830152613f4a81613876565b9050919050565b60006020820190508181036000830152613f6a81613899565b9050919050565b60006020820190508181036000830152613f8a816138bc565b9050919050565b60006020820190508181036000830152613faa81613948565b9050919050565b60006020820190508181036000830152613fca8161396b565b9050919050565b60006020820190508181036000830152613fea8161398e565b9050919050565b6000602082019050818103600083015261400a816139b1565b9050919050565b60006020820190506140266000830184613a48565b92915050565b6000614036614047565b905061404282826145b0565b919050565b6000604051905090565b600067ffffffffffffffff82111561406c5761406b614717565b5b6140758261475a565b9050602081019050919050565b600067ffffffffffffffff82111561409d5761409c614717565b5b6140a68261475a565b9050602081019050919050565b6000819050602082019050919050565b600081519050919050565b600081519050919050565b6000602082019050919050565b600082825260208201905092915050565b600081905092915050565b600082825260208201905092915050565b600081905092915050565b6000614129826144ef565b9150614134836144ef565b9250827fffffffffffffffffffffffffffffffffffffffffffffffffffffffffffffffff038211156141695761416861465b565b5b828201905092915050565b600061417f826144f9565b915061418a836144f9565b92508260ff038211156141a05761419f61465b565b5b828201905092915050565b60006141b6826144ef565b91506141c1836144ef565b9250826141d1576141d061468a565b5b828204905092915050565b60006141e7826144f9565b91506141f2836144f9565b9250826142025761420161468a565b5b828204905092915050565b6000808291508390505b6001851115614257578086048111156142335761423261465b565b5b60018516156142425780820291505b80810290506142508561476b565b9450614217565b94509492505050565b600061426b826144ef565b9150614276836144ef565b92506142a37fffffffffffffffffffffffffffffffffffffffffffffffffffffffffffffffff84846142ab565b905092915050565b6000826142bb5760019050614377565b816142c95760009050614377565b81600181146142df57600281146142e957614318565b6001915050614377565b60ff8411156142fb576142fa61465b565b5b8360020a9150848211156143125761431161465b565b5b50614377565b5060208310610133831016604e8410600b841016171561434d5782820a9050838111156143485761434761465b565b5b614377565b61435a848484600161420d565b925090508184048111156143715761437061465b565b5b81810290505b9392505050565b6000614389826144ef565b9150614394836144ef565b9250817fffffffffffffffffffffffffffffffffffffffffffffffffffffffffffffffff04831182151516156143cd576143cc61465b565b5b828202905092915050565b60006143e3826144f9565b91506143ee836144f9565b92508160ff04831182151516156144085761440761465b565b5b828202905092915050565b600061441e826144ef565b9150614429836144ef565b92508282101561443c5761443b61465b565b5b828203905092915050565b6000614452826144f9565b915061445d836144f9565b9250828210156144705761446f61465b565b5b828203905092915050565b6000614486826144cf565b9050919050565b60008115159050919050565b60007fffffffff0000000000000000000000000000000000000000000000000000000082169050919050565b6000819050919050565b600073ffffffffffffffffffffffffffffffffffffffff82169050919050565b6000819050919050565b600060ff82169050919050565b600061451182614518565b9050919050565b60006145238261452a565b9050919050565b6000614535826144cf565b9050919050565b82818337600083830152505050565b60005b8381101561456957808201518184015260208101905061454e565b83811115614578576000848401525b50505050565b6000600282049050600182168061459657607f821691505b602082108114156145aa576145a96146b9565b5b50919050565b6145b98261475a565b810181811067ffffffffffffffff821117156145d8576145d7614717565b5b80604052505050565b60006145ec826144ef565b91507fffffffffffffffffffffffffffffffffffffffffffffffffffffffffffffffff82141561461f5761461e61465b565b5b600182019050919050565b6000614635826144ef565b9150614640836144ef565b9250826146505761464f61468a565b5b828206905092915050565b7f4e487b7100000000000000000000000000000000000000000000000000000000600052601160045260246000fd5b7f4e487b7100000000000000000000000000000000000000000000000000000000600052601260045260246000fd5b7f4e487b7100000000000000000000000000000000000000000000000000000000600052602260045260246000fd5b7f4e487b7100000000000000000000000000000000000000000000000000000000600052603260045260246000fd5b7f4e487b7100000000000000000000000000000000000000000000000000000000600052604160045260246000fd5b600080fd5b600080fd5b600080fd5b600080fd5b6000601f19601f8301169050919050565b60008160011c9050919050565b7f7b226e616d65223a20224445414442454546222c202265787465726e616c5f6c60008201527f696e6b223a202200000000000000000000000000000000000000000000000000602082015250565b7f5472616e7366657220746f206f776e6572206661696c65642e00000000000000600082015250565b7f4552433732313a20746f6b656e20616c7265616479206d696e74656400000000600082015250565b7f4d757374207061792066656520746f2077697468647261770000000000000000600082015250565b7f3078000000000000000000000000000000000000000000000000000000000000600082015250565b7f4e465420776173206e6f7420796574207075726368617365642077697468696e60008201527f20446f75626c6554726f75626c65000000000000000000000000000000000000602082015250565b7f506c656173652075736520627579206f7220666f726365427579000000000000600082015250565b7f4552433732313a207472616e7366657220746f20746865207a65726f2061646460008201527f7265737300000000000000000000000000000000000000000000000000000000602082015250565b7f4552433732313a20617070726f766520746f2063616c6c657200000000000000600082015250565b7f4552433732313a206f70657261746f7220717565727920666f72206e6f6e657860008201527f697374656e7420746f6b656e0000000000000000000000000000000000000000602082015250565b7f222c20226465736372697074696f6e223a202254686973204e4654206973206f60008201527f6e6c7920666f722073616c6520696e20446f75626c652054726f75626c652e2060208201527f566973697420646f75626c652d74726f75626c652e696f20746f206c6561726e60408201527f206d6f72652e222c2022696d616765223a2022646174613a696d6167652f737660608201527f672b786d6c3b6261736536342c00000000000000000000000000000000000000608082015250565b7f6d73672e73656e6465722073686f756c6420626520617070726f766564206f7260008201527f206f776e6572206f66206f726967696e616c204e465400000000000000000000602082015250565b7f4552433732313a20617070726f76652063616c6c6572206973206e6f74206f7760008201527f6e6572206e6f7220617070726f76656420666f7220616c6c0000000000000000602082015250565b7f4552433732313a2062616c616e636520717565727920666f7220746865207a6560008201527f726f206164647265737300000000000000000000000000000000000000000000602082015250565b7f4552433732313a206f776e657220717565727920666f72206e6f6e657869737460008201527f656e7420746f6b656e0000000000000000000000000000000000000000000000602082015250565b7f222c202274726f75626c65736f6d65436f6c6c656374696f6e223a2022000000600082015250565b7f227d000000000000000000000000000000000000000000000000000000000000600082015250565b7f56616c75652073656e74206d757374206265206174206c65617374207468652060008201527f666f722073616c65207072696365000000000000000000000000000000000000602082015250565b7f4552433732313a206d696e7420746f20746865207a65726f2061646472657373600082015250565b7f4552433732313a20617070726f76656420717565727920666f72206e6f6e657860008201527f697374656e7420746f6b656e0000000000000000000000000000000000000000602082015250565b7f4e4654206973206e6f7420666f722073616c6500000000000000000000000000600082015250565b7f68747470733a2f2f646f75626c652d74726f75626c652e696f2f636f6c6c656360008201527f74696f6e732f0000000000000000000000000000000000000000000000000000602082015250565b7f4552433732313a207472616e73666572206f6620746f6b656e2074686174206960008201527f73206e6f74206f776e0000000000000000000000000000000000000000000000602082015250565b7f4552433732313a20617070726f76616c20746f2063757272656e74206f776e6560008201527f7200000000000000000000000000000000000000000000000000000000000000602082015250565b7f6d73672e73656e6465722073686f756c6420626520617070726f766564206f7260008201527f206f776e6572206f66204e465400000000000000000000000000000000000000602082015250565b7f222c20226f726967696e616c436f6c6c656374696f6e223a2022000000000000600082015250565b7f646174613a6170706c69636174696f6e2f6a736f6e3b6261736536342c000000600082015250565b50565b7f4e4654206e6f742079657420617661696c61626c6520746f207769746864726160008201527f772066726f6d20446f75626c652054726f75626c650000000000000000000000602082015250565b7f446f75626c6554726f75626c6520636f6e7472616374206d757374206265206160008201527f7070726f76656420746f206f706572617465207468697320746f6b656e000000602082015250565b7f5472616e7366657220746f2044542077616c6c6574206661696c65642e000000600082015250565b7f56616c75652073656e74206d757374206265206174206c65617374207477696360008201527f6520746865206c61737420707572636861736520707269636500000000000000602082015250565b7f2f00000000000000000000000000000000000000000000000000000000000000600082015250565b614fc28161447b565b8114614fcd57600080fd5b50565b614fd98161448d565b8114614fe457600080fd5b50565b614ff081614499565b8114614ffb57600080fd5b50565b615007816144ef565b811461501257600080fd5b5056fe3c73766720786d6c6e733d22687474703a2f2f7777772e77332e6f72672f323030302f73766722207072657365727665417370656374526174696f3d22784d696e594d696e206d656574222076696577426f783d223020302033353020333530223e3c7374796c653e2e62617365207b2066696c6c3a2077686974653b20666f6e742d66616d696c793a2073657269663b20666f6e742d73697a653a20313670783b207d3c2f7374796c653e3c726563742077696474683d223130302522206865696768743d2231303025222066696c6c3d22626c61636b22202f3e3c7465787420783d2231302220793d2232302220636c6173733d2262617365223e596f752061726520696e2074726f75626c653c2f746578743e3c2f7376673e4142434445464748494a4b4c4d4e4f505152535455565758595a6162636465666768696a6b6c6d6e6f707172737475767778797a303132333435363738392b2fa2646970667358221220f5a9a6523ad994a92a989d76a31b8736e57a7a8efcfc531d75e137e229f1125f64736f6c63430008070033",
  "immutableReferences": {},
  "source": "pragma solidity ^0.8.0;\n\nimport \"@openzeppelin/contracts/token/ERC721/extensions/ERC721URIStorage.sol\";\nimport \"@openzeppelin/contracts/token/ERC721/extensions/IERC721Metadata.sol\";\nimport \"./Libraries.sol\";\n\ninterface PatronCollection {\n   function patronOf(address troublesomeCollectionAddr) external view returns (address);\n}\n\n// Cannot include more than these two fields because otherwise the contract size gets above the 24k limit\nstruct TokenInfo {\n   uint256 tokenId;\n   uint256 lastPurchasePrice;\n   uint256 forSalePrice;\n}\n\n// SPDX-License-Identifier: MIT\ncontract DoubleTrouble is ERC721URIStorage {\n  // nested mapping that keeps track of who owns the NFTs\n  mapping (uint256 => uint256) _forSalePrices;\n  mapping (uint256 => uint256) _lastPurchasePrices;\n  mapping (uint256 => uint256) _lastPurchaseTimes;\n  PatronCollection _dto;\n  IERC721Metadata public _originalCollection;\n  address _feeWallet;\n  uint256 public _feeRate;\n  uint256 public _daysForWithdraw;\n  uint256 public _dtNumerator;\n  uint256 public _dtDenominator;\n\n  // Implement EnumerableSet so we dont go above the 24k contract size\n  uint256[] _allKnownTokens;\n  mapping (uint256 => bool) _allKnownTokensSet;\n\n  event Buy(address oldOwner, address newOwner, uint256 tokenId, uint256 valueSent, uint256 amountPaid);\n  event ForceBuy(address oldOwner, address newOwner, uint256 tokenId, uint256 valueSent, uint256 lastPurchasePrice, uint256 amountPaid);\n  event SetPrice(address msgSender, uint256 tokenId, uint256 price);\n  event Withdraw(address owner, uint256 tokenId, uint256 lastPurchasePrice);\n\n  constructor(string memory name, string memory symbol, address nftCollection, address feeWallet, address dto,\n              uint256 daysForWithdraw, uint256 dtNumerator, uint256 dtDenominator, uint256 feeRate) ERC721(name, symbol) {\n    require(nftCollection != address(0), \"collection address cannot be zero\");\n    require(dto != address(0), \"dto address cannot be zero\");\n    _originalCollection = IERC721Metadata(nftCollection);\n    _feeWallet = feeWallet;\n    _dto = PatronCollection(dto);\n    _daysForWithdraw = daysForWithdraw;\n    _dtNumerator = dtNumerator;\n    _dtDenominator = dtDenominator;\n    _feeRate = feeRate;\n  }\n\n  function originalCollection() external view returns (address) {\n    return address(_originalCollection);\n  }\n\n  function safeTransferFrom(address, address, uint256, bytes memory) public override pure {\n    revert(\"Please use buy or forceBuy\");\n  }\n\n  function safeTransferFrom(address, address, uint256) public override pure {\n    revert(\"Please use buy or forceBuy\");\n  }\n\n  function transferFrom(address, address, uint256) public override pure {\n    revert(\"Please use buy or forceBuy\");\n  }\n\n  function forSalePrice(uint256 tokenId) external view returns (uint256) {\n    return _forSalePrices[tokenId];\n  }\n\n  function lastPurchasePrice(uint256 tokenId) external view returns (uint256) {\n    return _lastPurchasePrices[tokenId];\n  }\n\n  function lastPurchaseTime(uint256 tokenId) external view returns (uint256) {\n    return _lastPurchaseTimes[tokenId];\n  }\n\n  function availableToWithdraw(uint256 tokenId) external view returns (uint256) {\n    return _lastPurchaseTimes[tokenId] + (_daysForWithdraw * 1 days);\n  }\n\n  function timeToWithdraw(uint256 tokenId) external view returns (int256) {\n    // Allow uints to underflow per https://ethereum-blockchain-developer.com/010-solidity-basics/03-integer-overflow-underflow/\n    unchecked {\n      return int256(this.availableToWithdraw(tokenId) - block.timestamp);\n    }\n  }\n\n  function troublesomeTokenURI(uint256 tokenId) external view returns (string memory) {\n    return _originalCollection.tokenURI(tokenId);\n  }\n\n  function tokenURI(uint256 tokenId) public view virtual override returns (string memory) {\n    string memory output = '<svg xmlns=\"http://www.w3.org/2000/svg\" preserveAspectRatio=\"xMinYMin meet\" viewBox=\"0 0 350 350\"><style>.base { fill: white; font-family: serif; font-size: 16px; }</style><rect width=\"100%\" height=\"100%\" fill=\"black\" /><text x=\"10\" y=\"20\" class=\"base\">You are in trouble</text></svg>';\n\n    string memory originalAddr = Stringify.toString(address(_originalCollection));\n    string memory troublesomeAddr = Stringify.toString(address(this));\n    string memory strTokenId = Stringify.toString(tokenId);\n    string memory externalLink = string(abi.encodePacked('https://double-trouble.io/collections/', troublesomeAddr, '/', strTokenId));\n    string memory json = Base64.encode(bytes(string(abi.encodePacked('{\"name\": \"DEADBEEF\", \"external_link\": \"',\n                                                                      externalLink, '\", \"originalCollection\": \"',\n                                                                      originalAddr, '\", \"troublesomeCollection\": \"',\n                                                                      troublesomeAddr, '\", \"description\": \"This NFT is only for sale in Double Trouble. Visit double-trouble.io to learn more.\", \"image\": \"data:image/svg+xml;base64,',\n                                                                      Base64.encode(bytes(output)), '\"}'))));\n    return string(abi.encodePacked('data:application/json;base64,', json));\n  }\n\n  function setPrice(uint256 tokenId, uint256 price) external {\n    _addKnownToken(tokenId);\n\n    // Putting up for sale for the first time\n    if (_lastPurchasePrices[tokenId] == 0) {\n      require(_originalCollection.getApproved(tokenId) == msg.sender ||\n              _originalCollection.ownerOf(tokenId) == msg.sender, \"msg.sender should be approved or owner of original NFT\");\n    // All times after\n    } else {\n      require(_isApprovedOrOwner(msg.sender, tokenId), \"msg.sender should be approved or owner of NFT\");\n    }\n    _forSalePrices[tokenId] = price;\n\n    emit SetPrice(msg.sender, tokenId, price);\n  }\n\n  function buy(uint256 tokenId) payable external {\n    require(_forSalePrices[tokenId] > 0, \"NFT is not for sale\");\n    require(msg.value >= _forSalePrices[tokenId], \"Value sent must be at least the for sale price\");\n    _addKnownToken(tokenId);\n\n    // Make NFT troublesome if this is the first time it's being purchased\n    if (_lastPurchasePrices[tokenId] == 0) {\n      require(_originalCollection.getApproved(tokenId) == address(this), \"DoubleTrouble contract must be approved to operate this token\");\n\n      // In the original collection, the owner forever becomes the DoubleTrouble contract\n      address owner = _originalCollection.ownerOf(tokenId);\n      _originalCollection.transferFrom(owner, address(this), tokenId);\n\n      // Mint an NFT in the DT contract so we start recording the true owner here\n      _mint(owner, tokenId);\n    }\n\n    emit Buy(ownerOf(tokenId), msg.sender, tokenId, msg.value, _forSalePrices[tokenId]);\n    _completeBuy(msg.sender, tokenId, _forSalePrices[tokenId]);\n  }\n\n  function withdraw(uint256 tokenId) payable external {\n    require(_isApprovedOrOwner(msg.sender, tokenId), \"msg.sender should be approved or owner of NFT\");\n    require(block.timestamp > this.availableToWithdraw(tokenId), \"NFT not yet available to withdraw from Double Trouble\");\n    require(msg.value >= _lastPurchasePrices[tokenId] / _feeRate * 2, \"Must pay fee to withdraw\");\n\n    uint256 pricePaid = _lastPurchasePrices[tokenId];\n    emit Withdraw(ownerOf(tokenId), tokenId, pricePaid);\n\n    // Transfer original NFT back to owner, and burn troublesome NFT\n    _originalCollection.transferFrom(address(this), ownerOf(tokenId), tokenId);\n    _burn(tokenId);\n\n    // Reset DT state for tokenId\n    _lastPurchasePrices[tokenId] = 0;\n    _forSalePrices[tokenId] = 0;\n    _lastPurchaseTimes[tokenId] = 0;\n\n    _sendFees(pricePaid / _feeRate, msg.value);\n  }\n\n  function forceBuy(uint256 tokenId) payable external {\n    require(_lastPurchasePrices[tokenId] > 0, \"NFT was not yet purchased within DoubleTrouble\");\n    uint256 amountToPay = _dtNumerator * _lastPurchasePrices[tokenId] / _dtDenominator;\n    require(msg.value >= amountToPay, \"Value sent must be at least twice the last purchase price\");\n    _addKnownToken(tokenId);\n\n    emit ForceBuy(ownerOf(tokenId), msg.sender, tokenId, msg.value, _lastPurchasePrices[tokenId], amountToPay);\n    _completeBuy(msg.sender, tokenId, amountToPay);\n  }\n\n  function _completeBuy(address newOwner, uint256 tokenId, uint256 amountToPay) internal virtual {\n    // Change owner, set last purchase price, and remove from sale\n    address oldOwner = ownerOf(tokenId);\n    _transfer(oldOwner, newOwner, tokenId);\n    _lastPurchasePrices[tokenId] = amountToPay;\n    _lastPurchaseTimes[tokenId] = block.timestamp;\n    _forSalePrices[tokenId] = 0;\n    uint256 patronFee = amountToPay / _feeRate;\n\n    // Send ether to the old owner. Must be at the very end of the buy function to prevent reentrancy attacks\n    // https://consensys.net/diligence/blog/2019/09/stop-using-soliditys-transfer-now/\n    uint256 amountSent = amountToPay - 2 * patronFee;\n    (bool oldOwnersuccess, ) = oldOwner.call{value: amountSent}(\"\");\n    require(oldOwnersuccess, \"Transfer to owner failed.\");\n\n    _sendFees(patronFee, msg.value - amountSent);\n  }\n\n  function _sendFees(uint256 patronFee, uint256 valueLeft) internal virtual {\n    // Send fee to patron of this troublesome Collection\n    address patron = _dto.patronOf(address(this));\n    (bool patronSuccess, ) = patron.call{value: patronFee}(\"\");\n\n    // Send rest of the fee to the DT wallet\n    uint256 rest = patronSuccess ? valueLeft - patronFee : valueLeft;\n    (bool feeWalletSuccess, ) = _feeWallet.call{value: rest}(\"\");\n    require(feeWalletSuccess, \"Transfer to DT wallet failed.\");\n  }\n\n  function supportsInterface(bytes4 interfaceId) public view virtual override returns (bool) {\n    return interfaceId == 0xdeadbeef || super.supportsInterface(interfaceId);\n  }\n\n  function allKnownTokens() external view returns (TokenInfo[] memory) {\n    TokenInfo[] memory ret = new TokenInfo[](_allKnownTokens.length);\n    for (uint256 i = 0; i < _allKnownTokens.length; i++) {\n      uint256 id = _allKnownTokens[i];\n      ret[i] = TokenInfo(id, _lastPurchasePrices[id], _forSalePrices[id]);\n    }\n    return ret;\n  }\n\n  function _addKnownToken(uint256 tokenId) internal {\n    if (!_allKnownTokensSet[tokenId]) {\n      _allKnownTokensSet[tokenId] = true;\n      _allKnownTokens.push(tokenId);\n    }\n  }\n}\n",
  "sourcePath": "/Users/gabrielguimaraes/crypto/double_trouble/blockchain-backend/contracts/DoubleTrouble.sol",
  "compiler": {
    "name": "solc",
    "version": "0.8.7+commit.e28d00a7.Emscripten.clang"
  },
  "schemaVersion": "3.4.2",
  "updatedAt": "2021-09-11T15:46:44.444Z",
  "devdoc": {
    "kind": "dev",
    "methods": {
      "approve(address,uint256)": {
        "details": "See {IERC721-approve}."
      },
      "balanceOf(address)": {
        "details": "See {IERC721-balanceOf}."
      },
      "getApproved(uint256)": {
        "details": "See {IERC721-getApproved}."
      },
      "isApprovedForAll(address,address)": {
        "details": "See {IERC721-isApprovedForAll}."
      },
      "name()": {
        "details": "See {IERC721Metadata-name}."
      },
      "ownerOf(uint256)": {
        "details": "See {IERC721-ownerOf}."
      },
      "setApprovalForAll(address,bool)": {
        "details": "See {IERC721-setApprovalForAll}."
      },
      "supportsInterface(bytes4)": {
        "details": "See {IERC165-supportsInterface}."
      },
      "symbol()": {
        "details": "See {IERC721Metadata-symbol}."
      },
      "tokenURI(uint256)": {
        "details": "See {IERC721Metadata-tokenURI}."
      }
    },
    "version": 1
  },
  "userdoc": {
    "kind": "user",
    "methods": {},
    "version": 1
  }
}