{
  "contractName": "DoubleTrouble",
  "abi": [
    {
      "inputs": [
        {
          "internalType": "string",
          "name": "name",
          "type": "string"
        },
        {
          "internalType": "string",
          "name": "symbol",
          "type": "string"
        },
        {
          "internalType": "address",
          "name": "nftCollection",
          "type": "address"
        },
        {
          "internalType": "address",
          "name": "feeWallet",
          "type": "address"
        },
        {
          "internalType": "address",
          "name": "dto",
          "type": "address"
        }
      ],
      "stateMutability": "nonpayable",
      "type": "constructor"
    },
    {
      "anonymous": false,
      "inputs": [
        {
          "indexed": true,
          "internalType": "address",
          "name": "owner",
          "type": "address"
        },
        {
          "indexed": true,
          "internalType": "address",
          "name": "approved",
          "type": "address"
        },
        {
          "indexed": true,
          "internalType": "uint256",
          "name": "tokenId",
          "type": "uint256"
        }
      ],
      "name": "Approval",
      "type": "event"
    },
    {
      "anonymous": false,
      "inputs": [
        {
          "indexed": true,
          "internalType": "address",
          "name": "owner",
          "type": "address"
        },
        {
          "indexed": true,
          "internalType": "address",
          "name": "operator",
          "type": "address"
        },
        {
          "indexed": false,
          "internalType": "bool",
          "name": "approved",
          "type": "bool"
        }
      ],
      "name": "ApprovalForAll",
      "type": "event"
    },
    {
      "anonymous": false,
      "inputs": [
        {
          "indexed": true,
          "internalType": "address",
          "name": "from",
          "type": "address"
        },
        {
          "indexed": true,
          "internalType": "address",
          "name": "to",
          "type": "address"
        },
        {
          "indexed": true,
          "internalType": "uint256",
          "name": "tokenId",
          "type": "uint256"
        }
      ],
      "name": "Transfer",
      "type": "event"
    },
    {
      "inputs": [
        {
          "internalType": "uint256",
          "name": "",
          "type": "uint256"
        }
      ],
      "name": "_forSalePrices",
      "outputs": [
        {
          "internalType": "uint256",
          "name": "",
          "type": "uint256"
        }
      ],
      "stateMutability": "view",
      "type": "function"
    },
    {
      "inputs": [
        {
          "internalType": "uint256",
          "name": "",
          "type": "uint256"
        }
      ],
      "name": "_lastPurchasePrices",
      "outputs": [
        {
          "internalType": "uint256",
          "name": "",
          "type": "uint256"
        }
      ],
      "stateMutability": "view",
      "type": "function"
    },
    {
      "inputs": [
        {
          "internalType": "address",
          "name": "to",
          "type": "address"
        },
        {
          "internalType": "uint256",
          "name": "tokenId",
          "type": "uint256"
        }
      ],
      "name": "approve",
      "outputs": [],
      "stateMutability": "nonpayable",
      "type": "function"
    },
    {
      "inputs": [
        {
          "internalType": "address",
          "name": "owner",
          "type": "address"
        }
      ],
      "name": "balanceOf",
      "outputs": [
        {
          "internalType": "uint256",
          "name": "",
          "type": "uint256"
        }
      ],
      "stateMutability": "view",
      "type": "function"
    },
    {
      "inputs": [
        {
          "internalType": "uint256",
          "name": "tokenId",
          "type": "uint256"
        }
      ],
      "name": "getApproved",
      "outputs": [
        {
          "internalType": "address",
          "name": "",
          "type": "address"
        }
      ],
      "stateMutability": "view",
      "type": "function"
    },
    {
      "inputs": [
        {
          "internalType": "address",
          "name": "owner",
          "type": "address"
        },
        {
          "internalType": "address",
          "name": "operator",
          "type": "address"
        }
      ],
      "name": "isApprovedForAll",
      "outputs": [
        {
          "internalType": "bool",
          "name": "",
          "type": "bool"
        }
      ],
      "stateMutability": "view",
      "type": "function"
    },
    {
      "inputs": [],
      "name": "name",
      "outputs": [
        {
          "internalType": "string",
          "name": "",
          "type": "string"
        }
      ],
      "stateMutability": "view",
      "type": "function"
    },
    {
      "inputs": [
        {
          "internalType": "uint256",
          "name": "tokenId",
          "type": "uint256"
        }
      ],
      "name": "ownerOf",
      "outputs": [
        {
          "internalType": "address",
          "name": "",
          "type": "address"
        }
      ],
      "stateMutability": "view",
      "type": "function"
    },
    {
      "inputs": [
        {
          "internalType": "address",
          "name": "operator",
          "type": "address"
        },
        {
          "internalType": "bool",
          "name": "approved",
          "type": "bool"
        }
      ],
      "name": "setApprovalForAll",
      "outputs": [],
      "stateMutability": "nonpayable",
      "type": "function"
    },
    {
      "inputs": [],
      "name": "symbol",
      "outputs": [
        {
          "internalType": "string",
          "name": "",
          "type": "string"
        }
      ],
      "stateMutability": "view",
      "type": "function"
    },
    {
      "inputs": [],
      "name": "originalCollection",
      "outputs": [
        {
          "internalType": "address",
          "name": "",
          "type": "address"
        }
      ],
      "stateMutability": "view",
      "type": "function"
    },
    {
      "inputs": [
        {
          "internalType": "address",
          "name": "",
          "type": "address"
        },
        {
          "internalType": "address",
          "name": "",
          "type": "address"
        },
        {
          "internalType": "uint256",
          "name": "",
          "type": "uint256"
        }
      ],
      "name": "safeTransferFrom",
      "outputs": [],
      "stateMutability": "pure",
      "type": "function"
    },
    {
      "inputs": [
        {
          "internalType": "address",
          "name": "",
          "type": "address"
        },
        {
          "internalType": "address",
          "name": "",
          "type": "address"
        },
        {
          "internalType": "uint256",
          "name": "",
          "type": "uint256"
        },
        {
          "internalType": "bytes",
          "name": "",
          "type": "bytes"
        }
      ],
      "name": "safeTransferFrom",
      "outputs": [],
      "stateMutability": "pure",
      "type": "function"
    },
    {
      "inputs": [
        {
          "internalType": "address",
          "name": "",
          "type": "address"
        },
        {
          "internalType": "address",
          "name": "",
          "type": "address"
        },
        {
          "internalType": "uint256",
          "name": "",
          "type": "uint256"
        }
      ],
      "name": "transferFrom",
      "outputs": [],
      "stateMutability": "pure",
      "type": "function"
    },
    {
      "inputs": [
        {
          "internalType": "uint256",
          "name": "tokenId",
          "type": "uint256"
        }
      ],
      "name": "forSalePrice",
      "outputs": [
        {
          "internalType": "uint256",
          "name": "",
          "type": "uint256"
        }
      ],
      "stateMutability": "view",
      "type": "function"
    },
    {
      "inputs": [
        {
          "internalType": "uint256",
          "name": "tokenId",
          "type": "uint256"
        }
      ],
      "name": "lastPurchasePrice",
      "outputs": [
        {
          "internalType": "uint256",
          "name": "",
          "type": "uint256"
        }
      ],
      "stateMutability": "view",
      "type": "function"
    },
    {
      "inputs": [
        {
          "internalType": "uint256",
          "name": "tokenId",
          "type": "uint256"
        }
      ],
      "name": "troublesomeTokenURI",
      "outputs": [
        {
          "internalType": "string",
          "name": "",
          "type": "string"
        }
      ],
      "stateMutability": "view",
      "type": "function"
    },
    {
      "inputs": [
        {
          "internalType": "uint256",
          "name": "tokenId",
          "type": "uint256"
        }
      ],
      "name": "tokenURI",
      "outputs": [
        {
          "internalType": "string",
          "name": "",
          "type": "string"
        }
      ],
      "stateMutability": "view",
      "type": "function"
    },
    {
      "inputs": [
        {
          "internalType": "uint256",
          "name": "tokenId",
          "type": "uint256"
        },
        {
          "internalType": "uint256",
          "name": "price",
          "type": "uint256"
        }
      ],
      "name": "setPrice",
      "outputs": [],
      "stateMutability": "nonpayable",
      "type": "function"
    },
    {
      "inputs": [
        {
          "internalType": "uint256",
          "name": "tokenId",
          "type": "uint256"
        }
      ],
      "name": "buy",
      "outputs": [],
      "stateMutability": "payable",
      "type": "function"
    },
    {
      "inputs": [
        {
          "internalType": "uint256",
          "name": "tokenId",
          "type": "uint256"
        }
      ],
      "name": "forceBuy",
      "outputs": [],
      "stateMutability": "payable",
      "type": "function"
    },
    {
      "inputs": [
        {
          "internalType": "bytes4",
          "name": "interfaceId",
          "type": "bytes4"
        }
      ],
      "name": "supportsInterface",
      "outputs": [
        {
          "internalType": "bool",
          "name": "",
          "type": "bool"
        }
      ],
      "stateMutability": "view",
      "type": "function"
    },
    {
      "inputs": [],
      "name": "registeredTokens",
      "outputs": [
        {
          "internalType": "uint256[]",
          "name": "",
          "type": "uint256[]"
        }
      ],
      "stateMutability": "view",
      "type": "function"
    }
  ],
  "bytecode": "0x60806040526082600c553480156200001657600080fd5b5060405162004a7538038062004a7583398181016040528101906200003c91906200036b565b848481600090805190602001906200005692919062000226565b5080600190805190602001906200006f92919062000226565b505050600073ffffffffffffffffffffffffffffffffffffffff168373ffffffffffffffffffffffffffffffffffffffff161415620000e5576040517f08c379a0000000000000000000000000000000000000000000000000000000008152600401620000dc90620004a1565b60405180910390fd5b600073ffffffffffffffffffffffffffffffffffffffff168173ffffffffffffffffffffffffffffffffffffffff16141562000158576040517f08c379a00000000000000000000000000000000000000000000000000000000081526004016200014f906200047f565b60405180910390fd5b82600a60006101000a81548173ffffffffffffffffffffffffffffffffffffffff021916908373ffffffffffffffffffffffffffffffffffffffff16021790555081600b60006101000a81548173ffffffffffffffffffffffffffffffffffffffff021916908373ffffffffffffffffffffffffffffffffffffffff16021790555080600960006101000a81548173ffffffffffffffffffffffffffffffffffffffff021916908373ffffffffffffffffffffffffffffffffffffffff16021790555050505050506200071e565b82805462000234906200059d565b90600052602060002090601f016020900481019282620002585760008555620002a4565b82601f106200027357805160ff1916838001178555620002a4565b82800160010185558215620002a4579182015b82811115620002a357825182559160200191906001019062000286565b5b509050620002b39190620002b7565b5090565b5b80821115620002d2576000816000905550600101620002b8565b5090565b6000620002ed620002e784620004ec565b620004c3565b9050828152602081018484840111156200030c576200030b6200066c565b5b6200031984828562000567565b509392505050565b600081519050620003328162000704565b92915050565b600082601f83011262000350576200034f62000667565b5b815162000362848260208601620002d6565b91505092915050565b600080600080600060a086880312156200038a576200038962000676565b5b600086015167ffffffffffffffff811115620003ab57620003aa62000671565b5b620003b98882890162000338565b955050602086015167ffffffffffffffff811115620003dd57620003dc62000671565b5b620003eb8882890162000338565b9450506040620003fe8882890162000321565b9350506060620004118882890162000321565b9250506080620004248882890162000321565b9150509295509295909350565b600062000440601a8362000522565b91506200044d826200068c565b602082019050919050565b60006200046760218362000522565b91506200047482620006b5565b604082019050919050565b600060208201905081810360008301526200049a8162000431565b9050919050565b60006020820190508181036000830152620004bc8162000458565b9050919050565b6000620004cf620004e2565b9050620004dd8282620005d3565b919050565b6000604051905090565b600067ffffffffffffffff8211156200050a576200050962000638565b5b62000515826200067b565b9050602081019050919050565b600082825260208201905092915050565b6000620005408262000547565b9050919050565b600073ffffffffffffffffffffffffffffffffffffffff82169050919050565b60005b83811015620005875780820151818401526020810190506200056a565b8381111562000597576000848401525b50505050565b60006002820490506001821680620005b657607f821691505b60208210811415620005cd57620005cc62000609565b5b50919050565b620005de826200067b565b810181811067ffffffffffffffff821117156200060057620005ff62000638565b5b80604052505050565b7f4e487b7100000000000000000000000000000000000000000000000000000000600052602260045260246000fd5b7f4e487b7100000000000000000000000000000000000000000000000000000000600052604160045260246000fd5b600080fd5b600080fd5b600080fd5b600080fd5b6000601f19601f8301169050919050565b7f64746f20616464726573732063616e6e6f74206265207a65726f000000000000600082015250565b7f636f6c6c656374696f6e20616464726573732063616e6e6f74206265207a657260008201527f6f00000000000000000000000000000000000000000000000000000000000000602082015250565b6200070f8162000533565b81146200071b57600080fd5b50565b614347806200072e6000396000f3fe6080604052600436106101405760003560e01c806373b1dc80116100b6578063c87b56dd1161006f578063c87b56dd14610485578063d96a094a146104c2578063dbe05fff146104de578063e6c173501461051b578063e985e9c514610558578063f7d975771461059557610140565b806373b1dc80146103725780637bf6b0a71461038e57806380b48a7c146103cb57806395d89b4114610408578063a22cb46514610433578063b88d4fde1461045c57610140565b806342842e0e1161010857806342842e0e1461023c5780634546661614610265578063522da6331461029057806361dd277e146102cd5780636352211e146102f857806370a082311461033557610140565b806301ffc9a71461014557806306fdde0314610182578063081812fc146101ad578063095ea7b3146101ea57806323b872dd14610213575b600080fd5b34801561015157600080fd5b5061016c60048036038101906101679190612866565b6105be565b6040516101799190612ffb565b60405180910390f35b34801561018e57600080fd5b50610197610600565b6040516101a49190613016565b60405180910390f35b3480156101b957600080fd5b506101d460048036038101906101cf91906128dc565b610692565b6040516101e19190612f87565b60405180910390f35b3480156101f657600080fd5b50610211600480360381019061020c9190612826565b610717565b005b34801561021f57600080fd5b5061023a60048036038101906102359190612710565b61082f565b005b34801561024857600080fd5b50610263600480360381019061025e9190612710565b61086a565b005b34801561027157600080fd5b5061027a6108a5565b6040516102879190612fd9565b60405180910390f35b34801561029c57600080fd5b506102b760048036038101906102b291906128dc565b6108fd565b6040516102c491906132b8565b60405180910390f35b3480156102d957600080fd5b506102e2610915565b6040516102ef9190612f87565b60405180910390f35b34801561030457600080fd5b5061031f600480360381019061031a91906128dc565b61093f565b60405161032c9190612f87565b60405180910390f35b34801561034157600080fd5b5061035c60048036038101906103579190612676565b6109f1565b60405161036991906132b8565b60405180910390f35b61038c600480360381019061038791906128dc565b610aa9565b005b34801561039a57600080fd5b506103b560048036038101906103b091906128dc565b610b6f565b6040516103c29190613016565b60405180910390f35b3480156103d757600080fd5b506103f260048036038101906103ed91906128dc565b610c28565b6040516103ff91906132b8565b60405180910390f35b34801561041457600080fd5b5061041d610c45565b60405161042a9190613016565b60405180910390f35b34801561043f57600080fd5b5061045a600480360381019061045591906127e6565b610cd7565b005b34801561046857600080fd5b50610483600480360381019061047e9190612763565b610e58565b005b34801561049157600080fd5b506104ac60048036038101906104a791906128dc565b610e93565b6040516104b99190613016565b60405180910390f35b6104dc60048036038101906104d791906128dc565b610f8b565b005b3480156104ea57600080fd5b50610505600480360381019061050091906128dc565b6112ee565b60405161051291906132b8565b60405180910390f35b34801561052757600080fd5b50610542600480360381019061053d91906128dc565b611306565b60405161054f91906132b8565b60405180910390f35b34801561056457600080fd5b5061057f600480360381019061057a91906126d0565b611323565b60405161058c9190612ffb565b60405180910390f35b3480156105a157600080fd5b506105bc60048036038101906105b79190612909565b6113b7565b005b600063deadbeef60e01b827bffffffffffffffffffffffffffffffffffffffffffffffffffffffff191614806105f957506105f882611556565b5b9050919050565b60606000805461060f906137e5565b80601f016020809104026020016040519081016040528092919081815260200182805461063b906137e5565b80156106885780601f1061065d57610100808354040283529160200191610688565b820191906000526020600020905b81548152906001019060200180831161066b57829003601f168201915b5050505050905090565b600061069d82611638565b6106dc576040517f08c379a00000000000000000000000000000000000000000000000000000000081526004016106d3906131b8565b60405180910390fd5b6004600083815260200190815260200160002060009054906101000a900473ffffffffffffffffffffffffffffffffffffffff169050919050565b60006107228261093f565b90508073ffffffffffffffffffffffffffffffffffffffff168373ffffffffffffffffffffffffffffffffffffffff161415610793576040517f08c379a000000000000000000000000000000000000000000000000000000000815260040161078a90613218565b60405180910390fd5b8073ffffffffffffffffffffffffffffffffffffffff166107b26116a4565b73ffffffffffffffffffffffffffffffffffffffff1614806107e157506107e0816107db6116a4565b611323565b5b610820576040517f08c379a000000000000000000000000000000000000000000000000000000000815260040161081790613118565b60405180910390fd5b61082a83836116ac565b505050565b6040517f08c379a000000000000000000000000000000000000000000000000000000000815260040161086190613098565b60405180910390fd5b6040517f08c379a000000000000000000000000000000000000000000000000000000000815260040161089c90613098565b60405180910390fd5b6060600d8054806020026020016040519081016040528092919081815260200182805480156108f357602002820191906000526020600020905b8154815260200190600101908083116108df575b5050505050905090565b60076020528060005260406000206000915090505481565b6000600a60009054906101000a900473ffffffffffffffffffffffffffffffffffffffff16905090565b6000806002600084815260200190815260200160002060009054906101000a900473ffffffffffffffffffffffffffffffffffffffff169050600073ffffffffffffffffffffffffffffffffffffffff168173ffffffffffffffffffffffffffffffffffffffff1614156109e8576040517f08c379a00000000000000000000000000000000000000000000000000000000081526004016109df90613158565b60405180910390fd5b80915050919050565b60008073ffffffffffffffffffffffffffffffffffffffff168273ffffffffffffffffffffffffffffffffffffffff161415610a62576040517f08c379a0000000000000000000000000000000000000000000000000000000008152600401610a5990613138565b60405180910390fd5b600360008373ffffffffffffffffffffffffffffffffffffffff1673ffffffffffffffffffffffffffffffffffffffff168152602001908152602001600020549050919050565b6000600860008381526020019081526020016000205411610aff576040517f08c379a0000000000000000000000000000000000000000000000000000000008152600401610af690613078565b60405180910390fd5b60086000828152602001908152602001600020546002610b1f9190613625565b341015610b61576040517f08c379a0000000000000000000000000000000000000000000000000000000008152600401610b5890613298565b60405180910390fd5b610b6c338234611765565b50565b6060600a60009054906101000a900473ffffffffffffffffffffffffffffffffffffffff1673ffffffffffffffffffffffffffffffffffffffff1663c87b56dd836040518263ffffffff1660e01b8152600401610bcc91906132b8565b60006040518083038186803b158015610be457600080fd5b505afa158015610bf8573d6000803e3d6000fd5b505050506040513d6000823e3d601f19601f82011682018060405250810190610c219190612893565b9050919050565b600060086000838152602001908152602001600020549050919050565b606060018054610c54906137e5565b80601f0160208091040260200160405190810160405280929190818152602001828054610c80906137e5565b8015610ccd5780601f10610ca257610100808354040283529160200191610ccd565b820191906000526020600020905b815481529060010190602001808311610cb057829003601f168201915b5050505050905090565b610cdf6116a4565b73ffffffffffffffffffffffffffffffffffffffff168273ffffffffffffffffffffffffffffffffffffffff161415610d4d576040517f08c379a0000000000000000000000000000000000000000000000000000000008152600401610d44906130d8565b60405180910390fd5b8060056000610d5a6116a4565b73ffffffffffffffffffffffffffffffffffffffff1673ffffffffffffffffffffffffffffffffffffffff16815260200190815260200160002060008473ffffffffffffffffffffffffffffffffffffffff1673ffffffffffffffffffffffffffffffffffffffff16815260200190815260200160002060006101000a81548160ff0219169083151502179055508173ffffffffffffffffffffffffffffffffffffffff16610e076116a4565b73ffffffffffffffffffffffffffffffffffffffff167f17307eab39ab6107e8899845ad3d59bd9653f200f220920489ca2b5937696c3183604051610e4c9190612ffb565b60405180910390a35050565b6040517f08c379a0000000000000000000000000000000000000000000000000000000008152600401610e8a90613098565b60405180910390fd5b6060600060405180610140016040528061011c81526020016141f661011c913990506000610ee2600a60009054906101000a900473ffffffffffffffffffffffffffffffffffffffff16611a95565b90506000610eef30611a95565b90506000610efc86611c77565b905060008282604051602001610f13929190612f16565b60405160208183030381529060405290506000610f5c828686610f358a611dd8565b604051602001610f489493929190612e7f565b604051602081830303815290604052611dd8565b905080604051602001610f6f9190612f50565b6040516020818303038152906040529650505050505050919050565b6000600760008381526020019081526020016000205411610fe1576040517f08c379a0000000000000000000000000000000000000000000000000000000008152600401610fd8906131d8565b60405180910390fd5b6007600082815260200190815260200160002054341015611037576040517f08c379a000000000000000000000000000000000000000000000000000000000815260040161102e90613178565b60405180910390fd5b6000600860008381526020019081526020016000205414156112e0573073ffffffffffffffffffffffffffffffffffffffff16600a60009054906101000a900473ffffffffffffffffffffffffffffffffffffffff1673ffffffffffffffffffffffffffffffffffffffff1663081812fc836040518263ffffffff1660e01b81526004016110c591906132b8565b60206040518083038186803b1580156110dd57600080fd5b505afa1580156110f1573d6000803e3d6000fd5b505050506040513d601f19601f8201168201806040525081019061111591906126a3565b73ffffffffffffffffffffffffffffffffffffffff161461116b576040517f08c379a000000000000000000000000000000000000000000000000000000000815260040161116290613258565b60405180910390fd5b6000600a60009054906101000a900473ffffffffffffffffffffffffffffffffffffffff1673ffffffffffffffffffffffffffffffffffffffff16636352211e836040518263ffffffff1660e01b81526004016111c891906132b8565b60206040518083038186803b1580156111e057600080fd5b505afa1580156111f4573d6000803e3d6000fd5b505050506040513d601f19601f8201168201806040525081019061121891906126a3565b9050600a60009054906101000a900473ffffffffffffffffffffffffffffffffffffffff1673ffffffffffffffffffffffffffffffffffffffff166323b872dd8230856040518463ffffffff1660e01b815260040161127993929190612fa2565b600060405180830381600087803b15801561129357600080fd5b505af11580156112a7573d6000803e3d6000fd5b505050506112b58183611f70565b600d829080600181540180825580915050600190039060005260206000200160009091909190915055505b6112eb338234611765565b50565b60086020528060005260406000206000915090505481565b600060076000838152602001908152602001600020549050919050565b6000600560008473ffffffffffffffffffffffffffffffffffffffff1673ffffffffffffffffffffffffffffffffffffffff16815260200190815260200160002060008373ffffffffffffffffffffffffffffffffffffffff1673ffffffffffffffffffffffffffffffffffffffff16815260200190815260200160002060009054906101000a900460ff16905092915050565b6000600860008481526020019081526020016000205414156114f0573073ffffffffffffffffffffffffffffffffffffffff16600a60009054906101000a900473ffffffffffffffffffffffffffffffffffffffff1673ffffffffffffffffffffffffffffffffffffffff1663081812fc846040518263ffffffff1660e01b815260040161144591906132b8565b60206040518083038186803b15801561145d57600080fd5b505afa158015611471573d6000803e3d6000fd5b505050506040513d601f19601f8201168201806040525081019061149591906126a3565b73ffffffffffffffffffffffffffffffffffffffff16146114eb576040517f08c379a00000000000000000000000000000000000000000000000000000000081526004016114e290613258565b60405180910390fd5b61153a565b6114fa338361213e565b611539576040517f08c379a000000000000000000000000000000000000000000000000000000000815260040161153090613238565b60405180910390fd5b5b8060076000848152602001908152602001600020819055505050565b60007f80ac58cd000000000000000000000000000000000000000000000000000000007bffffffffffffffffffffffffffffffffffffffffffffffffffffffff1916827bffffffffffffffffffffffffffffffffffffffffffffffffffffffff1916148061162157507f5b5e139f000000000000000000000000000000000000000000000000000000007bffffffffffffffffffffffffffffffffffffffffffffffffffffffff1916827bffffffffffffffffffffffffffffffffffffffffffffffffffffffff1916145b8061163157506116308261221c565b5b9050919050565b60008073ffffffffffffffffffffffffffffffffffffffff166002600084815260200190815260200160002060009054906101000a900473ffffffffffffffffffffffffffffffffffffffff1673ffffffffffffffffffffffffffffffffffffffff1614159050919050565b600033905090565b816004600083815260200190815260200160002060006101000a81548173ffffffffffffffffffffffffffffffffffffffff021916908373ffffffffffffffffffffffffffffffffffffffff160217905550808273ffffffffffffffffffffffffffffffffffffffff1661171f8361093f565b73ffffffffffffffffffffffffffffffffffffffff167f8c5be1e5ebec7d5bd14f71427d1e84f3dd0314c0f7b2291e5b200ac8c7c3b92560405160405180910390a45050565b60006117708361093f565b905061177d818585612286565b816008600085815260200190815260200160002081905550600060076000858152602001908152602001600020819055506000600c54836117be9190613452565b905060008273ffffffffffffffffffffffffffffffffffffffff168260026117e69190613625565b856117f191906136ba565b6040516117fd90612f72565b60006040518083038185875af1925050503d806000811461183a576040519150601f19603f3d011682016040523d82523d6000602084013e61183f565b606091505b5050905080611883576040517f08c379a000000000000000000000000000000000000000000000000000000000815260040161187a90613038565b60405180910390fd5b6000600960009054906101000a900473ffffffffffffffffffffffffffffffffffffffff1673ffffffffffffffffffffffffffffffffffffffff16630e2ccc78306040518263ffffffff1660e01b81526004016118e09190612f87565b60206040518083038186803b1580156118f857600080fd5b505afa15801561190c573d6000803e3d6000fd5b505050506040513d601f19601f8201168201806040525081019061193091906126a3565b905060008173ffffffffffffffffffffffffffffffffffffffff168460405161195890612f72565b60006040518083038185875af1925050503d8060008114611995576040519150601f19603f3d011682016040523d82523d6000602084013e61199a565b606091505b505090506000816119b7578460026119b29190613625565b6119b9565b845b90506000600b60009054906101000a900473ffffffffffffffffffffffffffffffffffffffff1673ffffffffffffffffffffffffffffffffffffffff1682604051611a0390612f72565b60006040518083038185875af1925050503d8060008114611a40576040519150601f19603f3d011682016040523d82523d6000602084013e611a45565b606091505b5050905080611a89576040517f08c379a0000000000000000000000000000000000000000000000000000000008152600401611a8090613278565b60405180910390fd5b50505050505050505050565b60606000602867ffffffffffffffff811115611ab457611ab361397e565b5b6040519080825280601f01601f191660200182016040528015611ae65781602001600182028036833780820191505090505b50905060005b6014811015611c4e576000816013611b0491906136ba565b6008611b109190613625565b6002611b1c9190613507565b8573ffffffffffffffffffffffffffffffffffffffff16611b3d9190613452565b60f81b9050600060108260f81c611b549190613483565b60f81b905060008160f81c6010611b6b919061367f565b8360f81c611b7991906136ee565b60f81b9050611b87826124e2565b85856002611b959190613625565b81518110611ba657611ba561394f565b5b60200101907effffffffffffffffffffffffffffffffffffffffffffffffffffffffffffff1916908160001a905350611bde816124e2565b856001866002611bee9190613625565b611bf891906133c5565b81518110611c0957611c0861394f565b5b60200101907effffffffffffffffffffffffffffffffffffffffffffffffffffffffffffff1916908160001a9053505050508080611c4690613848565b915050611aec565b5080604051602001611c609190612ef4565b604051602081830303815290604052915050919050565b60606000821415611cbf576040518060400160405280600181526020017f30000000000000000000000000000000000000000000000000000000000000008152509050611dd3565b600082905060005b60008214611cf1578080611cda90613848565b915050600a82611cea9190613452565b9150611cc7565b60008167ffffffffffffffff811115611d0d57611d0c61397e565b5b6040519080825280601f01601f191660200182016040528015611d3f5781602001600182028036833780820191505090505b5090505b60008514611dcc57600182611d5891906136ba565b9150600a85611d679190613891565b6030611d7391906133c5565b60f81b818381518110611d8957611d8861394f565b5b60200101907effffffffffffffffffffffffffffffffffffffffffffffffffffffffffffff1916908160001a905350600a85611dc59190613452565b9450611d43565b8093505050505b919050565b60606000825190506000811415611e015760405180602001604052806000815250915050611f6b565b60006003600283611e1291906133c5565b611e1c9190613452565b6004611e289190613625565b90506000602082611e3991906133c5565b67ffffffffffffffff811115611e5257611e5161397e565b5b6040519080825280601f01601f191660200182016040528015611e845781602001600182028036833780820191505090505b50905060006040518060600160405280604081526020016141b6604091399050600181016020830160005b86811015611f285760038101905062ffffff818a015116603f8160121c168401518060081b905060ff603f83600c1c1686015116810190508060081b905060ff603f8360061c1686015116810190508060081b905060ff603f831686015116810190508060e01b90508084526004840193505050611eaf565b506003860660018114611f425760028114611f5257611f5d565b613d3d60f01b6002830352611f5d565b603d60f81b60018303525b508484525050819450505050505b919050565b600073ffffffffffffffffffffffffffffffffffffffff168273ffffffffffffffffffffffffffffffffffffffff161415611fe0576040517f08c379a0000000000000000000000000000000000000000000000000000000008152600401611fd790613198565b60405180910390fd5b611fe981611638565b15612029576040517f08c379a000000000000000000000000000000000000000000000000000000000815260040161202090613058565b60405180910390fd5b61203560008383612528565b6001600360008473ffffffffffffffffffffffffffffffffffffffff1673ffffffffffffffffffffffffffffffffffffffff168152602001908152602001600020600082825461208591906133c5565b92505081905550816002600083815260200190815260200160002060006101000a81548173ffffffffffffffffffffffffffffffffffffffff021916908373ffffffffffffffffffffffffffffffffffffffff160217905550808273ffffffffffffffffffffffffffffffffffffffff16600073ffffffffffffffffffffffffffffffffffffffff167fddf252ad1be2c89b69c2b068fc378daa952ba7f163c4a11628f55a4df523b3ef60405160405180910390a45050565b600061214982611638565b612188576040517f08c379a000000000000000000000000000000000000000000000000000000000815260040161217f906130f8565b60405180910390fd5b60006121938361093f565b90508073ffffffffffffffffffffffffffffffffffffffff168473ffffffffffffffffffffffffffffffffffffffff16148061220257508373ffffffffffffffffffffffffffffffffffffffff166121ea84610692565b73ffffffffffffffffffffffffffffffffffffffff16145b8061221357506122128185611323565b5b91505092915050565b60007f01ffc9a7000000000000000000000000000000000000000000000000000000007bffffffffffffffffffffffffffffffffffffffffffffffffffffffff1916827bffffffffffffffffffffffffffffffffffffffffffffffffffffffff1916149050919050565b8273ffffffffffffffffffffffffffffffffffffffff166122a68261093f565b73ffffffffffffffffffffffffffffffffffffffff16146122fc576040517f08c379a00000000000000000000000000000000000000000000000000000000081526004016122f3906131f8565b60405180910390fd5b600073ffffffffffffffffffffffffffffffffffffffff168273ffffffffffffffffffffffffffffffffffffffff16141561236c576040517f08c379a0000000000000000000000000000000000000000000000000000000008152600401612363906130b8565b60405180910390fd5b612377838383612528565b6123826000826116ac565b6001600360008573ffffffffffffffffffffffffffffffffffffffff1673ffffffffffffffffffffffffffffffffffffffff16815260200190815260200160002060008282546123d291906136ba565b925050819055506001600360008473ffffffffffffffffffffffffffffffffffffffff1673ffffffffffffffffffffffffffffffffffffffff168152602001908152602001600020600082825461242991906133c5565b92505081905550816002600083815260200190815260200160002060006101000a81548173ffffffffffffffffffffffffffffffffffffffff021916908373ffffffffffffffffffffffffffffffffffffffff160217905550808273ffffffffffffffffffffffffffffffffffffffff168473ffffffffffffffffffffffffffffffffffffffff167fddf252ad1be2c89b69c2b068fc378daa952ba7f163c4a11628f55a4df523b3ef60405160405180910390a4505050565b6000600a8260f81c60ff16101561250d5760308260f81c612503919061341b565b60f81b9050612523565b60578260f81c61251d919061341b565b60f81b90505b919050565b505050565b600061254061253b846132f8565b6132d3565b90508281526020810184848401111561255c5761255b6139b2565b5b6125678482856137a3565b509392505050565b600061258261257d84613329565b6132d3565b90508281526020810184848401111561259e5761259d6139b2565b5b6125a98482856137b2565b509392505050565b6000813590506125c081614159565b92915050565b6000815190506125d581614159565b92915050565b6000813590506125ea81614170565b92915050565b6000813590506125ff81614187565b92915050565b600082601f83011261261a576126196139ad565b5b813561262a84826020860161252d565b91505092915050565b600082601f830112612648576126476139ad565b5b815161265884826020860161256f565b91505092915050565b6000813590506126708161419e565b92915050565b60006020828403121561268c5761268b6139bc565b5b600061269a848285016125b1565b91505092915050565b6000602082840312156126b9576126b86139bc565b5b60006126c7848285016125c6565b91505092915050565b600080604083850312156126e7576126e66139bc565b5b60006126f5858286016125b1565b9250506020612706858286016125b1565b9150509250929050565b600080600060608486031215612729576127286139bc565b5b6000612737868287016125b1565b9350506020612748868287016125b1565b925050604061275986828701612661565b9150509250925092565b6000806000806080858703121561277d5761277c6139bc565b5b600061278b878288016125b1565b945050602061279c878288016125b1565b93505060406127ad87828801612661565b925050606085013567ffffffffffffffff8111156127ce576127cd6139b7565b5b6127da87828801612605565b91505092959194509250565b600080604083850312156127fd576127fc6139bc565b5b600061280b858286016125b1565b925050602061281c858286016125db565b9150509250929050565b6000806040838503121561283d5761283c6139bc565b5b600061284b858286016125b1565b925050602061285c85828601612661565b9150509250929050565b60006020828403121561287c5761287b6139bc565b5b600061288a848285016125f0565b91505092915050565b6000602082840312156128a9576128a86139bc565b5b600082015167ffffffffffffffff8111156128c7576128c66139b7565b5b6128d384828501612633565b91505092915050565b6000602082840312156128f2576128f16139bc565b5b600061290084828501612661565b91505092915050565b600080604083850312156129205761291f6139bc565b5b600061292e85828601612661565b925050602061293f85828601612661565b9150509250929050565b60006129558383612e61565b60208301905092915050565b61296a81613722565b82525050565b600061297b8261336a565b612985818561338d565b93506129908361335a565b8060005b838110156129c15781516129a88882612949565b97506129b383613380565b925050600181019050612994565b5085935050505092915050565b6129d781613734565b82525050565b60006129e882613375565b6129f281856133a9565b9350612a028185602086016137b2565b612a0b816139c1565b840191505092915050565b6000612a2182613375565b612a2b81856133ba565b9350612a3b8185602086016137b2565b80840191505092915050565b6000612a546027836133ba565b9150612a5f826139df565b602782019050919050565b6000612a776019836133a9565b9150612a8282613a2e565b602082019050919050565b6000612a9a601c836133a9565b9150612aa582613a57565b602082019050919050565b6000612abd6002836133ba565b9150612ac882613a80565b600282019050919050565b6000612ae0602e836133a9565b9150612aeb82613aa9565b604082019050919050565b6000612b03601a836133a9565b9150612b0e82613af8565b602082019050919050565b6000612b266024836133a9565b9150612b3182613b21565b604082019050919050565b6000612b496019836133a9565b9150612b5482613b70565b602082019050919050565b6000612b6c602c836133a9565b9150612b7782613b99565b604082019050919050565b6000612b8f608d836133ba565b9150612b9a82613be8565b608d82019050919050565b6000612bb26038836133a9565b9150612bbd82613ca9565b604082019050919050565b6000612bd5602a836133a9565b9150612be082613cf8565b604082019050919050565b6000612bf86029836133a9565b9150612c0382613d47565b604082019050919050565b6000612c1b601d836133ba565b9150612c2682613d96565b601d82019050919050565b6000612c3e6002836133ba565b9150612c4982613dbf565b600282019050919050565b6000612c61602e836133a9565b9150612c6c82613de8565b604082019050919050565b6000612c846020836133a9565b9150612c8f82613e37565b602082019050919050565b6000612ca7602c836133a9565b9150612cb282613e60565b604082019050919050565b6000612cca6013836133a9565b9150612cd582613eaf565b602082019050919050565b6000612ced6026836133ba565b9150612cf882613ed8565b602682019050919050565b6000612d106029836133a9565b9150612d1b82613f27565b604082019050919050565b6000612d336021836133a9565b9150612d3e82613f76565b604082019050919050565b6000612d56602d836133a9565b9150612d6182613fc5565b604082019050919050565b6000612d79601a836133ba565b9150612d8482614014565b601a82019050919050565b6000612d9c601d836133ba565b9150612da78261403d565b601d82019050919050565b6000612dbf60008361339e565b9150612dca82614066565b600082019050919050565b6000612de2603d836133a9565b9150612ded82614069565b604082019050919050565b6000612e05601d836133a9565b9150612e10826140b8565b602082019050919050565b6000612e286039836133a9565b9150612e33826140e1565b604082019050919050565b6000612e4b6001836133ba565b9150612e5682614130565b600182019050919050565b612e6a8161378c565b82525050565b612e798161378c565b82525050565b6000612e8a82612a47565b9150612e968287612a16565b9150612ea182612d6c565b9150612ead8286612a16565b9150612eb882612c0e565b9150612ec48285612a16565b9150612ecf82612b82565b9150612edb8284612a16565b9150612ee682612c31565b915081905095945050505050565b6000612eff82612ab0565b9150612f0b8284612a16565b915081905092915050565b6000612f2182612ce0565b9150612f2d8285612a16565b9150612f3882612e3e565b9150612f448284612a16565b91508190509392505050565b6000612f5b82612d8f565b9150612f678284612a16565b915081905092915050565b6000612f7d82612db2565b9150819050919050565b6000602082019050612f9c6000830184612961565b92915050565b6000606082019050612fb76000830186612961565b612fc46020830185612961565b612fd16040830184612e70565b949350505050565b60006020820190508181036000830152612ff38184612970565b905092915050565b600060208201905061301060008301846129ce565b92915050565b6000602082019050818103600083015261303081846129dd565b905092915050565b6000602082019050818103600083015261305181612a6a565b9050919050565b6000602082019050818103600083015261307181612a8d565b9050919050565b6000602082019050818103600083015261309181612ad3565b9050919050565b600060208201905081810360008301526130b181612af6565b9050919050565b600060208201905081810360008301526130d181612b19565b9050919050565b600060208201905081810360008301526130f181612b3c565b9050919050565b6000602082019050818103600083015261311181612b5f565b9050919050565b6000602082019050818103600083015261313181612ba5565b9050919050565b6000602082019050818103600083015261315181612bc8565b9050919050565b6000602082019050818103600083015261317181612beb565b9050919050565b6000602082019050818103600083015261319181612c54565b9050919050565b600060208201905081810360008301526131b181612c77565b9050919050565b600060208201905081810360008301526131d181612c9a565b9050919050565b600060208201905081810360008301526131f181612cbd565b9050919050565b6000602082019050818103600083015261321181612d03565b9050919050565b6000602082019050818103600083015261323181612d26565b9050919050565b6000602082019050818103600083015261325181612d49565b9050919050565b6000602082019050818103600083015261327181612dd5565b9050919050565b6000602082019050818103600083015261329181612df8565b9050919050565b600060208201905081810360008301526132b181612e1b565b9050919050565b60006020820190506132cd6000830184612e70565b92915050565b60006132dd6132ee565b90506132e98282613817565b919050565b6000604051905090565b600067ffffffffffffffff8211156133135761331261397e565b5b61331c826139c1565b9050602081019050919050565b600067ffffffffffffffff8211156133445761334361397e565b5b61334d826139c1565b9050602081019050919050565b6000819050602082019050919050565b600081519050919050565b600081519050919050565b6000602082019050919050565b600082825260208201905092915050565b600081905092915050565b600082825260208201905092915050565b600081905092915050565b60006133d08261378c565b91506133db8361378c565b9250827fffffffffffffffffffffffffffffffffffffffffffffffffffffffffffffffff038211156134105761340f6138c2565b5b828201905092915050565b600061342682613796565b915061343183613796565b92508260ff03821115613447576134466138c2565b5b828201905092915050565b600061345d8261378c565b91506134688361378c565b925082613478576134776138f1565b5b828204905092915050565b600061348e82613796565b915061349983613796565b9250826134a9576134a86138f1565b5b828204905092915050565b6000808291508390505b60018511156134fe578086048111156134da576134d96138c2565b5b60018516156134e95780820291505b80810290506134f7856139d2565b94506134be565b94509492505050565b60006135128261378c565b915061351d8361378c565b925061354a7fffffffffffffffffffffffffffffffffffffffffffffffffffffffffffffffff8484613552565b905092915050565b600082613562576001905061361e565b81613570576000905061361e565b81600181146135865760028114613590576135bf565b600191505061361e565b60ff8411156135a2576135a16138c2565b5b8360020a9150848211156135b9576135b86138c2565b5b5061361e565b5060208310610133831016604e8410600b84101617156135f45782820a9050838111156135ef576135ee6138c2565b5b61361e565b61360184848460016134b4565b92509050818404811115613618576136176138c2565b5b81810290505b9392505050565b60006136308261378c565b915061363b8361378c565b9250817fffffffffffffffffffffffffffffffffffffffffffffffffffffffffffffffff0483118215151615613674576136736138c2565b5b828202905092915050565b600061368a82613796565b915061369583613796565b92508160ff04831182151516156136af576136ae6138c2565b5b828202905092915050565b60006136c58261378c565b91506136d08361378c565b9250828210156136e3576136e26138c2565b5b828203905092915050565b60006136f982613796565b915061370483613796565b925082821015613717576137166138c2565b5b828203905092915050565b600061372d8261376c565b9050919050565b60008115159050919050565b60007fffffffff0000000000000000000000000000000000000000000000000000000082169050919050565b600073ffffffffffffffffffffffffffffffffffffffff82169050919050565b6000819050919050565b600060ff82169050919050565b82818337600083830152505050565b60005b838110156137d05780820151818401526020810190506137b5565b838111156137df576000848401525b50505050565b600060028204905060018216806137fd57607f821691505b6020821081141561381157613810613920565b5b50919050565b613820826139c1565b810181811067ffffffffffffffff8211171561383f5761383e61397e565b5b80604052505050565b60006138538261378c565b91507fffffffffffffffffffffffffffffffffffffffffffffffffffffffffffffffff821415613886576138856138c2565b5b600182019050919050565b600061389c8261378c565b91506138a78361378c565b9250826138b7576138b66138f1565b5b828206905092915050565b7f4e487b7100000000000000000000000000000000000000000000000000000000600052601160045260246000fd5b7f4e487b7100000000000000000000000000000000000000000000000000000000600052601260045260246000fd5b7f4e487b7100000000000000000000000000000000000000000000000000000000600052602260045260246000fd5b7f4e487b7100000000000000000000000000000000000000000000000000000000600052603260045260246000fd5b7f4e487b7100000000000000000000000000000000000000000000000000000000600052604160045260246000fd5b600080fd5b600080fd5b600080fd5b600080fd5b6000601f19601f8301169050919050565b60008160011c9050919050565b7f7b226e616d65223a20224445414442454546222c202265787465726e616c5f6c60008201527f696e6b223a202200000000000000000000000000000000000000000000000000602082015250565b7f5472616e7366657220746f206f776e6572206661696c65642e00000000000000600082015250565b7f4552433732313a20746f6b656e20616c7265616479206d696e74656400000000600082015250565b7f3078000000000000000000000000000000000000000000000000000000000000600082015250565b7f4e465420776173206e6f7420796574207075726368617365642077697468696e60008201527f20446f75626c6554726f75626c65000000000000000000000000000000000000602082015250565b7f506c656173652075736520627579206f7220666f726365427579000000000000600082015250565b7f4552433732313a207472616e7366657220746f20746865207a65726f2061646460008201527f7265737300000000000000000000000000000000000000000000000000000000602082015250565b7f4552433732313a20617070726f766520746f2063616c6c657200000000000000600082015250565b7f4552433732313a206f70657261746f7220717565727920666f72206e6f6e657860008201527f697374656e7420746f6b656e0000000000000000000000000000000000000000602082015250565b7f222c20226465736372697074696f6e223a202254686973204e4654206973206f60008201527f6e6c7920666f722073616c6520696e20446f75626c652054726f75626c652e2060208201527f566973697420646f75626c652d74726f75626c652e696f20746f206c6561726e60408201527f206d6f72652e222c2022696d616765223a2022646174613a696d6167652f737660608201527f672b786d6c3b6261736536342c00000000000000000000000000000000000000608082015250565b7f4552433732313a20617070726f76652063616c6c6572206973206e6f74206f7760008201527f6e6572206e6f7220617070726f76656420666f7220616c6c0000000000000000602082015250565b7f4552433732313a2062616c616e636520717565727920666f7220746865207a6560008201527f726f206164647265737300000000000000000000000000000000000000000000602082015250565b7f4552433732313a206f776e657220717565727920666f72206e6f6e657869737460008201527f656e7420746f6b656e0000000000000000000000000000000000000000000000602082015250565b7f222c202274726f75626c65736f6d65436f6c6c656374696f6e223a2022000000600082015250565b7f227d000000000000000000000000000000000000000000000000000000000000600082015250565b7f56616c75652073656e74206d757374206265206174206c65617374207468652060008201527f666f722073616c65207072696365000000000000000000000000000000000000602082015250565b7f4552433732313a206d696e7420746f20746865207a65726f2061646472657373600082015250565b7f4552433732313a20617070726f76656420717565727920666f72206e6f6e657860008201527f697374656e7420746f6b656e0000000000000000000000000000000000000000602082015250565b7f4e4654206973206e6f7420666f722073616c6500000000000000000000000000600082015250565b7f68747470733a2f2f646f75626c652d74726f75626c652e696f2f636f6c6c656360008201527f74696f6e732f0000000000000000000000000000000000000000000000000000602082015250565b7f4552433732313a207472616e73666572206f6620746f6b656e2074686174206960008201527f73206e6f74206f776e0000000000000000000000000000000000000000000000602082015250565b7f4552433732313a20617070726f76616c20746f2063757272656e74206f776e6560008201527f7200000000000000000000000000000000000000000000000000000000000000602082015250565b7f6d73672e73656e6465722073686f756c6420626520617070726f766564206f7260008201527f206f776e6572206f66204e465400000000000000000000000000000000000000602082015250565b7f222c20226f726967696e616c436f6c6c656374696f6e223a2022000000000000600082015250565b7f646174613a6170706c69636174696f6e2f6a736f6e3b6261736536342c000000600082015250565b50565b7f446f75626c6554726f75626c6520636f6e7472616374206d757374206265206160008201527f7070726f76656420746f206f706572617465207468697320746f6b656e000000602082015250565b7f5472616e7366657220746f2044542077616c6c6574206661696c65642e000000600082015250565b7f56616c75652073656e74206d757374206265206174206c65617374207477696360008201527f6520746865206c61737420707572636861736520707269636500000000000000602082015250565b7f2f00000000000000000000000000000000000000000000000000000000000000600082015250565b61416281613722565b811461416d57600080fd5b50565b61417981613734565b811461418457600080fd5b50565b61419081613740565b811461419b57600080fd5b50565b6141a78161378c565b81146141b257600080fd5b5056fe4142434445464748494a4b4c4d4e4f505152535455565758595a6162636465666768696a6b6c6d6e6f707172737475767778797a303132333435363738392b2f3c73766720786d6c6e733d22687474703a2f2f7777772e77332e6f72672f323030302f73766722207072657365727665417370656374526174696f3d22784d696e594d696e206d656574222076696577426f783d223020302033353020333530223e3c7374796c653e2e62617365207b2066696c6c3a2077686974653b20666f6e742d66616d696c793a2073657269663b20666f6e742d73697a653a20313470783b207d3c2f7374796c653e3c726563742077696474683d223130302522206865696768743d2231303025222066696c6c3d22626c61636b22202f3e3c7465787420783d2231302220793d2232302220636c6173733d2262617365223e596f752061726520696e2074726f75626c653c2f746578743e3c2f7376673ea2646970667358221220ddcde1ba11f7b5aa6e865bd100dca7d771a014ffbe024c9bba5f0058e76f1b2e64736f6c63430008070033",
  "immutableReferences": {},
  "source": "pragma solidity ^0.8.0;\n\nimport \"@openzeppelin/contracts/token/ERC721/extensions/ERC721URIStorage.sol\";\nimport \"@openzeppelin/contracts/token/ERC721/extensions/IERC721Metadata.sol\";\nimport \"./DoubleTroubleOrchestrator.sol\";\nimport \"./Libraries.sol\";\n\n// SPDX-License-Identifier: MIT\ncontract DoubleTrouble is ERC721URIStorage {\n  // nested mapping that keeps track of who owns the NFTs\n  mapping (uint256 => uint256) public _forSalePrices;\n  mapping (uint256 => uint256) public _lastPurchasePrices;\n  DoubleTroubleOrchestrator _dto;\n  address _originalCollection;\n  address _feeWallet;\n  uint256 _feeRate = 130;\n  uint256[] _registeredTokens;\n\n  constructor(string memory name, string memory symbol, address nftCollection, address feeWallet, address dto) ERC721(name, symbol) {\n    require(nftCollection != address(0), \"collection address cannot be zero\");\n    require(dto != address(0), \"dto address cannot be zero\");\n    _originalCollection = nftCollection;\n    _feeWallet = feeWallet;\n    _dto = DoubleTroubleOrchestrator(dto);\n  }\n\n  function originalCollection() external view returns (address) {\n    return _originalCollection;\n  }\n\n  function safeTransferFrom(address, address, uint256, bytes memory) public override pure {\n    revert(\"Please use buy or forceBuy\");\n  }\n\n  function safeTransferFrom(address, address, uint256) public override pure {\n    revert(\"Please use buy or forceBuy\");\n  }\n\n  function transferFrom(address, address, uint256) public override pure {\n    revert(\"Please use buy or forceBuy\");\n  }\n\n  function forSalePrice(uint256 tokenId) external view returns (uint256) {\n    return _forSalePrices[tokenId];\n  }\n\n  function lastPurchasePrice(uint256 tokenId) external view returns (uint256) {\n    return _lastPurchasePrices[tokenId];\n  }\n\n  function troublesomeTokenURI(uint256 tokenId) external view returns (string memory) {\n    return IERC721Metadata(_originalCollection).tokenURI(tokenId);\n  }\n\n  function tokenURI(uint256 tokenId) public view virtual override returns (string memory) {\n    string memory output = '<svg xmlns=\"http://www.w3.org/2000/svg\" preserveAspectRatio=\"xMinYMin meet\" viewBox=\"0 0 350 350\"><style>.base { fill: white; font-family: serif; font-size: 14px; }</style><rect width=\"100%\" height=\"100%\" fill=\"black\" /><text x=\"10\" y=\"20\" class=\"base\">You are in trouble</text></svg>';\n\n    string memory originalAddr = Stringify.toString(_originalCollection);\n    string memory troublesomeAddr = Stringify.toString(address(this));\n    string memory strTokenId = Stringify.toString(tokenId);\n    string memory externalLink = string(abi.encodePacked('https://double-trouble.io/collections/', troublesomeAddr, '/', strTokenId));\n    string memory json = Base64.encode(bytes(string(abi.encodePacked('{\"name\": \"DEADBEEF\", \"external_link\": \"',\n                                                                      externalLink, '\", \"originalCollection\": \"',\n                                                                      originalAddr, '\", \"troublesomeCollection\": \"',\n                                                                      troublesomeAddr, '\", \"description\": \"This NFT is only for sale in Double Trouble. Visit double-trouble.io to learn more.\", \"image\": \"data:image/svg+xml;base64,',\n                                                                      Base64.encode(bytes(output)), '\"}'))));\n    return string(abi.encodePacked('data:application/json;base64,', json));\n  }\n\n  function setPrice(uint256 tokenId, uint256 price) external {\n    // Putting up for sale for the first time\n    if (_lastPurchasePrices[tokenId] == 0) {\n      require(IERC721Metadata(_originalCollection).getApproved(tokenId) == address(this), \"DoubleTrouble contract must be approved to operate this token\");\n    // All times after\n    } else {\n      require(_isApprovedOrOwner(msg.sender, tokenId), \"msg.sender should be approved or owner of NFT\");\n    }\n    _forSalePrices[tokenId] = price;\n  }\n\n  function buy(uint256 tokenId) payable external {\n    require(_forSalePrices[tokenId] > 0, \"NFT is not for sale\");\n    require(msg.value >= _forSalePrices[tokenId], \"Value sent must be at least the for sale price\");\n\n    // Make NFT troublesome if this is the first time it's being purchased\n    if (_lastPurchasePrices[tokenId] == 0) {\n      require(IERC721Metadata(_originalCollection).getApproved(tokenId) == address(this), \"DoubleTrouble contract must be approved to operate this token\");\n\n      // In the original collection, the owner forever becomes the DoubleTrouble contract\n      address owner = IERC721Metadata(_originalCollection).ownerOf(tokenId);\n      IERC721Metadata(_originalCollection).transferFrom(owner, address(this), tokenId);\n\n      // Mint an NFT in the DT contract so we start recording the true owner here\n      _mint(owner, tokenId);\n      _registeredTokens.push(tokenId);\n    }\n\n    _completeBuy(msg.sender, tokenId, msg.value);\n  }\n\n  function forceBuy(uint256 tokenId) payable external {\n    require(_lastPurchasePrices[tokenId] > 0, \"NFT was not yet purchased within DoubleTrouble\");\n    require(msg.value >= (2 * _lastPurchasePrices[tokenId]), \"Value sent must be at least twice the last purchase price\");\n    _completeBuy(msg.sender, tokenId, msg.value);\n  }\n\n  function _completeBuy(address newOwner, uint256 tokenId, uint256 amountPaid) internal virtual {\n    // Change owner, set last purchase price, and remove from sale\n    address oldOwner = ownerOf(tokenId);\n    _transfer(oldOwner, newOwner, tokenId);\n    _lastPurchasePrices[tokenId] = amountPaid;\n    _forSalePrices[tokenId] = 0;\n    uint256 feeToCharge = amountPaid / _feeRate;\n\n    // Send ether to the old owner. Must be at the very end of the buy function to prevent reentrancy attacks\n    // https://consensys.net/diligence/blog/2019/09/stop-using-soliditys-transfer-now/\n    (bool oldOwnersuccess, ) = oldOwner.call{value: amountPaid - 2 * feeToCharge}(\"\");\n    require(oldOwnersuccess, \"Transfer to owner failed.\");\n\n    // Send fee to patron of this troublesome Collection\n    address patron = _dto.patronOf(address(this));\n    (bool patronSuccess, ) = patron.call{value: feeToCharge}(\"\");\n\n    // Send rest of the fee to the DT wallet\n    uint256 rest = patronSuccess ? feeToCharge : 2 * feeToCharge;\n    (bool feeWalletSuccess, ) = _feeWallet.call{value: rest}(\"\");\n    require(feeWalletSuccess, \"Transfer to DT wallet failed.\");\n  }\n\n  function supportsInterface(bytes4 interfaceId) public view virtual override returns (bool) {\n    return interfaceId == 0xdeadbeef || super.supportsInterface(interfaceId);\n  }\n\n  function registeredTokens() external view returns (uint256[] memory) {\n    return _registeredTokens;\n  }\n}\n",
  "sourcePath": "/Users/gabrielguimaraes/crypto/double_trouble/blockchain-backend/contracts/DoubleTrouble.sol",
  "compiler": {
    "name": "solc",
    "version": "0.8.7+commit.e28d00a7.Emscripten.clang"
  },
  "schemaVersion": "3.4.2",
  "updatedAt": "2021-09-09T13:54:37.482Z",
  "devdoc": {
    "kind": "dev",
    "methods": {
      "approve(address,uint256)": {
        "details": "See {IERC721-approve}."
      },
      "balanceOf(address)": {
        "details": "See {IERC721-balanceOf}."
      },
      "getApproved(uint256)": {
        "details": "See {IERC721-getApproved}."
      },
      "isApprovedForAll(address,address)": {
        "details": "See {IERC721-isApprovedForAll}."
      },
      "name()": {
        "details": "See {IERC721Metadata-name}."
      },
      "ownerOf(uint256)": {
        "details": "See {IERC721-ownerOf}."
      },
      "setApprovalForAll(address,bool)": {
        "details": "See {IERC721-setApprovalForAll}."
      },
      "supportsInterface(bytes4)": {
        "details": "See {IERC165-supportsInterface}."
      },
      "symbol()": {
        "details": "See {IERC721Metadata-symbol}."
      },
      "tokenURI(uint256)": {
        "details": "See {IERC721Metadata-tokenURI}."
      }
    },
    "version": 1
  },
  "userdoc": {
    "kind": "user",
    "methods": {},
    "version": 1
  }
}