{
  "contractName": "DoubleTroubleOrchestrator",
  "abi": [
    {
      "inputs": [
        {
          "internalType": "contract DoubleTroubleFactory",
          "name": "dtFactory",
          "type": "address"
        },
        {
          "internalType": "address",
          "name": "feeWallet",
          "type": "address"
        }
      ],
      "stateMutability": "nonpayable",
      "type": "constructor"
    },
    {
      "anonymous": false,
      "inputs": [
        {
          "indexed": true,
          "internalType": "address",
          "name": "owner",
          "type": "address"
        },
        {
          "indexed": true,
          "internalType": "address",
          "name": "approved",
          "type": "address"
        },
        {
          "indexed": true,
          "internalType": "uint256",
          "name": "tokenId",
          "type": "uint256"
        }
      ],
      "name": "Approval",
      "type": "event"
    },
    {
      "anonymous": false,
      "inputs": [
        {
          "indexed": true,
          "internalType": "address",
          "name": "owner",
          "type": "address"
        },
        {
          "indexed": true,
          "internalType": "address",
          "name": "operator",
          "type": "address"
        },
        {
          "indexed": false,
          "internalType": "bool",
          "name": "approved",
          "type": "bool"
        }
      ],
      "name": "ApprovalForAll",
      "type": "event"
    },
    {
      "anonymous": false,
      "inputs": [
        {
          "indexed": true,
          "internalType": "address",
          "name": "from",
          "type": "address"
        },
        {
          "indexed": true,
          "internalType": "address",
          "name": "to",
          "type": "address"
        },
        {
          "indexed": true,
          "internalType": "uint256",
          "name": "tokenId",
          "type": "uint256"
        }
      ],
      "name": "Transfer",
      "type": "event"
    },
    {
      "inputs": [
        {
          "internalType": "address",
          "name": "",
          "type": "address"
        }
      ],
      "name": "_troublesomeCollections",
      "outputs": [
        {
          "internalType": "contract DoubleTrouble",
          "name": "",
          "type": "address"
        }
      ],
      "stateMutability": "view",
      "type": "function",
      "constant": true
    },
    {
      "inputs": [
        {
          "internalType": "address",
          "name": "to",
          "type": "address"
        },
        {
          "internalType": "uint256",
          "name": "tokenId",
          "type": "uint256"
        }
      ],
      "name": "approve",
      "outputs": [],
      "stateMutability": "nonpayable",
      "type": "function"
    },
    {
      "inputs": [
        {
          "internalType": "address",
          "name": "owner",
          "type": "address"
        }
      ],
      "name": "balanceOf",
      "outputs": [
        {
          "internalType": "uint256",
          "name": "",
          "type": "uint256"
        }
      ],
      "stateMutability": "view",
      "type": "function",
      "constant": true
    },
    {
      "inputs": [
        {
          "internalType": "uint256",
          "name": "tokenId",
          "type": "uint256"
        }
      ],
      "name": "getApproved",
      "outputs": [
        {
          "internalType": "address",
          "name": "",
          "type": "address"
        }
      ],
      "stateMutability": "view",
      "type": "function",
      "constant": true
    },
    {
      "inputs": [
        {
          "internalType": "address",
          "name": "owner",
          "type": "address"
        },
        {
          "internalType": "address",
          "name": "operator",
          "type": "address"
        }
      ],
      "name": "isApprovedForAll",
      "outputs": [
        {
          "internalType": "bool",
          "name": "",
          "type": "bool"
        }
      ],
      "stateMutability": "view",
      "type": "function",
      "constant": true
    },
    {
      "inputs": [],
      "name": "name",
      "outputs": [
        {
          "internalType": "string",
          "name": "",
          "type": "string"
        }
      ],
      "stateMutability": "view",
      "type": "function",
      "constant": true
    },
    {
      "inputs": [
        {
          "internalType": "uint256",
          "name": "tokenId",
          "type": "uint256"
        }
      ],
      "name": "ownerOf",
      "outputs": [
        {
          "internalType": "address",
          "name": "",
          "type": "address"
        }
      ],
      "stateMutability": "view",
      "type": "function",
      "constant": true
    },
    {
      "inputs": [
        {
          "internalType": "address",
          "name": "from",
          "type": "address"
        },
        {
          "internalType": "address",
          "name": "to",
          "type": "address"
        },
        {
          "internalType": "uint256",
          "name": "tokenId",
          "type": "uint256"
        }
      ],
      "name": "safeTransferFrom",
      "outputs": [],
      "stateMutability": "nonpayable",
      "type": "function"
    },
    {
      "inputs": [
        {
          "internalType": "address",
          "name": "from",
          "type": "address"
        },
        {
          "internalType": "address",
          "name": "to",
          "type": "address"
        },
        {
          "internalType": "uint256",
          "name": "tokenId",
          "type": "uint256"
        },
        {
          "internalType": "bytes",
          "name": "_data",
          "type": "bytes"
        }
      ],
      "name": "safeTransferFrom",
      "outputs": [],
      "stateMutability": "nonpayable",
      "type": "function"
    },
    {
      "inputs": [
        {
          "internalType": "address",
          "name": "operator",
          "type": "address"
        },
        {
          "internalType": "bool",
          "name": "approved",
          "type": "bool"
        }
      ],
      "name": "setApprovalForAll",
      "outputs": [],
      "stateMutability": "nonpayable",
      "type": "function"
    },
    {
      "inputs": [
        {
          "internalType": "bytes4",
          "name": "interfaceId",
          "type": "bytes4"
        }
      ],
      "name": "supportsInterface",
      "outputs": [
        {
          "internalType": "bool",
          "name": "",
          "type": "bool"
        }
      ],
      "stateMutability": "view",
      "type": "function",
      "constant": true
    },
    {
      "inputs": [],
      "name": "symbol",
      "outputs": [
        {
          "internalType": "string",
          "name": "",
          "type": "string"
        }
      ],
      "stateMutability": "view",
      "type": "function",
      "constant": true
    },
    {
      "inputs": [
        {
          "internalType": "address",
          "name": "from",
          "type": "address"
        },
        {
          "internalType": "address",
          "name": "to",
          "type": "address"
        },
        {
          "internalType": "uint256",
          "name": "tokenId",
          "type": "uint256"
        }
      ],
      "name": "transferFrom",
      "outputs": [],
      "stateMutability": "nonpayable",
      "type": "function"
    },
    {
      "inputs": [
        {
          "internalType": "address",
          "name": "nftCollection",
          "type": "address"
        },
        {
          "internalType": "string",
          "name": "name",
          "type": "string"
        },
        {
          "internalType": "string",
          "name": "symbol",
          "type": "string"
        }
      ],
      "name": "makeTroublesomeCollection",
      "outputs": [],
      "stateMutability": "nonpayable",
      "type": "function"
    },
    {
      "inputs": [
        {
          "internalType": "address",
          "name": "nftCollection",
          "type": "address"
        }
      ],
      "name": "troublesomeCollection",
      "outputs": [
        {
          "internalType": "contract DoubleTrouble",
          "name": "",
          "type": "address"
        }
      ],
      "stateMutability": "view",
      "type": "function",
      "constant": true
    },
    {
      "inputs": [],
      "name": "registeredCollections",
      "outputs": [
        {
          "internalType": "address[]",
          "name": "",
          "type": "address[]"
        },
        {
          "internalType": "address[]",
          "name": "",
          "type": "address[]"
        }
      ],
      "stateMutability": "view",
      "type": "function",
      "constant": true
    },
    {
      "inputs": [
        {
          "internalType": "uint256",
          "name": "tokenId",
          "type": "uint256"
        }
      ],
      "name": "registeredCollection",
      "outputs": [
        {
          "internalType": "address",
          "name": "",
          "type": "address"
        },
        {
          "internalType": "address",
          "name": "",
          "type": "address"
        }
      ],
      "stateMutability": "view",
      "type": "function",
      "constant": true
    },
    {
      "inputs": [
        {
          "internalType": "address",
          "name": "troublesomeCollectionAddr",
          "type": "address"
        }
      ],
      "name": "tokenIdForTroublesomeCollection",
      "outputs": [
        {
          "internalType": "uint256",
          "name": "",
          "type": "uint256"
        }
      ],
      "stateMutability": "view",
      "type": "function",
      "constant": true
    },
    {
      "inputs": [
        {
          "internalType": "uint256",
          "name": "tokenId",
          "type": "uint256"
        }
      ],
      "name": "trblOwnerOfTokenId",
      "outputs": [
        {
          "internalType": "address",
          "name": "",
          "type": "address"
        }
      ],
      "stateMutability": "view",
      "type": "function",
      "constant": true
    },
    {
      "inputs": [
        {
          "internalType": "address",
          "name": "troublesomeCollectionAddr",
          "type": "address"
        }
      ],
      "name": "trblOwnerOf",
      "outputs": [
        {
          "internalType": "address",
          "name": "",
          "type": "address"
        }
      ],
      "stateMutability": "view",
      "type": "function",
      "constant": true
    },
    {
      "inputs": [
        {
          "internalType": "uint256",
          "name": "tokenId",
          "type": "uint256"
        }
      ],
      "name": "getOriginalCollectionName",
      "outputs": [
        {
          "internalType": "string",
          "name": "",
          "type": "string"
        }
      ],
      "stateMutability": "view",
      "type": "function",
      "constant": true
    },
    {
      "inputs": [
        {
          "internalType": "uint256",
          "name": "tokenId",
          "type": "uint256"
        }
      ],
      "name": "getOriginalCollectionSymbol",
      "outputs": [
        {
          "internalType": "string",
          "name": "",
          "type": "string"
        }
      ],
      "stateMutability": "view",
      "type": "function",
      "constant": true
    },
    {
      "inputs": [
        {
          "internalType": "uint256",
          "name": "tokenId",
          "type": "uint256"
        }
      ],
      "name": "tokenURI",
      "outputs": [
        {
          "internalType": "string",
          "name": "",
          "type": "string"
        }
      ],
      "stateMutability": "view",
      "type": "function",
      "constant": true
    }
  ],
  "bytecode": "0x60806040523480156200001157600080fd5b506040516200528e3803806200528e83398181016040528101906200003791906200023f565b6040518060400160405280600e81526020017f446f75626c652054726f75626c650000000000000000000000000000000000008152506040518060400160405280600481526020017f5452424c000000000000000000000000000000000000000000000000000000008152508160009080519060200190620000bb92919062000161565b508060019080519060200190620000d492919062000161565b50505080600960006101000a81548173ffffffffffffffffffffffffffffffffffffffff021916908373ffffffffffffffffffffffffffffffffffffffff16021790555081600860006101000a81548173ffffffffffffffffffffffffffffffffffffffff021916908373ffffffffffffffffffffffffffffffffffffffff16021790555050506200036c565b8280546200016f90620002ce565b90600052602060002090601f016020900481019282620001935760008555620001df565b82601f10620001ae57805160ff1916838001178555620001df565b82800160010185558215620001df579182015b82811115620001de578251825591602001919060010190620001c1565b5b509050620001ee9190620001f2565b5090565b5b808211156200020d576000816000905550600101620001f3565b5090565b600081519050620002228162000338565b92915050565b600081519050620002398162000352565b92915050565b6000806040838503121562000259576200025862000333565b5b6000620002698582860162000228565b92505060206200027c8582860162000211565b9150509250929050565b60006200029382620002ae565b9050919050565b6000620002a78262000286565b9050919050565b600073ffffffffffffffffffffffffffffffffffffffff82169050919050565b60006002820490506001821680620002e757607f821691505b60208210811415620002fe57620002fd62000304565b5b50919050565b7f4e487b7100000000000000000000000000000000000000000000000000000000600052602260045260246000fd5b600080fd5b620003438162000286565b81146200034f57600080fd5b50565b6200035d816200029a565b81146200036957600080fd5b50565b614f12806200037c6000396000f3fe608060405234801561001057600080fd5b506004361061014d5760003560e01c8063838a8f14116100c3578063c87b56dd1161007c578063c87b56dd146103e6578063cd9a41f714610416578063e985e9c514610446578063f70d7e4b14610476578063f82ca21f146104a6578063f9871f93146104c55761014d565b8063838a8f141461031457806394d271581461034457806395d89b4114610360578063a22cb4651461037e578063ae21cd811461039a578063b88d4fde146103ca5761014d565b80630b788d6b116101155780630b788d6b1461021c57806323b872dd1461024c578063404d09f81461026857806342842e0e146102985780636352211e146102b457806370a08231146102e45761014d565b806301ffc9a71461015257806306fdde0314610182578063081812fc146101a0578063092d85da146101d0578063095ea7b314610200575b600080fd5b61016c6004803603810190610167919061331b565b6104f6565b6040516101799190613b43565b60405180910390f35b61018a6105d8565b6040516101979190613b79565b60405180910390f35b6101ba60048036038101906101b591906133eb565b61066a565b6040516101c79190613a7c565b60405180910390f35b6101ea60048036038101906101e59190613060565b6106ef565b6040516101f79190613a7c565b60405180910390f35b61021a600480360381019061021591906132db565b610809565b005b61023660048036038101906102319190613060565b610921565b6040516102439190613dfc565b60405180910390f35b6102666004803603810190610261919061313a565b610a64565b005b610282600480360381019061027d9190613060565b610ac4565b60405161028f9190613b5e565b60405180910390f35b6102b260048036038101906102ad919061313a565b610af7565b005b6102ce60048036038101906102c991906133eb565b610b17565b6040516102db9190613a7c565b60405180910390f35b6102fe60048036038101906102f99190613060565b610bc9565b60405161030b9190613dfc565b60405180910390f35b61032e600480360381019061032991906133eb565b610c81565b60405161033b9190613a7c565b60405180910390f35b61035e60048036038101906103599190613250565b610e1e565b005b6103686110b7565b6040516103759190613b79565b60405180910390f35b61039860048036038101906103939190613210565b611149565b005b6103b460048036038101906103af91906133eb565b6112ca565b6040516103c19190613b79565b60405180910390f35b6103e460048036038101906103df919061318d565b6113db565b005b61040060048036038101906103fb91906133eb565b61143d565b60405161040d9190613b79565b60405180910390f35b610430600480360381019061042b91906133eb565b611b77565b60405161043d9190613b79565b60405180910390f35b610460600480360381019061045b91906130ba565b611c88565b60405161046d9190613b43565b60405180910390f35b610490600480360381019061048b9190613060565b611d1c565b60405161049d9190613b5e565b60405180910390f35b6104ae611d85565b6040516104bc929190613b0c565b60405180910390f35b6104df60048036038101906104da91906133eb565b611f7d565b6040516104ed929190613a97565b60405180910390f35b60007f80ac58cd000000000000000000000000000000000000000000000000000000007bffffffffffffffffffffffffffffffffffffffffffffffffffffffff1916827bffffffffffffffffffffffffffffffffffffffffffffffffffffffff191614806105c157507f5b5e139f000000000000000000000000000000000000000000000000000000007bffffffffffffffffffffffffffffffffffffffffffffffffffffffff1916827bffffffffffffffffffffffffffffffffffffffffffffffffffffffff1916145b806105d157506105d082612075565b5b9050919050565b6060600080546105e790614382565b80601f016020809104026020016040519081016040528092919081815260200182805461061390614382565b80156106605780601f1061063557610100808354040283529160200191610660565b820191906000526020600020905b81548152906001019060200180831161064357829003601f168201915b5050505050905090565b6000610675826120df565b6106b4576040517f08c379a00000000000000000000000000000000000000000000000000000000081526004016106ab90613d5c565b60405180910390fd5b6004600083815260200190815260200160002060009054906101000a900473ffffffffffffffffffffffffffffffffffffffff169050919050565b60003073ffffffffffffffffffffffffffffffffffffffff1663838a8f143073ffffffffffffffffffffffffffffffffffffffff16630b788d6b856040518263ffffffff1660e01b81526004016107469190613a7c565b60206040518083038186803b15801561075e57600080fd5b505afa158015610772573d6000803e3d6000fd5b505050506040513d601f19601f820116820180604052508101906107969190613418565b6040518263ffffffff1660e01b81526004016107b29190613dfc565b60206040518083038186803b1580156107ca57600080fd5b505afa1580156107de573d6000803e3d6000fd5b505050506040513d601f19601f82011682018060405250810190610802919061308d565b9050919050565b600061081482610b17565b90508073ffffffffffffffffffffffffffffffffffffffff168373ffffffffffffffffffffffffffffffffffffffff161415610885576040517f08c379a000000000000000000000000000000000000000000000000000000000815260040161087c90613d9c565b60405180910390fd5b8073ffffffffffffffffffffffffffffffffffffffff166108a461214b565b73ffffffffffffffffffffffffffffffffffffffff1614806108d357506108d2816108cd61214b565b611c88565b5b610912576040517f08c379a000000000000000000000000000000000000000000000000000000000815260040161090990613cdc565b60405180910390fd5b61091c8383612153565b505050565b600080600090505b600a80549050811015610a235760076000600a838154811061094e5761094d6144ec565b5b9060005260206000200160009054906101000a900473ffffffffffffffffffffffffffffffffffffffff1673ffffffffffffffffffffffffffffffffffffffff1673ffffffffffffffffffffffffffffffffffffffff16815260200190815260200160002060009054906101000a900473ffffffffffffffffffffffffffffffffffffffff1673ffffffffffffffffffffffffffffffffffffffff168373ffffffffffffffffffffffffffffffffffffffff161415610a105780915050610a5f565b8080610a1b906143e5565b915050610929565b506040517f08c379a0000000000000000000000000000000000000000000000000000000008152600401610a5690613bfc565b60405180910390fd5b919050565b610a75610a6f61214b565b8261220c565b610ab4576040517f08c379a0000000000000000000000000000000000000000000000000000000008152600401610aab90613ddc565b60405180910390fd5b610abf8383836122ea565b505050565b60076020528060005260406000206000915054906101000a900473ffffffffffffffffffffffffffffffffffffffff1681565b610b12838383604051806020016040528060008152506113db565b505050565b6000806002600084815260200190815260200160002060009054906101000a900473ffffffffffffffffffffffffffffffffffffffff169050600073ffffffffffffffffffffffffffffffffffffffff168173ffffffffffffffffffffffffffffffffffffffff161415610bc0576040517f08c379a0000000000000000000000000000000000000000000000000000000008152600401610bb790613d1c565b60405180910390fd5b80915050919050565b60008073ffffffffffffffffffffffffffffffffffffffff168273ffffffffffffffffffffffffffffffffffffffff161415610c3a576040517f08c379a0000000000000000000000000000000000000000000000000000000008152600401610c3190613cfc565b60405180910390fd5b600360008373ffffffffffffffffffffffffffffffffffffffff1673ffffffffffffffffffffffffffffffffffffffff168152602001908152602001600020549050919050565b6000803073ffffffffffffffffffffffffffffffffffffffff1663f70d7e4b306040518263ffffffff1660e01b8152600401610cbd9190613a7c565b60206040518083038186803b158015610cd557600080fd5b505afa158015610ce9573d6000803e3d6000fd5b505050506040513d601f19601f82011682018060405250810190610d0d9190613375565b9050600073ffffffffffffffffffffffffffffffffffffffff168173ffffffffffffffffffffffffffffffffffffffff1614610e0c578073ffffffffffffffffffffffffffffffffffffffff16636352211e846040518263ffffffff1660e01b8152600401610d7c9190613dfc565b60206040518083038186803b158015610d9457600080fd5b505afa925050508015610dc557506040513d601f19601f82011682018060405250810190610dc2919061308d565b60015b610e01573d8060008114610df5576040519150601f19603f3d011682016040523d82523d6000602084013e610dfa565b606091505b5050610e0b565b8092505050610e19565b5b610e1583610b17565b9150505b919050565b600073ffffffffffffffffffffffffffffffffffffffff16600760008573ffffffffffffffffffffffffffffffffffffffff1673ffffffffffffffffffffffffffffffffffffffff16815260200190815260200160002060009054906101000a900473ffffffffffffffffffffffffffffffffffffffff1673ffffffffffffffffffffffffffffffffffffffff1614610eec576040517f08c379a0000000000000000000000000000000000000000000000000000000008152600401610ee390613dbc565b60405180910390fd5b600860009054906101000a900473ffffffffffffffffffffffffffffffffffffffff1673ffffffffffffffffffffffffffffffffffffffff1663b785be44838386600960009054906101000a900473ffffffffffffffffffffffffffffffffffffffff16306040518663ffffffff1660e01b8152600401610f71959493929190613b9b565b602060405180830381600087803b158015610f8b57600080fd5b505af1158015610f9f573d6000803e3d6000fd5b505050506040513d601f19601f82011682018060405250810190610fc39190613375565b600760008573ffffffffffffffffffffffffffffffffffffffff1673ffffffffffffffffffffffffffffffffffffffff16815260200190815260200160002060006101000a81548173ffffffffffffffffffffffffffffffffffffffff021916908373ffffffffffffffffffffffffffffffffffffffff16021790555061104f33600a80549050612546565b600a839080600181540180825580915050600190039060005260206000200160009091909190916101000a81548173ffffffffffffffffffffffffffffffffffffffff021916908373ffffffffffffffffffffffffffffffffffffffff160217905550505050565b6060600180546110c690614382565b80601f01602080910402602001604051908101604052809291908181526020018280546110f290614382565b801561113f5780601f106111145761010080835404028352916020019161113f565b820191906000526020600020905b81548152906001019060200180831161112257829003601f168201915b5050505050905090565b61115161214b565b73ffffffffffffffffffffffffffffffffffffffff168273ffffffffffffffffffffffffffffffffffffffff1614156111bf576040517f08c379a00000000000000000000000000000000000000000000000000000000081526004016111b690613c9c565b60405180910390fd5b80600560006111cc61214b565b73ffffffffffffffffffffffffffffffffffffffff1673ffffffffffffffffffffffffffffffffffffffff16815260200190815260200160002060008473ffffffffffffffffffffffffffffffffffffffff1673ffffffffffffffffffffffffffffffffffffffff16815260200190815260200160002060006101000a81548160ff0219169083151502179055508173ffffffffffffffffffffffffffffffffffffffff1661127961214b565b73ffffffffffffffffffffffffffffffffffffffff167f17307eab39ab6107e8899845ad3d59bd9653f200f220920489ca2b5937696c31836040516112be9190613b43565b60405180910390a35050565b6060600a805490508210611313576040517f08c379a000000000000000000000000000000000000000000000000000000000815260040161130a90613c3c565b60405180910390fd5b600a8281548110611327576113266144ec565b5b9060005260206000200160009054906101000a900473ffffffffffffffffffffffffffffffffffffffff1673ffffffffffffffffffffffffffffffffffffffff166395d89b416040518163ffffffff1660e01b815260040160006040518083038186803b15801561139757600080fd5b505afa1580156113ab573d6000803e3d6000fd5b505050506040513d6000823e3d601f19601f820116820180604052508101906113d491906133a2565b9050919050565b6113ec6113e661214b565b8361220c565b61142b576040517f08c379a000000000000000000000000000000000000000000000000000000000815260040161142290613ddc565b60405180910390fd5b61143784848484612714565b50505050565b6060600a805490508210611486576040517f08c379a000000000000000000000000000000000000000000000000000000000815260040161147d90613c3c565b60405180910390fd5b6000803073ffffffffffffffffffffffffffffffffffffffff1663f9871f93856040518263ffffffff1660e01b81526004016114c29190613dfc565b604080518083038186803b1580156114d957600080fd5b505afa1580156114ed573d6000803e3d6000fd5b505050506040513d601f19601f8201168201806040525081019061151191906130fa565b8092508193505050600061152483612770565b9050600061153183612770565b9050600061153e87612952565b9050611548612e40565b600060405180610120016040528060fd8152602001614d9e60fd9139828280611570906143e5565b935060148110611583576115826144ec565b5b60200201819052508260405160200161159c9190613a38565b6040516020818303038152906040528282806115b7906143e5565b9350601481106115ca576115c96144ec565b5b60200201819052506040518060400160405280600781526020017f3c2f746578743e00000000000000000000000000000000000000000000000000815250828280611614906143e5565b935060148110611627576116266144ec565b5b60200201819052503073ffffffffffffffffffffffffffffffffffffffff1663cd9a41f78a6040518263ffffffff1660e01b81526004016116689190613dfc565b60006040518083038186803b15801561168057600080fd5b505afa9250505080156116b657506040513d6000823e3d601f19601f820116820180604052508101906116b391906133a2565b60015b6116f2573d80600081146116e6576040519150601f19603f3d011682016040523d82523d6000602084013e6116eb565b606091505b50506117b9565b604051806060016040528060218152602001614e9b60219139838380611717906143e5565b94506014811061172a576117296144ec565b5b60200201819052508083838061173f906143e5565b945060148110611752576117516144ec565b5b60200201819052506040518060400160405280600781526020017f3c2f746578743e0000000000000000000000000000000000000000000000000081525083838061179c906143e5565b9450601481106117af576117ae6144ec565b5b6020020181905250505b3073ffffffffffffffffffffffffffffffffffffffff1663ae21cd818a6040518263ffffffff1660e01b81526004016117f29190613dfc565b60006040518083038186803b15801561180a57600080fd5b505afa92505050801561184057506040513d6000823e3d601f19601f8201168201806040525081019061183d91906133a2565b60015b61187c573d8060008114611870576040519150601f19603f3d011682016040523d82523d6000602084013e611875565b606091505b5050611943565b604051806060016040528060218152602001614ebc602191398383806118a1906143e5565b9450601481106118b4576118b36144ec565b5b6020020181905250808383806118c9906143e5565b9450601481106118dc576118db6144ec565b5b60200201819052506040518060400160405280600781526020017f3c2f746578743e00000000000000000000000000000000000000000000000000815250838380611926906143e5565b945060148110611939576119386144ec565b5b6020020181905250505b604051806060016040528060218152602001614d1460219139828280611968906143e5565b93506014811061197b5761197a6144ec565b5b6020020181905250846040516020016119949190613a16565b6040516020818303038152906040528282806119af906143e5565b9350601481106119c2576119c16144ec565b5b6020020181905250604051806060016040528060298152602001614d35602991398282806119ef906143e5565b935060148110611a0257611a016144ec565b5b602002018190525083604051602001611a1b91906139f4565b604051602081830303815290604052828280611a36906143e5565b935060148110611a4957611a486144ec565b5b60200201819052506040518060400160405280600d81526020017f3c2f746578743e3c2f7376673e00000000000000000000000000000000000000815250828280611a93906143e5565b935060148110611aa657611aa56144ec565b5b6020020181905250606060005b82811015611b095781848260148110611acf57611ace6144ec565b5b6020020151604051602001611ae5929190613939565b60405160208183030381529060405291508080611b01906143e5565b915050611ab3565b506000611b42858888611b1b86612ab3565b604051602001611b2e949392919061395d565b604051602081830303815290604052612ab3565b905080604051602001611b559190613a5a565b6040516020818303038152906040529150819950505050505050505050919050565b6060600a805490508210611bc0576040517f08c379a0000000000000000000000000000000000000000000000000000000008152600401611bb790613c3c565b60405180910390fd5b600a8281548110611bd457611bd36144ec565b5b9060005260206000200160009054906101000a900473ffffffffffffffffffffffffffffffffffffffff1673ffffffffffffffffffffffffffffffffffffffff166306fdde036040518163ffffffff1660e01b815260040160006040518083038186803b158015611c4457600080fd5b505afa158015611c58573d6000803e3d6000fd5b505050506040513d6000823e3d601f19601f82011682018060405250810190611c8191906133a2565b9050919050565b6000600560008473ffffffffffffffffffffffffffffffffffffffff1673ffffffffffffffffffffffffffffffffffffffff16815260200190815260200160002060008373ffffffffffffffffffffffffffffffffffffffff1673ffffffffffffffffffffffffffffffffffffffff16815260200190815260200160002060009054906101000a900460ff16905092915050565b6000600760008373ffffffffffffffffffffffffffffffffffffffff1673ffffffffffffffffffffffffffffffffffffffff16815260200190815260200160002060009054906101000a900473ffffffffffffffffffffffffffffffffffffffff169050919050565b6060806000600a8054905067ffffffffffffffff811115611da957611da861451b565b5b604051908082528060200260200182016040528015611dd75781602001602082028036833780820191505090505b50905060005b600a80549050811015611ee85760076000600a8381548110611e0257611e016144ec565b5b9060005260206000200160009054906101000a900473ffffffffffffffffffffffffffffffffffffffff1673ffffffffffffffffffffffffffffffffffffffff1673ffffffffffffffffffffffffffffffffffffffff16815260200190815260200160002060009054906101000a900473ffffffffffffffffffffffffffffffffffffffff16828281518110611e9b57611e9a6144ec565b5b602002602001019073ffffffffffffffffffffffffffffffffffffffff16908173ffffffffffffffffffffffffffffffffffffffff16815250508080611ee0906143e5565b915050611ddd565b50600a8181805480602002602001604051908101604052809291908181526020018280548015611f6d57602002820191906000526020600020905b8160009054906101000a900473ffffffffffffffffffffffffffffffffffffffff1673ffffffffffffffffffffffffffffffffffffffff1681526020019060010190808311611f23575b5050505050915092509250509091565b600080600a805490508310611fc7576040517f08c379a0000000000000000000000000000000000000000000000000000000008152600401611fbe90613c3c565b60405180910390fd5b6000600a8481548110611fdd57611fdc6144ec565b5b9060005260206000200160009054906101000a900473ffffffffffffffffffffffffffffffffffffffff16905080600760008373ffffffffffffffffffffffffffffffffffffffff1673ffffffffffffffffffffffffffffffffffffffff16815260200190815260200160002060009054906101000a900473ffffffffffffffffffffffffffffffffffffffff169250925050915091565b60007f01ffc9a7000000000000000000000000000000000000000000000000000000007bffffffffffffffffffffffffffffffffffffffffffffffffffffffff1916827bffffffffffffffffffffffffffffffffffffffffffffffffffffffff1916149050919050565b60008073ffffffffffffffffffffffffffffffffffffffff166002600084815260200190815260200160002060009054906101000a900473ffffffffffffffffffffffffffffffffffffffff1673ffffffffffffffffffffffffffffffffffffffff1614159050919050565b600033905090565b816004600083815260200190815260200160002060006101000a81548173ffffffffffffffffffffffffffffffffffffffff021916908373ffffffffffffffffffffffffffffffffffffffff160217905550808273ffffffffffffffffffffffffffffffffffffffff166121c683610b17565b73ffffffffffffffffffffffffffffffffffffffff167f8c5be1e5ebec7d5bd14f71427d1e84f3dd0314c0f7b2291e5b200ac8c7c3b92560405160405180910390a45050565b6000612217826120df565b612256576040517f08c379a000000000000000000000000000000000000000000000000000000000815260040161224d90613cbc565b60405180910390fd5b600061226183610b17565b90508073ffffffffffffffffffffffffffffffffffffffff168473ffffffffffffffffffffffffffffffffffffffff1614806122d057508373ffffffffffffffffffffffffffffffffffffffff166122b88461066a565b73ffffffffffffffffffffffffffffffffffffffff16145b806122e157506122e08185611c88565b5b91505092915050565b8273ffffffffffffffffffffffffffffffffffffffff1661230a82610b17565b73ffffffffffffffffffffffffffffffffffffffff1614612360576040517f08c379a000000000000000000000000000000000000000000000000000000000815260040161235790613d7c565b60405180910390fd5b600073ffffffffffffffffffffffffffffffffffffffff168273ffffffffffffffffffffffffffffffffffffffff1614156123d0576040517f08c379a00000000000000000000000000000000000000000000000000000000081526004016123c790613c7c565b60405180910390fd5b6123db838383612c4b565b6123e6600082612153565b6001600360008573ffffffffffffffffffffffffffffffffffffffff1673ffffffffffffffffffffffffffffffffffffffff1681526020019081526020016000206000828254612436919061420f565b925050819055506001600360008473ffffffffffffffffffffffffffffffffffffffff1673ffffffffffffffffffffffffffffffffffffffff168152602001908152602001600020600082825461248d9190613f1a565b92505081905550816002600083815260200190815260200160002060006101000a81548173ffffffffffffffffffffffffffffffffffffffff021916908373ffffffffffffffffffffffffffffffffffffffff160217905550808273ffffffffffffffffffffffffffffffffffffffff168473ffffffffffffffffffffffffffffffffffffffff167fddf252ad1be2c89b69c2b068fc378daa952ba7f163c4a11628f55a4df523b3ef60405160405180910390a4505050565b600073ffffffffffffffffffffffffffffffffffffffff168273ffffffffffffffffffffffffffffffffffffffff1614156125b6576040517f08c379a00000000000000000000000000000000000000000000000000000000081526004016125ad90613d3c565b60405180910390fd5b6125bf816120df565b156125ff576040517f08c379a00000000000000000000000000000000000000000000000000000000081526004016125f690613c5c565b60405180910390fd5b61260b60008383612c4b565b6001600360008473ffffffffffffffffffffffffffffffffffffffff1673ffffffffffffffffffffffffffffffffffffffff168152602001908152602001600020600082825461265b9190613f1a565b92505081905550816002600083815260200190815260200160002060006101000a81548173ffffffffffffffffffffffffffffffffffffffff021916908373ffffffffffffffffffffffffffffffffffffffff160217905550808273ffffffffffffffffffffffffffffffffffffffff16600073ffffffffffffffffffffffffffffffffffffffff167fddf252ad1be2c89b69c2b068fc378daa952ba7f163c4a11628f55a4df523b3ef60405160405180910390a45050565b61271f8484846122ea565b61272b84848484612c50565b61276a576040517f08c379a000000000000000000000000000000000000000000000000000000000815260040161276190613c1c565b60405180910390fd5b50505050565b60606000602867ffffffffffffffff81111561278f5761278e61451b565b5b6040519080825280601f01601f1916602001820160405280156127c15781602001600182028036833780820191505090505b50905060005b60148110156129295760008160136127df919061420f565b60086127eb919061417a565b60026127f7919061405c565b8573ffffffffffffffffffffffffffffffffffffffff166128189190613fa7565b60f81b9050600060108260f81c61282f9190613fd8565b60f81b905060008160f81c601061284691906141d4565b8360f81c6128549190614243565b60f81b905061286282612de7565b85856002612870919061417a565b81518110612881576128806144ec565b5b60200101907effffffffffffffffffffffffffffffffffffffffffffffffffffffffffffff1916908160001a9053506128b981612de7565b8560018660026128c9919061417a565b6128d39190613f1a565b815181106128e4576128e36144ec565b5b60200101907effffffffffffffffffffffffffffffffffffffffffffffffffffffffffffff1916908160001a9053505050508080612921906143e5565b9150506127c7565b508060405160200161293b91906139d2565b604051602081830303815290604052915050919050565b6060600082141561299a576040518060400160405280600181526020017f30000000000000000000000000000000000000000000000000000000000000008152509050612aae565b600082905060005b600082146129cc5780806129b5906143e5565b915050600a826129c59190613fa7565b91506129a2565b60008167ffffffffffffffff8111156129e8576129e761451b565b5b6040519080825280601f01601f191660200182016040528015612a1a5781602001600182028036833780820191505090505b5090505b60008514612aa757600182612a33919061420f565b9150600a85612a42919061442e565b6030612a4e9190613f1a565b60f81b818381518110612a6457612a636144ec565b5b60200101907effffffffffffffffffffffffffffffffffffffffffffffffffffffffffffff1916908160001a905350600a85612aa09190613fa7565b9450612a1e565b8093505050505b919050565b60606000825190506000811415612adc5760405180602001604052806000815250915050612c46565b60006003600283612aed9190613f1a565b612af79190613fa7565b6004612b03919061417a565b90506000602082612b149190613f1a565b67ffffffffffffffff811115612b2d57612b2c61451b565b5b6040519080825280601f01601f191660200182016040528015612b5f5781602001600182028036833780820191505090505b5090506000604051806060016040528060408152602001614d5e604091399050600181016020830160005b86811015612c035760038101905062ffffff818a015116603f8160121c168401518060081b905060ff603f83600c1c1686015116810190508060081b905060ff603f8360061c1686015116810190508060081b905060ff603f831686015116810190508060e01b90508084526004840193505050612b8a565b506003860660018114612c1d5760028114612c2d57612c38565b613d3d60f01b6002830352612c38565b603d60f81b60018303525b508484525050819450505050505b919050565b505050565b6000612c718473ffffffffffffffffffffffffffffffffffffffff16612e2d565b15612dda578373ffffffffffffffffffffffffffffffffffffffff1663150b7a02612c9a61214b565b8786866040518563ffffffff1660e01b8152600401612cbc9493929190613ac0565b602060405180830381600087803b158015612cd657600080fd5b505af1925050508015612d0757506040513d601f19601f82011682018060405250810190612d049190613348565b60015b612d8a573d8060008114612d37576040519150601f19603f3d011682016040523d82523d6000602084013e612d3c565b606091505b50600081511415612d82576040517f08c379a0000000000000000000000000000000000000000000000000000000008152600401612d7990613c1c565b60405180910390fd5b805181602001fd5b63150b7a0260e01b7bffffffffffffffffffffffffffffffffffffffffffffffffffffffff1916817bffffffffffffffffffffffffffffffffffffffffffffffffffffffff191614915050612ddf565b600190505b949350505050565b6000600a8260f81c60ff161015612e125760308260f81c612e089190613f70565b60f81b9050612e28565b60578260f81c612e229190613f70565b60f81b90505b919050565b600080823b905060008111915050919050565b6040518061028001604052806014905b6060815260200190600190039081612e505790505090565b6000612e7b612e7684613e3c565b613e17565b905082815260208101848484011115612e9757612e9661454f565b5b612ea2848285614340565b509392505050565b6000612ebd612eb884613e6d565b613e17565b905082815260208101848484011115612ed957612ed861454f565b5b612ee4848285614340565b509392505050565b6000612eff612efa84613e6d565b613e17565b905082815260208101848484011115612f1b57612f1a61454f565b5b612f2684828561434f565b509392505050565b600081359050612f3d81614ca0565b92915050565b600081519050612f5281614ca0565b92915050565b600081359050612f6781614cb7565b92915050565b600081359050612f7c81614cce565b92915050565b600081519050612f9181614cce565b92915050565b600082601f830112612fac57612fab61454a565b5b8135612fbc848260208601612e68565b91505092915050565b600081519050612fd481614ce5565b92915050565b600082601f830112612fef57612fee61454a565b5b8135612fff848260208601612eaa565b91505092915050565b600082601f83011261301d5761301c61454a565b5b815161302d848260208601612eec565b91505092915050565b60008135905061304581614cfc565b92915050565b60008151905061305a81614cfc565b92915050565b60006020828403121561307657613075614559565b5b600061308484828501612f2e565b91505092915050565b6000602082840312156130a3576130a2614559565b5b60006130b184828501612f43565b91505092915050565b600080604083850312156130d1576130d0614559565b5b60006130df85828601612f2e565b92505060206130f085828601612f2e565b9150509250929050565b6000806040838503121561311157613110614559565b5b600061311f85828601612f43565b925050602061313085828601612f43565b9150509250929050565b60008060006060848603121561315357613152614559565b5b600061316186828701612f2e565b935050602061317286828701612f2e565b925050604061318386828701613036565b9150509250925092565b600080600080608085870312156131a7576131a6614559565b5b60006131b587828801612f2e565b94505060206131c687828801612f2e565b93505060406131d787828801613036565b925050606085013567ffffffffffffffff8111156131f8576131f7614554565b5b61320487828801612f97565b91505092959194509250565b6000806040838503121561322757613226614559565b5b600061323585828601612f2e565b925050602061324685828601612f58565b9150509250929050565b60008060006060848603121561326957613268614559565b5b600061327786828701612f2e565b935050602084013567ffffffffffffffff81111561329857613297614554565b5b6132a486828701612fda565b925050604084013567ffffffffffffffff8111156132c5576132c4614554565b5b6132d186828701612fda565b9150509250925092565b600080604083850312156132f2576132f1614559565b5b600061330085828601612f2e565b925050602061331185828601613036565b9150509250929050565b60006020828403121561333157613330614559565b5b600061333f84828501612f6d565b91505092915050565b60006020828403121561335e5761335d614559565b5b600061336c84828501612f82565b91505092915050565b60006020828403121561338b5761338a614559565b5b600061339984828501612fc5565b91505092915050565b6000602082840312156133b8576133b7614559565b5b600082015167ffffffffffffffff8111156133d6576133d5614554565b5b6133e284828501613008565b91505092915050565b60006020828403121561340157613400614559565b5b600061340f84828501613036565b91505092915050565b60006020828403121561342e5761342d614559565b5b600061343c8482850161304b565b91505092915050565b6000613451838361345d565b60208301905092915050565b61346681614277565b82525050565b61347581614277565b82525050565b600061348682613eae565b6134908185613edc565b935061349b83613e9e565b8060005b838110156134cc5781516134b38882613445565b97506134be83613ecf565b92505060018101905061349f565b5085935050505092915050565b6134e281614289565b82525050565b60006134f382613eb9565b6134fd8185613eed565b935061350d81856020860161434f565b6135168161455e565b840191505092915050565b61352a8161430a565b82525050565b600061353b82613ec4565b6135458185613efe565b935061355581856020860161434f565b61355e8161455e565b840191505092915050565b600061357482613ec4565b61357e8185613f0f565b935061358e81856020860161434f565b80840191505092915050565b60006135a7601483613efe565b91506135b28261457c565b602082019050919050565b60006135ca603283613efe565b91506135d5826145a5565b604082019050919050565b60006135ed601083613f0f565b91506135f8826145f4565b601082019050919050565b6000613610601383613efe565b915061361b8261461d565b602082019050919050565b6000613633601c83613efe565b915061363e82614646565b602082019050919050565b6000613656600283613f0f565b91506136618261466f565b600282019050919050565b6000613679602483613efe565b915061368482614698565b604082019050919050565b600061369c601983613efe565b91506136a7826146e7565b602082019050919050565b60006136bf602c83613efe565b91506136ca82614710565b604082019050919050565b60006136e2600d83613f0f565b91506136ed8261475f565b600d82019050919050565b6000613705603883613efe565b915061371082614788565b604082019050919050565b6000613728602a83613efe565b9150613733826147d7565b604082019050919050565b600061374b602983613efe565b915061375682614826565b604082019050919050565b600061376e600a83613f0f565b915061377982614875565b600a82019050919050565b6000613791601d83613f0f565b915061379c8261489e565b601d82019050919050565b60006137b4600283613f0f565b91506137bf826148c7565b600282019050919050565b60006137d7602083613efe565b91506137e2826148f0565b602082019050919050565b60006137fa602c83613efe565b915061380582614919565b604082019050919050565b600061381d602983613efe565b915061382882614968565b604082019050919050565b6000613840602183613efe565b915061384b826149b7565b604082019050919050565b600061386461013b83613f0f565b915061386f82614a06565b61013b82019050919050565b6000613888600683613f0f565b915061389382614b87565b600682019050919050565b60006138ab601a83613f0f565b91506138b682614bb0565b601a82019050919050565b60006138ce601d83613f0f565b91506138d982614bd9565b601d82019050919050565b60006138f1602183613efe565b91506138fc82614c02565b604082019050919050565b6000613914603183613efe565b915061391f82614c51565b604082019050919050565b613933816142f3565b82525050565b60006139458285613569565b91506139518284613569565b91508190509392505050565b6000613968826135e0565b91506139748287613569565b915061397f8261389e565b915061398b8286613569565b915061399682613784565b91506139a28285613569565b91506139ad82613856565b91506139b98284613569565b91506139c4826137a7565b915081905095945050505050565b60006139dd82613649565b91506139e98284613569565b915081905092915050565b60006139ff826136d5565b9150613a0b8284613569565b915081905092915050565b6000613a2182613761565b9150613a2d8284613569565b915081905092915050565b6000613a438261387b565b9150613a4f8284613569565b915081905092915050565b6000613a65826138c1565b9150613a718284613569565b915081905092915050565b6000602082019050613a91600083018461346c565b92915050565b6000604082019050613aac600083018561346c565b613ab9602083018461346c565b9392505050565b6000608082019050613ad5600083018761346c565b613ae2602083018661346c565b613aef604083018561392a565b8181036060830152613b0181846134e8565b905095945050505050565b60006040820190508181036000830152613b26818561347b565b90508181036020830152613b3a818461347b565b90509392505050565b6000602082019050613b5860008301846134d9565b92915050565b6000602082019050613b736000830184613521565b92915050565b60006020820190508181036000830152613b938184613530565b905092915050565b600060a0820190508181036000830152613bb58188613530565b90508181036020830152613bc98187613530565b9050613bd8604083018661346c565b613be5606083018561346c565b613bf2608083018461346c565b9695505050505050565b60006020820190508181036000830152613c158161359a565b9050919050565b60006020820190508181036000830152613c35816135bd565b9050919050565b60006020820190508181036000830152613c5581613603565b9050919050565b60006020820190508181036000830152613c7581613626565b9050919050565b60006020820190508181036000830152613c958161366c565b9050919050565b60006020820190508181036000830152613cb58161368f565b9050919050565b60006020820190508181036000830152613cd5816136b2565b9050919050565b60006020820190508181036000830152613cf5816136f8565b9050919050565b60006020820190508181036000830152613d158161371b565b9050919050565b60006020820190508181036000830152613d358161373e565b9050919050565b60006020820190508181036000830152613d55816137ca565b9050919050565b60006020820190508181036000830152613d75816137ed565b9050919050565b60006020820190508181036000830152613d9581613810565b9050919050565b60006020820190508181036000830152613db581613833565b9050919050565b60006020820190508181036000830152613dd5816138e4565b9050919050565b60006020820190508181036000830152613df581613907565b9050919050565b6000602082019050613e11600083018461392a565b92915050565b6000613e21613e32565b9050613e2d82826143b4565b919050565b6000604051905090565b600067ffffffffffffffff821115613e5757613e5661451b565b5b613e608261455e565b9050602081019050919050565b600067ffffffffffffffff821115613e8857613e8761451b565b5b613e918261455e565b9050602081019050919050565b6000819050602082019050919050565b600081519050919050565b600081519050919050565b600081519050919050565b6000602082019050919050565b600082825260208201905092915050565b600082825260208201905092915050565b600082825260208201905092915050565b600081905092915050565b6000613f25826142f3565b9150613f30836142f3565b9250827fffffffffffffffffffffffffffffffffffffffffffffffffffffffffffffffff03821115613f6557613f6461445f565b5b828201905092915050565b6000613f7b826142fd565b9150613f86836142fd565b92508260ff03821115613f9c57613f9b61445f565b5b828201905092915050565b6000613fb2826142f3565b9150613fbd836142f3565b925082613fcd57613fcc61448e565b5b828204905092915050565b6000613fe3826142fd565b9150613fee836142fd565b925082613ffe57613ffd61448e565b5b828204905092915050565b6000808291508390505b60018511156140535780860481111561402f5761402e61445f565b5b600185161561403e5780820291505b808102905061404c8561456f565b9450614013565b94509492505050565b6000614067826142f3565b9150614072836142f3565b925061409f7fffffffffffffffffffffffffffffffffffffffffffffffffffffffffffffffff84846140a7565b905092915050565b6000826140b75760019050614173565b816140c55760009050614173565b81600181146140db57600281146140e557614114565b6001915050614173565b60ff8411156140f7576140f661445f565b5b8360020a91508482111561410e5761410d61445f565b5b50614173565b5060208310610133831016604e8410600b84101617156141495782820a9050838111156141445761414361445f565b5b614173565b6141568484846001614009565b9250905081840481111561416d5761416c61445f565b5b81810290505b9392505050565b6000614185826142f3565b9150614190836142f3565b9250817fffffffffffffffffffffffffffffffffffffffffffffffffffffffffffffffff04831182151516156141c9576141c861445f565b5b828202905092915050565b60006141df826142fd565b91506141ea836142fd565b92508160ff04831182151516156142045761420361445f565b5b828202905092915050565b600061421a826142f3565b9150614225836142f3565b9250828210156142385761423761445f565b5b828203905092915050565b600061424e826142fd565b9150614259836142fd565b92508282101561426c5761426b61445f565b5b828203905092915050565b6000614282826142d3565b9050919050565b60008115159050919050565b60007fffffffff0000000000000000000000000000000000000000000000000000000082169050919050565b60006142cc82614277565b9050919050565b600073ffffffffffffffffffffffffffffffffffffffff82169050919050565b6000819050919050565b600060ff82169050919050565b60006143158261431c565b9050919050565b60006143278261432e565b9050919050565b6000614339826142d3565b9050919050565b82818337600083830152505050565b60005b8381101561436d578082015181840152602081019050614352565b8381111561437c576000848401525b50505050565b6000600282049050600182168061439a57607f821691505b602082108114156143ae576143ad6144bd565b5b50919050565b6143bd8261455e565b810181811067ffffffffffffffff821117156143dc576143db61451b565b5b80604052505050565b60006143f0826142f3565b91507fffffffffffffffffffffffffffffffffffffffffffffffffffffffffffffffff8214156144235761442261445f565b5b600182019050919050565b6000614439826142f3565b9150614444836142f3565b9250826144545761445361448e565b5b828206905092915050565b7f4e487b7100000000000000000000000000000000000000000000000000000000600052601160045260246000fd5b7f4e487b7100000000000000000000000000000000000000000000000000000000600052601260045260246000fd5b7f4e487b7100000000000000000000000000000000000000000000000000000000600052602260045260246000fd5b7f4e487b7100000000000000000000000000000000000000000000000000000000600052603260045260246000fd5b7f4e487b7100000000000000000000000000000000000000000000000000000000600052604160045260246000fd5b600080fd5b600080fd5b600080fd5b600080fd5b6000601f19601f8301169050919050565b60008160011c9050919050565b7f436f6c6c656374696f6e206e6f7420666f756e64000000000000000000000000600082015250565b7f4552433732313a207472616e7366657220746f206e6f6e20455243373231526560008201527f63656976657220696d706c656d656e7465720000000000000000000000000000602082015250565b7f7b226e616d65223a20225452424c202300000000000000000000000000000000600082015250565b7f746f6b656e4964206e6f742070726573656e7400000000000000000000000000600082015250565b7f4552433732313a20746f6b656e20616c7265616479206d696e74656400000000600082015250565b7f3078000000000000000000000000000000000000000000000000000000000000600082015250565b7f4552433732313a207472616e7366657220746f20746865207a65726f2061646460008201527f7265737300000000000000000000000000000000000000000000000000000000602082015250565b7f4552433732313a20617070726f766520746f2063616c6c657200000000000000600082015250565b7f4552433732313a206f70657261746f7220717565727920666f72206e6f6e657860008201527f697374656e7420746f6b656e0000000000000000000000000000000000000000602082015250565b7f54726f75626c65736f6d653a2000000000000000000000000000000000000000600082015250565b7f4552433732313a20617070726f76652063616c6c6572206973206e6f74206f7760008201527f6e6572206e6f7220617070726f76656420666f7220616c6c0000000000000000602082015250565b7f4552433732313a2062616c616e636520717565727920666f7220746865207a6560008201527f726f206164647265737300000000000000000000000000000000000000000000602082015250565b7f4552433732313a206f776e657220717565727920666f72206e6f6e657869737460008201527f656e7420746f6b656e0000000000000000000000000000000000000000000000602082015250565b7f4f726967696e616c3a2000000000000000000000000000000000000000000000600082015250565b7f222c202274726f75626c65736f6d65436f6c6c656374696f6e223a2022000000600082015250565b7f227d000000000000000000000000000000000000000000000000000000000000600082015250565b7f4552433732313a206d696e7420746f20746865207a65726f2061646472657373600082015250565b7f4552433732313a20617070726f76656420717565727920666f72206e6f6e657860008201527f697374656e7420746f6b656e0000000000000000000000000000000000000000602082015250565b7f4552433732313a207472616e73666572206f6620746f6b656e2074686174206960008201527f73206e6f74206f776e0000000000000000000000000000000000000000000000602082015250565b7f4552433732313a20617070726f76616c20746f2063757272656e74206f776e6560008201527f7200000000000000000000000000000000000000000000000000000000000000602082015250565b7f222c20226465736372697074696f6e223a20225468657265206973206f6e652060008201527f5452424c204e465420666f72206561636820636f6c6c656374696f6e206d616460208201527f652074726f75626c65736f6d65206279206f757220636f6d6d756e6974792e2060408201527f57686f65766572206172726976657320666972737420616e64206d616b65732060608201527f616e204e465420636f6c6c656374696f6e2074726f75626c65736f6d6520676560808201527f74732074686520756e69717565205452424c204e465420666f7220746861742060a08201527f636f6c6c656374696f6e2061732061207072697a652e204665656c206672656560c08201527f20746f2075736520616e6420696e74657270726574205452424c204e4654732060e08201527f696e20616e792077617920796f752077616e742e222c2022696d616765223a206101008201527f22646174613a696d6167652f7376672b786d6c3b6261736536342c000000000061012082015250565b7f5452424c20230000000000000000000000000000000000000000000000000000600082015250565b7f222c20226f726967696e616c436f6c6c656374696f6e223a2022000000000000600082015250565b7f646174613a6170706c69636174696f6e2f6a736f6e3b6261736536342c000000600082015250565b7f436f6c6c656374696f6e20697320616c72656164792054726f75626c65736f6d60008201527f6500000000000000000000000000000000000000000000000000000000000000602082015250565b7f4552433732313a207472616e736665722063616c6c6572206973206e6f74206f60008201527f776e6572206e6f7220617070726f766564000000000000000000000000000000602082015250565b614ca981614277565b8114614cb457600080fd5b50565b614cc081614289565b8114614ccb57600080fd5b50565b614cd781614295565b8114614ce257600080fd5b50565b614cee816142c1565b8114614cf957600080fd5b50565b614d05816142f3565b8114614d1057600080fd5b5056fe3c7465787420783d2231302220793d2238302220636c6173733d2262617365223e3c2f746578743e3c7465787420783d2231302220793d223130302220636c6173733d2262617365223e4142434445464748494a4b4c4d4e4f505152535455565758595a6162636465666768696a6b6c6d6e6f707172737475767778797a303132333435363738392b2f3c73766720786d6c6e733d22687474703a2f2f7777772e77332e6f72672f323030302f73766722207072657365727665417370656374526174696f3d22784d696e594d696e206d656574222076696577426f783d223020302034303020343030223e3c7374796c653e2e62617365207b2066696c6c3a2077686974653b20666f6e742d66616d696c793a2073657269663b20666f6e742d73697a653a20313470783b207d3c2f7374796c653e3c726563742077696474683d223130302522206865696768743d2231303025222066696c6c3d22626c61636b22202f3e3c7465787420783d2231302220793d2232302220636c6173733d2262617365223e3c7465787420783d2231302220793d2234302220636c6173733d2262617365223e3c7465787420783d2231302220793d2236302220636c6173733d2262617365223ea2646970667358221220db6f117fe4006029eb214399b67c8aaf9d214729e9e62967ba96c95d1a785ad864736f6c63430008070033",
  "immutableReferences": {},
  "source": "pragma solidity ^0.8.0;\n\nimport \"@openzeppelin/contracts/token/ERC721/extensions/IERC721Metadata.sol\";\nimport \"@openzeppelin/contracts/token/ERC721/extensions/ERC721URIStorage.sol\";\nimport \"./DoubleTrouble.sol\";\nimport \"./Libraries.sol\";\n\n// SPDX-License-Identifier: MIT\ncontract DoubleTroubleOrchestrator is ERC721URIStorage {\n  mapping (address => DoubleTrouble) public _troublesomeCollections;\n  DoubleTroubleFactory _dtFactory;\n  address _feeWallet;\n  address[] _registeredCollections;\n\n  constructor(DoubleTroubleFactory dtFactory, address feeWallet) ERC721(\"Double Trouble\", \"TRBL\") {\n    _feeWallet = feeWallet;\n    _dtFactory = dtFactory;\n  }\n\n  function makeTroublesomeCollection(address nftCollection, string memory name, string memory symbol) external {\n    require(address(_troublesomeCollections[nftCollection]) == address(0), \"Collection is already Troublesome\");\n\n    // Deploy troublesome contract for nftCollection\n    _troublesomeCollections[nftCollection] = _dtFactory.makeNew(name, symbol, nftCollection, _feeWallet, address(this));\n    _mint(msg.sender, _registeredCollections.length);\n    _registeredCollections.push(nftCollection);\n  }\n\n  function troublesomeCollection(address nftCollection) external view returns (DoubleTrouble) {\n    return _troublesomeCollections[nftCollection];\n  }\n\n  function registeredCollections() external view returns (address[] memory, address[] memory) {\n    address[] memory mappedCollections = new address[](_registeredCollections.length);\n    for (uint i = 0; i < _registeredCollections.length; i++) {\n      mappedCollections[i] = address(_troublesomeCollections[_registeredCollections[i]]);\n    }\n\n    return (_registeredCollections, mappedCollections);\n  }\n\n  function registeredCollection(uint256 tokenId) external view returns (address, address) {\n    require(tokenId < _registeredCollections.length, \"tokenId not present\");\n    address original = _registeredCollections[tokenId];\n    return (original, address(_troublesomeCollections[original]));\n  }\n\n  function tokenIdForTroublesomeCollection(address troublesomeCollectionAddr) external view returns (uint256) {\n    for (uint i = 0; i < _registeredCollections.length; i++) {\n      if (troublesomeCollectionAddr == address(_troublesomeCollections[_registeredCollections[i]])) {\n        return i;\n      }\n    }\n    revert(\"Collection not found\");\n  }\n\n  // This is the most meta code in this contract\n  // If TRBL # tokenId is owned by an externally owned account, trblOwnerOf returns that account\n  // if TRBL # tokenId is owned by the troublesome contract of this DTO, return the owner per\n  // the troublesome contract\n  function trblOwnerOfTokenId(uint256 tokenId) external view returns (address) {\n    // Try to reach for a troublesomeCollection for this DTO\n    DoubleTrouble dtForDto = this.troublesomeCollection(address(this));\n    if (address(dtForDto) != address(0)) {\n      try dtForDto.ownerOf(tokenId) returns (address owner) {\n        return owner;\n      } catch (bytes memory /*lowLevelData*/) {\n        // NOOP\n      }\n    }\n\n    // If the above failed, it means DTO itself knows the trblOwner\n    return ownerOf(tokenId);\n  }\n\n  function trblOwnerOf(address troublesomeCollectionAddr) external view returns (address) {\n    return this.trblOwnerOfTokenId(this.tokenIdForTroublesomeCollection(troublesomeCollectionAddr));\n  }\n\n  function getOriginalCollectionName(uint256 tokenId) external view returns (string memory) {\n    require(tokenId < _registeredCollections.length, \"tokenId not present\");\n    return IERC721Metadata(_registeredCollections[tokenId]).name();\n  }\n\n  function getOriginalCollectionSymbol(uint256 tokenId) external view returns (string memory) {\n    require(tokenId < _registeredCollections.length, \"tokenId not present\");\n    return IERC721Metadata(_registeredCollections[tokenId]).symbol();\n  }\n\n  function tokenURI(uint256 tokenId) public view virtual override returns (string memory) {\n    require(tokenId < _registeredCollections.length, \"tokenId not present\");\n    address o;\n    address t;\n    (o, t) = this.registeredCollection(tokenId);\n    string memory originalAddr = Stringify.toString(o);\n    string memory troublesomeAddr= Stringify.toString(t);\n    string memory strTokenId = Stringify.toString(tokenId);\n\n    string[20] memory parts;\n    uint256 lastPart = 0;\n    parts[lastPart++] = '<svg xmlns=\"http://www.w3.org/2000/svg\" preserveAspectRatio=\"xMinYMin meet\" viewBox=\"0 0 400 400\"><style>.base { fill: white; font-family: serif; font-size: 14px; }</style><rect width=\"100%\" height=\"100%\" fill=\"black\" /><text x=\"10\" y=\"20\" class=\"base\">';\n\n    parts[lastPart++] = string(abi.encodePacked('TRBL #', strTokenId));\n    parts[lastPart++] = '</text>';\n\n    try this.getOriginalCollectionName(tokenId) returns (string memory name) {\n      parts[lastPart++] = '<text x=\"10\" y=\"40\" class=\"base\">';\n      parts[lastPart++] = name;\n      parts[lastPart++] = '</text>';\n    } catch (bytes memory /*lowLevelData*/) {\n      // NOOP\n    }\n\n    try this.getOriginalCollectionSymbol(tokenId) returns (string memory symbol) {\n      parts[lastPart++] = '<text x=\"10\" y=\"60\" class=\"base\">';\n      parts[lastPart++] = symbol;\n      parts[lastPart++] = '</text>';\n    } catch (bytes memory /*lowLevelData*/) {\n      // NOOP\n    }\n\n    parts[lastPart++] = '<text x=\"10\" y=\"80\" class=\"base\">';\n    parts[lastPart++] = string(abi.encodePacked('Original: ', originalAddr));\n    parts[lastPart++] = '</text><text x=\"10\" y=\"100\" class=\"base\">';\n\n    parts[lastPart++] = string(abi.encodePacked('Troublesome: ', troublesomeAddr));\n    parts[lastPart++] = '</text></svg>';\n\n    string memory output;\n    for (uint256 i = 0; i < lastPart; i++) {\n      output = string(abi.encodePacked(output, parts[i]));\n    }\n\n    string memory json = Base64.encode(bytes(string(abi.encodePacked('{\"name\": \"TRBL #', strTokenId, '\", \"originalCollection\": \"',\n                                                                      originalAddr, '\", \"troublesomeCollection\": \"',\n                                                                      troublesomeAddr, '\", \"description\": \"There is one TRBL NFT for each collection made troublesome by our community. Whoever arrives first and makes an NFT collection troublesome gets the unique TRBL NFT for that collection as a prize. Feel free to use and interpret TRBL NFTs in any way you want.\", \"image\": \"data:image/svg+xml;base64,',\n                                                                      Base64.encode(bytes(output)), '\"}'))));\n    output = string(abi.encodePacked('data:application/json;base64,', json));\n\n    return output;\n  }\n}\n\n/*\n* We need a Factory contract here because otherwise\n* DoubleTroubleOrchestrator's code would have to include all of\n* DoubleTrouble's code, and this would make DTO go above the 24KB Ethereum contract size limit.\n*\n* See more on this here: https://ethereum.stackexchange.com/questions/41501/contract-code-size-and-how-to-work-around-it\n*/\ncontract DoubleTroubleFactory {\n  function makeNew(string memory name, string memory symbol, address nftCollection, address feeWallet, address dto)\n        external returns (DoubleTrouble) {\n    return new DoubleTrouble(name, symbol, nftCollection, feeWallet, dto);\n  }\n}\n",
  "sourcePath": "/Users/gabrielguimaraes/crypto/double_trouble/blockchain-backend/contracts/DoubleTroubleOrchestrator.sol",
  "compiler": {
    "name": "solc",
    "version": "0.8.7+commit.e28d00a7.Emscripten.clang"
  },
  "schemaVersion": "3.4.2",
  "updatedAt": "2021-09-09T02:53:40.922Z",
  "networkType": "ethereum",
  "devdoc": {
    "kind": "dev",
    "methods": {
      "approve(address,uint256)": {
        "details": "See {IERC721-approve}."
      },
      "balanceOf(address)": {
        "details": "See {IERC721-balanceOf}."
      },
      "getApproved(uint256)": {
        "details": "See {IERC721-getApproved}."
      },
      "isApprovedForAll(address,address)": {
        "details": "See {IERC721-isApprovedForAll}."
      },
      "name()": {
        "details": "See {IERC721Metadata-name}."
      },
      "ownerOf(uint256)": {
        "details": "See {IERC721-ownerOf}."
      },
      "safeTransferFrom(address,address,uint256)": {
        "details": "See {IERC721-safeTransferFrom}."
      },
      "safeTransferFrom(address,address,uint256,bytes)": {
        "details": "See {IERC721-safeTransferFrom}."
      },
      "setApprovalForAll(address,bool)": {
        "details": "See {IERC721-setApprovalForAll}."
      },
      "supportsInterface(bytes4)": {
        "details": "See {IERC165-supportsInterface}."
      },
      "symbol()": {
        "details": "See {IERC721Metadata-symbol}."
      },
      "tokenURI(uint256)": {
        "details": "See {IERC721Metadata-tokenURI}."
      },
      "transferFrom(address,address,uint256)": {
        "details": "See {IERC721-transferFrom}."
      }
    },
    "version": 1
  },
  "userdoc": {
    "kind": "user",
    "methods": {},
    "version": 1
  }
}