{
  "contractName": "DoubleTroubleOrchestrator",
  "abi": [
    {
      "inputs": [
        {
          "internalType": "address",
          "name": "feeWallet",
          "type": "address"
        }
      ],
      "stateMutability": "nonpayable",
      "type": "constructor"
    },
    {
      "inputs": [
        {
          "internalType": "address",
          "name": "",
          "type": "address"
        }
      ],
      "name": "_troublesomeCollections",
      "outputs": [
        {
          "internalType": "contract DoubleTrouble",
          "name": "",
          "type": "address"
        }
      ],
      "stateMutability": "view",
      "type": "function",
      "constant": true
    },
    {
      "inputs": [
        {
          "internalType": "address",
          "name": "nftCollection",
          "type": "address"
        },
        {
          "internalType": "string",
          "name": "name",
          "type": "string"
        },
        {
          "internalType": "string",
          "name": "symbol",
          "type": "string"
        }
      ],
      "name": "makeTroublesomeCollection",
      "outputs": [],
      "stateMutability": "nonpayable",
      "type": "function"
    },
    {
      "inputs": [
        {
          "internalType": "address",
          "name": "nftCollection",
          "type": "address"
        }
      ],
      "name": "troublesomeCollection",
      "outputs": [
        {
          "internalType": "contract DoubleTrouble",
          "name": "",
          "type": "address"
        }
      ],
      "stateMutability": "view",
      "type": "function",
      "constant": true
    },
    {
      "inputs": [],
      "name": "registeredCollections",
      "outputs": [
        {
          "internalType": "address[]",
          "name": "",
          "type": "address[]"
        },
        {
          "internalType": "address[]",
          "name": "",
          "type": "address[]"
        }
      ],
      "stateMutability": "view",
      "type": "function",
      "constant": true
    }
  ],
  "bytecode": "0x608060405234801561001057600080fd5b5060405162004eb938038062004eb983398181016040528101906100349190610090565b80600160006101000a81548173ffffffffffffffffffffffffffffffffffffffff021916908373ffffffffffffffffffffffffffffffffffffffff1602179055505061010b565b60008151905061008a816100f4565b92915050565b6000602082840312156100a6576100a56100ef565b5b60006100b48482850161007b565b91505092915050565b60006100c8826100cf565b9050919050565b600073ffffffffffffffffffffffffffffffffffffffff82169050919050565b600080fd5b6100fd816100bd565b811461010857600080fd5b50565b614d9e806200011b6000396000f3fe60806040523480156200001157600080fd5b5060043610620000525760003560e01c8063404d09f8146200005757806394d27158146200008d578063f70d7e4b14620000ad578063f82ca21f14620000e3575b600080fd5b6200007560048036038101906200006f919062000765565b62000106565b604051620000849190620009f5565b60405180910390f35b620000ab6004803603810190620000a5919062000797565b62000139565b005b620000cb6004803603810190620000c5919062000765565b62000359565b604051620000da9190620009f5565b60405180910390f35b620000ed620003cc565b604051620000fd929190620009ba565b60405180910390f35b60006020528060005260406000206000915054906101000a900473ffffffffffffffffffffffffffffffffffffffff1681565b6200014483620005d3565b600073ffffffffffffffffffffffffffffffffffffffff166000808573ffffffffffffffffffffffffffffffffffffffff1673ffffffffffffffffffffffffffffffffffffffff16815260200190815260200160002060009054906101000a900473ffffffffffffffffffffffffffffffffffffffff1673ffffffffffffffffffffffffffffffffffffffff161462000214576040517f08c379a00000000000000000000000000000000000000000000000000000000081526004016200020b9062000aac565b60405180910390fd5b818184600160009054906101000a900473ffffffffffffffffffffffffffffffffffffffff166040516200024890620006ab565b62000257949392919062000a2f565b604051809103906000f08015801562000274573d6000803e3d6000fd5b506000808573ffffffffffffffffffffffffffffffffffffffff1673ffffffffffffffffffffffffffffffffffffffff16815260200190815260200160002060006101000a81548173ffffffffffffffffffffffffffffffffffffffff021916908373ffffffffffffffffffffffffffffffffffffffff1602179055506002839080600181540180825580915050600190039060005260206000200160009091909190916101000a81548173ffffffffffffffffffffffffffffffffffffffff021916908373ffffffffffffffffffffffffffffffffffffffff160217905550505050565b60006200036682620005d3565b6000808373ffffffffffffffffffffffffffffffffffffffff1673ffffffffffffffffffffffffffffffffffffffff16815260200190815260200160002060009054906101000a900473ffffffffffffffffffffffffffffffffffffffff169050919050565b606080600060028054905067ffffffffffffffff811115620003f357620003f262000d57565b5b604051908082528060200260200182016040528015620004225781602001602082028036833780820191505090505b50905060005b6002805490508110156200053c576000806002838154811062000450576200044f62000d28565b5b9060005260206000200160009054906101000a900473ffffffffffffffffffffffffffffffffffffffff1673ffffffffffffffffffffffffffffffffffffffff1673ffffffffffffffffffffffffffffffffffffffff16815260200190815260200160002060009054906101000a900473ffffffffffffffffffffffffffffffffffffffff16828281518110620004ec57620004eb62000d28565b5b602002602001019073ffffffffffffffffffffffffffffffffffffffff16908173ffffffffffffffffffffffffffffffffffffffff16815250508080620005339062000cab565b91505062000428565b5060028181805480602002602001604051908101604052809291908181526020018280548015620005c357602002820191906000526020600020905b8160009054906101000a900473ffffffffffffffffffffffffffffffffffffffff1673ffffffffffffffffffffffffffffffffffffffff168152602001906001019080831162000578575b5050505050915092509250509091565b8073ffffffffffffffffffffffffffffffffffffffff166301ffc9a76380ac58cd6040518263ffffffff1660e01b815260040162000612919062000a12565b60206040518083038186803b1580156200062b57600080fd5b505afa15801562000640573d6000803e3d6000fd5b505050506040513d601f19601f8201168201806040525081019062000666919062000831565b620006a8576040517f08c379a00000000000000000000000000000000000000000000000000000000081526004016200069f9062000a8a565b60405180910390fd5b50565b613ede8062000e8b83390190565b6000620006d0620006ca8462000af7565b62000ace565b905082815260208101848484011115620006ef57620006ee62000d8b565b5b620006fc84828562000c30565b509392505050565b600081359050620007158162000e56565b92915050565b6000815190506200072c8162000e70565b92915050565b600082601f8301126200074a576200074962000d86565b5b81356200075c848260208601620006b9565b91505092915050565b6000602082840312156200077e576200077d62000d95565b5b60006200078e8482850162000704565b91505092915050565b600080600060608486031215620007b357620007b262000d95565b5b6000620007c38682870162000704565b935050602084013567ffffffffffffffff811115620007e757620007e662000d90565b5b620007f58682870162000732565b925050604084013567ffffffffffffffff81111562000819576200081862000d90565b5b620008278682870162000732565b9150509250925092565b6000602082840312156200084a576200084962000d95565b5b60006200085a848285016200071b565b91505092915050565b60006200087183836200087d565b60208301905092915050565b620008888162000b82565b82525050565b620008998162000b82565b82525050565b6000620008ac8262000b3d565b620008b8818562000b60565b9350620008c58362000b2d565b8060005b83811015620008fc578151620008e0888262000863565b9750620008ed8362000b53565b925050600181019050620008c9565b5085935050505092915050565b620009148162000bd6565b82525050565b620009258162000bea565b82525050565b6000620009388262000b48565b62000944818562000b71565b93506200095681856020860162000c3f565b620009618162000d9a565b840191505092915050565b60006200097b602a8362000b71565b9150620009888262000db8565b604082019050919050565b6000620009a260218362000b71565b9150620009af8262000e07565b604082019050919050565b60006040820190508181036000830152620009d681856200089f565b90508181036020830152620009ec81846200089f565b90509392505050565b600060208201905062000a0c600083018462000909565b92915050565b600060208201905062000a2960008301846200091a565b92915050565b6000608082019050818103600083015262000a4b81876200092b565b9050818103602083015262000a6181866200092b565b905062000a7260408301856200088e565b62000a8160608301846200088e565b95945050505050565b6000602082019050818103600083015262000aa5816200096c565b9050919050565b6000602082019050818103600083015262000ac78162000993565b9050919050565b600062000ada62000aed565b905062000ae8828262000c75565b919050565b6000604051905090565b600067ffffffffffffffff82111562000b155762000b1462000d57565b5b62000b208262000d9a565b9050602081019050919050565b6000819050602082019050919050565b600081519050919050565b600081519050919050565b6000602082019050919050565b600082825260208201905092915050565b600082825260208201905092915050565b600062000b8f8262000bac565b9050919050565b60008115159050919050565b6000819050919050565b600073ffffffffffffffffffffffffffffffffffffffff82169050919050565b6000819050919050565b600062000be38262000c08565b9050919050565b600062000c0162000bfb8362000ba2565b62000dab565b9050919050565b600062000c158262000c1c565b9050919050565b600062000c298262000bac565b9050919050565b82818337600083830152505050565b60005b8381101562000c5f57808201518184015260208101905062000c42565b8381111562000c6f576000848401525b50505050565b62000c808262000d9a565b810181811067ffffffffffffffff8211171562000ca25762000ca162000d57565b5b80604052505050565b600062000cb88262000bcc565b91507fffffffffffffffffffffffffffffffffffffffffffffffffffffffffffffffff82141562000cee5762000ced62000cf9565b5b600182019050919050565b7f4e487b7100000000000000000000000000000000000000000000000000000000600052601160045260246000fd5b7f4e487b7100000000000000000000000000000000000000000000000000000000600052603260045260246000fd5b7f4e487b7100000000000000000000000000000000000000000000000000000000600052604160045260246000fd5b600080fd5b600080fd5b600080fd5b600080fd5b6000601f19601f8301169050919050565b60008160e01b9050919050565b7f636f6c6c656374696f6e206d75737420726566657220746f20616e204552433760008201527f3231206164647265737300000000000000000000000000000000000000000000602082015250565b7f436f6c6c656374696f6e20697320616c72656164792054726f75626c65736f6d60008201527f6500000000000000000000000000000000000000000000000000000000000000602082015250565b62000e618162000b82565b811462000e6d57600080fd5b50565b62000e7b8162000b96565b811462000e8757600080fd5b5056fe60806040526064600b553480156200001657600080fd5b5060405162003ede38038062003ede83398181016040528101906200003c9190620003d4565b838381600090805190602001906200005692919062000246565b5080600190805190602001906200006f92919062000246565b505050600073ffffffffffffffffffffffffffffffffffffffff168273ffffffffffffffffffffffffffffffffffffffff161415620000e5576040517f08c379a0000000000000000000000000000000000000000000000000000000008152600401620000dc9062000522565b60405180910390fd5b8173ffffffffffffffffffffffffffffffffffffffff166301ffc9a76380ac58cd6040518263ffffffff1660e01b8152600401620001249190620004e3565b60206040518083038186803b1580156200013d57600080fd5b505afa15801562000152573d6000803e3d6000fd5b505050506040513d601f19601f82011682018060405250810190620001789190620003a2565b620001ba576040517f08c379a0000000000000000000000000000000000000000000000000000000008152600401620001b19062000500565b60405180910390fd5b81600960006101000a81548173ffffffffffffffffffffffffffffffffffffffff021916908373ffffffffffffffffffffffffffffffffffffffff16021790555080600a60006101000a81548173ffffffffffffffffffffffffffffffffffffffff021916908373ffffffffffffffffffffffffffffffffffffffff1602179055505050505062000820565b828054620002549062000652565b90600052602060002090601f016020900481019282620002785760008555620002c4565b82601f106200029357805160ff1916838001178555620002c4565b82800160010185558215620002c4579182015b82811115620002c3578251825591602001919060010190620002a6565b5b509050620002d39190620002d7565b5090565b5b80821115620002f2576000816000905550600101620002d8565b5090565b60006200030d62000307846200056d565b62000544565b9050828152602081018484840111156200032c576200032b62000721565b5b620003398482856200061c565b509392505050565b6000815190506200035281620007ec565b92915050565b600081519050620003698162000806565b92915050565b600082601f8301126200038757620003866200071c565b5b815162000399848260208601620002f6565b91505092915050565b600060208284031215620003bb57620003ba6200072b565b5b6000620003cb8482850162000358565b91505092915050565b60008060008060808587031215620003f157620003f06200072b565b5b600085015167ffffffffffffffff81111562000412576200041162000726565b5b62000420878288016200036f565b945050602085015167ffffffffffffffff81111562000444576200044362000726565b5b62000452878288016200036f565b9350506040620004658782880162000341565b9250506060620004788782880162000341565b91505092959194509250565b6200048f81620005fe565b82525050565b6000620004a4602a83620005a3565b9150620004b1826200074e565b604082019050919050565b6000620004cb602183620005a3565b9150620004d8826200079d565b604082019050919050565b6000602082019050620004fa600083018462000484565b92915050565b600060208201905081810360008301526200051b8162000495565b9050919050565b600060208201905081810360008301526200053d81620004bc565b9050919050565b60006200055062000563565b90506200055e828262000688565b919050565b6000604051905090565b600067ffffffffffffffff8211156200058b576200058a620006ed565b5b620005968262000730565b9050602081019050919050565b600082825260208201905092915050565b6000620005c182620005de565b9050919050565b60008115159050919050565b6000819050919050565b600073ffffffffffffffffffffffffffffffffffffffff82169050919050565b6000620006156200060f83620005d4565b62000741565b9050919050565b60005b838110156200063c5780820151818401526020810190506200061f565b838111156200064c576000848401525b50505050565b600060028204905060018216806200066b57607f821691505b60208210811415620006825762000681620006be565b5b50919050565b620006938262000730565b810181811067ffffffffffffffff82111715620006b557620006b4620006ed565b5b80604052505050565b7f4e487b7100000000000000000000000000000000000000000000000000000000600052602260045260246000fd5b7f4e487b7100000000000000000000000000000000000000000000000000000000600052604160045260246000fd5b600080fd5b600080fd5b600080fd5b600080fd5b6000601f19601f8301169050919050565b60008160e01b9050919050565b7f636f6c6c656374696f6e206d75737420726566657220746f20616e204552433760008201527f3231206164647265737300000000000000000000000000000000000000000000602082015250565b7f636f6c6c656374696f6e20616464726573732063616e6e6f74206265207a657260008201527f6f00000000000000000000000000000000000000000000000000000000000000602082015250565b620007f781620005b4565b81146200080357600080fd5b50565b6200081181620005c8565b81146200081d57600080fd5b50565b6136ae80620008306000396000f3fe60806040526004361061014b5760003560e01c806371835a3e116100b6578063c87b56dd1161006f578063c87b56dd146104a5578063d96a094a146104e2578063dbe05fff146104fe578063e6c173501461053b578063e985e9c514610578578063f7d97577146105b55761014b565b806371835a3e146103a657806373b1dc80146103cf57806380b48a7c146103eb57806395d89b4114610428578063a22cb46514610453578063b88d4fde1461047c5761014b565b806345466616116101085780634546661614610270578063522da6331461029b57806353fb4665146102d857806361dd277e146103015780636352211e1461032c57806370a08231146103695761014b565b806301ffc9a71461015057806306fdde031461018d578063081812fc146101b8578063095ea7b3146101f557806323b872dd1461021e57806342842e0e14610247575b600080fd5b34801561015c57600080fd5b50610177600480360381019061017291906123c3565b6105de565b604051610184919061291c565b60405180910390f35b34801561019957600080fd5b506101a2610620565b6040516101af9190612937565b60405180910390f35b3480156101c457600080fd5b506101df60048036038101906101da9190612439565b6106b2565b6040516101ec91906128a8565b60405180910390f35b34801561020157600080fd5b5061021c60048036038101906102179190612383565b610737565b005b34801561022a57600080fd5b506102456004803603810190610240919061226d565b61084f565b005b34801561025357600080fd5b5061026e6004803603810190610269919061226d565b61088a565b005b34801561027c57600080fd5b506102856108c5565b60405161029291906128fa565b60405180910390f35b3480156102a757600080fd5b506102c260048036038101906102bd9190612439565b61091d565b6040516102cf9190612bf9565b60405180910390f35b3480156102e457600080fd5b506102ff60048036038101906102fa9190612439565b610935565b005b34801561030d57600080fd5b50610316610b0f565b60405161032391906128a8565b60405180910390f35b34801561033857600080fd5b50610353600480360381019061034e9190612439565b610b39565b60405161036091906128a8565b60405180910390f35b34801561037557600080fd5b50610390600480360381019061038b91906121d3565b610beb565b60405161039d9190612bf9565b60405180910390f35b3480156103b257600080fd5b506103cd60048036038101906103c89190612466565b610ca3565b005b6103e960048036038101906103e49190612439565b610f4b565b005b3480156103f757600080fd5b50610412600480360381019061040d9190612439565b611011565b60405161041f9190612bf9565b60405180910390f35b34801561043457600080fd5b5061043d6110a5565b60405161044a9190612937565b60405180910390f35b34801561045f57600080fd5b5061047a60048036038101906104759190612343565b611137565b005b34801561048857600080fd5b506104a3600480360381019061049e91906122c0565b6112b8565b005b3480156104b157600080fd5b506104cc60048036038101906104c79190612439565b6112f3565b6040516104d99190612937565b60405180910390f35b6104fc60048036038101906104f79190612439565b6113ac565b005b34801561050a57600080fd5b5061052560048036038101906105209190612439565b611466565b6040516105329190612bf9565b60405180910390f35b34801561054757600080fd5b50610562600480360381019061055d9190612439565b61147e565b60405161056f9190612bf9565b60405180910390f35b34801561058457600080fd5b5061059f600480360381019061059a919061222d565b611512565b6040516105ac919061291c565b60405180910390f35b3480156105c157600080fd5b506105dc60048036038101906105d79190612466565b6115a6565b005b600063deadbeef60e01b827bffffffffffffffffffffffffffffffffffffffffffffffffffffffff19161480610619575061061882611638565b5b9050919050565b60606000805461062f90612ec6565b80601f016020809104026020016040519081016040528092919081815260200182805461065b90612ec6565b80156106a85780601f1061067d576101008083540402835291602001916106a8565b820191906000526020600020905b81548152906001019060200180831161068b57829003601f168201915b5050505050905090565b60006106bd8261171a565b6106fc576040517f08c379a00000000000000000000000000000000000000000000000000000000081526004016106f390612ab9565b60405180910390fd5b6004600083815260200190815260200160002060009054906101000a900473ffffffffffffffffffffffffffffffffffffffff169050919050565b600061074282610b39565b90508073ffffffffffffffffffffffffffffffffffffffff168373ffffffffffffffffffffffffffffffffffffffff1614156107b3576040517f08c379a00000000000000000000000000000000000000000000000000000000081526004016107aa90612b19565b60405180910390fd5b8073ffffffffffffffffffffffffffffffffffffffff166107d2611786565b73ffffffffffffffffffffffffffffffffffffffff1614806108015750610800816107fb611786565b611512565b5b610840576040517f08c379a000000000000000000000000000000000000000000000000000000000815260040161083790612a19565b60405180910390fd5b61084a838361178e565b505050565b6040517f08c379a0000000000000000000000000000000000000000000000000000000008152600401610881906129b9565b60405180910390fd5b6040517f08c379a00000000000000000000000000000000000000000000000000000000081526004016108bc906129b9565b60405180910390fd5b6060600c80548060200260200160405190810160405280929190818152602001828054801561091357602002820191906000526020600020905b8154815260200190600101908083116108ff575b5050505050905090565b60076020528060005260406000206000915090505481565b61093e81610b39565b73ffffffffffffffffffffffffffffffffffffffff163373ffffffffffffffffffffffffffffffffffffffff16146109ab576040517f08c379a00000000000000000000000000000000000000000000000000000000081526004016109a290612b39565b60405180910390fd5b6000600860008381526020019081526020016000205414610a01576040517f08c379a00000000000000000000000000000000000000000000000000000000081526004016109f890612b79565b60405180910390fd5b600960009054906101000a900473ffffffffffffffffffffffffffffffffffffffff1673ffffffffffffffffffffffffffffffffffffffff166323b872dd3033846040518463ffffffff1660e01b8152600401610a60939291906128c3565b600060405180830381600087803b158015610a7a57600080fd5b505af1158015610a8e573d6000803e3d6000fd5b50505050610a9b81611847565b60005b600c80549050811015610b0b5781600c8281548110610ac057610abf612fff565b5b90600052602060002001541415610af857600c8181548110610ae557610ae4612fff565b5b9060005260206000200160009055610b0b565b8080610b0390612f29565b915050610a9e565b5050565b6000600960009054906101000a900473ffffffffffffffffffffffffffffffffffffffff16905090565b6000806002600084815260200190815260200160002060009054906101000a900473ffffffffffffffffffffffffffffffffffffffff169050600073ffffffffffffffffffffffffffffffffffffffff168173ffffffffffffffffffffffffffffffffffffffff161415610be2576040517f08c379a0000000000000000000000000000000000000000000000000000000008152600401610bd990612a59565b60405180910390fd5b80915050919050565b60008073ffffffffffffffffffffffffffffffffffffffff168273ffffffffffffffffffffffffffffffffffffffff161415610c5c576040517f08c379a0000000000000000000000000000000000000000000000000000000008152600401610c5390612a39565b60405180910390fd5b600360008373ffffffffffffffffffffffffffffffffffffffff1673ffffffffffffffffffffffffffffffffffffffff168152602001908152602001600020549050919050565b3073ffffffffffffffffffffffffffffffffffffffff16600960009054906101000a900473ffffffffffffffffffffffffffffffffffffffff1673ffffffffffffffffffffffffffffffffffffffff1663081812fc846040518263ffffffff1660e01b8152600401610d159190612bf9565b60206040518083038186803b158015610d2d57600080fd5b505afa158015610d41573d6000803e3d6000fd5b505050506040513d601f19601f82011682018060405250810190610d659190612200565b73ffffffffffffffffffffffffffffffffffffffff1614610dbb576040517f08c379a0000000000000000000000000000000000000000000000000000000008152600401610db290612b59565b60405180910390fd5b6000600960009054906101000a900473ffffffffffffffffffffffffffffffffffffffff1673ffffffffffffffffffffffffffffffffffffffff16636352211e846040518263ffffffff1660e01b8152600401610e189190612bf9565b60206040518083038186803b158015610e3057600080fd5b505afa158015610e44573d6000803e3d6000fd5b505050506040513d601f19601f82011682018060405250810190610e689190612200565b9050600960009054906101000a900473ffffffffffffffffffffffffffffffffffffffff1673ffffffffffffffffffffffffffffffffffffffff166323b872dd8230866040518463ffffffff1660e01b8152600401610ec9939291906128c3565b600060405180830381600087803b158015610ee357600080fd5b505af1158015610ef7573d6000803e3d6000fd5b50505050610f05818461189a565b816007600085815260200190815260200160002081905550600c839080600181540180825580915050600190039060005260206000200160009091909190915055505050565b6000600860008381526020019081526020016000205411610fa1576040517f08c379a0000000000000000000000000000000000000000000000000000000008152600401610f9890612999565b60405180910390fd5b60086000828152602001908152602001600020546002610fc19190612d82565b341015611003576040517f08c379a0000000000000000000000000000000000000000000000000000000008152600401610ffa90612bd9565b60405180910390fd5b61100e338234611a68565b50565b60008073ffffffffffffffffffffffffffffffffffffffff1661103383610b39565b73ffffffffffffffffffffffffffffffffffffffff16141561108a576040517f08c379a000000000000000000000000000000000000000000000000000000000815260040161108190612b99565b60405180910390fd5b60086000838152602001908152602001600020549050919050565b6060600180546110b490612ec6565b80601f01602080910402602001604051908101604052809291908181526020018280546110e090612ec6565b801561112d5780601f106111025761010080835404028352916020019161112d565b820191906000526020600020905b81548152906001019060200180831161111057829003601f168201915b5050505050905090565b61113f611786565b73ffffffffffffffffffffffffffffffffffffffff168273ffffffffffffffffffffffffffffffffffffffff1614156111ad576040517f08c379a00000000000000000000000000000000000000000000000000000000081526004016111a4906129f9565b60405180910390fd5b80600560006111ba611786565b73ffffffffffffffffffffffffffffffffffffffff1673ffffffffffffffffffffffffffffffffffffffff16815260200190815260200160002060008473ffffffffffffffffffffffffffffffffffffffff1673ffffffffffffffffffffffffffffffffffffffff16815260200190815260200160002060006101000a81548160ff0219169083151502179055508173ffffffffffffffffffffffffffffffffffffffff16611267611786565b73ffffffffffffffffffffffffffffffffffffffff167f17307eab39ab6107e8899845ad3d59bd9653f200f220920489ca2b5937696c31836040516112ac919061291c565b60405180910390a35050565b6040517f08c379a00000000000000000000000000000000000000000000000000000000081526004016112ea906129b9565b60405180910390fd5b6060600960009054906101000a900473ffffffffffffffffffffffffffffffffffffffff1673ffffffffffffffffffffffffffffffffffffffff1663c87b56dd836040518263ffffffff1660e01b81526004016113509190612bf9565b60006040518083038186803b15801561136857600080fd5b505afa15801561137c573d6000803e3d6000fd5b505050506040513d6000823e3d601f19601f820116820180604052508101906113a591906123f0565b9050919050565b6000600760008381526020019081526020016000205411611402576040517f08c379a00000000000000000000000000000000000000000000000000000000081526004016113f990612ad9565b60405180910390fd5b6007600082815260200190815260200160002054341015611458576040517f08c379a000000000000000000000000000000000000000000000000000000000815260040161144f90612a79565b60405180910390fd5b611463338234611a68565b50565b60086020528060005260406000206000915090505481565b60008073ffffffffffffffffffffffffffffffffffffffff166114a083610b39565b73ffffffffffffffffffffffffffffffffffffffff1614156114f7576040517f08c379a00000000000000000000000000000000000000000000000000000000081526004016114ee90612b99565b60405180910390fd5b60076000838152602001908152602001600020549050919050565b6000600560008473ffffffffffffffffffffffffffffffffffffffff1673ffffffffffffffffffffffffffffffffffffffff16815260200190815260200160002060008373ffffffffffffffffffffffffffffffffffffffff1673ffffffffffffffffffffffffffffffffffffffff16815260200190815260200160002060009054906101000a900460ff16905092915050565b6115af82610b39565b73ffffffffffffffffffffffffffffffffffffffff163373ffffffffffffffffffffffffffffffffffffffff161461161c576040517f08c379a000000000000000000000000000000000000000000000000000000000815260040161161390612b39565b60405180910390fd5b8060076000848152602001908152602001600020819055505050565b60007f80ac58cd000000000000000000000000000000000000000000000000000000007bffffffffffffffffffffffffffffffffffffffffffffffffffffffff1916827bffffffffffffffffffffffffffffffffffffffffffffffffffffffff1916148061170357507f5b5e139f000000000000000000000000000000000000000000000000000000007bffffffffffffffffffffffffffffffffffffffffffffffffffffffff1916827bffffffffffffffffffffffffffffffffffffffffffffffffffffffff1916145b80611713575061171282611c51565b5b9050919050565b60008073ffffffffffffffffffffffffffffffffffffffff166002600084815260200190815260200160002060009054906101000a900473ffffffffffffffffffffffffffffffffffffffff1673ffffffffffffffffffffffffffffffffffffffff1614159050919050565b600033905090565b816004600083815260200190815260200160002060006101000a81548173ffffffffffffffffffffffffffffffffffffffff021916908373ffffffffffffffffffffffffffffffffffffffff160217905550808273ffffffffffffffffffffffffffffffffffffffff1661180183610b39565b73ffffffffffffffffffffffffffffffffffffffff167f8c5be1e5ebec7d5bd14f71427d1e84f3dd0314c0f7b2291e5b200ac8c7c3b92560405160405180910390a45050565b61185081611cbb565b600060066000838152602001908152602001600020805461187090612ec6565b90501461189757600660008281526020019081526020016000206000611896919061202d565b5b50565b600073ffffffffffffffffffffffffffffffffffffffff168273ffffffffffffffffffffffffffffffffffffffff16141561190a576040517f08c379a000000000000000000000000000000000000000000000000000000000815260040161190190612a99565b60405180910390fd5b6119138161171a565b15611953576040517f08c379a000000000000000000000000000000000000000000000000000000000815260040161194a90612979565b60405180910390fd5b61195f60008383611dcc565b6001600360008473ffffffffffffffffffffffffffffffffffffffff1673ffffffffffffffffffffffffffffffffffffffff16815260200190815260200160002060008282546119af9190612cfb565b92505081905550816002600083815260200190815260200160002060006101000a81548173ffffffffffffffffffffffffffffffffffffffff021916908373ffffffffffffffffffffffffffffffffffffffff160217905550808273ffffffffffffffffffffffffffffffffffffffff16600073ffffffffffffffffffffffffffffffffffffffff167fddf252ad1be2c89b69c2b068fc378daa952ba7f163c4a11628f55a4df523b3ef60405160405180910390a45050565b6000611a7383610b39565b9050611a80818585611dd1565b816008600085815260200190815260200160002081905550600060076000858152602001908152602001600020819055506000600b5483611ac19190612d51565b905060008273ffffffffffffffffffffffffffffffffffffffff168285611ae89190612ddc565b604051611af490612893565b60006040518083038185875af1925050503d8060008114611b31576040519150601f19603f3d011682016040523d82523d6000602084013e611b36565b606091505b5050905080611b7a576040517f08c379a0000000000000000000000000000000000000000000000000000000008152600401611b7190612959565b60405180910390fd5b6000600a60009054906101000a900473ffffffffffffffffffffffffffffffffffffffff1673ffffffffffffffffffffffffffffffffffffffff1683604051611bc290612893565b60006040518083038185875af1925050503d8060008114611bff576040519150601f19603f3d011682016040523d82523d6000602084013e611c04565b606091505b5050905080611c48576040517f08c379a0000000000000000000000000000000000000000000000000000000008152600401611c3f90612bb9565b60405180910390fd5b50505050505050565b60007f01ffc9a7000000000000000000000000000000000000000000000000000000007bffffffffffffffffffffffffffffffffffffffffffffffffffffffff1916827bffffffffffffffffffffffffffffffffffffffffffffffffffffffff1916149050919050565b6000611cc682610b39565b9050611cd481600084611dcc565b611cdf60008361178e565b6001600360008373ffffffffffffffffffffffffffffffffffffffff1673ffffffffffffffffffffffffffffffffffffffff1681526020019081526020016000206000828254611d2f9190612ddc565b925050819055506002600083815260200190815260200160002060006101000a81549073ffffffffffffffffffffffffffffffffffffffff021916905581600073ffffffffffffffffffffffffffffffffffffffff168273ffffffffffffffffffffffffffffffffffffffff167fddf252ad1be2c89b69c2b068fc378daa952ba7f163c4a11628f55a4df523b3ef60405160405180910390a45050565b505050565b8273ffffffffffffffffffffffffffffffffffffffff16611df182610b39565b73ffffffffffffffffffffffffffffffffffffffff1614611e47576040517f08c379a0000000000000000000000000000000000000000000000000000000008152600401611e3e90612af9565b60405180910390fd5b600073ffffffffffffffffffffffffffffffffffffffff168273ffffffffffffffffffffffffffffffffffffffff161415611eb7576040517f08c379a0000000000000000000000000000000000000000000000000000000008152600401611eae906129d9565b60405180910390fd5b611ec2838383611dcc565b611ecd60008261178e565b6001600360008573ffffffffffffffffffffffffffffffffffffffff1673ffffffffffffffffffffffffffffffffffffffff1681526020019081526020016000206000828254611f1d9190612ddc565b925050819055506001600360008473ffffffffffffffffffffffffffffffffffffffff1673ffffffffffffffffffffffffffffffffffffffff1681526020019081526020016000206000828254611f749190612cfb565b92505081905550816002600083815260200190815260200160002060006101000a81548173ffffffffffffffffffffffffffffffffffffffff021916908373ffffffffffffffffffffffffffffffffffffffff160217905550808273ffffffffffffffffffffffffffffffffffffffff168473ffffffffffffffffffffffffffffffffffffffff167fddf252ad1be2c89b69c2b068fc378daa952ba7f163c4a11628f55a4df523b3ef60405160405180910390a4505050565b50805461203990612ec6565b6000825580601f1061204b575061206a565b601f016020900490600052602060002090810190612069919061206d565b5b50565b5b8082111561208657600081600090555060010161206e565b5090565b600061209d61209884612c39565b612c14565b9050828152602081018484840111156120b9576120b8613062565b5b6120c4848285612e84565b509392505050565b60006120df6120da84612c6a565b612c14565b9050828152602081018484840111156120fb576120fa613062565b5b612106848285612e93565b509392505050565b60008135905061211d8161361c565b92915050565b6000815190506121328161361c565b92915050565b60008135905061214781613633565b92915050565b60008135905061215c8161364a565b92915050565b600082601f8301126121775761217661305d565b5b813561218784826020860161208a565b91505092915050565b600082601f8301126121a5576121a461305d565b5b81516121b58482602086016120cc565b91505092915050565b6000813590506121cd81613661565b92915050565b6000602082840312156121e9576121e861306c565b5b60006121f78482850161210e565b91505092915050565b6000602082840312156122165761221561306c565b5b600061222484828501612123565b91505092915050565b600080604083850312156122445761224361306c565b5b60006122528582860161210e565b92505060206122638582860161210e565b9150509250929050565b6000806000606084860312156122865761228561306c565b5b60006122948682870161210e565b93505060206122a58682870161210e565b92505060406122b6868287016121be565b9150509250925092565b600080600080608085870312156122da576122d961306c565b5b60006122e88782880161210e565b94505060206122f98782880161210e565b935050604061230a878288016121be565b925050606085013567ffffffffffffffff81111561232b5761232a613067565b5b61233787828801612162565b91505092959194509250565b6000806040838503121561235a5761235961306c565b5b60006123688582860161210e565b925050602061237985828601612138565b9150509250929050565b6000806040838503121561239a5761239961306c565b5b60006123a88582860161210e565b92505060206123b9858286016121be565b9150509250929050565b6000602082840312156123d9576123d861306c565b5b60006123e78482850161214d565b91505092915050565b6000602082840312156124065761240561306c565b5b600082015167ffffffffffffffff81111561242457612423613067565b5b61243084828501612190565b91505092915050565b60006020828403121561244f5761244e61306c565b5b600061245d848285016121be565b91505092915050565b6000806040838503121561247d5761247c61306c565b5b600061248b858286016121be565b925050602061249c858286016121be565b9150509250929050565b60006124b28383612875565b60208301905092915050565b6124c781612e10565b82525050565b60006124d882612cab565b6124e28185612cce565b93506124ed83612c9b565b8060005b8381101561251e57815161250588826124a6565b975061251083612cc1565b9250506001810190506124f1565b5085935050505092915050565b61253481612e22565b82525050565b600061254582612cb6565b61254f8185612cea565b935061255f818560208601612e93565b61256881613071565b840191505092915050565b6000612580601983612cea565b915061258b82613082565b602082019050919050565b60006125a3601c83612cea565b91506125ae826130ab565b602082019050919050565b60006125c6602e83612cea565b91506125d1826130d4565b604082019050919050565b60006125e9601a83612cea565b91506125f482613123565b602082019050919050565b600061260c602483612cea565b91506126178261314c565b604082019050919050565b600061262f601983612cea565b915061263a8261319b565b602082019050919050565b6000612652603883612cea565b915061265d826131c4565b604082019050919050565b6000612675602a83612cea565b915061268082613213565b604082019050919050565b6000612698602983612cea565b91506126a382613262565b604082019050919050565b60006126bb602e83612cea565b91506126c6826132b1565b604082019050919050565b60006126de602083612cea565b91506126e982613300565b602082019050919050565b6000612701602c83612cea565b915061270c82613329565b604082019050919050565b6000612724601383612cea565b915061272f82613378565b602082019050919050565b6000612747602983612cea565b9150612752826133a1565b604082019050919050565b600061276a602183612cea565b9150612775826133f0565b604082019050919050565b600061278d600083612cdf565b91506127988261343f565b600082019050919050565b60006127b0602983612cea565b91506127bb82613442565b604082019050919050565b60006127d3603d83612cea565b91506127de82613491565b604082019050919050565b60006127f6604883612cea565b9150612801826134e0565b606082019050919050565b6000612819603783612cea565b915061282482613555565b604082019050919050565b600061283c601d83612cea565b9150612847826135a4565b602082019050919050565b600061285f603983612cea565b915061286a826135cd565b604082019050919050565b61287e81612e7a565b82525050565b61288d81612e7a565b82525050565b600061289e82612780565b9150819050919050565b60006020820190506128bd60008301846124be565b92915050565b60006060820190506128d860008301866124be565b6128e560208301856124be565b6128f26040830184612884565b949350505050565b6000602082019050818103600083015261291481846124cd565b905092915050565b6000602082019050612931600083018461252b565b92915050565b60006020820190508181036000830152612951818461253a565b905092915050565b6000602082019050818103600083015261297281612573565b9050919050565b6000602082019050818103600083015261299281612596565b9050919050565b600060208201905081810360008301526129b2816125b9565b9050919050565b600060208201905081810360008301526129d2816125dc565b9050919050565b600060208201905081810360008301526129f2816125ff565b9050919050565b60006020820190508181036000830152612a1281612622565b9050919050565b60006020820190508181036000830152612a3281612645565b9050919050565b60006020820190508181036000830152612a5281612668565b9050919050565b60006020820190508181036000830152612a728161268b565b9050919050565b60006020820190508181036000830152612a92816126ae565b9050919050565b60006020820190508181036000830152612ab2816126d1565b9050919050565b60006020820190508181036000830152612ad2816126f4565b9050919050565b60006020820190508181036000830152612af281612717565b9050919050565b60006020820190508181036000830152612b128161273a565b9050919050565b60006020820190508181036000830152612b328161275d565b9050919050565b60006020820190508181036000830152612b52816127a3565b9050919050565b60006020820190508181036000830152612b72816127c6565b9050919050565b60006020820190508181036000830152612b92816127e9565b9050919050565b60006020820190508181036000830152612bb28161280c565b9050919050565b60006020820190508181036000830152612bd28161282f565b9050919050565b60006020820190508181036000830152612bf281612852565b9050919050565b6000602082019050612c0e6000830184612884565b92915050565b6000612c1e612c2f565b9050612c2a8282612ef8565b919050565b6000604051905090565b600067ffffffffffffffff821115612c5457612c5361302e565b5b612c5d82613071565b9050602081019050919050565b600067ffffffffffffffff821115612c8557612c8461302e565b5b612c8e82613071565b9050602081019050919050565b6000819050602082019050919050565b600081519050919050565b600081519050919050565b6000602082019050919050565b600082825260208201905092915050565b600081905092915050565b600082825260208201905092915050565b6000612d0682612e7a565b9150612d1183612e7a565b9250827fffffffffffffffffffffffffffffffffffffffffffffffffffffffffffffffff03821115612d4657612d45612f72565b5b828201905092915050565b6000612d5c82612e7a565b9150612d6783612e7a565b925082612d7757612d76612fa1565b5b828204905092915050565b6000612d8d82612e7a565b9150612d9883612e7a565b9250817fffffffffffffffffffffffffffffffffffffffffffffffffffffffffffffffff0483118215151615612dd157612dd0612f72565b5b828202905092915050565b6000612de782612e7a565b9150612df283612e7a565b925082821015612e0557612e04612f72565b5b828203905092915050565b6000612e1b82612e5a565b9050919050565b60008115159050919050565b60007fffffffff0000000000000000000000000000000000000000000000000000000082169050919050565b600073ffffffffffffffffffffffffffffffffffffffff82169050919050565b6000819050919050565b82818337600083830152505050565b60005b83811015612eb1578082015181840152602081019050612e96565b83811115612ec0576000848401525b50505050565b60006002820490506001821680612ede57607f821691505b60208210811415612ef257612ef1612fd0565b5b50919050565b612f0182613071565b810181811067ffffffffffffffff82111715612f2057612f1f61302e565b5b80604052505050565b6000612f3482612e7a565b91507fffffffffffffffffffffffffffffffffffffffffffffffffffffffffffffffff821415612f6757612f66612f72565b5b600182019050919050565b7f4e487b7100000000000000000000000000000000000000000000000000000000600052601160045260246000fd5b7f4e487b7100000000000000000000000000000000000000000000000000000000600052601260045260246000fd5b7f4e487b7100000000000000000000000000000000000000000000000000000000600052602260045260246000fd5b7f4e487b7100000000000000000000000000000000000000000000000000000000600052603260045260246000fd5b7f4e487b7100000000000000000000000000000000000000000000000000000000600052604160045260246000fd5b600080fd5b600080fd5b600080fd5b600080fd5b6000601f19601f8301169050919050565b7f5472616e7366657220746f206f776e6572206661696c65642e00000000000000600082015250565b7f4552433732313a20746f6b656e20616c7265616479206d696e74656400000000600082015250565b7f4e465420776173206e6f7420796574207075726368617365642077697468696e60008201527f20446f75626c6554726f75626c65000000000000000000000000000000000000602082015250565b7f506c656173652075736520627579206f7220666f726365427579000000000000600082015250565b7f4552433732313a207472616e7366657220746f20746865207a65726f2061646460008201527f7265737300000000000000000000000000000000000000000000000000000000602082015250565b7f4552433732313a20617070726f766520746f2063616c6c657200000000000000600082015250565b7f4552433732313a20617070726f76652063616c6c6572206973206e6f74206f7760008201527f6e6572206e6f7220617070726f76656420666f7220616c6c0000000000000000602082015250565b7f4552433732313a2062616c616e636520717565727920666f7220746865207a6560008201527f726f206164647265737300000000000000000000000000000000000000000000602082015250565b7f4552433732313a206f776e657220717565727920666f72206e6f6e657869737460008201527f656e7420746f6b656e0000000000000000000000000000000000000000000000602082015250565b7f56616c75652073656e74206d757374206265206174206c65617374207468652060008201527f666f722073616c65207072696365000000000000000000000000000000000000602082015250565b7f4552433732313a206d696e7420746f20746865207a65726f2061646472657373600082015250565b7f4552433732313a20617070726f76656420717565727920666f72206e6f6e657860008201527f697374656e7420746f6b656e0000000000000000000000000000000000000000602082015250565b7f4e4654206973206e6f7420666f722073616c6500000000000000000000000000600082015250565b7f4552433732313a207472616e73666572206f6620746f6b656e2074686174206960008201527f73206e6f74206f776e0000000000000000000000000000000000000000000000602082015250565b7f4552433732313a20617070726f76616c20746f2063757272656e74206f776e6560008201527f7200000000000000000000000000000000000000000000000000000000000000602082015250565b50565b7f6d73672e73656e6465722073686f756c642062652063757272656e74206f776e60008201527f6572206f66204e46540000000000000000000000000000000000000000000000602082015250565b7f446f75626c6554726f75626c6520636f6e7472616374206d757374206265206160008201527f7070726f76656420746f206f706572617465207468697320746f6b656e000000602082015250565b7f43616e6e6f742072656d6f7665204e46542066726f6d20446f75626c6554726f60008201527f75626c652069662069742077617320616c726561647920626f7567687420627960208201527f20736f6d656f6e65000000000000000000000000000000000000000000000000604082015250565b7f636f6c6c656374696f6e20616e6420746f6b656e496420636f6d62696e61746960008201527f6f6e206973206e6f742070726573656e7420696e204454000000000000000000602082015250565b7f5472616e7366657220746f2044542077616c6c6574206661696c65642e000000600082015250565b7f56616c75652073656e74206d757374206265206174206c65617374207477696360008201527f6520746865206c61737420707572636861736520707269636500000000000000602082015250565b61362581612e10565b811461363057600080fd5b50565b61363c81612e22565b811461364757600080fd5b50565b61365381612e2e565b811461365e57600080fd5b50565b61366a81612e7a565b811461367557600080fd5b5056fea2646970667358221220100eb0dbafe749248e4b12c79515673701d13a068e2f28790f58fe77d35bc3f064736f6c63430008070033a2646970667358221220f181f932e9fd14900817363383621422551a963403f9a34e077a8559b35dcc8564736f6c63430008070033",
  "immutableReferences": {},
  "source": "pragma solidity ^0.8.0;\n\nimport \"@openzeppelin/contracts/token/ERC721/extensions/IERC721Metadata.sol\";\nimport \"./DoubleTrouble.sol\";\n\n// SPDX-License-Identifier: MIT\ncontract DoubleTroubleOrchestrator {\n  mapping (address => DoubleTrouble) public _troublesomeCollections;\n  address _feeWallet;\n  address[] _registeredCollections;\n\n  constructor(address feeWallet) {\n    _feeWallet = feeWallet;\n  }\n\n  function makeTroublesomeCollection(address nftCollection, string memory name, string memory symbol) external {\n    _ensureSupportedNftContract(nftCollection);\n    require(address(_troublesomeCollections[nftCollection]) == address(0), \"Collection is already Troublesome\");\n\n    // Deploy troublesome contract for nftCollection\n    _troublesomeCollections[nftCollection] = new DoubleTrouble(name, symbol, nftCollection, _feeWallet);\n    _registeredCollections.push(nftCollection);\n  }\n\n  function troublesomeCollection(address nftCollection) external view returns (DoubleTrouble) {\n    _ensureSupportedNftContract(nftCollection);\n    return _troublesomeCollections[nftCollection];\n  }\n\n  function registeredCollections() external view returns (address[] memory, address[] memory) {\n    address[] memory mappedCollections = new address[](_registeredCollections.length);\n    for (uint i = 0; i < _registeredCollections.length; i++) {\n      mappedCollections[i] = address(_troublesomeCollections[_registeredCollections[i]]);\n    }\n\n    return (_registeredCollections, mappedCollections);\n  }\n\n  function _ensureSupportedNftContract(address nftCollection) internal view {\n    require(IERC721Metadata(nftCollection).supportsInterface(0x80ac58cd),  \"collection must refer to an ERC721 address\");\n  }\n}\n",
  "sourcePath": "/Users/laurafiuza/Desktop/double-trouble/contracts/DoubleTroubleOrchestrator.sol",
  "compiler": {
    "name": "solc",
    "version": "0.8.7+commit.e28d00a7.Emscripten.clang"
  },
  "schemaVersion": "3.4.3",
  "updatedAt": "2021-09-07T01:41:15.196Z",
  "networkType": "ethereum",
  "devdoc": {
    "kind": "dev",
    "methods": {},
    "version": 1
  },
  "userdoc": {
    "kind": "user",
    "methods": {},
    "version": 1
  }
}