{
  "contractName": "DoubleTrouble",
  "abi": [
    {
      "inputs": [
        {
          "internalType": "string",
          "name": "name",
          "type": "string"
        },
        {
          "internalType": "string",
          "name": "symbol",
          "type": "string"
        },
        {
          "internalType": "address",
          "name": "nftCollection",
          "type": "address"
        },
        {
          "internalType": "address",
          "name": "feeWallet",
          "type": "address"
        }
      ],
      "stateMutability": "nonpayable",
      "type": "constructor"
    },
    {
      "anonymous": false,
      "inputs": [
        {
          "indexed": true,
          "internalType": "address",
          "name": "owner",
          "type": "address"
        },
        {
          "indexed": true,
          "internalType": "address",
          "name": "approved",
          "type": "address"
        },
        {
          "indexed": true,
          "internalType": "uint256",
          "name": "tokenId",
          "type": "uint256"
        }
      ],
      "name": "Approval",
      "type": "event"
    },
    {
      "anonymous": false,
      "inputs": [
        {
          "indexed": true,
          "internalType": "address",
          "name": "owner",
          "type": "address"
        },
        {
          "indexed": true,
          "internalType": "address",
          "name": "operator",
          "type": "address"
        },
        {
          "indexed": false,
          "internalType": "bool",
          "name": "approved",
          "type": "bool"
        }
      ],
      "name": "ApprovalForAll",
      "type": "event"
    },
    {
      "anonymous": false,
      "inputs": [
        {
          "indexed": true,
          "internalType": "address",
          "name": "from",
          "type": "address"
        },
        {
          "indexed": true,
          "internalType": "address",
          "name": "to",
          "type": "address"
        },
        {
          "indexed": true,
          "internalType": "uint256",
          "name": "tokenId",
          "type": "uint256"
        }
      ],
      "name": "Transfer",
      "type": "event"
    },
    {
      "inputs": [
        {
          "internalType": "uint256",
          "name": "",
          "type": "uint256"
        }
      ],
      "name": "_forSalePrices",
      "outputs": [
        {
          "internalType": "uint256",
          "name": "",
          "type": "uint256"
        }
      ],
      "stateMutability": "view",
      "type": "function"
    },
    {
      "inputs": [
        {
          "internalType": "uint256",
          "name": "",
          "type": "uint256"
        }
      ],
      "name": "_lastPurchasePrices",
      "outputs": [
        {
          "internalType": "uint256",
          "name": "",
          "type": "uint256"
        }
      ],
      "stateMutability": "view",
      "type": "function"
    },
    {
      "inputs": [
        {
          "internalType": "address",
          "name": "to",
          "type": "address"
        },
        {
          "internalType": "uint256",
          "name": "tokenId",
          "type": "uint256"
        }
      ],
      "name": "approve",
      "outputs": [],
      "stateMutability": "nonpayable",
      "type": "function"
    },
    {
      "inputs": [
        {
          "internalType": "address",
          "name": "owner",
          "type": "address"
        }
      ],
      "name": "balanceOf",
      "outputs": [
        {
          "internalType": "uint256",
          "name": "",
          "type": "uint256"
        }
      ],
      "stateMutability": "view",
      "type": "function"
    },
    {
      "inputs": [
        {
          "internalType": "uint256",
          "name": "tokenId",
          "type": "uint256"
        }
      ],
      "name": "getApproved",
      "outputs": [
        {
          "internalType": "address",
          "name": "",
          "type": "address"
        }
      ],
      "stateMutability": "view",
      "type": "function"
    },
    {
      "inputs": [
        {
          "internalType": "address",
          "name": "owner",
          "type": "address"
        },
        {
          "internalType": "address",
          "name": "operator",
          "type": "address"
        }
      ],
      "name": "isApprovedForAll",
      "outputs": [
        {
          "internalType": "bool",
          "name": "",
          "type": "bool"
        }
      ],
      "stateMutability": "view",
      "type": "function"
    },
    {
      "inputs": [],
      "name": "name",
      "outputs": [
        {
          "internalType": "string",
          "name": "",
          "type": "string"
        }
      ],
      "stateMutability": "view",
      "type": "function"
    },
    {
      "inputs": [
        {
          "internalType": "uint256",
          "name": "tokenId",
          "type": "uint256"
        }
      ],
      "name": "ownerOf",
      "outputs": [
        {
          "internalType": "address",
          "name": "",
          "type": "address"
        }
      ],
      "stateMutability": "view",
      "type": "function"
    },
    {
      "inputs": [
        {
          "internalType": "address",
          "name": "operator",
          "type": "address"
        },
        {
          "internalType": "bool",
          "name": "approved",
          "type": "bool"
        }
      ],
      "name": "setApprovalForAll",
      "outputs": [],
      "stateMutability": "nonpayable",
      "type": "function"
    },
    {
      "inputs": [],
      "name": "symbol",
      "outputs": [
        {
          "internalType": "string",
          "name": "",
          "type": "string"
        }
      ],
      "stateMutability": "view",
      "type": "function"
    },
    {
      "inputs": [
        {
          "internalType": "uint256",
          "name": "tokenId",
          "type": "uint256"
        },
        {
          "internalType": "uint256",
          "name": "initialForSalePrice",
          "type": "uint256"
        }
      ],
      "name": "makeTroublesome",
      "outputs": [],
      "stateMutability": "nonpayable",
      "type": "function"
    },
    {
      "inputs": [
        {
          "internalType": "uint256",
          "name": "tokenId",
          "type": "uint256"
        }
      ],
      "name": "unmakeTroublesome",
      "outputs": [],
      "stateMutability": "nonpayable",
      "type": "function"
    },
    {
      "inputs": [],
      "name": "originalCollection",
      "outputs": [
        {
          "internalType": "address",
          "name": "",
          "type": "address"
        }
      ],
      "stateMutability": "view",
      "type": "function"
    },
    {
      "inputs": [
        {
          "internalType": "address",
          "name": "",
          "type": "address"
        },
        {
          "internalType": "address",
          "name": "",
          "type": "address"
        },
        {
          "internalType": "uint256",
          "name": "",
          "type": "uint256"
        }
      ],
      "name": "safeTransferFrom",
      "outputs": [],
      "stateMutability": "pure",
      "type": "function"
    },
    {
      "inputs": [
        {
          "internalType": "address",
          "name": "",
          "type": "address"
        },
        {
          "internalType": "address",
          "name": "",
          "type": "address"
        },
        {
          "internalType": "uint256",
          "name": "",
          "type": "uint256"
        },
        {
          "internalType": "bytes",
          "name": "",
          "type": "bytes"
        }
      ],
      "name": "safeTransferFrom",
      "outputs": [],
      "stateMutability": "pure",
      "type": "function"
    },
    {
      "inputs": [
        {
          "internalType": "address",
          "name": "",
          "type": "address"
        },
        {
          "internalType": "address",
          "name": "",
          "type": "address"
        },
        {
          "internalType": "uint256",
          "name": "",
          "type": "uint256"
        }
      ],
      "name": "transferFrom",
      "outputs": [],
      "stateMutability": "pure",
      "type": "function"
    },
    {
      "inputs": [
        {
          "internalType": "uint256",
          "name": "tokenId",
          "type": "uint256"
        }
      ],
      "name": "forSalePrice",
      "outputs": [
        {
          "internalType": "uint256",
          "name": "",
          "type": "uint256"
        }
      ],
      "stateMutability": "view",
      "type": "function"
    },
    {
      "inputs": [
        {
          "internalType": "uint256",
          "name": "tokenId",
          "type": "uint256"
        }
      ],
      "name": "lastPurchasePrice",
      "outputs": [
        {
          "internalType": "uint256",
          "name": "",
          "type": "uint256"
        }
      ],
      "stateMutability": "view",
      "type": "function"
    },
    {
      "inputs": [
        {
          "internalType": "uint256",
          "name": "tokenId",
          "type": "uint256"
        }
      ],
      "name": "tokenURI",
      "outputs": [
        {
          "internalType": "string",
          "name": "",
          "type": "string"
        }
      ],
      "stateMutability": "view",
      "type": "function"
    },
    {
      "inputs": [
        {
          "internalType": "uint256",
          "name": "tokenId",
          "type": "uint256"
        },
        {
          "internalType": "uint256",
          "name": "price",
          "type": "uint256"
        }
      ],
      "name": "setPrice",
      "outputs": [],
      "stateMutability": "nonpayable",
      "type": "function"
    },
    {
      "inputs": [
        {
          "internalType": "uint256",
          "name": "tokenId",
          "type": "uint256"
        }
      ],
      "name": "buy",
      "outputs": [],
      "stateMutability": "payable",
      "type": "function"
    },
    {
      "inputs": [
        {
          "internalType": "uint256",
          "name": "tokenId",
          "type": "uint256"
        }
      ],
      "name": "forceBuy",
      "outputs": [],
      "stateMutability": "payable",
      "type": "function"
    },
    {
      "inputs": [
        {
          "internalType": "bytes4",
          "name": "interfaceId",
          "type": "bytes4"
        }
      ],
      "name": "supportsInterface",
      "outputs": [
        {
          "internalType": "bool",
          "name": "",
          "type": "bool"
        }
      ],
      "stateMutability": "view",
      "type": "function"
    },
    {
      "inputs": [],
      "name": "registeredTokens",
      "outputs": [
        {
          "internalType": "uint256[]",
          "name": "",
          "type": "uint256[]"
        }
      ],
      "stateMutability": "view",
      "type": "function"
    }
  ],
  "bytecode": "0x60806040526064600b553480156200001657600080fd5b5060405162003e2738038062003e2783398181016040528101906200003c9190620002b6565b838381600090805190602001906200005692919062000171565b5080600190805190602001906200006f92919062000171565b505050600073ffffffffffffffffffffffffffffffffffffffff168273ffffffffffffffffffffffffffffffffffffffff161415620000e5576040517f08c379a0000000000000000000000000000000000000000000000000000000008152600401620000dc906200038d565b60405180910390fd5b81600960006101000a81548173ffffffffffffffffffffffffffffffffffffffff021916908373ffffffffffffffffffffffffffffffffffffffff16021790555080600a60006101000a81548173ffffffffffffffffffffffffffffffffffffffff021916908373ffffffffffffffffffffffffffffffffffffffff16021790555050505050620005e1565b8280546200017f9062000489565b90600052602060002090601f016020900481019282620001a35760008555620001ef565b82601f10620001be57805160ff1916838001178555620001ef565b82800160010185558215620001ef579182015b82811115620001ee578251825591602001919060010190620001d1565b5b509050620001fe919062000202565b5090565b5b808211156200021d57600081600090555060010162000203565b5090565b6000620002386200023284620003d8565b620003af565b90508281526020810184848401111562000257576200025662000558565b5b6200026484828562000453565b509392505050565b6000815190506200027d81620005c7565b92915050565b600082601f8301126200029b576200029a62000553565b5b8151620002ad84826020860162000221565b91505092915050565b60008060008060808587031215620002d357620002d262000562565b5b600085015167ffffffffffffffff811115620002f457620002f36200055d565b5b620003028782880162000283565b945050602085015167ffffffffffffffff8111156200032657620003256200055d565b5b620003348782880162000283565b935050604062000347878288016200026c565b92505060606200035a878288016200026c565b91505092959194509250565b6000620003756021836200040e565b9150620003828262000578565b604082019050919050565b60006020820190508181036000830152620003a88162000366565b9050919050565b6000620003bb620003ce565b9050620003c98282620004bf565b919050565b6000604051905090565b600067ffffffffffffffff821115620003f657620003f562000524565b5b620004018262000567565b9050602081019050919050565b600082825260208201905092915050565b60006200042c8262000433565b9050919050565b600073ffffffffffffffffffffffffffffffffffffffff82169050919050565b60005b838110156200047357808201518184015260208101905062000456565b8381111562000483576000848401525b50505050565b60006002820490506001821680620004a257607f821691505b60208210811415620004b957620004b8620004f5565b5b50919050565b620004ca8262000567565b810181811067ffffffffffffffff82111715620004ec57620004eb62000524565b5b80604052505050565b7f4e487b7100000000000000000000000000000000000000000000000000000000600052602260045260246000fd5b7f4e487b7100000000000000000000000000000000000000000000000000000000600052604160045260246000fd5b600080fd5b600080fd5b600080fd5b600080fd5b6000601f19601f8301169050919050565b7f636f6c6c656374696f6e20616464726573732063616e6e6f74206265207a657260008201527f6f00000000000000000000000000000000000000000000000000000000000000602082015250565b620005d2816200041f565b8114620005de57600080fd5b50565b61383680620005f16000396000f3fe60806040526004361061014b5760003560e01c806371835a3e116100b6578063c87b56dd1161006f578063c87b56dd146104a5578063d96a094a146104e2578063dbe05fff146104fe578063e6c173501461053b578063e985e9c514610578578063f7d97577146105b55761014b565b806371835a3e146103a657806373b1dc80146103cf57806380b48a7c146103eb57806395d89b4114610428578063a22cb46514610453578063b88d4fde1461047c5761014b565b806345466616116101085780634546661614610270578063522da6331461029b57806353fb4665146102d857806361dd277e146103015780636352211e1461032c57806370a08231146103695761014b565b806301ffc9a71461015057806306fdde031461018d578063081812fc146101b8578063095ea7b3146101f557806323b872dd1461021e57806342842e0e14610247575b600080fd5b34801561015c57600080fd5b50610177600480360381019061017291906124b0565b6105de565b6040516101849190612a2c565b60405180910390f35b34801561019957600080fd5b506101a2610620565b6040516101af9190612a47565b60405180910390f35b3480156101c457600080fd5b506101df60048036038101906101da9190612526565b6106b2565b6040516101ec91906129b8565b60405180910390f35b34801561020157600080fd5b5061021c60048036038101906102179190612470565b610737565b005b34801561022a57600080fd5b506102456004803603810190610240919061235a565b61084f565b005b34801561025357600080fd5b5061026e6004803603810190610269919061235a565b61088a565b005b34801561027c57600080fd5b506102856108c5565b6040516102929190612a0a565b60405180910390f35b3480156102a757600080fd5b506102c260048036038101906102bd9190612526565b61091d565b6040516102cf9190612d29565b60405180910390f35b3480156102e457600080fd5b506102ff60048036038101906102fa9190612526565b610935565b005b34801561030d57600080fd5b50610316610aa7565b60405161032391906129b8565b60405180910390f35b34801561033857600080fd5b50610353600480360381019061034e9190612526565b610ad1565b60405161036091906129b8565b60405180910390f35b34801561037557600080fd5b50610390600480360381019061038b91906122c0565b610b83565b60405161039d9190612d29565b60405180910390f35b3480156103b257600080fd5b506103cd60048036038101906103c89190612553565b610c3b565b005b6103e960048036038101906103e49190612526565b610ee3565b005b3480156103f757600080fd5b50610412600480360381019061040d9190612526565b610fa9565b60405161041f9190612d29565b60405180910390f35b34801561043457600080fd5b5061043d61103d565b60405161044a9190612a47565b60405180910390f35b34801561045f57600080fd5b5061047a60048036038101906104759190612430565b6110cf565b005b34801561048857600080fd5b506104a3600480360381019061049e91906123ad565b611250565b005b3480156104b157600080fd5b506104cc60048036038101906104c79190612526565b61128b565b6040516104d99190612a47565b60405180910390f35b6104fc60048036038101906104f79190612526565b611344565b005b34801561050a57600080fd5b5061052560048036038101906105209190612526565b6113fe565b6040516105329190612d29565b60405180910390f35b34801561054757600080fd5b50610562600480360381019061055d9190612526565b611416565b60405161056f9190612d29565b60405180910390f35b34801561058457600080fd5b5061059f600480360381019061059a919061231a565b6114aa565b6040516105ac9190612a2c565b60405180910390f35b3480156105c157600080fd5b506105dc60048036038101906105d79190612553565b61153e565b005b600063deadbeef60e01b827bffffffffffffffffffffffffffffffffffffffffffffffffffffffff191614806106195750610618826115d0565b5b9050919050565b60606000805461062f90612ff6565b80601f016020809104026020016040519081016040528092919081815260200182805461065b90612ff6565b80156106a85780601f1061067d576101008083540402835291602001916106a8565b820191906000526020600020905b81548152906001019060200180831161068b57829003601f168201915b5050505050905090565b60006106bd826116b2565b6106fc576040517f08c379a00000000000000000000000000000000000000000000000000000000081526004016106f390612bc9565b60405180910390fd5b6004600083815260200190815260200160002060009054906101000a900473ffffffffffffffffffffffffffffffffffffffff169050919050565b600061074282610ad1565b90508073ffffffffffffffffffffffffffffffffffffffff168373ffffffffffffffffffffffffffffffffffffffff1614156107b3576040517f08c379a00000000000000000000000000000000000000000000000000000000081526004016107aa90612c29565b60405180910390fd5b8073ffffffffffffffffffffffffffffffffffffffff166107d261171e565b73ffffffffffffffffffffffffffffffffffffffff1614806108015750610800816107fb61171e565b6114aa565b5b610840576040517f08c379a000000000000000000000000000000000000000000000000000000000815260040161083790612b29565b60405180910390fd5b61084a8383611726565b505050565b6040517f08c379a000000000000000000000000000000000000000000000000000000000815260040161088190612ac9565b60405180910390fd5b6040517f08c379a00000000000000000000000000000000000000000000000000000000081526004016108bc90612ac9565b60405180910390fd5b6060600c80548060200260200160405190810160405280929190818152602001828054801561091357602002820191906000526020600020905b8154815260200190600101908083116108ff575b5050505050905090565b60076020528060005260406000206000915090505481565b61093e81610ad1565b73ffffffffffffffffffffffffffffffffffffffff163373ffffffffffffffffffffffffffffffffffffffff16146109ab576040517f08c379a00000000000000000000000000000000000000000000000000000000081526004016109a290612c69565b60405180910390fd5b6000600860008381526020019081526020016000205414610a01576040517f08c379a00000000000000000000000000000000000000000000000000000000081526004016109f890612ca9565b60405180910390fd5b600960009054906101000a900473ffffffffffffffffffffffffffffffffffffffff1673ffffffffffffffffffffffffffffffffffffffff166323b872dd3033846040518463ffffffff1660e01b8152600401610a60939291906129d3565b600060405180830381600087803b158015610a7a57600080fd5b505af1158015610a8e573d6000803e3d6000fd5b50505050610a9b816117df565b610aa481611832565b50565b6000600960009054906101000a900473ffffffffffffffffffffffffffffffffffffffff16905090565b6000806002600084815260200190815260200160002060009054906101000a900473ffffffffffffffffffffffffffffffffffffffff169050600073ffffffffffffffffffffffffffffffffffffffff168173ffffffffffffffffffffffffffffffffffffffff161415610b7a576040517f08c379a0000000000000000000000000000000000000000000000000000000008152600401610b7190612b69565b60405180910390fd5b80915050919050565b60008073ffffffffffffffffffffffffffffffffffffffff168273ffffffffffffffffffffffffffffffffffffffff161415610bf4576040517f08c379a0000000000000000000000000000000000000000000000000000000008152600401610beb90612b49565b60405180910390fd5b600360008373ffffffffffffffffffffffffffffffffffffffff1673ffffffffffffffffffffffffffffffffffffffff168152602001908152602001600020549050919050565b3073ffffffffffffffffffffffffffffffffffffffff16600960009054906101000a900473ffffffffffffffffffffffffffffffffffffffff1673ffffffffffffffffffffffffffffffffffffffff1663081812fc846040518263ffffffff1660e01b8152600401610cad9190612d29565b60206040518083038186803b158015610cc557600080fd5b505afa158015610cd9573d6000803e3d6000fd5b505050506040513d601f19601f82011682018060405250810190610cfd91906122ed565b73ffffffffffffffffffffffffffffffffffffffff1614610d53576040517f08c379a0000000000000000000000000000000000000000000000000000000008152600401610d4a90612c89565b60405180910390fd5b6000600960009054906101000a900473ffffffffffffffffffffffffffffffffffffffff1673ffffffffffffffffffffffffffffffffffffffff16636352211e846040518263ffffffff1660e01b8152600401610db09190612d29565b60206040518083038186803b158015610dc857600080fd5b505afa158015610ddc573d6000803e3d6000fd5b505050506040513d601f19601f82011682018060405250810190610e0091906122ed565b9050600960009054906101000a900473ffffffffffffffffffffffffffffffffffffffff1673ffffffffffffffffffffffffffffffffffffffff166323b872dd8230866040518463ffffffff1660e01b8152600401610e61939291906129d3565b600060405180830381600087803b158015610e7b57600080fd5b505af1158015610e8f573d6000803e3d6000fd5b50505050610e9d8184611987565b816007600085815260200190815260200160002081905550600c839080600181540180825580915050600190039060005260206000200160009091909190915055505050565b6000600860008381526020019081526020016000205411610f39576040517f08c379a0000000000000000000000000000000000000000000000000000000008152600401610f3090612aa9565b60405180910390fd5b60086000828152602001908152602001600020546002610f599190612eb2565b341015610f9b576040517f08c379a0000000000000000000000000000000000000000000000000000000008152600401610f9290612d09565b60405180910390fd5b610fa6338234611b55565b50565b60008073ffffffffffffffffffffffffffffffffffffffff16610fcb83610ad1565b73ffffffffffffffffffffffffffffffffffffffff161415611022576040517f08c379a000000000000000000000000000000000000000000000000000000000815260040161101990612cc9565b60405180910390fd5b60086000838152602001908152602001600020549050919050565b60606001805461104c90612ff6565b80601f016020809104026020016040519081016040528092919081815260200182805461107890612ff6565b80156110c55780601f1061109a576101008083540402835291602001916110c5565b820191906000526020600020905b8154815290600101906020018083116110a857829003601f168201915b5050505050905090565b6110d761171e565b73ffffffffffffffffffffffffffffffffffffffff168273ffffffffffffffffffffffffffffffffffffffff161415611145576040517f08c379a000000000000000000000000000000000000000000000000000000000815260040161113c90612b09565b60405180910390fd5b806005600061115261171e565b73ffffffffffffffffffffffffffffffffffffffff1673ffffffffffffffffffffffffffffffffffffffff16815260200190815260200160002060008473ffffffffffffffffffffffffffffffffffffffff1673ffffffffffffffffffffffffffffffffffffffff16815260200190815260200160002060006101000a81548160ff0219169083151502179055508173ffffffffffffffffffffffffffffffffffffffff166111ff61171e565b73ffffffffffffffffffffffffffffffffffffffff167f17307eab39ab6107e8899845ad3d59bd9653f200f220920489ca2b5937696c31836040516112449190612a2c565b60405180910390a35050565b6040517f08c379a000000000000000000000000000000000000000000000000000000000815260040161128290612ac9565b60405180910390fd5b6060600960009054906101000a900473ffffffffffffffffffffffffffffffffffffffff1673ffffffffffffffffffffffffffffffffffffffff1663c87b56dd836040518263ffffffff1660e01b81526004016112e89190612d29565b60006040518083038186803b15801561130057600080fd5b505afa158015611314573d6000803e3d6000fd5b505050506040513d6000823e3d601f19601f8201168201806040525081019061133d91906124dd565b9050919050565b600060076000838152602001908152602001600020541161139a576040517f08c379a000000000000000000000000000000000000000000000000000000000815260040161139190612be9565b60405180910390fd5b60076000828152602001908152602001600020543410156113f0576040517f08c379a00000000000000000000000000000000000000000000000000000000081526004016113e790612b89565b60405180910390fd5b6113fb338234611b55565b50565b60086020528060005260406000206000915090505481565b60008073ffffffffffffffffffffffffffffffffffffffff1661143883610ad1565b73ffffffffffffffffffffffffffffffffffffffff16141561148f576040517f08c379a000000000000000000000000000000000000000000000000000000000815260040161148690612cc9565b60405180910390fd5b60076000838152602001908152602001600020549050919050565b6000600560008473ffffffffffffffffffffffffffffffffffffffff1673ffffffffffffffffffffffffffffffffffffffff16815260200190815260200160002060008373ffffffffffffffffffffffffffffffffffffffff1673ffffffffffffffffffffffffffffffffffffffff16815260200190815260200160002060009054906101000a900460ff16905092915050565b61154782610ad1565b73ffffffffffffffffffffffffffffffffffffffff163373ffffffffffffffffffffffffffffffffffffffff16146115b4576040517f08c379a00000000000000000000000000000000000000000000000000000000081526004016115ab90612c69565b60405180910390fd5b8060076000848152602001908152602001600020819055505050565b60007f80ac58cd000000000000000000000000000000000000000000000000000000007bffffffffffffffffffffffffffffffffffffffffffffffffffffffff1916827bffffffffffffffffffffffffffffffffffffffffffffffffffffffff1916148061169b57507f5b5e139f000000000000000000000000000000000000000000000000000000007bffffffffffffffffffffffffffffffffffffffffffffffffffffffff1916827bffffffffffffffffffffffffffffffffffffffffffffffffffffffff1916145b806116ab57506116aa82611d3e565b5b9050919050565b60008073ffffffffffffffffffffffffffffffffffffffff166002600084815260200190815260200160002060009054906101000a900473ffffffffffffffffffffffffffffffffffffffff1673ffffffffffffffffffffffffffffffffffffffff1614159050919050565b600033905090565b816004600083815260200190815260200160002060006101000a81548173ffffffffffffffffffffffffffffffffffffffff021916908373ffffffffffffffffffffffffffffffffffffffff160217905550808273ffffffffffffffffffffffffffffffffffffffff1661179983610ad1565b73ffffffffffffffffffffffffffffffffffffffff167f8c5be1e5ebec7d5bd14f71427d1e84f3dd0314c0f7b2291e5b200ac8c7c3b92560405160405180910390a45050565b6117e881611da8565b600060066000838152602001908152602001600020805461180890612ff6565b90501461182f5760066000828152602001908152602001600020600061182e919061211a565b5b50565b6000805b6001600c805490506118489190612f0c565b8110156118e15782600c82815481106118645761186361315e565b5b9060005260206000200154141561187a57600191505b81156118ce57600c60018261188f9190612e2b565b815481106118a05761189f61315e565b5b9060005260206000200154600c82815481106118bf576118be61315e565b5b90600052602060002001819055505b80806118d990613059565b915050611836565b50808061191c575081600c6001600c805490506118fe9190612f0c565b8154811061190f5761190e61315e565b5b9060005260206000200154145b61195b576040517f08c379a000000000000000000000000000000000000000000000000000000000815260040161195290612c49565b60405180910390fd5b600c80548061196d5761196c61312f565b5b600190038181906000526020600020016000905590555050565b600073ffffffffffffffffffffffffffffffffffffffff168273ffffffffffffffffffffffffffffffffffffffff1614156119f7576040517f08c379a00000000000000000000000000000000000000000000000000000000081526004016119ee90612ba9565b60405180910390fd5b611a00816116b2565b15611a40576040517f08c379a0000000000000000000000000000000000000000000000000000000008152600401611a3790612a89565b60405180910390fd5b611a4c60008383611eb9565b6001600360008473ffffffffffffffffffffffffffffffffffffffff1673ffffffffffffffffffffffffffffffffffffffff1681526020019081526020016000206000828254611a9c9190612e2b565b92505081905550816002600083815260200190815260200160002060006101000a81548173ffffffffffffffffffffffffffffffffffffffff021916908373ffffffffffffffffffffffffffffffffffffffff160217905550808273ffffffffffffffffffffffffffffffffffffffff16600073ffffffffffffffffffffffffffffffffffffffff167fddf252ad1be2c89b69c2b068fc378daa952ba7f163c4a11628f55a4df523b3ef60405160405180910390a45050565b6000611b6083610ad1565b9050611b6d818585611ebe565b816008600085815260200190815260200160002081905550600060076000858152602001908152602001600020819055506000600b5483611bae9190612e81565b905060008273ffffffffffffffffffffffffffffffffffffffff168285611bd59190612f0c565b604051611be1906129a3565b60006040518083038185875af1925050503d8060008114611c1e576040519150601f19603f3d011682016040523d82523d6000602084013e611c23565b606091505b5050905080611c67576040517f08c379a0000000000000000000000000000000000000000000000000000000008152600401611c5e90612a69565b60405180910390fd5b6000600a60009054906101000a900473ffffffffffffffffffffffffffffffffffffffff1673ffffffffffffffffffffffffffffffffffffffff1683604051611caf906129a3565b60006040518083038185875af1925050503d8060008114611cec576040519150601f19603f3d011682016040523d82523d6000602084013e611cf1565b606091505b5050905080611d35576040517f08c379a0000000000000000000000000000000000000000000000000000000008152600401611d2c90612ce9565b60405180910390fd5b50505050505050565b60007f01ffc9a7000000000000000000000000000000000000000000000000000000007bffffffffffffffffffffffffffffffffffffffffffffffffffffffff1916827bffffffffffffffffffffffffffffffffffffffffffffffffffffffff1916149050919050565b6000611db382610ad1565b9050611dc181600084611eb9565b611dcc600083611726565b6001600360008373ffffffffffffffffffffffffffffffffffffffff1673ffffffffffffffffffffffffffffffffffffffff1681526020019081526020016000206000828254611e1c9190612f0c565b925050819055506002600083815260200190815260200160002060006101000a81549073ffffffffffffffffffffffffffffffffffffffff021916905581600073ffffffffffffffffffffffffffffffffffffffff168273ffffffffffffffffffffffffffffffffffffffff167fddf252ad1be2c89b69c2b068fc378daa952ba7f163c4a11628f55a4df523b3ef60405160405180910390a45050565b505050565b8273ffffffffffffffffffffffffffffffffffffffff16611ede82610ad1565b73ffffffffffffffffffffffffffffffffffffffff1614611f34576040517f08c379a0000000000000000000000000000000000000000000000000000000008152600401611f2b90612c09565b60405180910390fd5b600073ffffffffffffffffffffffffffffffffffffffff168273ffffffffffffffffffffffffffffffffffffffff161415611fa4576040517f08c379a0000000000000000000000000000000000000000000000000000000008152600401611f9b90612ae9565b60405180910390fd5b611faf838383611eb9565b611fba600082611726565b6001600360008573ffffffffffffffffffffffffffffffffffffffff1673ffffffffffffffffffffffffffffffffffffffff168152602001908152602001600020600082825461200a9190612f0c565b925050819055506001600360008473ffffffffffffffffffffffffffffffffffffffff1673ffffffffffffffffffffffffffffffffffffffff16815260200190815260200160002060008282546120619190612e2b565b92505081905550816002600083815260200190815260200160002060006101000a81548173ffffffffffffffffffffffffffffffffffffffff021916908373ffffffffffffffffffffffffffffffffffffffff160217905550808273ffffffffffffffffffffffffffffffffffffffff168473ffffffffffffffffffffffffffffffffffffffff167fddf252ad1be2c89b69c2b068fc378daa952ba7f163c4a11628f55a4df523b3ef60405160405180910390a4505050565b50805461212690612ff6565b6000825580601f106121385750612157565b601f016020900490600052602060002090810190612156919061215a565b5b50565b5b8082111561217357600081600090555060010161215b565b5090565b600061218a61218584612d69565b612d44565b9050828152602081018484840111156121a6576121a56131c1565b5b6121b1848285612fb4565b509392505050565b60006121cc6121c784612d9a565b612d44565b9050828152602081018484840111156121e8576121e76131c1565b5b6121f3848285612fc3565b509392505050565b60008135905061220a816137a4565b92915050565b60008151905061221f816137a4565b92915050565b600081359050612234816137bb565b92915050565b600081359050612249816137d2565b92915050565b600082601f830112612264576122636131bc565b5b8135612274848260208601612177565b91505092915050565b600082601f830112612292576122916131bc565b5b81516122a28482602086016121b9565b91505092915050565b6000813590506122ba816137e9565b92915050565b6000602082840312156122d6576122d56131cb565b5b60006122e4848285016121fb565b91505092915050565b600060208284031215612303576123026131cb565b5b600061231184828501612210565b91505092915050565b60008060408385031215612331576123306131cb565b5b600061233f858286016121fb565b9250506020612350858286016121fb565b9150509250929050565b600080600060608486031215612373576123726131cb565b5b6000612381868287016121fb565b9350506020612392868287016121fb565b92505060406123a3868287016122ab565b9150509250925092565b600080600080608085870312156123c7576123c66131cb565b5b60006123d5878288016121fb565b94505060206123e6878288016121fb565b93505060406123f7878288016122ab565b925050606085013567ffffffffffffffff811115612418576124176131c6565b5b6124248782880161224f565b91505092959194509250565b60008060408385031215612447576124466131cb565b5b6000612455858286016121fb565b925050602061246685828601612225565b9150509250929050565b60008060408385031215612487576124866131cb565b5b6000612495858286016121fb565b92505060206124a6858286016122ab565b9150509250929050565b6000602082840312156124c6576124c56131cb565b5b60006124d48482850161223a565b91505092915050565b6000602082840312156124f3576124f26131cb565b5b600082015167ffffffffffffffff811115612511576125106131c6565b5b61251d8482850161227d565b91505092915050565b60006020828403121561253c5761253b6131cb565b5b600061254a848285016122ab565b91505092915050565b6000806040838503121561256a576125696131cb565b5b6000612578858286016122ab565b9250506020612589858286016122ab565b9150509250929050565b600061259f8383612985565b60208301905092915050565b6125b481612f40565b82525050565b60006125c582612ddb565b6125cf8185612dfe565b93506125da83612dcb565b8060005b8381101561260b5781516125f28882612593565b97506125fd83612df1565b9250506001810190506125de565b5085935050505092915050565b61262181612f52565b82525050565b600061263282612de6565b61263c8185612e1a565b935061264c818560208601612fc3565b612655816131d0565b840191505092915050565b600061266d601983612e1a565b9150612678826131e1565b602082019050919050565b6000612690601c83612e1a565b915061269b8261320a565b602082019050919050565b60006126b3602e83612e1a565b91506126be82613233565b604082019050919050565b60006126d6601a83612e1a565b91506126e182613282565b602082019050919050565b60006126f9602483612e1a565b9150612704826132ab565b604082019050919050565b600061271c601983612e1a565b9150612727826132fa565b602082019050919050565b600061273f603883612e1a565b915061274a82613323565b604082019050919050565b6000612762602a83612e1a565b915061276d82613372565b604082019050919050565b6000612785602983612e1a565b9150612790826133c1565b604082019050919050565b60006127a8602e83612e1a565b91506127b382613410565b604082019050919050565b60006127cb602083612e1a565b91506127d68261345f565b602082019050919050565b60006127ee602c83612e1a565b91506127f982613488565b604082019050919050565b6000612811601383612e1a565b915061281c826134d7565b602082019050919050565b6000612834602983612e1a565b915061283f82613500565b604082019050919050565b6000612857602183612e1a565b91506128628261354f565b604082019050919050565b600061287a600083612e0f565b91506128858261359e565b600082019050919050565b600061289d601b83612e1a565b91506128a8826135a1565b602082019050919050565b60006128c0602983612e1a565b91506128cb826135ca565b604082019050919050565b60006128e3603d83612e1a565b91506128ee82613619565b604082019050919050565b6000612906604883612e1a565b915061291182613668565b606082019050919050565b6000612929603783612e1a565b9150612934826136dd565b604082019050919050565b600061294c601d83612e1a565b91506129578261372c565b602082019050919050565b600061296f603983612e1a565b915061297a82613755565b604082019050919050565b61298e81612faa565b82525050565b61299d81612faa565b82525050565b60006129ae8261286d565b9150819050919050565b60006020820190506129cd60008301846125ab565b92915050565b60006060820190506129e860008301866125ab565b6129f560208301856125ab565b612a026040830184612994565b949350505050565b60006020820190508181036000830152612a2481846125ba565b905092915050565b6000602082019050612a416000830184612618565b92915050565b60006020820190508181036000830152612a618184612627565b905092915050565b60006020820190508181036000830152612a8281612660565b9050919050565b60006020820190508181036000830152612aa281612683565b9050919050565b60006020820190508181036000830152612ac2816126a6565b9050919050565b60006020820190508181036000830152612ae2816126c9565b9050919050565b60006020820190508181036000830152612b02816126ec565b9050919050565b60006020820190508181036000830152612b228161270f565b9050919050565b60006020820190508181036000830152612b4281612732565b9050919050565b60006020820190508181036000830152612b6281612755565b9050919050565b60006020820190508181036000830152612b8281612778565b9050919050565b60006020820190508181036000830152612ba28161279b565b9050919050565b60006020820190508181036000830152612bc2816127be565b9050919050565b60006020820190508181036000830152612be2816127e1565b9050919050565b60006020820190508181036000830152612c0281612804565b9050919050565b60006020820190508181036000830152612c2281612827565b9050919050565b60006020820190508181036000830152612c428161284a565b9050919050565b60006020820190508181036000830152612c6281612890565b9050919050565b60006020820190508181036000830152612c82816128b3565b9050919050565b60006020820190508181036000830152612ca2816128d6565b9050919050565b60006020820190508181036000830152612cc2816128f9565b9050919050565b60006020820190508181036000830152612ce28161291c565b9050919050565b60006020820190508181036000830152612d028161293f565b9050919050565b60006020820190508181036000830152612d2281612962565b9050919050565b6000602082019050612d3e6000830184612994565b92915050565b6000612d4e612d5f565b9050612d5a8282613028565b919050565b6000604051905090565b600067ffffffffffffffff821115612d8457612d8361318d565b5b612d8d826131d0565b9050602081019050919050565b600067ffffffffffffffff821115612db557612db461318d565b5b612dbe826131d0565b9050602081019050919050565b6000819050602082019050919050565b600081519050919050565b600081519050919050565b6000602082019050919050565b600082825260208201905092915050565b600081905092915050565b600082825260208201905092915050565b6000612e3682612faa565b9150612e4183612faa565b9250827fffffffffffffffffffffffffffffffffffffffffffffffffffffffffffffffff03821115612e7657612e756130a2565b5b828201905092915050565b6000612e8c82612faa565b9150612e9783612faa565b925082612ea757612ea66130d1565b5b828204905092915050565b6000612ebd82612faa565b9150612ec883612faa565b9250817fffffffffffffffffffffffffffffffffffffffffffffffffffffffffffffffff0483118215151615612f0157612f006130a2565b5b828202905092915050565b6000612f1782612faa565b9150612f2283612faa565b925082821015612f3557612f346130a2565b5b828203905092915050565b6000612f4b82612f8a565b9050919050565b60008115159050919050565b60007fffffffff0000000000000000000000000000000000000000000000000000000082169050919050565b600073ffffffffffffffffffffffffffffffffffffffff82169050919050565b6000819050919050565b82818337600083830152505050565b60005b83811015612fe1578082015181840152602081019050612fc6565b83811115612ff0576000848401525b50505050565b6000600282049050600182168061300e57607f821691505b6020821081141561302257613021613100565b5b50919050565b613031826131d0565b810181811067ffffffffffffffff821117156130505761304f61318d565b5b80604052505050565b600061306482612faa565b91507fffffffffffffffffffffffffffffffffffffffffffffffffffffffffffffffff821415613097576130966130a2565b5b600182019050919050565b7f4e487b7100000000000000000000000000000000000000000000000000000000600052601160045260246000fd5b7f4e487b7100000000000000000000000000000000000000000000000000000000600052601260045260246000fd5b7f4e487b7100000000000000000000000000000000000000000000000000000000600052602260045260246000fd5b7f4e487b7100000000000000000000000000000000000000000000000000000000600052603160045260246000fd5b7f4e487b7100000000000000000000000000000000000000000000000000000000600052603260045260246000fd5b7f4e487b7100000000000000000000000000000000000000000000000000000000600052604160045260246000fd5b600080fd5b600080fd5b600080fd5b600080fd5b6000601f19601f8301169050919050565b7f5472616e7366657220746f206f776e6572206661696c65642e00000000000000600082015250565b7f4552433732313a20746f6b656e20616c7265616479206d696e74656400000000600082015250565b7f4e465420776173206e6f7420796574207075726368617365642077697468696e60008201527f20446f75626c6554726f75626c65000000000000000000000000000000000000602082015250565b7f506c656173652075736520627579206f7220666f726365427579000000000000600082015250565b7f4552433732313a207472616e7366657220746f20746865207a65726f2061646460008201527f7265737300000000000000000000000000000000000000000000000000000000602082015250565b7f4552433732313a20617070726f766520746f2063616c6c657200000000000000600082015250565b7f4552433732313a20617070726f76652063616c6c6572206973206e6f74206f7760008201527f6e6572206e6f7220617070726f76656420666f7220616c6c0000000000000000602082015250565b7f4552433732313a2062616c616e636520717565727920666f7220746865207a6560008201527f726f206164647265737300000000000000000000000000000000000000000000602082015250565b7f4552433732313a206f776e657220717565727920666f72206e6f6e657869737460008201527f656e7420746f6b656e0000000000000000000000000000000000000000000000602082015250565b7f56616c75652073656e74206d757374206265206174206c65617374207468652060008201527f666f722073616c65207072696365000000000000000000000000000000000000602082015250565b7f4552433732313a206d696e7420746f20746865207a65726f2061646472657373600082015250565b7f4552433732313a20617070726f76656420717565727920666f72206e6f6e657860008201527f697374656e7420746f6b656e0000000000000000000000000000000000000000602082015250565b7f4e4654206973206e6f7420666f722073616c6500000000000000000000000000600082015250565b7f4552433732313a207472616e73666572206f6620746f6b656e2074686174206960008201527f73206e6f74206f776e0000000000000000000000000000000000000000000000602082015250565b7f4552433732313a20617070726f76616c20746f2063757272656e74206f776e6560008201527f7200000000000000000000000000000000000000000000000000000000000000602082015250565b50565b7f746f6b656e4964206e6f7420666f756e6420696e2072656d6f76650000000000600082015250565b7f6d73672e73656e6465722073686f756c642062652063757272656e74206f776e60008201527f6572206f66204e46540000000000000000000000000000000000000000000000602082015250565b7f446f75626c6554726f75626c6520636f6e7472616374206d757374206265206160008201527f7070726f76656420746f206f706572617465207468697320746f6b656e000000602082015250565b7f43616e6e6f742072656d6f7665204e46542066726f6d20446f75626c6554726f60008201527f75626c652069662069742077617320616c726561647920626f7567687420627960208201527f20736f6d656f6e65000000000000000000000000000000000000000000000000604082015250565b7f636f6c6c656374696f6e20616e6420746f6b656e496420636f6d62696e61746960008201527f6f6e206973206e6f742070726573656e7420696e204454000000000000000000602082015250565b7f5472616e7366657220746f2044542077616c6c6574206661696c65642e000000600082015250565b7f56616c75652073656e74206d757374206265206174206c65617374207477696360008201527f6520746865206c61737420707572636861736520707269636500000000000000602082015250565b6137ad81612f40565b81146137b857600080fd5b50565b6137c481612f52565b81146137cf57600080fd5b50565b6137db81612f5e565b81146137e657600080fd5b50565b6137f281612faa565b81146137fd57600080fd5b5056fea26469706673582212202290fb4bf87e271c569c0e55c450a3f7e4ad6fb33b1cc1872768a6e50796bc9a64736f6c63430008070033",
  "immutableReferences": {},
  "source": "pragma solidity ^0.8.0;\n\nimport \"@openzeppelin/contracts/token/ERC721/extensions/ERC721URIStorage.sol\";\nimport \"@openzeppelin/contracts/token/ERC721/extensions/IERC721Metadata.sol\";\n\n// SPDX-License-Identifier: MIT\ncontract DoubleTrouble is ERC721URIStorage {\n  // nested mapping that keeps track of who owns the NFTs\n  mapping (uint256 => uint256) public _forSalePrices;\n  mapping (uint256 => uint256) public _lastPurchasePrices;\n  address _originalCollection;\n  address _feeWallet;\n  uint256 _feeRate = 100;\n  uint256[] _registeredTokens;\n\n  constructor(string memory name, string memory symbol, address nftCollection, address feeWallet) ERC721(name, symbol) {\n    require(nftCollection != address(0), \"collection address cannot be zero\");\n    _originalCollection = nftCollection;\n    _feeWallet = feeWallet;\n  }\n\n  function makeTroublesome(uint256 tokenId, uint256 initialForSalePrice) external {\n    require(IERC721Metadata(_originalCollection).getApproved(tokenId) == address(this), \"DoubleTrouble contract must be approved to operate this token\");\n\n    // In the original collection, the owner forever becomes the DoubleTrouble contract\n    address owner = IERC721Metadata(_originalCollection).ownerOf(tokenId);\n    IERC721Metadata(_originalCollection).transferFrom(owner, address(this), tokenId);\n\n    // Mint an NFT in the DT contract so we start recording the true owner here\n    _mint(owner, tokenId);\n    _forSalePrices[tokenId] = initialForSalePrice;\n    _registeredTokens.push(tokenId);\n  }\n\n  function unmakeTroublesome(uint256 tokenId) external {\n    require(msg.sender == ownerOf(tokenId), \"msg.sender should be current owner of NFT\");\n    require(_lastPurchasePrices[tokenId] == 0, \"Cannot remove NFT from DoubleTrouble if it was already bought by someone\");\n\n    // Transfer ownership of the NFT\n    IERC721Metadata(_originalCollection).transferFrom(address(this), msg.sender, tokenId);\n    _burn(tokenId);\n    _removeRegistered(tokenId);\n  }\n\n  function _removeRegistered(uint256 tokenId) internal {\n    bool found = false;\n    for (uint256 i = 0; i < _registeredTokens.length - 1; i++) {\n      if (_registeredTokens[i] == tokenId) {\n        found = true;\n      }\n\n      if (found) {\n        _registeredTokens[i] = _registeredTokens[i + 1];\n      }\n    }\n\n    require(found || _registeredTokens[_registeredTokens.length - 1] == tokenId, \"tokenId not found in remove\");\n    _registeredTokens.pop();\n  }\n\n  function originalCollection() external view returns (address) {\n    return _originalCollection;\n  }\n\n  function safeTransferFrom(address, address, uint256, bytes memory) public override pure {\n    revert(\"Please use buy or forceBuy\");\n  }\n\n  function safeTransferFrom(address, address, uint256) public override pure {\n    revert(\"Please use buy or forceBuy\");\n  }\n\n  function transferFrom(address, address, uint256) public override pure {\n    revert(\"Please use buy or forceBuy\");\n  }\n\n  function forSalePrice(uint256 tokenId) external view returns (uint256) {\n    require(ownerOf(tokenId) != address(0), \"collection and tokenId combination is not present in DT\");\n    return _forSalePrices[tokenId];\n  }\n\n  function lastPurchasePrice(uint256 tokenId) external view returns (uint256) {\n    require(ownerOf(tokenId) != address(0), \"collection and tokenId combination is not present in DT\");\n    return _lastPurchasePrices[tokenId];\n  }\n\n  function tokenURI(uint256 tokenId) public view virtual override returns (string memory) {\n    return IERC721Metadata(_originalCollection).tokenURI(tokenId);\n  }\n\n  function setPrice(uint256 tokenId, uint256 price) external {\n    require(msg.sender == ownerOf(tokenId), \"msg.sender should be current owner of NFT\");\n    _forSalePrices[tokenId] = price;\n  }\n\n  function buy(uint256 tokenId) payable external {\n    require(_forSalePrices[tokenId] > 0, \"NFT is not for sale\");\n    require(msg.value >= _forSalePrices[tokenId], \"Value sent must be at least the for sale price\");\n    _completeBuy(msg.sender, tokenId, msg.value);\n  }\n\n  function forceBuy(uint256 tokenId) payable external {\n    require(_lastPurchasePrices[tokenId] > 0, \"NFT was not yet purchased within DoubleTrouble\");\n    require(msg.value >= (2 * _lastPurchasePrices[tokenId]), \"Value sent must be at least twice the last purchase price\");\n    _completeBuy(msg.sender, tokenId, msg.value);\n  }\n\n  function _completeBuy(address newOwner, uint256 tokenId, uint256 amountPaid) internal virtual {\n    // Change owner, set last purchase price, and remove from sale\n    address oldOwner = ownerOf(tokenId);\n    _transfer(oldOwner, newOwner, tokenId);\n    _lastPurchasePrices[tokenId] = amountPaid;\n    _forSalePrices[tokenId] = 0;\n    uint256 feeToCharge = amountPaid / _feeRate;\n\n    // Send ether to the old owner. Must be at the very end of the buy function to prevent reentrancy attacks\n    // https://consensys.net/diligence/blog/2019/09/stop-using-soliditys-transfer-now/\n    (bool oldOwnersuccess, ) = oldOwner.call{value: amountPaid - feeToCharge}(\"\");\n    // Send ether to the DT wallet\n    require(oldOwnersuccess, \"Transfer to owner failed.\");\n    (bool feeWalletSuccess, ) = _feeWallet.call{value: feeToCharge}(\"\");\n    require(feeWalletSuccess, \"Transfer to DT wallet failed.\");\n  }\n\n  function supportsInterface(bytes4 interfaceId) public view virtual override returns (bool) {\n    return interfaceId == 0xdeadbeef || super.supportsInterface(interfaceId);\n  }\n\n  function registeredTokens() external view returns (uint256[] memory) {\n    return _registeredTokens;\n  }\n}\n",
  "sourcePath": "/Users/gabrielguimaraes/crypto/double_trouble/blockchain-backend/contracts/DoubleTrouble.sol",
  "compiler": {
    "name": "solc",
    "version": "0.8.7+commit.e28d00a7.Emscripten.clang"
  },
  "schemaVersion": "3.4.2",
  "updatedAt": "2021-09-08T01:45:13.778Z",
  "devdoc": {
    "kind": "dev",
    "methods": {
      "approve(address,uint256)": {
        "details": "See {IERC721-approve}."
      },
      "balanceOf(address)": {
        "details": "See {IERC721-balanceOf}."
      },
      "getApproved(uint256)": {
        "details": "See {IERC721-getApproved}."
      },
      "isApprovedForAll(address,address)": {
        "details": "See {IERC721-isApprovedForAll}."
      },
      "name()": {
        "details": "See {IERC721Metadata-name}."
      },
      "ownerOf(uint256)": {
        "details": "See {IERC721-ownerOf}."
      },
      "setApprovalForAll(address,bool)": {
        "details": "See {IERC721-setApprovalForAll}."
      },
      "supportsInterface(bytes4)": {
        "details": "See {IERC165-supportsInterface}."
      },
      "symbol()": {
        "details": "See {IERC721Metadata-symbol}."
      },
      "tokenURI(uint256)": {
        "details": "See {IERC721Metadata-tokenURI}."
      }
    },
    "version": 1
  },
  "userdoc": {
    "kind": "user",
    "methods": {},
    "version": 1
  }
}