{
  "contractName": "DoubleTrouble",
  "abi": [
    {
      "inputs": [
        {
          "internalType": "string",
          "name": "name",
          "type": "string"
        },
        {
          "internalType": "string",
          "name": "symbol",
          "type": "string"
        },
        {
          "internalType": "address",
          "name": "nftCollection",
          "type": "address"
        }
      ],
      "stateMutability": "nonpayable",
      "type": "constructor"
    },
    {
      "anonymous": false,
      "inputs": [
        {
          "indexed": true,
          "internalType": "address",
          "name": "owner",
          "type": "address"
        },
        {
          "indexed": true,
          "internalType": "address",
          "name": "approved",
          "type": "address"
        },
        {
          "indexed": true,
          "internalType": "uint256",
          "name": "tokenId",
          "type": "uint256"
        }
      ],
      "name": "Approval",
      "type": "event"
    },
    {
      "anonymous": false,
      "inputs": [
        {
          "indexed": true,
          "internalType": "address",
          "name": "owner",
          "type": "address"
        },
        {
          "indexed": true,
          "internalType": "address",
          "name": "operator",
          "type": "address"
        },
        {
          "indexed": false,
          "internalType": "bool",
          "name": "approved",
          "type": "bool"
        }
      ],
      "name": "ApprovalForAll",
      "type": "event"
    },
    {
      "anonymous": false,
      "inputs": [
        {
          "indexed": true,
          "internalType": "address",
          "name": "from",
          "type": "address"
        },
        {
          "indexed": true,
          "internalType": "address",
          "name": "to",
          "type": "address"
        },
        {
          "indexed": true,
          "internalType": "uint256",
          "name": "tokenId",
          "type": "uint256"
        }
      ],
      "name": "Transfer",
      "type": "event"
    },
    {
      "inputs": [
        {
          "internalType": "uint256",
          "name": "",
          "type": "uint256"
        }
      ],
      "name": "_forSalePrices",
      "outputs": [
        {
          "internalType": "uint256",
          "name": "",
          "type": "uint256"
        }
      ],
      "stateMutability": "view",
      "type": "function",
      "constant": true
    },
    {
      "inputs": [
        {
          "internalType": "uint256",
          "name": "",
          "type": "uint256"
        }
      ],
      "name": "_lastPurchasePrices",
      "outputs": [
        {
          "internalType": "uint256",
          "name": "",
          "type": "uint256"
        }
      ],
      "stateMutability": "view",
      "type": "function",
      "constant": true
    },
    {
      "inputs": [
        {
          "internalType": "address",
          "name": "to",
          "type": "address"
        },
        {
          "internalType": "uint256",
          "name": "tokenId",
          "type": "uint256"
        }
      ],
      "name": "approve",
      "outputs": [],
      "stateMutability": "nonpayable",
      "type": "function"
    },
    {
      "inputs": [
        {
          "internalType": "address",
          "name": "owner",
          "type": "address"
        }
      ],
      "name": "balanceOf",
      "outputs": [
        {
          "internalType": "uint256",
          "name": "",
          "type": "uint256"
        }
      ],
      "stateMutability": "view",
      "type": "function",
      "constant": true
    },
    {
      "inputs": [
        {
          "internalType": "uint256",
          "name": "tokenId",
          "type": "uint256"
        }
      ],
      "name": "getApproved",
      "outputs": [
        {
          "internalType": "address",
          "name": "",
          "type": "address"
        }
      ],
      "stateMutability": "view",
      "type": "function",
      "constant": true
    },
    {
      "inputs": [
        {
          "internalType": "address",
          "name": "owner",
          "type": "address"
        },
        {
          "internalType": "address",
          "name": "operator",
          "type": "address"
        }
      ],
      "name": "isApprovedForAll",
      "outputs": [
        {
          "internalType": "bool",
          "name": "",
          "type": "bool"
        }
      ],
      "stateMutability": "view",
      "type": "function",
      "constant": true
    },
    {
      "inputs": [],
      "name": "name",
      "outputs": [
        {
          "internalType": "string",
          "name": "",
          "type": "string"
        }
      ],
      "stateMutability": "view",
      "type": "function",
      "constant": true
    },
    {
      "inputs": [
        {
          "internalType": "uint256",
          "name": "tokenId",
          "type": "uint256"
        }
      ],
      "name": "ownerOf",
      "outputs": [
        {
          "internalType": "address",
          "name": "",
          "type": "address"
        }
      ],
      "stateMutability": "view",
      "type": "function",
      "constant": true
    },
    {
      "inputs": [
        {
          "internalType": "address",
          "name": "operator",
          "type": "address"
        },
        {
          "internalType": "bool",
          "name": "approved",
          "type": "bool"
        }
      ],
      "name": "setApprovalForAll",
      "outputs": [],
      "stateMutability": "nonpayable",
      "type": "function"
    },
    {
      "inputs": [
        {
          "internalType": "bytes4",
          "name": "interfaceId",
          "type": "bytes4"
        }
      ],
      "name": "supportsInterface",
      "outputs": [
        {
          "internalType": "bool",
          "name": "",
          "type": "bool"
        }
      ],
      "stateMutability": "view",
      "type": "function",
      "constant": true
    },
    {
      "inputs": [],
      "name": "symbol",
      "outputs": [
        {
          "internalType": "string",
          "name": "",
          "type": "string"
        }
      ],
      "stateMutability": "view",
      "type": "function",
      "constant": true
    },
    {
      "inputs": [
        {
          "internalType": "uint256",
          "name": "tokenId",
          "type": "uint256"
        }
      ],
      "name": "makeDTable",
      "outputs": [],
      "stateMutability": "nonpayable",
      "type": "function"
    },
    {
      "inputs": [
        {
          "internalType": "address",
          "name": "",
          "type": "address"
        },
        {
          "internalType": "address",
          "name": "",
          "type": "address"
        },
        {
          "internalType": "uint256",
          "name": "",
          "type": "uint256"
        }
      ],
      "name": "safeTransferFrom",
      "outputs": [],
      "stateMutability": "pure",
      "type": "function",
      "constant": true
    },
    {
      "inputs": [
        {
          "internalType": "address",
          "name": "",
          "type": "address"
        },
        {
          "internalType": "address",
          "name": "",
          "type": "address"
        },
        {
          "internalType": "uint256",
          "name": "",
          "type": "uint256"
        },
        {
          "internalType": "bytes",
          "name": "",
          "type": "bytes"
        }
      ],
      "name": "safeTransferFrom",
      "outputs": [],
      "stateMutability": "pure",
      "type": "function",
      "constant": true
    },
    {
      "inputs": [
        {
          "internalType": "address",
          "name": "",
          "type": "address"
        },
        {
          "internalType": "address",
          "name": "",
          "type": "address"
        },
        {
          "internalType": "uint256",
          "name": "",
          "type": "uint256"
        }
      ],
      "name": "transferFrom",
      "outputs": [],
      "stateMutability": "pure",
      "type": "function",
      "constant": true
    },
    {
      "inputs": [
        {
          "internalType": "uint256",
          "name": "tokenId",
          "type": "uint256"
        }
      ],
      "name": "forSalePrice",
      "outputs": [
        {
          "internalType": "uint256",
          "name": "",
          "type": "uint256"
        }
      ],
      "stateMutability": "view",
      "type": "function",
      "constant": true
    },
    {
      "inputs": [
        {
          "internalType": "uint256",
          "name": "tokenId",
          "type": "uint256"
        }
      ],
      "name": "lastPurchasePrice",
      "outputs": [
        {
          "internalType": "uint256",
          "name": "",
          "type": "uint256"
        }
      ],
      "stateMutability": "view",
      "type": "function",
      "constant": true
    },
    {
      "inputs": [
        {
          "internalType": "uint256",
          "name": "tokenId",
          "type": "uint256"
        }
      ],
      "name": "tokenURI",
      "outputs": [
        {
          "internalType": "string",
          "name": "",
          "type": "string"
        }
      ],
      "stateMutability": "view",
      "type": "function",
      "constant": true
    },
    {
      "inputs": [
        {
          "internalType": "uint256",
          "name": "tokenId",
          "type": "uint256"
        },
        {
          "internalType": "uint256",
          "name": "price",
          "type": "uint256"
        }
      ],
      "name": "putUpForSale",
      "outputs": [],
      "stateMutability": "nonpayable",
      "type": "function"
    },
    {
      "inputs": [
        {
          "internalType": "uint256",
          "name": "tokenId",
          "type": "uint256"
        }
      ],
      "name": "buy",
      "outputs": [],
      "stateMutability": "payable",
      "type": "function",
      "payable": true
    },
    {
      "inputs": [
        {
          "internalType": "uint256",
          "name": "tokenId",
          "type": "uint256"
        }
      ],
      "name": "forceBuy",
      "outputs": [],
      "stateMutability": "payable",
      "type": "function",
      "payable": true
    }
  ],
  "bytecode": "0x60806040523480156200001157600080fd5b506040516200340b3803806200340b83398181016040528101906200003791906200038d565b8282816000908051906020019062000051929190620001ff565b5080600190805190602001906200006a929190620001ff565b505050600073ffffffffffffffffffffffffffffffffffffffff168173ffffffffffffffffffffffffffffffffffffffff161415620000e0576040517f08c379a0000000000000000000000000000000000000000000000000000000008152600401620000d790620004c5565b60405180910390fd5b8073ffffffffffffffffffffffffffffffffffffffff166301ffc9a76380ac58cd6040518263ffffffff1660e01b81526004016200011f919062000486565b60206040518083038186803b1580156200013857600080fd5b505afa1580156200014d573d6000803e3d6000fd5b505050506040513d601f19601f820116820180604052508101906200017391906200035b565b620001b5576040517f08c379a0000000000000000000000000000000000000000000000000000000008152600401620001ac90620004a3565b60405180910390fd5b80600960006101000a81548173ffffffffffffffffffffffffffffffffffffffff021916908373ffffffffffffffffffffffffffffffffffffffff160217905550505050620007c3565b8280546200020d90620005f5565b90600052602060002090601f0160209004810192826200023157600085556200027d565b82601f106200024c57805160ff19168380011785556200027d565b828001600101855582156200027d579182015b828111156200027c5782518255916020019190600101906200025f565b5b5090506200028c919062000290565b5090565b5b80821115620002ab57600081600090555060010162000291565b5090565b6000620002c6620002c08462000510565b620004e7565b905082815260208101848484011115620002e557620002e4620006c4565b5b620002f2848285620005bf565b509392505050565b6000815190506200030b816200078f565b92915050565b6000815190506200032281620007a9565b92915050565b600082601f83011262000340576200033f620006bf565b5b815162000352848260208601620002af565b91505092915050565b600060208284031215620003745762000373620006ce565b5b6000620003848482850162000311565b91505092915050565b600080600060608486031215620003a957620003a8620006ce565b5b600084015167ffffffffffffffff811115620003ca57620003c9620006c9565b5b620003d88682870162000328565b935050602084015167ffffffffffffffff811115620003fc57620003fb620006c9565b5b6200040a8682870162000328565b92505060406200041d86828701620002fa565b9150509250925092565b6200043281620005a1565b82525050565b600062000447602a8362000546565b91506200045482620006f1565b604082019050919050565b60006200046e60218362000546565b91506200047b8262000740565b604082019050919050565b60006020820190506200049d600083018462000427565b92915050565b60006020820190508181036000830152620004be8162000438565b9050919050565b60006020820190508181036000830152620004e0816200045f565b9050919050565b6000620004f362000506565b90506200050182826200062b565b919050565b6000604051905090565b600067ffffffffffffffff8211156200052e576200052d62000690565b5b6200053982620006d3565b9050602081019050919050565b600082825260208201905092915050565b6000620005648262000581565b9050919050565b60008115159050919050565b6000819050919050565b600073ffffffffffffffffffffffffffffffffffffffff82169050919050565b6000620005b8620005b28362000577565b620006e4565b9050919050565b60005b83811015620005df578082015181840152602081019050620005c2565b83811115620005ef576000848401525b50505050565b600060028204905060018216806200060e57607f821691505b6020821081141562000625576200062462000661565b5b50919050565b6200063682620006d3565b810181811067ffffffffffffffff8211171562000658576200065762000690565b5b80604052505050565b7f4e487b7100000000000000000000000000000000000000000000000000000000600052602260045260246000fd5b7f4e487b7100000000000000000000000000000000000000000000000000000000600052604160045260246000fd5b600080fd5b600080fd5b600080fd5b600080fd5b6000601f19601f8301169050919050565b60008160e01b9050919050565b7f636f6c6c656374696f6e206d75737420726566657220746f20616e204552433760008201527f3231206164647265737300000000000000000000000000000000000000000000602082015250565b7f636f6c6c656374696f6e20616464726573732063616e6e6f74206265207a657260008201527f6f00000000000000000000000000000000000000000000000000000000000000602082015250565b6200079a8162000557565b8114620007a657600080fd5b50565b620007b4816200056b565b8114620007c057600080fd5b50565b612c3880620007d36000396000f3fe60806040526004361061012a5760003560e01c806370a08231116100ab578063b88d4fde1161006f578063b88d4fde14610405578063c87b56dd1461042e578063d96a094a1461046b578063dbe05fff14610487578063e6c17350146104c4578063e985e9c5146105015761012a565b806370a082311461031b57806373b1dc801461035857806380b48a7c1461037457806395d89b41146103b1578063a22cb465146103dc5761012a565b806323b872dd116100f257806323b872dd1461022657806342842e0e1461024f578063522da633146102785780635e96c694146102b55780636352211e146102de5761012a565b806301ffc9a71461012f57806306fdde031461016c578063081812fc14610197578063095ea7b3146101d457806310f7c83e146101fd575b600080fd5b34801561013b57600080fd5b5061015660048036038101906101519190611d27565b61053e565b604051610163919061214d565b60405180910390f35b34801561017857600080fd5b50610181610620565b60405161018e9190612168565b60405180910390f35b3480156101a357600080fd5b506101be60048036038101906101b99190611d9d565b6106b2565b6040516101cb91906120fb565b60405180910390f35b3480156101e057600080fd5b506101fb60048036038101906101f69190611ce7565b610737565b005b34801561020957600080fd5b50610224600480360381019061021f9190611d9d565b61084f565b005b34801561023257600080fd5b5061024d60048036038101906102489190611bd1565b610ab5565b005b34801561025b57600080fd5b5061027660048036038101906102719190611bd1565b610af0565b005b34801561028457600080fd5b5061029f600480360381019061029a9190611d9d565b610b2b565b6040516102ac91906123aa565b60405180910390f35b3480156102c157600080fd5b506102dc60048036038101906102d79190611dca565b610b43565b005b3480156102ea57600080fd5b5061030560048036038101906103009190611d9d565b610bd5565b60405161031291906120fb565b60405180910390f35b34801561032757600080fd5b50610342600480360381019061033d9190611b37565b610c87565b60405161034f91906123aa565b60405180910390f35b610372600480360381019061036d9190611d9d565b610d3f565b005b34801561038057600080fd5b5061039b60048036038101906103969190611d9d565b610dce565b6040516103a891906123aa565b60405180910390f35b3480156103bd57600080fd5b506103c6610e62565b6040516103d39190612168565b60405180910390f35b3480156103e857600080fd5b5061040360048036038101906103fe9190611ca7565b610ef4565b005b34801561041157600080fd5b5061042c60048036038101906104279190611c24565b611075565b005b34801561043a57600080fd5b5061045560048036038101906104509190611d9d565b6110b0565b6040516104629190612168565b60405180910390f35b61048560048036038101906104809190611d9d565b611169565b005b34801561049357600080fd5b506104ae60048036038101906104a99190611d9d565b6111ec565b6040516104bb91906123aa565b60405180910390f35b3480156104d057600080fd5b506104eb60048036038101906104e69190611d9d565b611204565b6040516104f891906123aa565b60405180910390f35b34801561050d57600080fd5b5061052860048036038101906105239190611b91565b611298565b604051610535919061214d565b60405180910390f35b60007f80ac58cd000000000000000000000000000000000000000000000000000000007bffffffffffffffffffffffffffffffffffffffffffffffffffffffff1916827bffffffffffffffffffffffffffffffffffffffffffffffffffffffff1916148061060957507f5b5e139f000000000000000000000000000000000000000000000000000000007bffffffffffffffffffffffffffffffffffffffffffffffffffffffff1916827bffffffffffffffffffffffffffffffffffffffffffffffffffffffff1916145b8061061957506106188261132c565b5b9050919050565b60606000805461062f9061260d565b80601f016020809104026020016040519081016040528092919081815260200182805461065b9061260d565b80156106a85780601f1061067d576101008083540402835291602001916106a8565b820191906000526020600020905b81548152906001019060200180831161068b57829003601f168201915b5050505050905090565b60006106bd82611396565b6106fc576040517f08c379a00000000000000000000000000000000000000000000000000000000081526004016106f3906122aa565b60405180910390fd5b6004600083815260200190815260200160002060009054906101000a900473ffffffffffffffffffffffffffffffffffffffff169050919050565b600061074282610bd5565b90508073ffffffffffffffffffffffffffffffffffffffff168373ffffffffffffffffffffffffffffffffffffffff1614156107b3576040517f08c379a00000000000000000000000000000000000000000000000000000000081526004016107aa906122ea565b60405180910390fd5b8073ffffffffffffffffffffffffffffffffffffffff166107d2611402565b73ffffffffffffffffffffffffffffffffffffffff1614806108015750610800816107fb611402565b611298565b5b610840576040517f08c379a00000000000000000000000000000000000000000000000000000000081526004016108379061220a565b60405180910390fd5b61084a838361140a565b505050565b3073ffffffffffffffffffffffffffffffffffffffff16600960009054906101000a900473ffffffffffffffffffffffffffffffffffffffff1673ffffffffffffffffffffffffffffffffffffffff1663081812fc836040518263ffffffff1660e01b81526004016108c191906123aa565b60206040518083038186803b1580156108d957600080fd5b505afa1580156108ed573d6000803e3d6000fd5b505050506040513d601f19601f820116820180604052508101906109119190611b64565b73ffffffffffffffffffffffffffffffffffffffff1614610967576040517f08c379a000000000000000000000000000000000000000000000000000000000815260040161095e9061234a565b60405180910390fd5b6000600960009054906101000a900473ffffffffffffffffffffffffffffffffffffffff1673ffffffffffffffffffffffffffffffffffffffff16636352211e836040518263ffffffff1660e01b81526004016109c491906123aa565b60206040518083038186803b1580156109dc57600080fd5b505afa1580156109f0573d6000803e3d6000fd5b505050506040513d601f19601f82011682018060405250810190610a149190611b64565b9050600960009054906101000a900473ffffffffffffffffffffffffffffffffffffffff1673ffffffffffffffffffffffffffffffffffffffff166323b872dd8230856040518463ffffffff1660e01b8152600401610a7593929190612116565b600060405180830381600087803b158015610a8f57600080fd5b505af1158015610aa3573d6000803e3d6000fd5b50505050610ab181836114c3565b5050565b6040517f08c379a0000000000000000000000000000000000000000000000000000000008152600401610ae7906121aa565b60405180910390fd5b6040517f08c379a0000000000000000000000000000000000000000000000000000000008152600401610b22906121aa565b60405180910390fd5b60076020528060005260406000206000915090505481565b610b4c82610bd5565b73ffffffffffffffffffffffffffffffffffffffff163373ffffffffffffffffffffffffffffffffffffffff1614610bb9576040517f08c379a0000000000000000000000000000000000000000000000000000000008152600401610bb09061232a565b60405180910390fd5b8060076000848152602001908152602001600020819055505050565b6000806002600084815260200190815260200160002060009054906101000a900473ffffffffffffffffffffffffffffffffffffffff169050600073ffffffffffffffffffffffffffffffffffffffff168173ffffffffffffffffffffffffffffffffffffffff161415610c7e576040517f08c379a0000000000000000000000000000000000000000000000000000000008152600401610c759061224a565b60405180910390fd5b80915050919050565b60008073ffffffffffffffffffffffffffffffffffffffff168273ffffffffffffffffffffffffffffffffffffffff161415610cf8576040517f08c379a0000000000000000000000000000000000000000000000000000000008152600401610cef9061222a565b60405180910390fd5b600360008373ffffffffffffffffffffffffffffffffffffffff1673ffffffffffffffffffffffffffffffffffffffff168152602001908152602001600020549050919050565b60006008600083815260200190815260200160002054118015610d81575060086000828152602001908152602001600020546002610d7d91906124c9565b3410155b610dc0576040517f08c379a0000000000000000000000000000000000000000000000000000000008152600401610db79061238a565b60405180910390fd5b610dcb338234611691565b50565b60008073ffffffffffffffffffffffffffffffffffffffff16610df083610bd5565b73ffffffffffffffffffffffffffffffffffffffff161415610e47576040517f08c379a0000000000000000000000000000000000000000000000000000000008152600401610e3e9061236a565b60405180910390fd5b60086000838152602001908152602001600020549050919050565b606060018054610e719061260d565b80601f0160208091040260200160405190810160405280929190818152602001828054610e9d9061260d565b8015610eea5780601f10610ebf57610100808354040283529160200191610eea565b820191906000526020600020905b815481529060010190602001808311610ecd57829003601f168201915b5050505050905090565b610efc611402565b73ffffffffffffffffffffffffffffffffffffffff168273ffffffffffffffffffffffffffffffffffffffff161415610f6a576040517f08c379a0000000000000000000000000000000000000000000000000000000008152600401610f61906121ea565b60405180910390fd5b8060056000610f77611402565b73ffffffffffffffffffffffffffffffffffffffff1673ffffffffffffffffffffffffffffffffffffffff16815260200190815260200160002060008473ffffffffffffffffffffffffffffffffffffffff1673ffffffffffffffffffffffffffffffffffffffff16815260200190815260200160002060006101000a81548160ff0219169083151502179055508173ffffffffffffffffffffffffffffffffffffffff16611024611402565b73ffffffffffffffffffffffffffffffffffffffff167f17307eab39ab6107e8899845ad3d59bd9653f200f220920489ca2b5937696c3183604051611069919061214d565b60405180910390a35050565b6040517f08c379a00000000000000000000000000000000000000000000000000000000081526004016110a7906121aa565b60405180910390fd5b6060600960009054906101000a900473ffffffffffffffffffffffffffffffffffffffff1673ffffffffffffffffffffffffffffffffffffffff1663c87b56dd836040518263ffffffff1660e01b815260040161110d91906123aa565b60006040518083038186803b15801561112557600080fd5b505afa158015611139573d6000803e3d6000fd5b505050506040513d6000823e3d601f19601f820116820180604052508101906111629190611d54565b9050919050565b6000600760008381526020019081526020016000205411801561119f575060076000828152602001908152602001600020543410155b6111de576040517f08c379a00000000000000000000000000000000000000000000000000000000081526004016111d59061226a565b60405180910390fd5b6111e9338234611691565b50565b60086020528060005260406000206000915090505481565b60008073ffffffffffffffffffffffffffffffffffffffff1661122683610bd5565b73ffffffffffffffffffffffffffffffffffffffff16141561127d576040517f08c379a00000000000000000000000000000000000000000000000000000000081526004016112749061236a565b60405180910390fd5b60076000838152602001908152602001600020549050919050565b6000600560008473ffffffffffffffffffffffffffffffffffffffff1673ffffffffffffffffffffffffffffffffffffffff16815260200190815260200160002060008373ffffffffffffffffffffffffffffffffffffffff1673ffffffffffffffffffffffffffffffffffffffff16815260200190815260200160002060009054906101000a900460ff16905092915050565b60007f01ffc9a7000000000000000000000000000000000000000000000000000000007bffffffffffffffffffffffffffffffffffffffffffffffffffffffff1916827bffffffffffffffffffffffffffffffffffffffffffffffffffffffff1916149050919050565b60008073ffffffffffffffffffffffffffffffffffffffff166002600084815260200190815260200160002060009054906101000a900473ffffffffffffffffffffffffffffffffffffffff1673ffffffffffffffffffffffffffffffffffffffff1614159050919050565b600033905090565b816004600083815260200190815260200160002060006101000a81548173ffffffffffffffffffffffffffffffffffffffff021916908373ffffffffffffffffffffffffffffffffffffffff160217905550808273ffffffffffffffffffffffffffffffffffffffff1661147d83610bd5565b73ffffffffffffffffffffffffffffffffffffffff167f8c5be1e5ebec7d5bd14f71427d1e84f3dd0314c0f7b2291e5b200ac8c7c3b92560405160405180910390a45050565b600073ffffffffffffffffffffffffffffffffffffffff168273ffffffffffffffffffffffffffffffffffffffff161415611533576040517f08c379a000000000000000000000000000000000000000000000000000000000815260040161152a9061228a565b60405180910390fd5b61153c81611396565b1561157c576040517f08c379a00000000000000000000000000000000000000000000000000000000081526004016115739061218a565b60405180910390fd5b6115886000838361178d565b6001600360008473ffffffffffffffffffffffffffffffffffffffff1673ffffffffffffffffffffffffffffffffffffffff16815260200190815260200160002060008282546115d89190612473565b92505081905550816002600083815260200190815260200160002060006101000a81548173ffffffffffffffffffffffffffffffffffffffff021916908373ffffffffffffffffffffffffffffffffffffffff160217905550808273ffffffffffffffffffffffffffffffffffffffff16600073ffffffffffffffffffffffffffffffffffffffff167fddf252ad1be2c89b69c2b068fc378daa952ba7f163c4a11628f55a4df523b3ef60405160405180910390a45050565b600061169c83610bd5565b90506116a9818585611792565b8160086000858152602001908152602001600020819055506000600760008581526020019081526020016000208190555060008173ffffffffffffffffffffffffffffffffffffffff1683604051611700906120e6565b60006040518083038185875af1925050503d806000811461173d576040519150601f19603f3d011682016040523d82523d6000602084013e611742565b606091505b5050905080611786576040517f08c379a000000000000000000000000000000000000000000000000000000000815260040161177d9061230a565b60405180910390fd5b5050505050565b505050565b8273ffffffffffffffffffffffffffffffffffffffff166117b282610bd5565b73ffffffffffffffffffffffffffffffffffffffff1614611808576040517f08c379a00000000000000000000000000000000000000000000000000000000081526004016117ff906122ca565b60405180910390fd5b600073ffffffffffffffffffffffffffffffffffffffff168273ffffffffffffffffffffffffffffffffffffffff161415611878576040517f08c379a000000000000000000000000000000000000000000000000000000000815260040161186f906121ca565b60405180910390fd5b61188383838361178d565b61188e60008261140a565b6001600360008573ffffffffffffffffffffffffffffffffffffffff1673ffffffffffffffffffffffffffffffffffffffff16815260200190815260200160002060008282546118de9190612523565b925050819055506001600360008473ffffffffffffffffffffffffffffffffffffffff1673ffffffffffffffffffffffffffffffffffffffff16815260200190815260200160002060008282546119359190612473565b92505081905550816002600083815260200190815260200160002060006101000a81548173ffffffffffffffffffffffffffffffffffffffff021916908373ffffffffffffffffffffffffffffffffffffffff160217905550808273ffffffffffffffffffffffffffffffffffffffff168473ffffffffffffffffffffffffffffffffffffffff167fddf252ad1be2c89b69c2b068fc378daa952ba7f163c4a11628f55a4df523b3ef60405160405180910390a4505050565b6000611a016119fc846123ea565b6123c5565b905082815260208101848484011115611a1d57611a1c612702565b5b611a288482856125cb565b509392505050565b6000611a43611a3e8461241b565b6123c5565b905082815260208101848484011115611a5f57611a5e612702565b5b611a6a8482856125da565b509392505050565b600081359050611a8181612ba6565b92915050565b600081519050611a9681612ba6565b92915050565b600081359050611aab81612bbd565b92915050565b600081359050611ac081612bd4565b92915050565b600082601f830112611adb57611ada6126fd565b5b8135611aeb8482602086016119ee565b91505092915050565b600082601f830112611b0957611b086126fd565b5b8151611b19848260208601611a30565b91505092915050565b600081359050611b3181612beb565b92915050565b600060208284031215611b4d57611b4c61270c565b5b6000611b5b84828501611a72565b91505092915050565b600060208284031215611b7a57611b7961270c565b5b6000611b8884828501611a87565b91505092915050565b60008060408385031215611ba857611ba761270c565b5b6000611bb685828601611a72565b9250506020611bc785828601611a72565b9150509250929050565b600080600060608486031215611bea57611be961270c565b5b6000611bf886828701611a72565b9350506020611c0986828701611a72565b9250506040611c1a86828701611b22565b9150509250925092565b60008060008060808587031215611c3e57611c3d61270c565b5b6000611c4c87828801611a72565b9450506020611c5d87828801611a72565b9350506040611c6e87828801611b22565b925050606085013567ffffffffffffffff811115611c8f57611c8e612707565b5b611c9b87828801611ac6565b91505092959194509250565b60008060408385031215611cbe57611cbd61270c565b5b6000611ccc85828601611a72565b9250506020611cdd85828601611a9c565b9150509250929050565b60008060408385031215611cfe57611cfd61270c565b5b6000611d0c85828601611a72565b9250506020611d1d85828601611b22565b9150509250929050565b600060208284031215611d3d57611d3c61270c565b5b6000611d4b84828501611ab1565b91505092915050565b600060208284031215611d6a57611d6961270c565b5b600082015167ffffffffffffffff811115611d8857611d87612707565b5b611d9484828501611af4565b91505092915050565b600060208284031215611db357611db261270c565b5b6000611dc184828501611b22565b91505092915050565b60008060408385031215611de157611de061270c565b5b6000611def85828601611b22565b9250506020611e0085828601611b22565b9150509250929050565b611e1381612557565b82525050565b611e2281612569565b82525050565b6000611e338261244c565b611e3d8185612462565b9350611e4d8185602086016125da565b611e5681612711565b840191505092915050565b6000611e6e601c83612462565b9150611e7982612722565b602082019050919050565b6000611e91601a83612462565b9150611e9c8261274b565b602082019050919050565b6000611eb4602483612462565b9150611ebf82612774565b604082019050919050565b6000611ed7601983612462565b9150611ee2826127c3565b602082019050919050565b6000611efa603883612462565b9150611f05826127ec565b604082019050919050565b6000611f1d602a83612462565b9150611f288261283b565b604082019050919050565b6000611f40602983612462565b9150611f4b8261288a565b604082019050919050565b6000611f63602e83612462565b9150611f6e826128d9565b604082019050919050565b6000611f86602083612462565b9150611f9182612928565b602082019050919050565b6000611fa9602c83612462565b9150611fb482612951565b604082019050919050565b6000611fcc602983612462565b9150611fd7826129a0565b604082019050919050565b6000611fef602183612462565b9150611ffa826129ef565b604082019050919050565b6000612012600083612457565b915061201d82612a3e565b600082019050919050565b6000612035601083612462565b915061204082612a41565b602082019050919050565b6000612058602983612462565b915061206382612a6a565b604082019050919050565b600061207b603d83612462565b915061208682612ab9565b604082019050919050565b600061209e603783612462565b91506120a982612b08565b604082019050919050565b60006120c1603983612462565b91506120cc82612b57565b604082019050919050565b6120e0816125c1565b82525050565b60006120f182612005565b9150819050919050565b60006020820190506121106000830184611e0a565b92915050565b600060608201905061212b6000830186611e0a565b6121386020830185611e0a565b61214560408301846120d7565b949350505050565b60006020820190506121626000830184611e19565b92915050565b600060208201905081810360008301526121828184611e28565b905092915050565b600060208201905081810360008301526121a381611e61565b9050919050565b600060208201905081810360008301526121c381611e84565b9050919050565b600060208201905081810360008301526121e381611ea7565b9050919050565b6000602082019050818103600083015261220381611eca565b9050919050565b6000602082019050818103600083015261222381611eed565b9050919050565b6000602082019050818103600083015261224381611f10565b9050919050565b6000602082019050818103600083015261226381611f33565b9050919050565b6000602082019050818103600083015261228381611f56565b9050919050565b600060208201905081810360008301526122a381611f79565b9050919050565b600060208201905081810360008301526122c381611f9c565b9050919050565b600060208201905081810360008301526122e381611fbf565b9050919050565b6000602082019050818103600083015261230381611fe2565b9050919050565b6000602082019050818103600083015261232381612028565b9050919050565b600060208201905081810360008301526123438161204b565b9050919050565b600060208201905081810360008301526123638161206e565b9050919050565b6000602082019050818103600083015261238381612091565b9050919050565b600060208201905081810360008301526123a3816120b4565b9050919050565b60006020820190506123bf60008301846120d7565b92915050565b60006123cf6123e0565b90506123db828261263f565b919050565b6000604051905090565b600067ffffffffffffffff821115612405576124046126ce565b5b61240e82612711565b9050602081019050919050565b600067ffffffffffffffff821115612436576124356126ce565b5b61243f82612711565b9050602081019050919050565b600081519050919050565b600081905092915050565b600082825260208201905092915050565b600061247e826125c1565b9150612489836125c1565b9250827fffffffffffffffffffffffffffffffffffffffffffffffffffffffffffffffff038211156124be576124bd612670565b5b828201905092915050565b60006124d4826125c1565b91506124df836125c1565b9250817fffffffffffffffffffffffffffffffffffffffffffffffffffffffffffffffff048311821515161561251857612517612670565b5b828202905092915050565b600061252e826125c1565b9150612539836125c1565b92508282101561254c5761254b612670565b5b828203905092915050565b6000612562826125a1565b9050919050565b60008115159050919050565b60007fffffffff0000000000000000000000000000000000000000000000000000000082169050919050565b600073ffffffffffffffffffffffffffffffffffffffff82169050919050565b6000819050919050565b82818337600083830152505050565b60005b838110156125f85780820151818401526020810190506125dd565b83811115612607576000848401525b50505050565b6000600282049050600182168061262557607f821691505b602082108114156126395761263861269f565b5b50919050565b61264882612711565b810181811067ffffffffffffffff82111715612667576126666126ce565b5b80604052505050565b7f4e487b7100000000000000000000000000000000000000000000000000000000600052601160045260246000fd5b7f4e487b7100000000000000000000000000000000000000000000000000000000600052602260045260246000fd5b7f4e487b7100000000000000000000000000000000000000000000000000000000600052604160045260246000fd5b600080fd5b600080fd5b600080fd5b600080fd5b6000601f19601f8301169050919050565b7f4552433732313a20746f6b656e20616c7265616479206d696e74656400000000600082015250565b7f506c656173652075736520627579206f7220666f726365427579000000000000600082015250565b7f4552433732313a207472616e7366657220746f20746865207a65726f2061646460008201527f7265737300000000000000000000000000000000000000000000000000000000602082015250565b7f4552433732313a20617070726f766520746f2063616c6c657200000000000000600082015250565b7f4552433732313a20617070726f76652063616c6c6572206973206e6f74206f7760008201527f6e6572206e6f7220617070726f76656420666f7220616c6c0000000000000000602082015250565b7f4552433732313a2062616c616e636520717565727920666f7220746865207a6560008201527f726f206164647265737300000000000000000000000000000000000000000000602082015250565b7f4552433732313a206f776e657220717565727920666f72206e6f6e657869737460008201527f656e7420746f6b656e0000000000000000000000000000000000000000000000602082015250565b7f56616c75652073656e74206d757374206265206174206c65617374207468652060008201527f666f722073616c65207072696365000000000000000000000000000000000000602082015250565b7f4552433732313a206d696e7420746f20746865207a65726f2061646472657373600082015250565b7f4552433732313a20617070726f76656420717565727920666f72206e6f6e657860008201527f697374656e7420746f6b656e0000000000000000000000000000000000000000602082015250565b7f4552433732313a207472616e73666572206f6620746f6b656e2074686174206960008201527f73206e6f74206f776e0000000000000000000000000000000000000000000000602082015250565b7f4552433732313a20617070726f76616c20746f2063757272656e74206f776e6560008201527f7200000000000000000000000000000000000000000000000000000000000000602082015250565b50565b7f5472616e73666572206661696c65642e00000000000000000000000000000000600082015250565b7f6d73672e73656e6465722073686f756c642062652063757272656e74206f776e60008201527f6572206f66204e46540000000000000000000000000000000000000000000000602082015250565b7f446f75626c6554726f75626c6520636f6e7472616374206d757374206265206160008201527f7070726f76656420746f206f706572617465207468697320746f6b656e000000602082015250565b7f636f6c6c656374696f6e20616e6420746f6b656e496420636f6d62696e61746960008201527f6f6e206973206e6f742070726573656e7420696e204454000000000000000000602082015250565b7f56616c75652073656e74206d757374206265206174206c65617374207477696360008201527f6520746865206c61737420707572636861736520707269636500000000000000602082015250565b612baf81612557565b8114612bba57600080fd5b50565b612bc681612569565b8114612bd157600080fd5b50565b612bdd81612575565b8114612be857600080fd5b50565b612bf4816125c1565b8114612bff57600080fd5b5056fea26469706673582212206e9a3c8f2527c15c94c952262f1d65c2a2c5c8b23c4076caf09b4c9e15d4196064736f6c63430008070033",
  "immutableReferences": {},
  "source": "pragma solidity ^0.8.0;\n\nimport \"@openzeppelin/contracts/token/ERC721/extensions/ERC721URIStorage.sol\";\nimport \"@openzeppelin/contracts/token/ERC721/extensions/IERC721Metadata.sol\";\n\n// SPDX-License-Identifier: MIT\ncontract DoubleTrouble is ERC721URIStorage {\n  // nested mapping that keeps track of who owns the NFTs\n  mapping (uint256 => uint256) public _forSalePrices;\n  mapping (uint256 => uint256) public _lastPurchasePrices;\n  address _originalCollection;\n\n  constructor(string memory name, string memory symbol, address nftCollection) ERC721(name, symbol) {\n    require(nftCollection != address(0), \"collection address cannot be zero\");\n    require(IERC721Metadata(nftCollection).supportsInterface(0x80ac58cd),  \"collection must refer to an ERC721 address\");\n    _originalCollection = nftCollection;\n  }\n\n  function makeDTable(uint256 tokenId) external {\n    require(IERC721Metadata(_originalCollection).getApproved(tokenId) == address(this), \"DoubleTrouble contract must be approved to operate this token\");\n\n    // In the original collection, the owner forever becomes the DoubleTrouble contract\n    address owner = IERC721Metadata(_originalCollection).ownerOf(tokenId);\n    IERC721Metadata(_originalCollection).transferFrom(owner, address(this), tokenId);\n\n    // Mint an NFT in the DT contract so we start recording the true owner here\n    _mint(owner, tokenId);\n  }\n\n  function safeTransferFrom(address, address, uint256, bytes memory) public override pure {\n    revert(\"Please use buy or forceBuy\");\n  }\n\n  function safeTransferFrom(address, address, uint256) public override pure {\n    revert(\"Please use buy or forceBuy\");\n  }\n\n  function transferFrom(address, address, uint256) public override pure {\n    revert(\"Please use buy or forceBuy\");\n  }\n\n  function forSalePrice(uint256 tokenId) external view returns (uint256) {\n    require(ownerOf(tokenId) != address(0), \"collection and tokenId combination is not present in DT\");\n    return _forSalePrices[tokenId];\n  }\n\n  function lastPurchasePrice(uint256 tokenId) external view returns (uint256) {\n    require(ownerOf(tokenId) != address(0), \"collection and tokenId combination is not present in DT\");\n    return _lastPurchasePrices[tokenId];\n  }\n\n  function tokenURI(uint256 tokenId) public view virtual override returns (string memory) {\n    return IERC721Metadata(_originalCollection).tokenURI(tokenId);\n  }\n\n  // sets currentForSalePrice to price\n  function putUpForSale(uint256 tokenId, uint256 price) external {\n    require(msg.sender == ownerOf(tokenId), \"msg.sender should be current owner of NFT\");\n    _forSalePrices[tokenId] = price;\n  }\n\n  function buy(uint256 tokenId) payable external {\n    require(_forSalePrices[tokenId] > 0 && msg.value >= _forSalePrices[tokenId], \"Value sent must be at least the for sale price\");\n    _completeBuy(msg.sender, tokenId, msg.value);\n  }\n\n  function forceBuy(uint256 tokenId) payable external {\n    require(_lastPurchasePrices[tokenId] > 0 && msg.value >= 2 * _lastPurchasePrices[tokenId], \"Value sent must be at least twice the last purchase price\");\n    _completeBuy(msg.sender, tokenId, msg.value);\n  }\n\n  function _completeBuy(address newOwner, uint256 tokenId, uint256 amountPaid) internal virtual {\n    // Change owner, set last purchase price, and remove from sale\n    address oldOwner = ownerOf(tokenId);\n    _transfer(oldOwner, newOwner, tokenId);\n    _lastPurchasePrices[tokenId] = amountPaid;\n    _forSalePrices[tokenId] = 0;\n\n    // Send ether to the old owner. Must be at the very end of the buy function to prevent reentrancy attacks\n    // https://consensys.net/diligence/blog/2019/09/stop-using-soliditys-transfer-now/\n    (bool success, ) = oldOwner.call{value: amountPaid}(\"\");\n    require(success, \"Transfer failed.\");\n  }\n}\n",
  "sourcePath": "/Users/gabrielguimaraes/crypto/double_trouble/contracts/DoubleTrouble.sol",
  "compiler": {
    "name": "solc",
    "version": "0.8.7+commit.e28d00a7.Emscripten.clang"
  },
  "schemaVersion": "3.4.2",
  "updatedAt": "2021-08-29T20:55:37.155Z",
  "networkType": "ethereum",
  "devdoc": {
    "kind": "dev",
    "methods": {
      "approve(address,uint256)": {
        "details": "See {IERC721-approve}."
      },
      "balanceOf(address)": {
        "details": "See {IERC721-balanceOf}."
      },
      "getApproved(uint256)": {
        "details": "See {IERC721-getApproved}."
      },
      "isApprovedForAll(address,address)": {
        "details": "See {IERC721-isApprovedForAll}."
      },
      "name()": {
        "details": "See {IERC721Metadata-name}."
      },
      "ownerOf(uint256)": {
        "details": "See {IERC721-ownerOf}."
      },
      "setApprovalForAll(address,bool)": {
        "details": "See {IERC721-setApprovalForAll}."
      },
      "supportsInterface(bytes4)": {
        "details": "See {IERC165-supportsInterface}."
      },
      "symbol()": {
        "details": "See {IERC721Metadata-symbol}."
      },
      "tokenURI(uint256)": {
        "details": "See {IERC721Metadata-tokenURI}."
      }
    },
    "version": 1
  },
  "userdoc": {
    "kind": "user",
    "methods": {},
    "version": 1
  }
}