{
  "contractName": "DoubleTrouble",
  "abi": [
    {
      "inputs": [
        {
          "internalType": "string",
          "name": "name",
          "type": "string"
        },
        {
          "internalType": "string",
          "name": "symbol",
          "type": "string"
        },
        {
          "internalType": "address",
          "name": "nftCollection",
          "type": "address"
        },
        {
          "internalType": "address",
          "name": "feeWallet",
          "type": "address"
        },
        {
          "internalType": "address",
          "name": "dto",
          "type": "address"
        }
      ],
      "stateMutability": "nonpayable",
      "type": "constructor"
    },
    {
      "anonymous": false,
      "inputs": [
        {
          "indexed": true,
          "internalType": "address",
          "name": "owner",
          "type": "address"
        },
        {
          "indexed": true,
          "internalType": "address",
          "name": "approved",
          "type": "address"
        },
        {
          "indexed": true,
          "internalType": "uint256",
          "name": "tokenId",
          "type": "uint256"
        }
      ],
      "name": "Approval",
      "type": "event"
    },
    {
      "anonymous": false,
      "inputs": [
        {
          "indexed": true,
          "internalType": "address",
          "name": "owner",
          "type": "address"
        },
        {
          "indexed": true,
          "internalType": "address",
          "name": "operator",
          "type": "address"
        },
        {
          "indexed": false,
          "internalType": "bool",
          "name": "approved",
          "type": "bool"
        }
      ],
      "name": "ApprovalForAll",
      "type": "event"
    },
    {
      "anonymous": false,
      "inputs": [
        {
          "indexed": true,
          "internalType": "address",
          "name": "from",
          "type": "address"
        },
        {
          "indexed": true,
          "internalType": "address",
          "name": "to",
          "type": "address"
        },
        {
          "indexed": true,
          "internalType": "uint256",
          "name": "tokenId",
          "type": "uint256"
        }
      ],
      "name": "Transfer",
      "type": "event"
    },
    {
      "inputs": [
        {
          "internalType": "uint256",
          "name": "",
          "type": "uint256"
        }
      ],
      "name": "_forSalePrices",
      "outputs": [
        {
          "internalType": "uint256",
          "name": "",
          "type": "uint256"
        }
      ],
      "stateMutability": "view",
      "type": "function"
    },
    {
      "inputs": [
        {
          "internalType": "uint256",
          "name": "",
          "type": "uint256"
        }
      ],
      "name": "_lastPurchasePrices",
      "outputs": [
        {
          "internalType": "uint256",
          "name": "",
          "type": "uint256"
        }
      ],
      "stateMutability": "view",
      "type": "function"
    },
    {
      "inputs": [
        {
          "internalType": "address",
          "name": "to",
          "type": "address"
        },
        {
          "internalType": "uint256",
          "name": "tokenId",
          "type": "uint256"
        }
      ],
      "name": "approve",
      "outputs": [],
      "stateMutability": "nonpayable",
      "type": "function"
    },
    {
      "inputs": [
        {
          "internalType": "address",
          "name": "owner",
          "type": "address"
        }
      ],
      "name": "balanceOf",
      "outputs": [
        {
          "internalType": "uint256",
          "name": "",
          "type": "uint256"
        }
      ],
      "stateMutability": "view",
      "type": "function"
    },
    {
      "inputs": [
        {
          "internalType": "uint256",
          "name": "tokenId",
          "type": "uint256"
        }
      ],
      "name": "getApproved",
      "outputs": [
        {
          "internalType": "address",
          "name": "",
          "type": "address"
        }
      ],
      "stateMutability": "view",
      "type": "function"
    },
    {
      "inputs": [
        {
          "internalType": "address",
          "name": "owner",
          "type": "address"
        },
        {
          "internalType": "address",
          "name": "operator",
          "type": "address"
        }
      ],
      "name": "isApprovedForAll",
      "outputs": [
        {
          "internalType": "bool",
          "name": "",
          "type": "bool"
        }
      ],
      "stateMutability": "view",
      "type": "function"
    },
    {
      "inputs": [],
      "name": "name",
      "outputs": [
        {
          "internalType": "string",
          "name": "",
          "type": "string"
        }
      ],
      "stateMutability": "view",
      "type": "function"
    },
    {
      "inputs": [
        {
          "internalType": "uint256",
          "name": "tokenId",
          "type": "uint256"
        }
      ],
      "name": "ownerOf",
      "outputs": [
        {
          "internalType": "address",
          "name": "",
          "type": "address"
        }
      ],
      "stateMutability": "view",
      "type": "function"
    },
    {
      "inputs": [
        {
          "internalType": "address",
          "name": "operator",
          "type": "address"
        },
        {
          "internalType": "bool",
          "name": "approved",
          "type": "bool"
        }
      ],
      "name": "setApprovalForAll",
      "outputs": [],
      "stateMutability": "nonpayable",
      "type": "function"
    },
    {
      "inputs": [],
      "name": "symbol",
      "outputs": [
        {
          "internalType": "string",
          "name": "",
          "type": "string"
        }
      ],
      "stateMutability": "view",
      "type": "function"
    },
    {
      "inputs": [],
      "name": "originalCollection",
      "outputs": [
        {
          "internalType": "address",
          "name": "",
          "type": "address"
        }
      ],
      "stateMutability": "view",
      "type": "function"
    },
    {
      "inputs": [
        {
          "internalType": "address",
          "name": "",
          "type": "address"
        },
        {
          "internalType": "address",
          "name": "",
          "type": "address"
        },
        {
          "internalType": "uint256",
          "name": "",
          "type": "uint256"
        }
      ],
      "name": "safeTransferFrom",
      "outputs": [],
      "stateMutability": "pure",
      "type": "function"
    },
    {
      "inputs": [
        {
          "internalType": "address",
          "name": "",
          "type": "address"
        },
        {
          "internalType": "address",
          "name": "",
          "type": "address"
        },
        {
          "internalType": "uint256",
          "name": "",
          "type": "uint256"
        },
        {
          "internalType": "bytes",
          "name": "",
          "type": "bytes"
        }
      ],
      "name": "safeTransferFrom",
      "outputs": [],
      "stateMutability": "pure",
      "type": "function"
    },
    {
      "inputs": [
        {
          "internalType": "address",
          "name": "",
          "type": "address"
        },
        {
          "internalType": "address",
          "name": "",
          "type": "address"
        },
        {
          "internalType": "uint256",
          "name": "",
          "type": "uint256"
        }
      ],
      "name": "transferFrom",
      "outputs": [],
      "stateMutability": "pure",
      "type": "function"
    },
    {
      "inputs": [
        {
          "internalType": "uint256",
          "name": "tokenId",
          "type": "uint256"
        }
      ],
      "name": "forSalePrice",
      "outputs": [
        {
          "internalType": "uint256",
          "name": "",
          "type": "uint256"
        }
      ],
      "stateMutability": "view",
      "type": "function"
    },
    {
      "inputs": [
        {
          "internalType": "uint256",
          "name": "tokenId",
          "type": "uint256"
        }
      ],
      "name": "lastPurchasePrice",
      "outputs": [
        {
          "internalType": "uint256",
          "name": "",
          "type": "uint256"
        }
      ],
      "stateMutability": "view",
      "type": "function"
    },
    {
      "inputs": [
        {
          "internalType": "uint256",
          "name": "tokenId",
          "type": "uint256"
        }
      ],
      "name": "troublesomeTokenURI",
      "outputs": [
        {
          "internalType": "string",
          "name": "",
          "type": "string"
        }
      ],
      "stateMutability": "view",
      "type": "function"
    },
    {
      "inputs": [
        {
          "internalType": "uint256",
          "name": "tokenId",
          "type": "uint256"
        }
      ],
      "name": "tokenURI",
      "outputs": [
        {
          "internalType": "string",
          "name": "",
          "type": "string"
        }
      ],
      "stateMutability": "view",
      "type": "function"
    },
    {
      "inputs": [
        {
          "internalType": "uint256",
          "name": "tokenId",
          "type": "uint256"
        },
        {
          "internalType": "uint256",
          "name": "price",
          "type": "uint256"
        }
      ],
      "name": "setPrice",
      "outputs": [],
      "stateMutability": "nonpayable",
      "type": "function"
    },
    {
      "inputs": [
        {
          "internalType": "uint256",
          "name": "tokenId",
          "type": "uint256"
        }
      ],
      "name": "buy",
      "outputs": [],
      "stateMutability": "payable",
      "type": "function"
    },
    {
      "inputs": [
        {
          "internalType": "uint256",
          "name": "tokenId",
          "type": "uint256"
        }
      ],
      "name": "forceBuy",
      "outputs": [],
      "stateMutability": "payable",
      "type": "function"
    },
    {
      "inputs": [
        {
          "internalType": "bytes4",
          "name": "interfaceId",
          "type": "bytes4"
        }
      ],
      "name": "supportsInterface",
      "outputs": [
        {
          "internalType": "bool",
          "name": "",
          "type": "bool"
        }
      ],
      "stateMutability": "view",
      "type": "function"
    },
    {
      "inputs": [],
      "name": "registeredTokens",
      "outputs": [
        {
          "internalType": "uint256[]",
          "name": "",
          "type": "uint256[]"
        }
      ],
      "stateMutability": "view",
      "type": "function"
    }
  ],
  "bytecode": "0x60806040526082600c553480156200001657600080fd5b5060405162004b3738038062004b3783398181016040528101906200003c91906200036b565b848481600090805190602001906200005692919062000226565b5080600190805190602001906200006f92919062000226565b505050600073ffffffffffffffffffffffffffffffffffffffff168373ffffffffffffffffffffffffffffffffffffffff161415620000e5576040517f08c379a0000000000000000000000000000000000000000000000000000000008152600401620000dc90620004a1565b60405180910390fd5b600073ffffffffffffffffffffffffffffffffffffffff168173ffffffffffffffffffffffffffffffffffffffff16141562000158576040517f08c379a00000000000000000000000000000000000000000000000000000000081526004016200014f906200047f565b60405180910390fd5b82600a60006101000a81548173ffffffffffffffffffffffffffffffffffffffff021916908373ffffffffffffffffffffffffffffffffffffffff16021790555081600b60006101000a81548173ffffffffffffffffffffffffffffffffffffffff021916908373ffffffffffffffffffffffffffffffffffffffff16021790555080600960006101000a81548173ffffffffffffffffffffffffffffffffffffffff021916908373ffffffffffffffffffffffffffffffffffffffff16021790555050505050506200071e565b82805462000234906200059d565b90600052602060002090601f016020900481019282620002585760008555620002a4565b82601f106200027357805160ff1916838001178555620002a4565b82800160010185558215620002a4579182015b82811115620002a357825182559160200191906001019062000286565b5b509050620002b39190620002b7565b5090565b5b80821115620002d2576000816000905550600101620002b8565b5090565b6000620002ed620002e784620004ec565b620004c3565b9050828152602081018484840111156200030c576200030b6200066c565b5b6200031984828562000567565b509392505050565b600081519050620003328162000704565b92915050565b600082601f83011262000350576200034f62000667565b5b815162000362848260208601620002d6565b91505092915050565b600080600080600060a086880312156200038a576200038962000676565b5b600086015167ffffffffffffffff811115620003ab57620003aa62000671565b5b620003b98882890162000338565b955050602086015167ffffffffffffffff811115620003dd57620003dc62000671565b5b620003eb8882890162000338565b9450506040620003fe8882890162000321565b9350506060620004118882890162000321565b9250506080620004248882890162000321565b9150509295509295909350565b600062000440601a8362000522565b91506200044d826200068c565b602082019050919050565b60006200046760218362000522565b91506200047482620006b5565b604082019050919050565b600060208201905081810360008301526200049a8162000431565b9050919050565b60006020820190508181036000830152620004bc8162000458565b9050919050565b6000620004cf620004e2565b9050620004dd8282620005d3565b919050565b6000604051905090565b600067ffffffffffffffff8211156200050a576200050962000638565b5b62000515826200067b565b9050602081019050919050565b600082825260208201905092915050565b6000620005408262000547565b9050919050565b600073ffffffffffffffffffffffffffffffffffffffff82169050919050565b60005b83811015620005875780820151818401526020810190506200056a565b8381111562000597576000848401525b50505050565b60006002820490506001821680620005b657607f821691505b60208210811415620005cd57620005cc62000609565b5b50919050565b620005de826200067b565b810181811067ffffffffffffffff821117156200060057620005ff62000638565b5b80604052505050565b7f4e487b7100000000000000000000000000000000000000000000000000000000600052602260045260246000fd5b7f4e487b7100000000000000000000000000000000000000000000000000000000600052604160045260246000fd5b600080fd5b600080fd5b600080fd5b600080fd5b6000601f19601f8301169050919050565b7f64746f20616464726573732063616e6e6f74206265207a65726f000000000000600082015250565b7f636f6c6c656374696f6e20616464726573732063616e6e6f74206265207a657260008201527f6f00000000000000000000000000000000000000000000000000000000000000602082015250565b6200070f8162000533565b81146200071b57600080fd5b50565b614409806200072e6000396000f3fe6080604052600436106101405760003560e01c806373b1dc80116100b6578063c87b56dd1161006f578063c87b56dd14610485578063d96a094a146104c2578063dbe05fff146104de578063e6c173501461051b578063e985e9c514610558578063f7d975771461059557610140565b806373b1dc80146103725780637bf6b0a71461038e57806380b48a7c146103cb57806395d89b4114610408578063a22cb46514610433578063b88d4fde1461045c57610140565b806342842e0e1161010857806342842e0e1461023c5780634546661614610265578063522da6331461029057806361dd277e146102cd5780636352211e146102f857806370a082311461033557610140565b806301ffc9a71461014557806306fdde0314610182578063081812fc146101ad578063095ea7b3146101ea57806323b872dd14610213575b600080fd5b34801561015157600080fd5b5061016c600480360381019061016791906128bc565b6105be565b6040516101799190613074565b60405180910390f35b34801561018e57600080fd5b50610197610600565b6040516101a4919061308f565b60405180910390f35b3480156101b957600080fd5b506101d460048036038101906101cf9190612932565b610692565b6040516101e19190613000565b60405180910390f35b3480156101f657600080fd5b50610211600480360381019061020c919061287c565b610717565b005b34801561021f57600080fd5b5061023a60048036038101906102359190612766565b61082f565b005b34801561024857600080fd5b50610263600480360381019061025e9190612766565b61086a565b005b34801561027157600080fd5b5061027a6108a5565b6040516102879190613052565b60405180910390f35b34801561029c57600080fd5b506102b760048036038101906102b29190612932565b6108fd565b6040516102c49190613351565b60405180910390f35b3480156102d957600080fd5b506102e2610915565b6040516102ef9190613000565b60405180910390f35b34801561030457600080fd5b5061031f600480360381019061031a9190612932565b61093f565b60405161032c9190613000565b60405180910390f35b34801561034157600080fd5b5061035c600480360381019061035791906126cc565b6109f1565b6040516103699190613351565b60405180910390f35b61038c60048036038101906103879190612932565b610aa9565b005b34801561039a57600080fd5b506103b560048036038101906103b09190612932565b610b6f565b6040516103c2919061308f565b60405180910390f35b3480156103d757600080fd5b506103f260048036038101906103ed9190612932565b610c28565b6040516103ff9190613351565b60405180910390f35b34801561041457600080fd5b5061041d610c45565b60405161042a919061308f565b60405180910390f35b34801561043f57600080fd5b5061045a6004803603810190610455919061283c565b610cd7565b005b34801561046857600080fd5b50610483600480360381019061047e91906127b9565b610e58565b005b34801561049157600080fd5b506104ac60048036038101906104a79190612932565b610e93565b6040516104b9919061308f565b60405180910390f35b6104dc60048036038101906104d79190612932565b610fe1565b005b3480156104ea57600080fd5b5061050560048036038101906105009190612932565b611344565b6040516105129190613351565b60405180910390f35b34801561052757600080fd5b50610542600480360381019061053d9190612932565b61135c565b60405161054f9190613351565b60405180910390f35b34801561056457600080fd5b5061057f600480360381019061057a9190612726565b611379565b60405161058c9190613074565b60405180910390f35b3480156105a157600080fd5b506105bc60048036038101906105b7919061295f565b61140d565b005b600063deadbeef60e01b827bffffffffffffffffffffffffffffffffffffffffffffffffffffffff191614806105f957506105f8826115ac565b5b9050919050565b60606000805461060f9061387e565b80601f016020809104026020016040519081016040528092919081815260200182805461063b9061387e565b80156106885780601f1061065d57610100808354040283529160200191610688565b820191906000526020600020905b81548152906001019060200180831161066b57829003601f168201915b5050505050905090565b600061069d8261168e565b6106dc576040517f08c379a00000000000000000000000000000000000000000000000000000000081526004016106d390613251565b60405180910390fd5b6004600083815260200190815260200160002060009054906101000a900473ffffffffffffffffffffffffffffffffffffffff169050919050565b60006107228261093f565b90508073ffffffffffffffffffffffffffffffffffffffff168373ffffffffffffffffffffffffffffffffffffffff161415610793576040517f08c379a000000000000000000000000000000000000000000000000000000000815260040161078a906132b1565b60405180910390fd5b8073ffffffffffffffffffffffffffffffffffffffff166107b26116fa565b73ffffffffffffffffffffffffffffffffffffffff1614806107e157506107e0816107db6116fa565b611379565b5b610820576040517f08c379a0000000000000000000000000000000000000000000000000000000008152600401610817906131b1565b60405180910390fd5b61082a8383611702565b505050565b6040517f08c379a000000000000000000000000000000000000000000000000000000000815260040161086190613131565b60405180910390fd5b6040517f08c379a000000000000000000000000000000000000000000000000000000000815260040161089c90613131565b60405180910390fd5b6060600d8054806020026020016040519081016040528092919081815260200182805480156108f357602002820191906000526020600020905b8154815260200190600101908083116108df575b5050505050905090565b60076020528060005260406000206000915090505481565b6000600a60009054906101000a900473ffffffffffffffffffffffffffffffffffffffff16905090565b6000806002600084815260200190815260200160002060009054906101000a900473ffffffffffffffffffffffffffffffffffffffff169050600073ffffffffffffffffffffffffffffffffffffffff168173ffffffffffffffffffffffffffffffffffffffff1614156109e8576040517f08c379a00000000000000000000000000000000000000000000000000000000081526004016109df906131f1565b60405180910390fd5b80915050919050565b60008073ffffffffffffffffffffffffffffffffffffffff168273ffffffffffffffffffffffffffffffffffffffff161415610a62576040517f08c379a0000000000000000000000000000000000000000000000000000000008152600401610a59906131d1565b60405180910390fd5b600360008373ffffffffffffffffffffffffffffffffffffffff1673ffffffffffffffffffffffffffffffffffffffff168152602001908152602001600020549050919050565b6000600860008381526020019081526020016000205411610aff576040517f08c379a0000000000000000000000000000000000000000000000000000000008152600401610af690613111565b60405180910390fd5b60086000828152602001908152602001600020546002610b1f91906136be565b341015610b61576040517f08c379a0000000000000000000000000000000000000000000000000000000008152600401610b5890613331565b60405180910390fd5b610b6c3382346117bb565b50565b6060600a60009054906101000a900473ffffffffffffffffffffffffffffffffffffffff1673ffffffffffffffffffffffffffffffffffffffff1663c87b56dd836040518263ffffffff1660e01b8152600401610bcc9190613351565b60006040518083038186803b158015610be457600080fd5b505afa158015610bf8573d6000803e3d6000fd5b505050506040513d6000823e3d601f19601f82011682018060405250810190610c2191906128e9565b9050919050565b600060086000838152602001908152602001600020549050919050565b606060018054610c549061387e565b80601f0160208091040260200160405190810160405280929190818152602001828054610c809061387e565b8015610ccd5780601f10610ca257610100808354040283529160200191610ccd565b820191906000526020600020905b815481529060010190602001808311610cb057829003601f168201915b5050505050905090565b610cdf6116fa565b73ffffffffffffffffffffffffffffffffffffffff168273ffffffffffffffffffffffffffffffffffffffff161415610d4d576040517f08c379a0000000000000000000000000000000000000000000000000000000008152600401610d4490613171565b60405180910390fd5b8060056000610d5a6116fa565b73ffffffffffffffffffffffffffffffffffffffff1673ffffffffffffffffffffffffffffffffffffffff16815260200190815260200160002060008473ffffffffffffffffffffffffffffffffffffffff1673ffffffffffffffffffffffffffffffffffffffff16815260200190815260200160002060006101000a81548160ff0219169083151502179055508173ffffffffffffffffffffffffffffffffffffffff16610e076116fa565b73ffffffffffffffffffffffffffffffffffffffff167f17307eab39ab6107e8899845ad3d59bd9653f200f220920489ca2b5937696c3183604051610e4c9190613074565b60405180910390a35050565b6040517f08c379a0000000000000000000000000000000000000000000000000000000008152600401610e8a90613131565b60405180910390fd5b60606000600860008481526020019081526020016000205411610eeb576040517f08c379a0000000000000000000000000000000000000000000000000000000008152600401610ee2906130d1565b60405180910390fd5b600060405180610140016040528061011c81526020016142b861011c913990506000610f38600a60009054906101000a900473ffffffffffffffffffffffffffffffffffffffff16611aeb565b90506000610f4530611aeb565b90506000610f5286611ccd565b905060008282604051602001610f69929190612f8f565b60405160208183030381529060405290506000610fb2828686610f8b8a611e2e565b604051602001610f9e9493929190612ef8565b604051602081830303815290604052611e2e565b905080604051602001610fc59190612fc9565b6040516020818303038152906040529650505050505050919050565b6000600760008381526020019081526020016000205411611037576040517f08c379a000000000000000000000000000000000000000000000000000000000815260040161102e90613271565b60405180910390fd5b600760008281526020019081526020016000205434101561108d576040517f08c379a000000000000000000000000000000000000000000000000000000000815260040161108490613211565b60405180910390fd5b600060086000838152602001908152602001600020541415611336573073ffffffffffffffffffffffffffffffffffffffff16600a60009054906101000a900473ffffffffffffffffffffffffffffffffffffffff1673ffffffffffffffffffffffffffffffffffffffff1663081812fc836040518263ffffffff1660e01b815260040161111b9190613351565b60206040518083038186803b15801561113357600080fd5b505afa158015611147573d6000803e3d6000fd5b505050506040513d601f19601f8201168201806040525081019061116b91906126f9565b73ffffffffffffffffffffffffffffffffffffffff16146111c1576040517f08c379a00000000000000000000000000000000000000000000000000000000081526004016111b8906132f1565b60405180910390fd5b6000600a60009054906101000a900473ffffffffffffffffffffffffffffffffffffffff1673ffffffffffffffffffffffffffffffffffffffff16636352211e836040518263ffffffff1660e01b815260040161121e9190613351565b60206040518083038186803b15801561123657600080fd5b505afa15801561124a573d6000803e3d6000fd5b505050506040513d601f19601f8201168201806040525081019061126e91906126f9565b9050600a60009054906101000a900473ffffffffffffffffffffffffffffffffffffffff1673ffffffffffffffffffffffffffffffffffffffff166323b872dd8230856040518463ffffffff1660e01b81526004016112cf9392919061301b565b600060405180830381600087803b1580156112e957600080fd5b505af11580156112fd573d6000803e3d6000fd5b5050505061130b8183611fc6565b600d829080600181540180825580915050600190039060005260206000200160009091909190915055505b6113413382346117bb565b50565b60086020528060005260406000206000915090505481565b600060076000838152602001908152602001600020549050919050565b6000600560008473ffffffffffffffffffffffffffffffffffffffff1673ffffffffffffffffffffffffffffffffffffffff16815260200190815260200160002060008373ffffffffffffffffffffffffffffffffffffffff1673ffffffffffffffffffffffffffffffffffffffff16815260200190815260200160002060009054906101000a900460ff16905092915050565b600060086000848152602001908152602001600020541415611546573073ffffffffffffffffffffffffffffffffffffffff16600a60009054906101000a900473ffffffffffffffffffffffffffffffffffffffff1673ffffffffffffffffffffffffffffffffffffffff1663081812fc846040518263ffffffff1660e01b815260040161149b9190613351565b60206040518083038186803b1580156114b357600080fd5b505afa1580156114c7573d6000803e3d6000fd5b505050506040513d601f19601f820116820180604052508101906114eb91906126f9565b73ffffffffffffffffffffffffffffffffffffffff1614611541576040517f08c379a0000000000000000000000000000000000000000000000000000000008152600401611538906132f1565b60405180910390fd5b611590565b6115503383612194565b61158f576040517f08c379a0000000000000000000000000000000000000000000000000000000008152600401611586906132d1565b60405180910390fd5b5b8060076000848152602001908152602001600020819055505050565b60007f80ac58cd000000000000000000000000000000000000000000000000000000007bffffffffffffffffffffffffffffffffffffffffffffffffffffffff1916827bffffffffffffffffffffffffffffffffffffffffffffffffffffffff1916148061167757507f5b5e139f000000000000000000000000000000000000000000000000000000007bffffffffffffffffffffffffffffffffffffffffffffffffffffffff1916827bffffffffffffffffffffffffffffffffffffffffffffffffffffffff1916145b80611687575061168682612272565b5b9050919050565b60008073ffffffffffffffffffffffffffffffffffffffff166002600084815260200190815260200160002060009054906101000a900473ffffffffffffffffffffffffffffffffffffffff1673ffffffffffffffffffffffffffffffffffffffff1614159050919050565b600033905090565b816004600083815260200190815260200160002060006101000a81548173ffffffffffffffffffffffffffffffffffffffff021916908373ffffffffffffffffffffffffffffffffffffffff160217905550808273ffffffffffffffffffffffffffffffffffffffff166117758361093f565b73ffffffffffffffffffffffffffffffffffffffff167f8c5be1e5ebec7d5bd14f71427d1e84f3dd0314c0f7b2291e5b200ac8c7c3b92560405160405180910390a45050565b60006117c68361093f565b90506117d38185856122dc565b816008600085815260200190815260200160002081905550600060076000858152602001908152602001600020819055506000600c548361181491906134eb565b905060008273ffffffffffffffffffffffffffffffffffffffff1682600261183c91906136be565b856118479190613753565b60405161185390612feb565b60006040518083038185875af1925050503d8060008114611890576040519150601f19603f3d011682016040523d82523d6000602084013e611895565b606091505b50509050806118d9576040517f08c379a00000000000000000000000000000000000000000000000000000000081526004016118d0906130b1565b60405180910390fd5b6000600960009054906101000a900473ffffffffffffffffffffffffffffffffffffffff1673ffffffffffffffffffffffffffffffffffffffff1663092d85da306040518263ffffffff1660e01b81526004016119369190613000565b60206040518083038186803b15801561194e57600080fd5b505afa158015611962573d6000803e3d6000fd5b505050506040513d601f19601f8201168201806040525081019061198691906126f9565b905060008173ffffffffffffffffffffffffffffffffffffffff16846040516119ae90612feb565b60006040518083038185875af1925050503d80600081146119eb576040519150601f19603f3d011682016040523d82523d6000602084013e6119f0565b606091505b50509050600081611a0d57846002611a0891906136be565b611a0f565b845b90506000600b60009054906101000a900473ffffffffffffffffffffffffffffffffffffffff1673ffffffffffffffffffffffffffffffffffffffff1682604051611a5990612feb565b60006040518083038185875af1925050503d8060008114611a96576040519150601f19603f3d011682016040523d82523d6000602084013e611a9b565b606091505b5050905080611adf576040517f08c379a0000000000000000000000000000000000000000000000000000000008152600401611ad690613311565b60405180910390fd5b50505050505050505050565b60606000602867ffffffffffffffff811115611b0a57611b09613a17565b5b6040519080825280601f01601f191660200182016040528015611b3c5781602001600182028036833780820191505090505b50905060005b6014811015611ca4576000816013611b5a9190613753565b6008611b6691906136be565b6002611b7291906135a0565b8573ffffffffffffffffffffffffffffffffffffffff16611b9391906134eb565b60f81b9050600060108260f81c611baa919061351c565b60f81b905060008160f81c6010611bc19190613718565b8360f81c611bcf9190613787565b60f81b9050611bdd82612538565b85856002611beb91906136be565b81518110611bfc57611bfb6139e8565b5b60200101907effffffffffffffffffffffffffffffffffffffffffffffffffffffffffffff1916908160001a905350611c3481612538565b856001866002611c4491906136be565b611c4e919061345e565b81518110611c5f57611c5e6139e8565b5b60200101907effffffffffffffffffffffffffffffffffffffffffffffffffffffffffffff1916908160001a9053505050508080611c9c906138e1565b915050611b42565b5080604051602001611cb69190612f6d565b604051602081830303815290604052915050919050565b60606000821415611d15576040518060400160405280600181526020017f30000000000000000000000000000000000000000000000000000000000000008152509050611e29565b600082905060005b60008214611d47578080611d30906138e1565b915050600a82611d4091906134eb565b9150611d1d565b60008167ffffffffffffffff811115611d6357611d62613a17565b5b6040519080825280601f01601f191660200182016040528015611d955781602001600182028036833780820191505090505b5090505b60008514611e2257600182611dae9190613753565b9150600a85611dbd919061392a565b6030611dc9919061345e565b60f81b818381518110611ddf57611dde6139e8565b5b60200101907effffffffffffffffffffffffffffffffffffffffffffffffffffffffffffff1916908160001a905350600a85611e1b91906134eb565b9450611d99565b8093505050505b919050565b60606000825190506000811415611e575760405180602001604052806000815250915050611fc1565b60006003600283611e68919061345e565b611e7291906134eb565b6004611e7e91906136be565b90506000602082611e8f919061345e565b67ffffffffffffffff811115611ea857611ea7613a17565b5b6040519080825280601f01601f191660200182016040528015611eda5781602001600182028036833780820191505090505b5090506000604051806060016040528060408152602001614278604091399050600181016020830160005b86811015611f7e5760038101905062ffffff818a015116603f8160121c168401518060081b905060ff603f83600c1c1686015116810190508060081b905060ff603f8360061c1686015116810190508060081b905060ff603f831686015116810190508060e01b90508084526004840193505050611f05565b506003860660018114611f985760028114611fa857611fb3565b613d3d60f01b6002830352611fb3565b603d60f81b60018303525b508484525050819450505050505b919050565b600073ffffffffffffffffffffffffffffffffffffffff168273ffffffffffffffffffffffffffffffffffffffff161415612036576040517f08c379a000000000000000000000000000000000000000000000000000000000815260040161202d90613231565b60405180910390fd5b61203f8161168e565b1561207f576040517f08c379a0000000000000000000000000000000000000000000000000000000008152600401612076906130f1565b60405180910390fd5b61208b6000838361257e565b6001600360008473ffffffffffffffffffffffffffffffffffffffff1673ffffffffffffffffffffffffffffffffffffffff16815260200190815260200160002060008282546120db919061345e565b92505081905550816002600083815260200190815260200160002060006101000a81548173ffffffffffffffffffffffffffffffffffffffff021916908373ffffffffffffffffffffffffffffffffffffffff160217905550808273ffffffffffffffffffffffffffffffffffffffff16600073ffffffffffffffffffffffffffffffffffffffff167fddf252ad1be2c89b69c2b068fc378daa952ba7f163c4a11628f55a4df523b3ef60405160405180910390a45050565b600061219f8261168e565b6121de576040517f08c379a00000000000000000000000000000000000000000000000000000000081526004016121d590613191565b60405180910390fd5b60006121e98361093f565b90508073ffffffffffffffffffffffffffffffffffffffff168473ffffffffffffffffffffffffffffffffffffffff16148061225857508373ffffffffffffffffffffffffffffffffffffffff1661224084610692565b73ffffffffffffffffffffffffffffffffffffffff16145b8061226957506122688185611379565b5b91505092915050565b60007f01ffc9a7000000000000000000000000000000000000000000000000000000007bffffffffffffffffffffffffffffffffffffffffffffffffffffffff1916827bffffffffffffffffffffffffffffffffffffffffffffffffffffffff1916149050919050565b8273ffffffffffffffffffffffffffffffffffffffff166122fc8261093f565b73ffffffffffffffffffffffffffffffffffffffff1614612352576040517f08c379a000000000000000000000000000000000000000000000000000000000815260040161234990613291565b60405180910390fd5b600073ffffffffffffffffffffffffffffffffffffffff168273ffffffffffffffffffffffffffffffffffffffff1614156123c2576040517f08c379a00000000000000000000000000000000000000000000000000000000081526004016123b990613151565b60405180910390fd5b6123cd83838361257e565b6123d8600082611702565b6001600360008573ffffffffffffffffffffffffffffffffffffffff1673ffffffffffffffffffffffffffffffffffffffff16815260200190815260200160002060008282546124289190613753565b925050819055506001600360008473ffffffffffffffffffffffffffffffffffffffff1673ffffffffffffffffffffffffffffffffffffffff168152602001908152602001600020600082825461247f919061345e565b92505081905550816002600083815260200190815260200160002060006101000a81548173ffffffffffffffffffffffffffffffffffffffff021916908373ffffffffffffffffffffffffffffffffffffffff160217905550808273ffffffffffffffffffffffffffffffffffffffff168473ffffffffffffffffffffffffffffffffffffffff167fddf252ad1be2c89b69c2b068fc378daa952ba7f163c4a11628f55a4df523b3ef60405160405180910390a4505050565b6000600a8260f81c60ff1610156125635760308260f81c61255991906134b4565b60f81b9050612579565b60578260f81c61257391906134b4565b60f81b90505b919050565b505050565b600061259661259184613391565b61336c565b9050828152602081018484840111156125b2576125b1613a4b565b5b6125bd84828561383c565b509392505050565b60006125d86125d3846133c2565b61336c565b9050828152602081018484840111156125f4576125f3613a4b565b5b6125ff84828561384b565b509392505050565b6000813590506126168161421b565b92915050565b60008151905061262b8161421b565b92915050565b60008135905061264081614232565b92915050565b60008135905061265581614249565b92915050565b600082601f8301126126705761266f613a46565b5b8135612680848260208601612583565b91505092915050565b600082601f83011261269e5761269d613a46565b5b81516126ae8482602086016125c5565b91505092915050565b6000813590506126c681614260565b92915050565b6000602082840312156126e2576126e1613a55565b5b60006126f084828501612607565b91505092915050565b60006020828403121561270f5761270e613a55565b5b600061271d8482850161261c565b91505092915050565b6000806040838503121561273d5761273c613a55565b5b600061274b85828601612607565b925050602061275c85828601612607565b9150509250929050565b60008060006060848603121561277f5761277e613a55565b5b600061278d86828701612607565b935050602061279e86828701612607565b92505060406127af868287016126b7565b9150509250925092565b600080600080608085870312156127d3576127d2613a55565b5b60006127e187828801612607565b94505060206127f287828801612607565b9350506040612803878288016126b7565b925050606085013567ffffffffffffffff81111561282457612823613a50565b5b6128308782880161265b565b91505092959194509250565b6000806040838503121561285357612852613a55565b5b600061286185828601612607565b925050602061287285828601612631565b9150509250929050565b6000806040838503121561289357612892613a55565b5b60006128a185828601612607565b92505060206128b2858286016126b7565b9150509250929050565b6000602082840312156128d2576128d1613a55565b5b60006128e084828501612646565b91505092915050565b6000602082840312156128ff576128fe613a55565b5b600082015167ffffffffffffffff81111561291d5761291c613a50565b5b61292984828501612689565b91505092915050565b60006020828403121561294857612947613a55565b5b6000612956848285016126b7565b91505092915050565b6000806040838503121561297657612975613a55565b5b6000612984858286016126b7565b9250506020612995858286016126b7565b9150509250929050565b60006129ab8383612eda565b60208301905092915050565b6129c0816137bb565b82525050565b60006129d182613403565b6129db8185613426565b93506129e6836133f3565b8060005b83811015612a175781516129fe888261299f565b9750612a0983613419565b9250506001810190506129ea565b5085935050505092915050565b612a2d816137cd565b82525050565b6000612a3e8261340e565b612a488185613442565b9350612a5881856020860161384b565b612a6181613a5a565b840191505092915050565b6000612a778261340e565b612a818185613453565b9350612a9181856020860161384b565b80840191505092915050565b6000612aaa602783613453565b9150612ab582613a78565b602782019050919050565b6000612acd601983613442565b9150612ad882613ac7565b602082019050919050565b6000612af0601383613442565b9150612afb82613af0565b602082019050919050565b6000612b13601c83613442565b9150612b1e82613b19565b602082019050919050565b6000612b36600283613453565b9150612b4182613b42565b600282019050919050565b6000612b59602e83613442565b9150612b6482613b6b565b604082019050919050565b6000612b7c601a83613442565b9150612b8782613bba565b602082019050919050565b6000612b9f602483613442565b9150612baa82613be3565b604082019050919050565b6000612bc2601983613442565b9150612bcd82613c32565b602082019050919050565b6000612be5602c83613442565b9150612bf082613c5b565b604082019050919050565b6000612c08608d83613453565b9150612c1382613caa565b608d82019050919050565b6000612c2b603883613442565b9150612c3682613d6b565b604082019050919050565b6000612c4e602a83613442565b9150612c5982613dba565b604082019050919050565b6000612c71602983613442565b9150612c7c82613e09565b604082019050919050565b6000612c94601d83613453565b9150612c9f82613e58565b601d82019050919050565b6000612cb7600283613453565b9150612cc282613e81565b600282019050919050565b6000612cda602e83613442565b9150612ce582613eaa565b604082019050919050565b6000612cfd602083613442565b9150612d0882613ef9565b602082019050919050565b6000612d20602c83613442565b9150612d2b82613f22565b604082019050919050565b6000612d43601383613442565b9150612d4e82613f71565b602082019050919050565b6000612d66602683613453565b9150612d7182613f9a565b602682019050919050565b6000612d89602983613442565b9150612d9482613fe9565b604082019050919050565b6000612dac602183613442565b9150612db782614038565b604082019050919050565b6000612dcf602d83613442565b9150612dda82614087565b604082019050919050565b6000612df2601a83613453565b9150612dfd826140d6565b601a82019050919050565b6000612e15601d83613453565b9150612e20826140ff565b601d82019050919050565b6000612e38600083613437565b9150612e4382614128565b600082019050919050565b6000612e5b603d83613442565b9150612e668261412b565b604082019050919050565b6000612e7e601d83613442565b9150612e898261417a565b602082019050919050565b6000612ea1603983613442565b9150612eac826141a3565b604082019050919050565b6000612ec4600183613453565b9150612ecf826141f2565b600182019050919050565b612ee381613825565b82525050565b612ef281613825565b82525050565b6000612f0382612a9d565b9150612f0f8287612a6c565b9150612f1a82612de5565b9150612f268286612a6c565b9150612f3182612c87565b9150612f3d8285612a6c565b9150612f4882612bfb565b9150612f548284612a6c565b9150612f5f82612caa565b915081905095945050505050565b6000612f7882612b29565b9150612f848284612a6c565b915081905092915050565b6000612f9a82612d59565b9150612fa68285612a6c565b9150612fb182612eb7565b9150612fbd8284612a6c565b91508190509392505050565b6000612fd482612e08565b9150612fe08284612a6c565b915081905092915050565b6000612ff682612e2b565b9150819050919050565b600060208201905061301560008301846129b7565b92915050565b600060608201905061303060008301866129b7565b61303d60208301856129b7565b61304a6040830184612ee9565b949350505050565b6000602082019050818103600083015261306c81846129c6565b905092915050565b60006020820190506130896000830184612a24565b92915050565b600060208201905081810360008301526130a98184612a33565b905092915050565b600060208201905081810360008301526130ca81612ac0565b9050919050565b600060208201905081810360008301526130ea81612ae3565b9050919050565b6000602082019050818103600083015261310a81612b06565b9050919050565b6000602082019050818103600083015261312a81612b4c565b9050919050565b6000602082019050818103600083015261314a81612b6f565b9050919050565b6000602082019050818103600083015261316a81612b92565b9050919050565b6000602082019050818103600083015261318a81612bb5565b9050919050565b600060208201905081810360008301526131aa81612bd8565b9050919050565b600060208201905081810360008301526131ca81612c1e565b9050919050565b600060208201905081810360008301526131ea81612c41565b9050919050565b6000602082019050818103600083015261320a81612c64565b9050919050565b6000602082019050818103600083015261322a81612ccd565b9050919050565b6000602082019050818103600083015261324a81612cf0565b9050919050565b6000602082019050818103600083015261326a81612d13565b9050919050565b6000602082019050818103600083015261328a81612d36565b9050919050565b600060208201905081810360008301526132aa81612d7c565b9050919050565b600060208201905081810360008301526132ca81612d9f565b9050919050565b600060208201905081810360008301526132ea81612dc2565b9050919050565b6000602082019050818103600083015261330a81612e4e565b9050919050565b6000602082019050818103600083015261332a81612e71565b9050919050565b6000602082019050818103600083015261334a81612e94565b9050919050565b60006020820190506133666000830184612ee9565b92915050565b6000613376613387565b905061338282826138b0565b919050565b6000604051905090565b600067ffffffffffffffff8211156133ac576133ab613a17565b5b6133b582613a5a565b9050602081019050919050565b600067ffffffffffffffff8211156133dd576133dc613a17565b5b6133e682613a5a565b9050602081019050919050565b6000819050602082019050919050565b600081519050919050565b600081519050919050565b6000602082019050919050565b600082825260208201905092915050565b600081905092915050565b600082825260208201905092915050565b600081905092915050565b600061346982613825565b915061347483613825565b9250827fffffffffffffffffffffffffffffffffffffffffffffffffffffffffffffffff038211156134a9576134a861395b565b5b828201905092915050565b60006134bf8261382f565b91506134ca8361382f565b92508260ff038211156134e0576134df61395b565b5b828201905092915050565b60006134f682613825565b915061350183613825565b9250826135115761351061398a565b5b828204905092915050565b60006135278261382f565b91506135328361382f565b9250826135425761354161398a565b5b828204905092915050565b6000808291508390505b6001851115613597578086048111156135735761357261395b565b5b60018516156135825780820291505b808102905061359085613a6b565b9450613557565b94509492505050565b60006135ab82613825565b91506135b683613825565b92506135e37fffffffffffffffffffffffffffffffffffffffffffffffffffffffffffffffff84846135eb565b905092915050565b6000826135fb57600190506136b7565b8161360957600090506136b7565b816001811461361f576002811461362957613658565b60019150506136b7565b60ff84111561363b5761363a61395b565b5b8360020a9150848211156136525761365161395b565b5b506136b7565b5060208310610133831016604e8410600b841016171561368d5782820a9050838111156136885761368761395b565b5b6136b7565b61369a848484600161354d565b925090508184048111156136b1576136b061395b565b5b81810290505b9392505050565b60006136c982613825565b91506136d483613825565b9250817fffffffffffffffffffffffffffffffffffffffffffffffffffffffffffffffff048311821515161561370d5761370c61395b565b5b828202905092915050565b60006137238261382f565b915061372e8361382f565b92508160ff04831182151516156137485761374761395b565b5b828202905092915050565b600061375e82613825565b915061376983613825565b92508282101561377c5761377b61395b565b5b828203905092915050565b60006137928261382f565b915061379d8361382f565b9250828210156137b0576137af61395b565b5b828203905092915050565b60006137c682613805565b9050919050565b60008115159050919050565b60007fffffffff0000000000000000000000000000000000000000000000000000000082169050919050565b600073ffffffffffffffffffffffffffffffffffffffff82169050919050565b6000819050919050565b600060ff82169050919050565b82818337600083830152505050565b60005b8381101561386957808201518184015260208101905061384e565b83811115613878576000848401525b50505050565b6000600282049050600182168061389657607f821691505b602082108114156138aa576138a96139b9565b5b50919050565b6138b982613a5a565b810181811067ffffffffffffffff821117156138d8576138d7613a17565b5b80604052505050565b60006138ec82613825565b91507fffffffffffffffffffffffffffffffffffffffffffffffffffffffffffffffff82141561391f5761391e61395b565b5b600182019050919050565b600061393582613825565b915061394083613825565b9250826139505761394f61398a565b5b828206905092915050565b7f4e487b7100000000000000000000000000000000000000000000000000000000600052601160045260246000fd5b7f4e487b7100000000000000000000000000000000000000000000000000000000600052601260045260246000fd5b7f4e487b7100000000000000000000000000000000000000000000000000000000600052602260045260246000fd5b7f4e487b7100000000000000000000000000000000000000000000000000000000600052603260045260246000fd5b7f4e487b7100000000000000000000000000000000000000000000000000000000600052604160045260246000fd5b600080fd5b600080fd5b600080fd5b600080fd5b6000601f19601f8301169050919050565b60008160011c9050919050565b7f7b226e616d65223a20224445414442454546222c202265787465726e616c5f6c60008201527f696e6b223a202200000000000000000000000000000000000000000000000000602082015250565b7f5472616e7366657220746f206f776e6572206661696c65642e00000000000000600082015250565b7f746f6b656e4964206e6f742070726573656e7400000000000000000000000000600082015250565b7f4552433732313a20746f6b656e20616c7265616479206d696e74656400000000600082015250565b7f3078000000000000000000000000000000000000000000000000000000000000600082015250565b7f4e465420776173206e6f7420796574207075726368617365642077697468696e60008201527f20446f75626c6554726f75626c65000000000000000000000000000000000000602082015250565b7f506c656173652075736520627579206f7220666f726365427579000000000000600082015250565b7f4552433732313a207472616e7366657220746f20746865207a65726f2061646460008201527f7265737300000000000000000000000000000000000000000000000000000000602082015250565b7f4552433732313a20617070726f766520746f2063616c6c657200000000000000600082015250565b7f4552433732313a206f70657261746f7220717565727920666f72206e6f6e657860008201527f697374656e7420746f6b656e0000000000000000000000000000000000000000602082015250565b7f222c20226465736372697074696f6e223a202254686973204e4654206973206f60008201527f6e6c7920666f722073616c6520696e20446f75626c652054726f75626c652e2060208201527f566973697420646f75626c652d74726f75626c652e696f20746f206c6561726e60408201527f206d6f72652e222c2022696d616765223a2022646174613a696d6167652f737660608201527f672b786d6c3b6261736536342c00000000000000000000000000000000000000608082015250565b7f4552433732313a20617070726f76652063616c6c6572206973206e6f74206f7760008201527f6e6572206e6f7220617070726f76656420666f7220616c6c0000000000000000602082015250565b7f4552433732313a2062616c616e636520717565727920666f7220746865207a6560008201527f726f206164647265737300000000000000000000000000000000000000000000602082015250565b7f4552433732313a206f776e657220717565727920666f72206e6f6e657869737460008201527f656e7420746f6b656e0000000000000000000000000000000000000000000000602082015250565b7f222c202274726f75626c65736f6d65436f6c6c656374696f6e223a2022000000600082015250565b7f227d000000000000000000000000000000000000000000000000000000000000600082015250565b7f56616c75652073656e74206d757374206265206174206c65617374207468652060008201527f666f722073616c65207072696365000000000000000000000000000000000000602082015250565b7f4552433732313a206d696e7420746f20746865207a65726f2061646472657373600082015250565b7f4552433732313a20617070726f76656420717565727920666f72206e6f6e657860008201527f697374656e7420746f6b656e0000000000000000000000000000000000000000602082015250565b7f4e4654206973206e6f7420666f722073616c6500000000000000000000000000600082015250565b7f68747470733a2f2f646f75626c652d74726f75626c652e696f2f636f6c6c656360008201527f74696f6e732f0000000000000000000000000000000000000000000000000000602082015250565b7f4552433732313a207472616e73666572206f6620746f6b656e2074686174206960008201527f73206e6f74206f776e0000000000000000000000000000000000000000000000602082015250565b7f4552433732313a20617070726f76616c20746f2063757272656e74206f776e6560008201527f7200000000000000000000000000000000000000000000000000000000000000602082015250565b7f6d73672e73656e6465722073686f756c6420626520617070726f766564206f7260008201527f206f776e6572206f66204e465400000000000000000000000000000000000000602082015250565b7f222c20226f726967696e616c436f6c6c656374696f6e223a2022000000000000600082015250565b7f646174613a6170706c69636174696f6e2f6a736f6e3b6261736536342c000000600082015250565b50565b7f446f75626c6554726f75626c6520636f6e7472616374206d757374206265206160008201527f7070726f76656420746f206f706572617465207468697320746f6b656e000000602082015250565b7f5472616e7366657220746f2044542077616c6c6574206661696c65642e000000600082015250565b7f56616c75652073656e74206d757374206265206174206c65617374207477696360008201527f6520746865206c61737420707572636861736520707269636500000000000000602082015250565b7f2f00000000000000000000000000000000000000000000000000000000000000600082015250565b614224816137bb565b811461422f57600080fd5b50565b61423b816137cd565b811461424657600080fd5b50565b614252816137d9565b811461425d57600080fd5b50565b61426981613825565b811461427457600080fd5b5056fe4142434445464748494a4b4c4d4e4f505152535455565758595a6162636465666768696a6b6c6d6e6f707172737475767778797a303132333435363738392b2f3c73766720786d6c6e733d22687474703a2f2f7777772e77332e6f72672f323030302f73766722207072657365727665417370656374526174696f3d22784d696e594d696e206d656574222076696577426f783d223020302033353020333530223e3c7374796c653e2e62617365207b2066696c6c3a2077686974653b20666f6e742d66616d696c793a2073657269663b20666f6e742d73697a653a20313470783b207d3c2f7374796c653e3c726563742077696474683d223130302522206865696768743d2231303025222066696c6c3d22626c61636b22202f3e3c7465787420783d2231302220793d2232302220636c6173733d2262617365223e596f752061726520696e2074726f75626c653c2f746578743e3c2f7376673ea264697066735822122007c284cba0526de7b9aeb71ad0ce41f68b0c4b09c948c7e277273cd15bc9c9d064736f6c63430008070033",
  "immutableReferences": {},
  "source": "pragma solidity ^0.8.0;\n\nimport \"@openzeppelin/contracts/token/ERC721/extensions/ERC721URIStorage.sol\";\nimport \"@openzeppelin/contracts/token/ERC721/extensions/IERC721Metadata.sol\";\nimport \"./DoubleTroubleOrchestrator.sol\";\nimport \"./Libraries.sol\";\n\n// SPDX-License-Identifier: MIT\ncontract DoubleTrouble is ERC721URIStorage {\n  // nested mapping that keeps track of who owns the NFTs\n  mapping (uint256 => uint256) public _forSalePrices;\n  mapping (uint256 => uint256) public _lastPurchasePrices;\n  DoubleTroubleOrchestrator _dto;\n  address _originalCollection;\n  address _feeWallet;\n  uint256 _feeRate = 130;\n  uint256[] _registeredTokens;\n\n  constructor(string memory name, string memory symbol, address nftCollection, address feeWallet, address dto) ERC721(name, symbol) {\n    require(nftCollection != address(0), \"collection address cannot be zero\");\n    require(dto != address(0), \"dto address cannot be zero\");\n    _originalCollection = nftCollection;\n    _feeWallet = feeWallet;\n    _dto = DoubleTroubleOrchestrator(dto);\n  }\n\n  function originalCollection() external view returns (address) {\n    return _originalCollection;\n  }\n\n  function safeTransferFrom(address, address, uint256, bytes memory) public override pure {\n    revert(\"Please use buy or forceBuy\");\n  }\n\n  function safeTransferFrom(address, address, uint256) public override pure {\n    revert(\"Please use buy or forceBuy\");\n  }\n\n  function transferFrom(address, address, uint256) public override pure {\n    revert(\"Please use buy or forceBuy\");\n  }\n\n  function forSalePrice(uint256 tokenId) external view returns (uint256) {\n    return _forSalePrices[tokenId];\n  }\n\n  function lastPurchasePrice(uint256 tokenId) external view returns (uint256) {\n    return _lastPurchasePrices[tokenId];\n  }\n\n  function troublesomeTokenURI(uint256 tokenId) external view returns (string memory) {\n    return IERC721Metadata(_originalCollection).tokenURI(tokenId);\n  }\n\n  function tokenURI(uint256 tokenId) public view virtual override returns (string memory) {\n    require(_lastPurchasePrices[tokenId] > 0, \"tokenId not present\");\n    string memory output = '<svg xmlns=\"http://www.w3.org/2000/svg\" preserveAspectRatio=\"xMinYMin meet\" viewBox=\"0 0 350 350\"><style>.base { fill: white; font-family: serif; font-size: 14px; }</style><rect width=\"100%\" height=\"100%\" fill=\"black\" /><text x=\"10\" y=\"20\" class=\"base\">You are in trouble</text></svg>';\n\n    string memory originalAddr = Stringify.toString(_originalCollection);\n    string memory troublesomeAddr = Stringify.toString(address(this));\n    string memory strTokenId = Stringify.toString(tokenId);\n    string memory externalLink = string(abi.encodePacked('https://double-trouble.io/collections/', troublesomeAddr, '/', strTokenId));\n    string memory json = Base64.encode(bytes(string(abi.encodePacked('{\"name\": \"DEADBEEF\", \"external_link\": \"',\n                                                                      externalLink, '\", \"originalCollection\": \"',\n                                                                      originalAddr, '\", \"troublesomeCollection\": \"',\n                                                                      troublesomeAddr, '\", \"description\": \"This NFT is only for sale in Double Trouble. Visit double-trouble.io to learn more.\", \"image\": \"data:image/svg+xml;base64,',\n                                                                      Base64.encode(bytes(output)), '\"}'))));\n    return string(abi.encodePacked('data:application/json;base64,', json));\n  }\n\n  function setPrice(uint256 tokenId, uint256 price) external {\n    // Putting up for sale for the first time\n    if (_lastPurchasePrices[tokenId] == 0) {\n      require(IERC721Metadata(_originalCollection).getApproved(tokenId) == address(this), \"DoubleTrouble contract must be approved to operate this token\");\n    // All times after\n    } else {\n      require(_isApprovedOrOwner(msg.sender, tokenId), \"msg.sender should be approved or owner of NFT\");\n    }\n    _forSalePrices[tokenId] = price;\n  }\n\n  function buy(uint256 tokenId) payable external {\n    require(_forSalePrices[tokenId] > 0, \"NFT is not for sale\");\n    require(msg.value >= _forSalePrices[tokenId], \"Value sent must be at least the for sale price\");\n\n    // Make NFT troublesome if this is the first time it's being purchased\n    if (_lastPurchasePrices[tokenId] == 0) {\n      require(IERC721Metadata(_originalCollection).getApproved(tokenId) == address(this), \"DoubleTrouble contract must be approved to operate this token\");\n\n      // In the original collection, the owner forever becomes the DoubleTrouble contract\n      address owner = IERC721Metadata(_originalCollection).ownerOf(tokenId);\n      IERC721Metadata(_originalCollection).transferFrom(owner, address(this), tokenId);\n\n      // Mint an NFT in the DT contract so we start recording the true owner here\n      _mint(owner, tokenId);\n      _registeredTokens.push(tokenId);\n    }\n\n    _completeBuy(msg.sender, tokenId, msg.value);\n  }\n\n  function forceBuy(uint256 tokenId) payable external {\n    require(_lastPurchasePrices[tokenId] > 0, \"NFT was not yet purchased within DoubleTrouble\");\n    require(msg.value >= (2 * _lastPurchasePrices[tokenId]), \"Value sent must be at least twice the last purchase price\");\n    _completeBuy(msg.sender, tokenId, msg.value);\n  }\n\n  function _completeBuy(address newOwner, uint256 tokenId, uint256 amountPaid) internal virtual {\n    // Change owner, set last purchase price, and remove from sale\n    address oldOwner = ownerOf(tokenId);\n    _transfer(oldOwner, newOwner, tokenId);\n    _lastPurchasePrices[tokenId] = amountPaid;\n    _forSalePrices[tokenId] = 0;\n    uint256 feeToCharge = amountPaid / _feeRate;\n\n    // Send ether to the old owner. Must be at the very end of the buy function to prevent reentrancy attacks\n    // https://consensys.net/diligence/blog/2019/09/stop-using-soliditys-transfer-now/\n    (bool oldOwnersuccess, ) = oldOwner.call{value: amountPaid - 2 * feeToCharge}(\"\");\n    require(oldOwnersuccess, \"Transfer to owner failed.\");\n\n    // Send fee to owner of the TRBL token corresponding to this troublesome Collection\n    address trblOwner = _dto.trblOwnerOf(address(this));\n    (bool trblOwnerSuccess, ) = trblOwner.call{value: feeToCharge}(\"\");\n\n    // Send rest of the fee to the DT wallet\n    uint256 rest = trblOwnerSuccess ? feeToCharge : 2 * feeToCharge;\n    (bool feeWalletSuccess, ) = _feeWallet.call{value: rest}(\"\");\n    require(feeWalletSuccess, \"Transfer to DT wallet failed.\");\n  }\n\n  function supportsInterface(bytes4 interfaceId) public view virtual override returns (bool) {\n    return interfaceId == 0xdeadbeef || super.supportsInterface(interfaceId);\n  }\n\n  function registeredTokens() external view returns (uint256[] memory) {\n    return _registeredTokens;\n  }\n}\n",
  "sourcePath": "/Users/gabrielguimaraes/crypto/double_trouble/blockchain-backend/contracts/DoubleTrouble.sol",
  "compiler": {
    "name": "solc",
    "version": "0.8.7+commit.e28d00a7.Emscripten.clang"
  },
  "schemaVersion": "3.4.2",
  "updatedAt": "2021-09-09T02:53:35.681Z",
  "devdoc": {
    "kind": "dev",
    "methods": {
      "approve(address,uint256)": {
        "details": "See {IERC721-approve}."
      },
      "balanceOf(address)": {
        "details": "See {IERC721-balanceOf}."
      },
      "getApproved(uint256)": {
        "details": "See {IERC721-getApproved}."
      },
      "isApprovedForAll(address,address)": {
        "details": "See {IERC721-isApprovedForAll}."
      },
      "name()": {
        "details": "See {IERC721Metadata-name}."
      },
      "ownerOf(uint256)": {
        "details": "See {IERC721-ownerOf}."
      },
      "setApprovalForAll(address,bool)": {
        "details": "See {IERC721-setApprovalForAll}."
      },
      "supportsInterface(bytes4)": {
        "details": "See {IERC165-supportsInterface}."
      },
      "symbol()": {
        "details": "See {IERC721Metadata-symbol}."
      },
      "tokenURI(uint256)": {
        "details": "See {IERC721Metadata-tokenURI}."
      }
    },
    "version": 1
  },
  "userdoc": {
    "kind": "user",
    "methods": {},
    "version": 1
  }
}