{
  "_format": "hh-sol-artifact-1",
  "contractName": "PatronTokens",
  "sourceName": "contracts/PatronTokens.sol",
  "abi": [
    {
      "inputs": [
        {
          "internalType": "address",
          "name": "dtAddr",
          "type": "address"
        }
      ],
      "stateMutability": "nonpayable",
      "type": "constructor"
    },
    {
      "anonymous": false,
      "inputs": [
        {
          "indexed": true,
          "internalType": "address",
          "name": "owner",
          "type": "address"
        },
        {
          "indexed": true,
          "internalType": "address",
          "name": "approved",
          "type": "address"
        },
        {
          "indexed": true,
          "internalType": "uint256",
          "name": "tokenId",
          "type": "uint256"
        }
      ],
      "name": "Approval",
      "type": "event"
    },
    {
      "anonymous": false,
      "inputs": [
        {
          "indexed": true,
          "internalType": "address",
          "name": "owner",
          "type": "address"
        },
        {
          "indexed": true,
          "internalType": "address",
          "name": "operator",
          "type": "address"
        },
        {
          "indexed": false,
          "internalType": "bool",
          "name": "approved",
          "type": "bool"
        }
      ],
      "name": "ApprovalForAll",
      "type": "event"
    },
    {
      "anonymous": false,
      "inputs": [
        {
          "indexed": true,
          "internalType": "address",
          "name": "from",
          "type": "address"
        },
        {
          "indexed": true,
          "internalType": "address",
          "name": "to",
          "type": "address"
        },
        {
          "indexed": true,
          "internalType": "uint256",
          "name": "tokenId",
          "type": "uint256"
        }
      ],
      "name": "Transfer",
      "type": "event"
    },
    {
      "inputs": [],
      "name": "_dt",
      "outputs": [
        {
          "internalType": "address",
          "name": "",
          "type": "address"
        }
      ],
      "stateMutability": "view",
      "type": "function"
    },
    {
      "inputs": [
        {
          "internalType": "address",
          "name": "to",
          "type": "address"
        },
        {
          "internalType": "uint256",
          "name": "tokenId",
          "type": "uint256"
        }
      ],
      "name": "approve",
      "outputs": [],
      "stateMutability": "nonpayable",
      "type": "function"
    },
    {
      "inputs": [
        {
          "internalType": "address",
          "name": "owner",
          "type": "address"
        }
      ],
      "name": "balanceOf",
      "outputs": [
        {
          "internalType": "uint256",
          "name": "",
          "type": "uint256"
        }
      ],
      "stateMutability": "view",
      "type": "function"
    },
    {
      "inputs": [
        {
          "internalType": "uint256",
          "name": "tokenId",
          "type": "uint256"
        }
      ],
      "name": "getApproved",
      "outputs": [
        {
          "internalType": "address",
          "name": "",
          "type": "address"
        }
      ],
      "stateMutability": "view",
      "type": "function"
    },
    {
      "inputs": [
        {
          "internalType": "address",
          "name": "owner",
          "type": "address"
        },
        {
          "internalType": "address",
          "name": "operator",
          "type": "address"
        }
      ],
      "name": "isApprovedForAll",
      "outputs": [
        {
          "internalType": "bool",
          "name": "",
          "type": "bool"
        }
      ],
      "stateMutability": "view",
      "type": "function"
    },
    {
      "inputs": [],
      "name": "name",
      "outputs": [
        {
          "internalType": "string",
          "name": "",
          "type": "string"
        }
      ],
      "stateMutability": "view",
      "type": "function"
    },
    {
      "inputs": [
        {
          "internalType": "uint256",
          "name": "tokenId",
          "type": "uint256"
        }
      ],
      "name": "ownerOf",
      "outputs": [
        {
          "internalType": "address",
          "name": "",
          "type": "address"
        }
      ],
      "stateMutability": "view",
      "type": "function"
    },
    {
      "inputs": [
        {
          "internalType": "address",
          "name": "collection",
          "type": "address"
        }
      ],
      "name": "patronOf",
      "outputs": [
        {
          "internalType": "address",
          "name": "",
          "type": "address"
        }
      ],
      "stateMutability": "view",
      "type": "function"
    },
    {
      "inputs": [
        {
          "internalType": "address",
          "name": "collection",
          "type": "address"
        }
      ],
      "name": "patronTokenIdForCollection",
      "outputs": [
        {
          "internalType": "uint256",
          "name": "",
          "type": "uint256"
        }
      ],
      "stateMutability": "view",
      "type": "function"
    },
    {
      "inputs": [
        {
          "internalType": "address",
          "name": "collection",
          "type": "address"
        },
        {
          "internalType": "uint256",
          "name": "tokenId",
          "type": "uint256"
        },
        {
          "internalType": "address",
          "name": "receiverOfNft",
          "type": "address"
        }
      ],
      "name": "registerToken",
      "outputs": [],
      "stateMutability": "nonpayable",
      "type": "function"
    },
    {
      "inputs": [],
      "name": "registeredTokens",
      "outputs": [
        {
          "components": [
            {
              "internalType": "address",
              "name": "collection",
              "type": "address"
            },
            {
              "internalType": "uint256",
              "name": "id",
              "type": "uint256"
            }
          ],
          "internalType": "struct Token[]",
          "name": "",
          "type": "tuple[]"
        }
      ],
      "stateMutability": "view",
      "type": "function"
    },
    {
      "inputs": [
        {
          "internalType": "address",
          "name": "from",
          "type": "address"
        },
        {
          "internalType": "address",
          "name": "to",
          "type": "address"
        },
        {
          "internalType": "uint256",
          "name": "tokenId",
          "type": "uint256"
        }
      ],
      "name": "safeTransferFrom",
      "outputs": [],
      "stateMutability": "nonpayable",
      "type": "function"
    },
    {
      "inputs": [
        {
          "internalType": "address",
          "name": "from",
          "type": "address"
        },
        {
          "internalType": "address",
          "name": "to",
          "type": "address"
        },
        {
          "internalType": "uint256",
          "name": "tokenId",
          "type": "uint256"
        },
        {
          "internalType": "bytes",
          "name": "_data",
          "type": "bytes"
        }
      ],
      "name": "safeTransferFrom",
      "outputs": [],
      "stateMutability": "nonpayable",
      "type": "function"
    },
    {
      "inputs": [
        {
          "internalType": "address",
          "name": "operator",
          "type": "address"
        },
        {
          "internalType": "bool",
          "name": "approved",
          "type": "bool"
        }
      ],
      "name": "setApprovalForAll",
      "outputs": [],
      "stateMutability": "nonpayable",
      "type": "function"
    },
    {
      "inputs": [
        {
          "internalType": "bytes4",
          "name": "interfaceId",
          "type": "bytes4"
        }
      ],
      "name": "supportsInterface",
      "outputs": [
        {
          "internalType": "bool",
          "name": "",
          "type": "bool"
        }
      ],
      "stateMutability": "view",
      "type": "function"
    },
    {
      "inputs": [],
      "name": "symbol",
      "outputs": [
        {
          "internalType": "string",
          "name": "",
          "type": "string"
        }
      ],
      "stateMutability": "view",
      "type": "function"
    },
    {
      "inputs": [
        {
          "internalType": "uint256",
          "name": "tokenId",
          "type": "uint256"
        }
      ],
      "name": "tokenURI",
      "outputs": [
        {
          "internalType": "string",
          "name": "",
          "type": "string"
        }
      ],
      "stateMutability": "view",
      "type": "function"
    },
    {
      "inputs": [
        {
          "internalType": "address",
          "name": "from",
          "type": "address"
        },
        {
          "internalType": "address",
          "name": "to",
          "type": "address"
        },
        {
          "internalType": "uint256",
          "name": "tokenId",
          "type": "uint256"
        }
      ],
      "name": "transferFrom",
      "outputs": [],
      "stateMutability": "nonpayable",
      "type": "function"
    }
  ],
  "bytecode": "0x60806040523480156200001157600080fd5b50604051620045b5380380620045b58339818101604052810190620000379190620001e6565b6040518060400160405280600d81526020017f506174726f6e20546f6b656e73000000000000000000000000000000000000008152506040518060400160405280600481526020017f5054524e000000000000000000000000000000000000000000000000000000008152508160009080519060200190620000bb9291906200011f565b508060019080519060200190620000d49291906200011f565b50505080600b60006101000a81548173ffffffffffffffffffffffffffffffffffffffff021916908373ffffffffffffffffffffffffffffffffffffffff16021790555050620002d0565b8280546200012d906200024c565b90600052602060002090601f0160209004810192826200015157600085556200019d565b82601f106200016c57805160ff19168380011785556200019d565b828001600101855582156200019d579182015b828111156200019c5782518255916020019190600101906200017f565b5b509050620001ac9190620001b0565b5090565b5b80821115620001cb576000816000905550600101620001b1565b5090565b600081519050620001e081620002b6565b92915050565b600060208284031215620001ff57620001fe620002b1565b5b60006200020f84828501620001cf565b91505092915050565b600062000225826200022c565b9050919050565b600073ffffffffffffffffffffffffffffffffffffffff82169050919050565b600060028204905060018216806200026557607f821691505b602082108114156200027c576200027b62000282565b5b50919050565b7f4e487b7100000000000000000000000000000000000000000000000000000000600052602260045260246000fd5b600080fd5b620002c18162000218565b8114620002cd57600080fd5b50565b6142d580620002e06000396000f3fe608060405234801561001057600080fd5b50600436106101165760003560e01c80636352211e116100a2578063b88d4fde11610071578063b88d4fde146102f3578063c87b56dd1461030f578063dec075881461033f578063e08e34001461035b578063e985e9c51461038b57610116565b80636352211e1461025957806370a082311461028957806395d89b41146102b9578063a22cb465146102d757610116565b80630e2ccc78116100e95780630e2ccc78146101b557806323b872dd146101e557806337c6f4b71461020157806342842e0e1461021f578063454666161461023b57610116565b806301ffc9a71461011b57806306fdde031461014b578063081812fc14610169578063095ea7b314610199575b600080fd5b61013560048036038101906101309190612993565b6103bb565b60405161014291906130d0565b60405180910390f35b6101536103fd565b60405161016091906130eb565b60405180910390f35b610183600480360381019061017e9190612a36565b61048f565b6040516101909190613047565b60405180910390f35b6101b360048036038101906101ae9190612900565b610514565b005b6101cf60048036038101906101ca919061277d565b61062c565b6040516101dc9190613047565b60405180910390f35b6101ff60048036038101906101fa91906127ea565b610646565b005b6102096106a6565b6040516102169190613047565b60405180910390f35b610239600480360381019061023491906127ea565b6106cc565b005b6102436106ec565b60405161025091906130ae565b60405180910390f35b610273600480360381019061026e9190612a36565b6107ab565b6040516102809190613047565b60405180910390f35b6102a3600480360381019061029e919061277d565b61085d565b6040516102b0919061330d565b60405180910390f35b6102c1610915565b6040516102ce91906130eb565b60405180910390f35b6102f160048036038101906102ec91906128c0565b6109a7565b005b61030d6004803603810190610308919061283d565b610b28565b005b61032960048036038101906103249190612a36565b610b8a565b60405161033691906130eb565b60405180910390f35b61035960048036038101906103549190612940565b61123c565b005b6103756004803603810190610370919061277d565b61156e565b604051610382919061330d565b60405180910390f35b6103a560048036038101906103a091906127aa565b611652565b6040516103b291906130d0565b60405180910390f35b600063beefdead60e01b827bffffffffffffffffffffffffffffffffffffffffffffffffffffffff191614806103f657506103f5826116e6565b5b9050919050565b60606000805461040c9061384b565b80601f01602080910402602001604051908101604052809291908181526020018280546104389061384b565b80156104855780601f1061045a57610100808354040283529160200191610485565b820191906000526020600020905b81548152906001019060200180831161046857829003601f168201915b5050505050905090565b600061049a826117c8565b6104d9576040517f08c379a00000000000000000000000000000000000000000000000000000000081526004016104d09061328d565b60405180910390fd5b6004600083815260200190815260200160002060009054906101000a900473ffffffffffffffffffffffffffffffffffffffff169050919050565b600061051f826107ab565b90508073ffffffffffffffffffffffffffffffffffffffff168373ffffffffffffffffffffffffffffffffffffffff161415610590576040517f08c379a0000000000000000000000000000000000000000000000000000000008152600401610587906132cd565b60405180910390fd5b8073ffffffffffffffffffffffffffffffffffffffff166105af611834565b73ffffffffffffffffffffffffffffffffffffffff1614806105de57506105dd816105d8611834565b611652565b5b61061d576040517f08c379a00000000000000000000000000000000000000000000000000000000081526004016106149061320d565b60405180910390fd5b610627838361183c565b505050565b600061063f61063a8361156e565b6107ab565b9050919050565b610657610651611834565b826118f5565b610696576040517f08c379a000000000000000000000000000000000000000000000000000000000815260040161068d906132ed565b60405180910390fd5b6106a18383836119d3565b505050565b600b60009054906101000a900473ffffffffffffffffffffffffffffffffffffffff1681565b6106e783838360405180602001604052806000815250610b28565b505050565b60606007805480602002602001604051908101604052809291908181526020016000905b828210156107a257838290600052602060002090600202016040518060400160405290816000820160009054906101000a900473ffffffffffffffffffffffffffffffffffffffff1673ffffffffffffffffffffffffffffffffffffffff1673ffffffffffffffffffffffffffffffffffffffff16815260200160018201548152505081526020019060010190610710565b50505050905090565b6000806002600084815260200190815260200160002060009054906101000a900473ffffffffffffffffffffffffffffffffffffffff169050600073ffffffffffffffffffffffffffffffffffffffff168173ffffffffffffffffffffffffffffffffffffffff161415610854576040517f08c379a000000000000000000000000000000000000000000000000000000000815260040161084b9061324d565b60405180910390fd5b80915050919050565b60008073ffffffffffffffffffffffffffffffffffffffff168273ffffffffffffffffffffffffffffffffffffffff1614156108ce576040517f08c379a00000000000000000000000000000000000000000000000000000000081526004016108c59061322d565b60405180910390fd5b600360008373ffffffffffffffffffffffffffffffffffffffff1673ffffffffffffffffffffffffffffffffffffffff168152602001908152602001600020549050919050565b6060600180546109249061384b565b80601f01602080910402602001604051908101604052809291908181526020018280546109509061384b565b801561099d5780601f106109725761010080835404028352916020019161099d565b820191906000526020600020905b81548152906001019060200180831161098057829003601f168201915b5050505050905090565b6109af611834565b73ffffffffffffffffffffffffffffffffffffffff168273ffffffffffffffffffffffffffffffffffffffff161415610a1d576040517f08c379a0000000000000000000000000000000000000000000000000000000008152600401610a14906131cd565b60405180910390fd5b8060056000610a2a611834565b73ffffffffffffffffffffffffffffffffffffffff1673ffffffffffffffffffffffffffffffffffffffff16815260200190815260200160002060008473ffffffffffffffffffffffffffffffffffffffff1673ffffffffffffffffffffffffffffffffffffffff16815260200190815260200160002060006101000a81548160ff0219169083151502179055508173ffffffffffffffffffffffffffffffffffffffff16610ad7611834565b73ffffffffffffffffffffffffffffffffffffffff167f17307eab39ab6107e8899845ad3d59bd9653f200f220920489ca2b5937696c3183604051610b1c91906130d0565b60405180910390a35050565b610b39610b33611834565b836118f5565b610b78576040517f08c379a0000000000000000000000000000000000000000000000000000000008152600401610b6f906132ed565b60405180910390fd5b610b8484848484611c2f565b50505050565b60606009805490508210610bd3576040517f08c379a0000000000000000000000000000000000000000000000000000000008152600401610bca9061314d565b60405180910390fd5b6000610c1c60098481548110610bec57610beb6139b5565b5b9060005260206000200160009054906101000a900473ffffffffffffffffffffffffffffffffffffffff16611c8b565b90506000610c2984611e6d565b9050610c3361260c565b600060405180610120016040528060fd815260200161416160fd9139828280610c5b906138ae565b935060148110610c6e57610c6d6139b5565b5b602002018190525082604051602001610c879190612f84565b604051602081830303815290604052828280610ca2906138ae565b935060148110610cb557610cb46139b5565b5b60200201819052506040518060400160405280600781526020017f3c2f746578743e00000000000000000000000000000000000000000000000000815250828280610cff906138ae565b935060148110610d1257610d116139b5565b5b602002018190525060098681548110610d2e57610d2d6139b5565b5b9060005260206000200160009054906101000a900473ffffffffffffffffffffffffffffffffffffffff1673ffffffffffffffffffffffffffffffffffffffff166306fdde036040518163ffffffff1660e01b815260040160006040518083038186803b158015610d9e57600080fd5b505afa925050508015610dd457506040513d6000823e3d601f19601f82011682018060405250810190610dd191906129ed565b60015b610e10573d8060008114610e04576040519150601f19603f3d011682016040523d82523d6000602084013e610e09565b606091505b5050610ed7565b60405180606001604052806021815260200161425e60219139838380610e35906138ae565b945060148110610e4857610e476139b5565b5b602002018190525080838380610e5d906138ae565b945060148110610e7057610e6f6139b5565b5b60200201819052506040518060400160405280600781526020017f3c2f746578743e00000000000000000000000000000000000000000000000000815250838380610eba906138ae565b945060148110610ecd57610ecc6139b5565b5b6020020181905250505b60098681548110610eeb57610eea6139b5565b5b9060005260206000200160009054906101000a900473ffffffffffffffffffffffffffffffffffffffff1673ffffffffffffffffffffffffffffffffffffffff166395d89b416040518163ffffffff1660e01b815260040160006040518083038186803b158015610f5b57600080fd5b505afa925050508015610f9157506040513d6000823e3d601f19601f82011682018060405250810190610f8e91906129ed565b60015b610fcd573d8060008114610fc1576040519150601f19603f3d011682016040523d82523d6000602084013e610fc6565b606091505b5050611094565b60405180606001604052806021815260200161427f60219139838380610ff2906138ae565b945060148110611005576110046139b5565b5b60200201819052508083838061101a906138ae565b94506014811061102d5761102c6139b5565b5b60200201819052506040518060400160405280600781526020017f3c2f746578743e00000000000000000000000000000000000000000000000000815250838380611077906138ae565b94506014811061108a576110896139b5565b5b6020020181905250505b604051806060016040528060218152602001614100602191398282806110b9906138ae565b9350601481106110cc576110cb6139b5565b5b6020020181905250836040516020016110e59190612fa6565b604051602081830303815290604052828280611100906138ae565b935060148110611113576111126139b5565b5b60200201819052506040518060400160405280600d81526020017f3c2f746578743e3c2f7376673e0000000000000000000000000000000000000081525082828061115d906138ae565b9350601481106111705761116f6139b5565b5b6020020181905250606060005b828110156111d35781848260148110611199576111986139b5565b5b60200201516040516020016111af929190612f3e565b604051602081830303815290604052915080806111cb906138ae565b91505061117d565b50600061120a85876111e485611fce565b6040516020016111f693929190612fea565b604051602081830303815290604052611fce565b90508060405160200161121d9190612fc8565b6040516020818303038152906040529150819650505050505050919050565b600b60009054906101000a900473ffffffffffffffffffffffffffffffffffffffff1673ffffffffffffffffffffffffffffffffffffffff163373ffffffffffffffffffffffffffffffffffffffff16146112cc576040517f08c379a00000000000000000000000000000000000000000000000000000000081526004016112c39061318d565b60405180910390fd5b600860008473ffffffffffffffffffffffffffffffffffffffff1673ffffffffffffffffffffffffffffffffffffffff168152602001908152602001600020600083815260200190815260200160002060009054906101000a900460ff16611569576001600860008573ffffffffffffffffffffffffffffffffffffffff1673ffffffffffffffffffffffffffffffffffffffff168152602001908152602001600020600084815260200190815260200160002060006101000a81548160ff021916908315150217905550600760405180604001604052808573ffffffffffffffffffffffffffffffffffffffff16815260200184815250908060018154018082558091505060019003906000526020600020906002020160009091909190915060008201518160000160006101000a81548173ffffffffffffffffffffffffffffffffffffffff021916908373ffffffffffffffffffffffffffffffffffffffff160217905550602082015181600101555050600a60008473ffffffffffffffffffffffffffffffffffffffff1673ffffffffffffffffffffffffffffffffffffffff16815260200190815260200160002060009054906101000a900460ff16611568576001600a60008573ffffffffffffffffffffffffffffffffffffffff1673ffffffffffffffffffffffffffffffffffffffff16815260200190815260200160002060006101000a81548160ff0219169083151502179055506009839080600181540180825580915050600190039060005260206000200160009091909190916101000a81548173ffffffffffffffffffffffffffffffffffffffff021916908373ffffffffffffffffffffffffffffffffffffffff1602179055506115678160016009805490506115629190613720565b612166565b5b5b505050565b600080600090505b6009805490508110156116115760098181548110611597576115966139b5565b5b9060005260206000200160009054906101000a900473ffffffffffffffffffffffffffffffffffffffff1673ffffffffffffffffffffffffffffffffffffffff168373ffffffffffffffffffffffffffffffffffffffff1614156115fe578091505061164d565b8080611609906138ae565b915050611576565b506040517f08c379a00000000000000000000000000000000000000000000000000000000081526004016116449061310d565b60405180910390fd5b919050565b6000600560008473ffffffffffffffffffffffffffffffffffffffff1673ffffffffffffffffffffffffffffffffffffffff16815260200190815260200160002060008373ffffffffffffffffffffffffffffffffffffffff1673ffffffffffffffffffffffffffffffffffffffff16815260200190815260200160002060009054906101000a900460ff16905092915050565b60007f80ac58cd000000000000000000000000000000000000000000000000000000007bffffffffffffffffffffffffffffffffffffffffffffffffffffffff1916827bffffffffffffffffffffffffffffffffffffffffffffffffffffffff191614806117b157507f5b5e139f000000000000000000000000000000000000000000000000000000007bffffffffffffffffffffffffffffffffffffffffffffffffffffffff1916827bffffffffffffffffffffffffffffffffffffffffffffffffffffffff1916145b806117c157506117c082612184565b5b9050919050565b60008073ffffffffffffffffffffffffffffffffffffffff166002600084815260200190815260200160002060009054906101000a900473ffffffffffffffffffffffffffffffffffffffff1673ffffffffffffffffffffffffffffffffffffffff1614159050919050565b600033905090565b816004600083815260200190815260200160002060006101000a81548173ffffffffffffffffffffffffffffffffffffffff021916908373ffffffffffffffffffffffffffffffffffffffff160217905550808273ffffffffffffffffffffffffffffffffffffffff166118af836107ab565b73ffffffffffffffffffffffffffffffffffffffff167f8c5be1e5ebec7d5bd14f71427d1e84f3dd0314c0f7b2291e5b200ac8c7c3b92560405160405180910390a45050565b6000611900826117c8565b61193f576040517f08c379a0000000000000000000000000000000000000000000000000000000008152600401611936906131ed565b60405180910390fd5b600061194a836107ab565b90508073ffffffffffffffffffffffffffffffffffffffff168473ffffffffffffffffffffffffffffffffffffffff1614806119b957508373ffffffffffffffffffffffffffffffffffffffff166119a18461048f565b73ffffffffffffffffffffffffffffffffffffffff16145b806119ca57506119c98185611652565b5b91505092915050565b8273ffffffffffffffffffffffffffffffffffffffff166119f3826107ab565b73ffffffffffffffffffffffffffffffffffffffff1614611a49576040517f08c379a0000000000000000000000000000000000000000000000000000000008152600401611a40906132ad565b60405180910390fd5b600073ffffffffffffffffffffffffffffffffffffffff168273ffffffffffffffffffffffffffffffffffffffff161415611ab9576040517f08c379a0000000000000000000000000000000000000000000000000000000008152600401611ab0906131ad565b60405180910390fd5b611ac48383836121ee565b611acf60008261183c565b6001600360008573ffffffffffffffffffffffffffffffffffffffff1673ffffffffffffffffffffffffffffffffffffffff1681526020019081526020016000206000828254611b1f9190613720565b925050819055506001600360008473ffffffffffffffffffffffffffffffffffffffff1673ffffffffffffffffffffffffffffffffffffffff1681526020019081526020016000206000828254611b76919061342b565b92505081905550816002600083815260200190815260200160002060006101000a81548173ffffffffffffffffffffffffffffffffffffffff021916908373ffffffffffffffffffffffffffffffffffffffff160217905550808273ffffffffffffffffffffffffffffffffffffffff168473ffffffffffffffffffffffffffffffffffffffff167fddf252ad1be2c89b69c2b068fc378daa952ba7f163c4a11628f55a4df523b3ef60405160405180910390a4505050565b611c3a8484846119d3565b611c46848484846121f3565b611c85576040517f08c379a0000000000000000000000000000000000000000000000000000000008152600401611c7c9061312d565b60405180910390fd5b50505050565b60606000602867ffffffffffffffff811115611caa57611ca96139e4565b5b6040519080825280601f01601f191660200182016040528015611cdc5781602001600182028036833780820191505090505b50905060005b6014811015611e44576000816013611cfa9190613720565b6008611d06919061368b565b6002611d12919061356d565b8573ffffffffffffffffffffffffffffffffffffffff16611d3391906134b8565b60f81b9050600060108260f81c611d4a91906134e9565b60f81b905060008160f81c6010611d6191906136e5565b8360f81c611d6f9190613754565b60f81b9050611d7d8261238a565b85856002611d8b919061368b565b81518110611d9c57611d9b6139b5565b5b60200101907effffffffffffffffffffffffffffffffffffffffffffffffffffffffffffff1916908160001a905350611dd48161238a565b856001866002611de4919061368b565b611dee919061342b565b81518110611dff57611dfe6139b5565b5b60200101907effffffffffffffffffffffffffffffffffffffffffffffffffffffffffffff1916908160001a9053505050508080611e3c906138ae565b915050611ce2565b5080604051602001611e569190612f62565b604051602081830303815290604052915050919050565b60606000821415611eb5576040518060400160405280600181526020017f30000000000000000000000000000000000000000000000000000000000000008152509050611fc9565b600082905060005b60008214611ee7578080611ed0906138ae565b915050600a82611ee091906134b8565b9150611ebd565b60008167ffffffffffffffff811115611f0357611f026139e4565b5b6040519080825280601f01601f191660200182016040528015611f355781602001600182028036833780820191505090505b5090505b60008514611fc257600182611f4e9190613720565b9150600a85611f5d91906138f7565b6030611f69919061342b565b60f81b818381518110611f7f57611f7e6139b5565b5b60200101907effffffffffffffffffffffffffffffffffffffffffffffffffffffffffffff1916908160001a905350600a85611fbb91906134b8565b9450611f39565b8093505050505b919050565b60606000825190506000811415611ff75760405180602001604052806000815250915050612161565b60006003600283612008919061342b565b61201291906134b8565b600461201e919061368b565b9050600060208261202f919061342b565b67ffffffffffffffff811115612048576120476139e4565b5b6040519080825280601f01601f19166020018201604052801561207a5781602001600182028036833780820191505090505b5090506000604051806060016040528060408152602001614121604091399050600181016020830160005b8681101561211e5760038101905062ffffff818a015116603f8160121c168401518060081b905060ff603f83600c1c1686015116810190508060081b905060ff603f8360061c1686015116810190508060081b905060ff603f831686015116810190508060e01b905080845260048401935050506120a5565b506003860660018114612138576002811461214857612153565b613d3d60f01b6002830352612153565b603d60f81b60018303525b508484525050819450505050505b919050565b6121808282604051806020016040528060008152506123d0565b5050565b60007f01ffc9a7000000000000000000000000000000000000000000000000000000007bffffffffffffffffffffffffffffffffffffffffffffffffffffffff1916827bffffffffffffffffffffffffffffffffffffffffffffffffffffffff1916149050919050565b505050565b60006122148473ffffffffffffffffffffffffffffffffffffffff1661242b565b1561237d578373ffffffffffffffffffffffffffffffffffffffff1663150b7a0261223d611834565b8786866040518563ffffffff1660e01b815260040161225f9493929190613062565b602060405180830381600087803b15801561227957600080fd5b505af19250505080156122aa57506040513d601f19601f820116820180604052508101906122a791906129c0565b60015b61232d573d80600081146122da576040519150601f19603f3d011682016040523d82523d6000602084013e6122df565b606091505b50600081511415612325576040517f08c379a000000000000000000000000000000000000000000000000000000000815260040161231c9061312d565b60405180910390fd5b805181602001fd5b63150b7a0260e01b7bffffffffffffffffffffffffffffffffffffffffffffffffffffffff1916817bffffffffffffffffffffffffffffffffffffffffffffffffffffffff191614915050612382565b600190505b949350505050565b6000600a8260f81c60ff1610156123b55760308260f81c6123ab9190613481565b60f81b90506123cb565b60578260f81c6123c59190613481565b60f81b90505b919050565b6123da838361243e565b6123e760008484846121f3565b612426576040517f08c379a000000000000000000000000000000000000000000000000000000000815260040161241d9061312d565b60405180910390fd5b505050565b600080823b905060008111915050919050565b600073ffffffffffffffffffffffffffffffffffffffff168273ffffffffffffffffffffffffffffffffffffffff1614156124ae576040517f08c379a00000000000000000000000000000000000000000000000000000000081526004016124a59061326d565b60405180910390fd5b6124b7816117c8565b156124f7576040517f08c379a00000000000000000000000000000000000000000000000000000000081526004016124ee9061316d565b60405180910390fd5b612503600083836121ee565b6001600360008473ffffffffffffffffffffffffffffffffffffffff1673ffffffffffffffffffffffffffffffffffffffff1681526020019081526020016000206000828254612553919061342b565b92505081905550816002600083815260200190815260200160002060006101000a81548173ffffffffffffffffffffffffffffffffffffffff021916908373ffffffffffffffffffffffffffffffffffffffff160217905550808273ffffffffffffffffffffffffffffffffffffffff16600073ffffffffffffffffffffffffffffffffffffffff167fddf252ad1be2c89b69c2b068fc378daa952ba7f163c4a11628f55a4df523b3ef60405160405180910390a45050565b6040518061028001604052806014905b606081526020019060019003908161261c5790505090565b60006126476126428461334d565b613328565b90508281526020810184848401111561266357612662613a18565b5b61266e848285613809565b509392505050565b60006126896126848461337e565b613328565b9050828152602081018484840111156126a5576126a4613a18565b5b6126b0848285613818565b509392505050565b6000813590506126c7816140a3565b92915050565b6000813590506126dc816140ba565b92915050565b6000813590506126f1816140d1565b92915050565b600081519050612706816140d1565b92915050565b600082601f83011261272157612720613a13565b5b8135612731848260208601612634565b91505092915050565b600082601f83011261274f5761274e613a13565b5b815161275f848260208601612676565b91505092915050565b600081359050612777816140e8565b92915050565b60006020828403121561279357612792613a22565b5b60006127a1848285016126b8565b91505092915050565b600080604083850312156127c1576127c0613a22565b5b60006127cf858286016126b8565b92505060206127e0858286016126b8565b9150509250929050565b60008060006060848603121561280357612802613a22565b5b6000612811868287016126b8565b9350506020612822868287016126b8565b925050604061283386828701612768565b9150509250925092565b6000806000806080858703121561285757612856613a22565b5b6000612865878288016126b8565b9450506020612876878288016126b8565b935050604061288787828801612768565b925050606085013567ffffffffffffffff8111156128a8576128a7613a1d565b5b6128b48782880161270c565b91505092959194509250565b600080604083850312156128d7576128d6613a22565b5b60006128e5858286016126b8565b92505060206128f6858286016126cd565b9150509250929050565b6000806040838503121561291757612916613a22565b5b6000612925858286016126b8565b925050602061293685828601612768565b9150509250929050565b60008060006060848603121561295957612958613a22565b5b6000612967868287016126b8565b935050602061297886828701612768565b9250506040612989868287016126b8565b9150509250925092565b6000602082840312156129a9576129a8613a22565b5b60006129b7848285016126e2565b91505092915050565b6000602082840312156129d6576129d5613a22565b5b60006129e4848285016126f7565b91505092915050565b600060208284031215612a0357612a02613a22565b5b600082015167ffffffffffffffff811115612a2157612a20613a1d565b5b612a2d8482850161273a565b91505092915050565b600060208284031215612a4c57612a4b613a22565b5b6000612a5a84828501612768565b91505092915050565b6000612a6f8383612ef1565b60408301905092915050565b612a8481613788565b82525050565b612a9381613788565b82525050565b6000612aa4826133bf565b612aae81856133ed565b9350612ab9836133af565b8060005b83811015612aea578151612ad18882612a63565b9750612adc836133e0565b925050600181019050612abd565b5085935050505092915050565b612b008161379a565b82525050565b6000612b11826133ca565b612b1b81856133fe565b9350612b2b818560208601613818565b612b3481613a27565b840191505092915050565b6000612b4a826133d5565b612b54818561340f565b9350612b64818560208601613818565b612b6d81613a27565b840191505092915050565b6000612b83826133d5565b612b8d8185613420565b9350612b9d818560208601613818565b80840191505092915050565b6000612bb660d883613420565b9150612bc182613a45565b60d882019050919050565b6000612bd960148361340f565b9150612be482613b52565b602082019050919050565b6000612bfc60328361340f565b9150612c0782613b7b565b604082019050919050565b6000612c1f60138361340f565b9150612c2a82613bca565b602082019050919050565b6000612c42601c8361340f565b9150612c4d82613bf3565b602082019050919050565b6000612c65600283613420565b9150612c7082613c1c565b600282019050919050565b6000612c88602d8361340f565b9150612c9382613c45565b604082019050919050565b6000612cab60248361340f565b9150612cb682613c94565b604082019050919050565b6000612cce60198361340f565b9150612cd982613ce3565b602082019050919050565b6000612cf1600683613420565b9150612cfc82613d0c565b600682019050919050565b6000612d14602c8361340f565b9150612d1f82613d35565b604082019050919050565b6000612d3760388361340f565b9150612d4282613d84565b604082019050919050565b6000612d5a602a8361340f565b9150612d6582613dd3565b604082019050919050565b6000612d7d60298361340f565b9150612d8882613e22565b604082019050919050565b6000612da0600c83613420565b9150612dab82613e71565b600c82019050919050565b6000612dc3600283613420565b9150612dce82613e9a565b600282019050919050565b6000612de660208361340f565b9150612df182613ec3565b602082019050919050565b6000612e09602c8361340f565b9150612e1482613eec565b604082019050919050565b6000612e2c60298361340f565b9150612e3782613f3b565b604082019050919050565b6000612e4f60218361340f565b9150612e5a82613f8a565b604082019050919050565b6000612e72601d83613420565b9150612e7d82613fd9565b601d82019050919050565b6000612e95601283613420565b9150612ea082614002565b601282019050919050565b6000612eb860318361340f565b9150612ec38261402b565b604082019050919050565b6000612edb601083613420565b9150612ee68261407a565b601082019050919050565b604082016000820151612f076000850182612a7b565b506020820151612f1a6020850182612f20565b50505050565b612f29816137f2565b82525050565b612f38816137f2565b82525050565b6000612f4a8285612b78565b9150612f568284612b78565b91508190509392505050565b6000612f6d82612c58565b9150612f798284612b78565b915081905092915050565b6000612f8f82612ce4565b9150612f9b8284612b78565b915081905092915050565b6000612fb182612d93565b9150612fbd8284612b78565b915081905092915050565b6000612fd382612e65565b9150612fdf8284612b78565b915081905092915050565b6000612ff582612ece565b91506130018286612b78565b915061300c82612e88565b91506130188285612b78565b915061302382612ba9565b915061302f8284612b78565b915061303a82612db6565b9150819050949350505050565b600060208201905061305c6000830184612a8a565b92915050565b60006080820190506130776000830187612a8a565b6130846020830186612a8a565b6130916040830185612f2f565b81810360608301526130a38184612b06565b905095945050505050565b600060208201905081810360008301526130c88184612a99565b905092915050565b60006020820190506130e56000830184612af7565b92915050565b600060208201905081810360008301526131058184612b3f565b905092915050565b6000602082019050818103600083015261312681612bcc565b9050919050565b6000602082019050818103600083015261314681612bef565b9050919050565b6000602082019050818103600083015261316681612c12565b9050919050565b6000602082019050818103600083015261318681612c35565b9050919050565b600060208201905081810360008301526131a681612c7b565b9050919050565b600060208201905081810360008301526131c681612c9e565b9050919050565b600060208201905081810360008301526131e681612cc1565b9050919050565b6000602082019050818103600083015261320681612d07565b9050919050565b6000602082019050818103600083015261322681612d2a565b9050919050565b6000602082019050818103600083015261324681612d4d565b9050919050565b6000602082019050818103600083015261326681612d70565b9050919050565b6000602082019050818103600083015261328681612dd9565b9050919050565b600060208201905081810360008301526132a681612dfc565b9050919050565b600060208201905081810360008301526132c681612e1f565b9050919050565b600060208201905081810360008301526132e681612e42565b9050919050565b6000602082019050818103600083015261330681612eab565b9050919050565b60006020820190506133226000830184612f2f565b92915050565b6000613332613343565b905061333e828261387d565b919050565b6000604051905090565b600067ffffffffffffffff821115613368576133676139e4565b5b61337182613a27565b9050602081019050919050565b600067ffffffffffffffff821115613399576133986139e4565b5b6133a282613a27565b9050602081019050919050565b6000819050602082019050919050565b600081519050919050565b600081519050919050565b600081519050919050565b6000602082019050919050565b600082825260208201905092915050565b600082825260208201905092915050565b600082825260208201905092915050565b600081905092915050565b6000613436826137f2565b9150613441836137f2565b9250827fffffffffffffffffffffffffffffffffffffffffffffffffffffffffffffffff0382111561347657613475613928565b5b828201905092915050565b600061348c826137fc565b9150613497836137fc565b92508260ff038211156134ad576134ac613928565b5b828201905092915050565b60006134c3826137f2565b91506134ce836137f2565b9250826134de576134dd613957565b5b828204905092915050565b60006134f4826137fc565b91506134ff836137fc565b92508261350f5761350e613957565b5b828204905092915050565b6000808291508390505b6001851115613564578086048111156135405761353f613928565b5b600185161561354f5780820291505b808102905061355d85613a38565b9450613524565b94509492505050565b6000613578826137f2565b9150613583836137f2565b92506135b07fffffffffffffffffffffffffffffffffffffffffffffffffffffffffffffffff84846135b8565b905092915050565b6000826135c85760019050613684565b816135d65760009050613684565b81600181146135ec57600281146135f657613625565b6001915050613684565b60ff84111561360857613607613928565b5b8360020a91508482111561361f5761361e613928565b5b50613684565b5060208310610133831016604e8410600b841016171561365a5782820a90508381111561365557613654613928565b5b613684565b613667848484600161351a565b9250905081840481111561367e5761367d613928565b5b81810290505b9392505050565b6000613696826137f2565b91506136a1836137f2565b9250817fffffffffffffffffffffffffffffffffffffffffffffffffffffffffffffffff04831182151516156136da576136d9613928565b5b828202905092915050565b60006136f0826137fc565b91506136fb836137fc565b92508160ff048311821515161561371557613714613928565b5b828202905092915050565b600061372b826137f2565b9150613736836137f2565b92508282101561374957613748613928565b5b828203905092915050565b600061375f826137fc565b915061376a836137fc565b92508282101561377d5761377c613928565b5b828203905092915050565b6000613793826137d2565b9050919050565b60008115159050919050565b60007fffffffff0000000000000000000000000000000000000000000000000000000082169050919050565b600073ffffffffffffffffffffffffffffffffffffffff82169050919050565b6000819050919050565b600060ff82169050919050565b82818337600083830152505050565b60005b8381101561383657808201518184015260208101905061381b565b83811115613845576000848401525b50505050565b6000600282049050600182168061386357607f821691505b6020821081141561387757613876613986565b5b50919050565b61388682613a27565b810181811067ffffffffffffffff821117156138a5576138a46139e4565b5b80604052505050565b60006138b9826137f2565b91507fffffffffffffffffffffffffffffffffffffffffffffffffffffffffffffffff8214156138ec576138eb613928565b5b600182019050919050565b6000613902826137f2565b915061390d836137f2565b92508261391d5761391c613957565b5b828206905092915050565b7f4e487b7100000000000000000000000000000000000000000000000000000000600052601160045260246000fd5b7f4e487b7100000000000000000000000000000000000000000000000000000000600052601260045260246000fd5b7f4e487b7100000000000000000000000000000000000000000000000000000000600052602260045260246000fd5b7f4e487b7100000000000000000000000000000000000000000000000000000000600052603260045260246000fd5b7f4e487b7100000000000000000000000000000000000000000000000000000000600052604160045260246000fd5b600080fd5b600080fd5b600080fd5b600080fd5b6000601f19601f8301169050919050565b60008160011c9050919050565b7f222c20226465736372697074696f6e223a202257686f65766572206f776e732060008201527f74686973205054524e20746f6b656e2069732074686520506174726f6e20666f60208201527f72207468697320636f6c6c656374696f6e2e20506174726f6e73206175746f6d60408201527f61746963616c6c7920676574206120252066656520666f7220616e79204e465460608201527f2066726f6d207468697320636f6c6c656374696f6e20736f6c6420776974686960808201527f6e20446f75626c652054726f75626c652e222c2022696d616765223a2022646160a08201527f74613a696d6167652f7376672b786d6c3b6261736536342c000000000000000060c082015250565b7f436f6c6c656374696f6e206e6f7420666f756e64000000000000000000000000600082015250565b7f4552433732313a207472616e7366657220746f206e6f6e20455243373231526560008201527f63656976657220696d706c656d656e7465720000000000000000000000000000602082015250565b7f746f6b656e4964206e6f742070726573656e7400000000000000000000000000600082015250565b7f4552433732313a20746f6b656e20616c7265616479206d696e74656400000000600082015250565b7f3078000000000000000000000000000000000000000000000000000000000000600082015250565b7f4f6e6c792074686520446f75626c6554726f75626c6520636f6e74726163742060008201527f63616e2063616c6c207468697300000000000000000000000000000000000000602082015250565b7f4552433732313a207472616e7366657220746f20746865207a65726f2061646460008201527f7265737300000000000000000000000000000000000000000000000000000000602082015250565b7f4552433732313a20617070726f766520746f2063616c6c657200000000000000600082015250565b7f5054524e20230000000000000000000000000000000000000000000000000000600082015250565b7f4552433732313a206f70657261746f7220717565727920666f72206e6f6e657860008201527f697374656e7420746f6b656e0000000000000000000000000000000000000000602082015250565b7f4552433732313a20617070726f76652063616c6c6572206973206e6f74206f7760008201527f6e6572206e6f7220617070726f76656420666f7220616c6c0000000000000000602082015250565b7f4552433732313a2062616c616e636520717565727920666f7220746865207a6560008201527f726f206164647265737300000000000000000000000000000000000000000000602082015250565b7f4552433732313a206f776e657220717565727920666f72206e6f6e657869737460008201527f656e7420746f6b656e0000000000000000000000000000000000000000000000602082015250565b7f436f6c6c656374696f6e3a200000000000000000000000000000000000000000600082015250565b7f227d000000000000000000000000000000000000000000000000000000000000600082015250565b7f4552433732313a206d696e7420746f20746865207a65726f2061646472657373600082015250565b7f4552433732313a20617070726f76656420717565727920666f72206e6f6e657860008201527f697374656e7420746f6b656e0000000000000000000000000000000000000000602082015250565b7f4552433732313a207472616e73666572206f6620746f6b656e2074686174206960008201527f73206e6f74206f776e0000000000000000000000000000000000000000000000602082015250565b7f4552433732313a20617070726f76616c20746f2063757272656e74206f776e6560008201527f7200000000000000000000000000000000000000000000000000000000000000602082015250565b7f646174613a6170706c69636174696f6e2f6a736f6e3b6261736536342c000000600082015250565b7f222c2022636f6c6c656374696f6e223a20220000000000000000000000000000600082015250565b7f4552433732313a207472616e736665722063616c6c6572206973206e6f74206f60008201527f776e6572206e6f7220617070726f766564000000000000000000000000000000602082015250565b7f7b226e616d65223a20225054524e202300000000000000000000000000000000600082015250565b6140ac81613788565b81146140b757600080fd5b50565b6140c38161379a565b81146140ce57600080fd5b50565b6140da816137a6565b81146140e557600080fd5b50565b6140f1816137f2565b81146140fc57600080fd5b5056fe3c7465787420783d2231302220793d2238302220636c6173733d2262617365223e4142434445464748494a4b4c4d4e4f505152535455565758595a6162636465666768696a6b6c6d6e6f707172737475767778797a303132333435363738392b2f3c73766720786d6c6e733d22687474703a2f2f7777772e77332e6f72672f323030302f73766722207072657365727665417370656374526174696f3d22784d696e594d696e206d656574222076696577426f783d223020302034303020343030223e3c7374796c653e2e62617365207b2066696c6c3a2077686974653b20666f6e742d66616d696c793a2073657269663b20666f6e742d73697a653a20313470783b207d3c2f7374796c653e3c726563742077696474683d223130302522206865696768743d2231303025222066696c6c3d22626c61636b22202f3e3c7465787420783d2231302220793d2232302220636c6173733d2262617365223e3c7465787420783d2231302220793d2234302220636c6173733d2262617365223e3c7465787420783d2231302220793d2236302220636c6173733d2262617365223ea26469706673582212205557a40fb52adb132f49fd42e99b31f75105fe2ef9f113f4299c8ca9fdb1171864736f6c63430008070033",
  "linkReferences": {},
  "deployedLinkReferences": {}
}